Component: ARM Compiler 5.06 update 6 (build 750) Tool: armlink [4d35ed]

==============================================================================

Section Cross References

    main.o(i.main) refers to systick.o(i.systick_set) for systick_set
    main.o(i.main) refers to led.o(i.led_init) for led_init
    main.o(i.main) refers to print.o(i.print_config) for print_config
    main.o(i.main) refers to bitband.o(i.get_mem_infor) for get_mem_infor
    main.o(i.main) refers to printfa.o(i.__0printf) for __2printf
    main.o(i.main) refers to bitband.o(i.get_uid) for get_uid
    main.o(i.main) refers to dsp_test.o(i.dsp_test) for dsp_test
    main.o(i.main) refers to led.o(i.led_on) for led_on
    main.o(i.main) refers to systick.o(i.delay_ms) for delay_ms
    main.o(i.main) refers to led.o(i.led_off) for led_off
    main.o(i.main) refers to main.o(.data) for mem_infor
    main.o(i.main) refers to main.o(.bss) for uid
    system_gd32f10x.o(i.SystemInit) refers to system_gd32f10x.o(i.system_clock_config) for system_clock_config
    system_gd32f10x.o(i.SystemInit) refers to gd32f10x_misc.o(i.nvic_vector_table_set) for nvic_vector_table_set
    system_gd32f10x.o(i.system_clock_config) refers to system_gd32f10x.o(i.system_clock_96m_hxtal) for system_clock_96m_hxtal
    startup_gd32f10x_xd.o(RESET) refers to startup_gd32f10x_xd.o(STACK) for __initial_sp
    startup_gd32f10x_xd.o(RESET) refers to startup_gd32f10x_xd.o(.text) for Reset_Handler
    startup_gd32f10x_xd.o(RESET) refers to gd32f10x_it.o(i.NMI_Handler) for NMI_Handler
==============================================================================

Removing Unused input sections from the image.

    Removing gd32f10x_it.o(.rev16_text), (4 bytes).
    Removing gd32f10x_it.o(.revsh_text), (4 bytes).
    Removing gd32f10x_it.o(.rrx_text), (6 bytes).
    Removing main.o(.rev16_text), (4 bytes).
    Removing main.o(.revsh_text), (4 bytes).
    Removing main.o(.rrx_text), (6 bytes).
    Removing system_gd32f10x.o(.rev16_text), (4 bytes).
    Removing system_gd32f10x.o(.revsh_text), (4 bytes).
    Removing system_gd32f10x.o(.rrx_text), (6 bytes).
    Removing system_gd32f10x.o(.data), (4 bytes).
    Removing startup_gd32f10x_xd.o(HEAP), (512 bytes).
    Removing gd32f10x_adc.o(.rev16_text), (4 bytes).
    Removing gd32f10x_adc.o(.revsh_text), (4 bytes).
    Removing gd32f10x_adc.o(.rrx_text), (6 bytes).
    Removing gd32f10x_adc.o(i.adc_calibration_enable), (42 bytes).
    Removing gd32f10x_adc.o(i.adc_channel_length_config), (70 bytes).
    Removing gd32f10x_adc.o(i.adc_data_alignment_config), (22 bytes).
    Removing gd32f10x_adc.o(i.adc_deinit), (88 bytes).
==============================================================================

Image Symbol Table

    Local Symbols

    Symbol Name                              Value     Ov Type        Size  Object(Section)

    ../clib/microlib/division.c              0x00000000   Number         0  uldiv.o ABSOLUTE
    ../clib/microlib/division.c              0x00000000   Number         0  uidiv.o ABSOLUTE
    ../clib/microlib/division.c              0x00000000   Number         0  ldiv.o ABSOLUTE
    ../clib/microlib/errno.c                 0x00000000   Number         0  errno.o ABSOLUTE
    ../clib/microlib/init/entry.s            0x00000000   Number         0  entry7b.o ABSOLUTE
    ../clib/microlib/init/entry.s            0x00000000   Number         0  entry7a.o ABSOLUTE
    ../clib/microlib/init/entry.s            0x00000000   Number         0  entry5.o ABSOLUTE
    ../clib/microlib/init/entry.s            0x00000000   Number         0  entry2.o ABSOLUTE
    ../clib/microlib/init/entry.s            0x00000000   Number         0  entry.o ABSOLUTE
    ../clib/microlib/init/entry.s            0x00000000   Number         0  entry9b.o ABSOLUTE
    ../clib/microlib/init/entry.s            0x00000000   Number         0  entry10b.o ABSOLUTE
    ../clib/microlib/init/entry.s            0x00000000   Number         0  entry11a.o ABSOLUTE
    ../clib/microlib/init/entry.s            0x00000000   Number         0  entry11b.o ABSOLUTE
    ../clib/microlib/init/entry.s            0x00000000   Number         0  entry9a.o ABSOLUTE
    ../clib/microlib/init/entry.s            0x00000000   Number         0  entry8b.o ABSOLUTE
    ../clib/microlib/init/entry.s            0x00000000   Number         0  entry8a.o ABSOLUTE
    ../clib/microlib/init/entry.s            0x00000000   Number         0  entry10a.o ABSOLUTE
    ../clib/microlib/longlong.c              0x00000000   Number         0  llsshr.o ABSOLUTE
    ../clib/microlib/longlong.c              0x00000000   Number         0  llshl.o ABSOLUTE
    ../clib/microlib/longlong.c              0x00000000   Number         0  llushr.o ABSOLUTE
    ../clib/microlib/printf/printf.c         0x00000000   Number         0  printf4.o ABSOLUTE
    ../clib/microlib/printf/printf.c         0x00000000   Number         0  printf1.o ABSOLUTE
    ../clib/microlib/printf/printf.c         0x00000000   Number         0  printf5.o ABSOLUTE
    ../clib/microlib/printf/printf.c         0x00000000   Number         0  printf6.o ABSOLUTE
    ../clib/microlib/printf/printf.c         0x00000000   Number         0  printf7.o ABSOLUTE
    ../clib/microlib/printf/printf.c         0x00000000   Number         0  printf0.o ABSOLUTE
    ../clib/microlib/printf/printf.c         0x00000000   Number         0  printfb.o ABSOLUTE
    ../clib/microlib/printf/printf.c         0x00000000   Number         0  printf8.o ABSOLUTE
    ../clib/microlib/printf/printf.c         0x00000000   Number         0  printfa.o ABSOLUTE
    ../clib/microlib/printf/printf.c         0x00000000   Number         0  printf2.o ABSOLUTE
    ../clib/microlib/printf/printf.c         0x00000000   Number         0  printf3.o ABSOLUTE
    ../clib/microlib/printf/stubs.s          0x00000000   Number         0  stubs.o ABSOLUTE
    ../clib/microlib/stdio/streams.c         0x00000000   Number         0  stdout.o ABSOLUTE
    ../clib/microlib/string/memcpy.c         0x00000000   Number         0  memcpya.o ABSOLUTE
    ../clib/microlib/string/memcpy.c         0x00000000   Number         0  memcpyb.o ABSOLUTE
    ../clib/microlib/string/memset.c         0x00000000   Number         0  memseta.o ABSOLUTE
    ../clib/microlib/stubs.s                 0x00000000   Number         0  iusefp.o ABSOLUTE
    ../fplib/microlib/d2f.c                  0x00000000   Number         0  d2f.o ABSOLUTE
    ../fplib/microlib/f2d.c                  0x00000000   Number         0  f2d.o ABSOLUTE
    ../fplib/microlib/fpadd.c                0x00000000   Number         0  dadd.o ABSOLUTE
    ../fplib/microlib/fpadd.c                0x00000000   Number         0  fadd.o ABSOLUTE
    ../fplib/microlib/fpdiv.c                0x00000000   Number         0  ddiv.o ABSOLUTE
    ../fplib/microlib/fpdiv.c                0x00000000   Number         0  fdiv.o ABSOLUTE
    ../fplib/microlib/fpepilogue.c           0x00000000   Number         0  fepilogue.o ABSOLUTE
    ../fplib/microlib/fpepilogue.c           0x00000000   Number         0  depilogue.o ABSOLUTE
    ../fplib/microlib/fpfix.c                0x00000000   Number         0  ffixi.o ABSOLUTE
    ../fplib/microlib/fpfix.c                0x00000000   Number         0  dfixul.o ABSOLUTE
    ../fplib/microlib/fpfix.c                0x00000000   Number         0  ffixir.o ABSOLUTE
    ../fplib/microlib/fpfix.c                0x00000000   Number         0  dfixi.o ABSOLUTE
    ../fplib/microlib/fpfix.c                0x00000000   Number         0  ffixl.o ABSOLUTE
    ../fplib/microlib/fpfix.c                0x00000000   Number         0  ffixui.o ABSOLUTE
    ../fplib/microlib/fpflt.c                0x00000000   Number         0  dfltui.o ABSOLUTE
    ../fplib/microlib/fpflt.c                0x00000000   Number         0  fflti.o ABSOLUTE
    ../fplib/microlib/fpflt.c                0x00000000   Number         0  ffltui.o ABSOLUTE
    ../fplib/microlib/fpflt.c                0x00000000   Number         0  dflti.o ABSOLUTE
    ../fplib/microlib/fpmul.c                0x00000000   Number         0  dmul.o ABSOLUTE
    ../fplib/microlib/fpmul.c                0x00000000   Number         0  fmul.o ABSOLUTE
    ../fplib/microlib/fprnd.c                0x00000000   Number         0  frnd.o ABSOLUTE
    ../fplib/microlib/fpscalb.c              0x00000000   Number         0  fscalb.o ABSOLUTE
    ../fplib/microlib/fpscalb.c              0x00000000   Number         0  dscalb.o ABSOLUTE
    ../fplib/microlib/fpsqrt.c               0x00000000   Number         0  dsqrt.o ABSOLUTE
    ../fplib/microlib/fpsqrt.c               0x00000000   Number         0  fsqrt.o ABSOLUTE
    ../fplib/microlib/fpstat.c               0x00000000   Number         0  fpstat.o ABSOLUTE
    ../mathlib/cos.c                         0x00000000   Number         0  cos_x.o ABSOLUTE
    ../mathlib/cos.c                         0x00000000   Number         0  cos.o ABSOLUTE
    ../mathlib/cos_i.c                       0x00000000   Number         0  cos_i.o ABSOLUTE
    ../mathlib/dunder.c                      0x00000000   Number         0  dunder.o ABSOLUTE
    ../mathlib/expf.c                        0x00000000   Number         0  expf_x.o ABSOLUTE
    ../mathlib/expf.c                        0x00000000   Number         0  expf.o ABSOLUTE
    ../mathlib/fpclassify.c                  0x00000000   Number         0  fpclassify.o ABSOLUTE
    ../mathlib/fpclassifyf.c                 0x00000000   Number         0  fpclassifyf.o ABSOLUTE
    ../mathlib/funder.c                      0x00000000   Number         0  funder.o ABSOLUTE
    ../mathlib/log.c                         0x00000000   Number         0  log_x.o ABSOLUTE
    ../mathlib/log.c                         0x00000000   Number         0  log.o ABSOLUTE
    ../mathlib/logf.c                        0x00000000   Number         0  logf_x.o ABSOLUTE
    ../mathlib/logf.c                        0x00000000   Number         0  logf.o ABSOLUTE
    ../mathlib/poly.c                        0x00000000   Number         0  poly.o ABSOLUTE
    ../mathlib/powf.c                        0x00000000   Number         0  powf.o ABSOLUTE
    ../mathlib/powf.c                        0x00000000   Number         0  powf_x.o ABSOLUTE
    ../mathlib/qnan.c                        0x00000000   Number         0  qnan.o ABSOLUTE
    ../mathlib/rred.c                        0x00000000   Number         0  rred.o ABSOLUTE
    ../mathlib/sin.c                         0x00000000   Number         0  sin.o ABSOLUTE
    ../mathlib/sin.c                         0x00000000   Number         0  sin_x.o ABSOLUTE
    ../mathlib/sin_i.c                       0x00000000   Number         0  sin_i.o ABSOLUTE
    ../mathlib/sin_i.c                       0x00000000   Number         0  sin_i_x.o ABSOLUTE
    ../mathlib/sqrt.c                        0x00000000   Number         0  sqrt_x.o ABSOLUTE
    ../mathlib/sqrt.c                        0x00000000   Number         0  sqrt.o ABSOLUTE
    ../mathlib/sqrtf.c                       0x00000000   Number         0  sqrtf.o ABSOLUTE
    ../mathlib/sqrtf.c                       0x00000000   Number         0  sqrtf_x.o ABSOLUTE
    ../mathlib/tanhf.c                       0x00000000   Number         0  tanhf_x.o ABSOLUTE
    ../mathlib/tanhf.c                       0x00000000   Number         0  tanhf.o ABSOLUTE
    F:\Keil_MDK\pack\ARM\CMSIS\5.7.0\CMSIS\DSP\Source\BasicMathFunctions\BasicMathFunctions.c 0x00000000   Number         0  basicmathfunctions.o ABSOLUTE
    F:\Keil_MDK\pack\ARM\CMSIS\5.7.0\CMSIS\DSP\Source\BayesFunctions\BayesFunctions.c 0x00000000   Number         0  bayesfunctions.o ABSOLUTE
    F:\Keil_MDK\pack\ARM\CMSIS\5.7.0\CMSIS\DSP\Source\CommonTables\CommonTables.c 0x00000000   Number         0  commontables.o ABSOLUTE
    F:\Keil_MDK\pack\ARM\CMSIS\5.7.0\CMSIS\DSP\Source\ComplexMathFunctions\ComplexMathFunctions.c 0x00000000   Number         0  complexmathfunctions.o ABSOLUTE
    F:\Keil_MDK\pack\ARM\CMSIS\5.7.0\CMSIS\DSP\Source\ControllerFunctions\ControllerFunctions.c 0x00000000   Number         0  controllerfunctions.o ABSOLUTE
    F:\Keil_MDK\pack\ARM\CMSIS\5.7.0\CMSIS\DSP\Source\DistanceFunctions\DistanceFunctions.c 0x00000000   Number         0  distancefunctions.o ABSOLUTE
    F:\Keil_MDK\pack\ARM\CMSIS\5.7.0\CMSIS\DSP\Source\FastMathFunctions\FastMathFunctions.c 0x00000000   Number         0  fastmathfunctions.o ABSOLUTE
    F:\Keil_MDK\pack\ARM\CMSIS\5.7.0\CMSIS\DSP\Source\FilteringFunctions\FilteringFunctions.c 0x00000000   Number         0  filteringfunctions.o ABSOLUTE
    F:\Keil_MDK\pack\ARM\CMSIS\5.7.0\CMSIS\DSP\Source\MatrixFunctions\MatrixFunctions.c 0x00000000   Number         0  matrixfunctions.o ABSOLUTE
    F:\Keil_MDK\pack\ARM\CMSIS\5.7.0\CMSIS\DSP\Source\SVMFunctions\SVMFunctions.c 0x00000000   Number         0  svmfunctions.o ABSOLUTE
    F:\Keil_MDK\pack\ARM\CMSIS\5.7.0\CMSIS\DSP\Source\StatisticsFunctions\StatisticsFunctions.c 0x00000000   Number         0  statisticsfunctions.o ABSOLUTE
    F:\Keil_MDK\pack\ARM\CMSIS\5.7.0\CMSIS\DSP\Source\SupportFunctions\SupportFunctions.c 0x00000000   Number         0  supportfunctions.o ABSOLUTE
    F:\Keil_MDK\pack\ARM\CMSIS\5.7.0\CMSIS\DSP\Source\TransformFunctions\TransformFunctions.c 0x00000000   Number         0  transformfunctions.o ABSOLUTE
    F:\\Keil_MDK\\pack\\ARM\\CMSIS\\5.7.0\\CMSIS\\DSP\\Source\\BasicMathFunctions\\BasicMathFunctions.c 0x00000000   Number         0  basicmathfunctions.o ABSOLUTE
    F:\\Keil_MDK\\pack\\ARM\\CMSIS\\5.7.0\\CMSIS\\DSP\\Source\\BayesFunctions\\BayesFunctions.c 0x00000000   Number         0  bayesfunctions.o ABSOLUTE
    F:\\Keil_MDK\\pack\\ARM\\CMSIS\\5.7.0\\CMSIS\\DSP\\Source\\CommonTables\\CommonTables.c 0x00000000   Number         0  commontables.o ABSOLUTE
    F:\\Keil_MDK\\pack\\ARM\\CMSIS\\5.7.0\\CMSIS\\DSP\\Source\\ComplexMathFunctions\\ComplexMathFunctions.c 0x00000000   Number         0  complexmathfunctions.o ABSOLUTE
    F:\\Keil_MDK\\pack\\ARM\\CMSIS\\5.7.0\\CMSIS\\DSP\\Source\\ControllerFunctions\\ControllerFunctions.c 0x00000000   Number         0  controllerfunctions.o ABSOLUTE
    F:\\Keil_MDK\\pack\\ARM\\CMSIS\\5.7.0\\CMSIS\\DSP\\Source\\DistanceFunctions\\DistanceFunctions.c 0x00000000   Number         0  distancefunctions.o ABSOLUTE
    F:\\Keil_MDK\\pack\\ARM\\CMSIS\\5.7.0\\CMSIS\\DSP\\Source\\FastMathFunctions\\FastMathFunctions.c 0x00000000   Number         0  fastmathfunctions.o ABSOLUTE
    F:\\Keil_MDK\\pack\\ARM\\CMSIS\\5.7.0\\CMSIS\\DSP\\Source\\FilteringFunctions\\FilteringFunctions.c 0x00000000   Number         0  filteringfunctions.o ABSOLUTE
    F:\\Keil_MDK\\pack\\ARM\\CMSIS\\5.7.0\\CMSIS\\DSP\\Source\\MatrixFunctions\\MatrixFunctions.c 0x00000000   Number         0  matrixfunctions.o ABSOLUTE
    F:\\Keil_MDK\\pack\\ARM\\CMSIS\\5.7.0\\CMSIS\\DSP\\Source\\SVMFunctions\\SVMFunctions.c 0x00000000   Number         0  svmfunctions.o ABSOLUTE
    F:\\Keil_MDK\\pack\\ARM\\CMSIS\\5.7.0\\CMSIS\\DSP\\Source\\StatisticsFunctions\\StatisticsFunctions.c 0x00000000   Number         0  statisticsfunctions.o ABSOLUTE
    F:\\Keil_MDK\\pack\\ARM\\CMSIS\\5.7.0\\CMSIS\\DSP\\Source\\SupportFunctions\\SupportFunctions.c 0x00000000   Number         0  supportfunctions.o ABSOLUTE
    F:\\Keil_MDK\\pack\\ARM\\CMSIS\\5.7.0\\CMSIS\\DSP\\Source\\TransformFunctions\\TransformFunctions.c 0x00000000   Number         0  transformfunctions.o ABSOLUTE
    cdcmple.s                                0x00000000   Number         0  cdcmple.o ABSOLUTE
    cdrcmple.s                               0x00000000   Number         0  cdrcmple.o ABSOLUTE
    cfcmple.s                                0x00000000   Number         0  cfcmple.o ABSOLUTE
    cfrcmple.s                               0x00000000   Number         0  cfrcmple.o ABSOLUTE
    dc.s                                     0x00000000   Number         0  dc.o ABSOLUTE
    driver\\bitband.c                        0x00000000   Number         0  bitband.o ABSOLUTE
    driver\\dsp_test.c                       0x00000000   Number         0  dsp_test.o ABSOLUTE
    driver\\led.c                            0x00000000   Number         0  led.o ABSOLUTE
    driver\\print.c                          0x00000000   Number         0  print.o ABSOLUTE
    driver\\systick.c                        0x00000000   Number         0  systick.o ABSOLUTE
    driver\bitband.c                         0x00000000   Number         0  bitband.o ABSOLUTE
    driver\dsp_test.c                        0x00000000   Number         0  dsp_test.o ABSOLUTE
    driver\led.c                             0x00000000   Number         0  led.o ABSOLUTE
    driver\print.c                           0x00000000   Number         0  print.o ABSOLUTE
    driver\systick.c                         0x00000000   Number         0  systick.o ABSOLUTE
    handlers.s                               0x00000000   Number         0  handlers.o ABSOLUTE
    init.s                                   0x00000000   Number         0  init.o ABSOLUTE
    std\Source\gd32f10x_adc.c                0x00000000   Number         0  gd32f10x_adc.o ABSOLUTE
    std\Source\gd32f10x_bkp.c                0x00000000   Number         0  gd32f10x_bkp.o ABSOLUTE
    std\Source\gd32f10x_can.c                0x00000000   Number         0  gd32f10x_can.o ABSOLUTE
    std\Source\gd32f10x_crc.c                0x00000000   Number         0  gd32f10x_crc.o ABSOLUTE
    std\Source\gd32f10x_dac.c                0x00000000   Number         0  gd32f10x_dac.o ABSOLUTE
    std\Source\gd32f10x_dbg.c                0x00000000   Number         0  gd32f10x_dbg.o ABSOLUTE
    std\Source\gd32f10x_dma.c                0x00000000   Number         0  gd32f10x_dma.o ABSOLUTE
    std\Source\gd32f10x_enet.c               0x00000000   Number         0  gd32f10x_enet.o ABSOLUTE
    std\Source\gd32f10x_exmc.c               0x00000000   Number         0  gd32f10x_exmc.o ABSOLUTE
    std\Source\gd32f10x_exti.c               0x00000000   Number         0  gd32f10x_exti.o ABSOLUTE
    std\Source\gd32f10x_fmc.c                0x00000000   Number         0  gd32f10x_fmc.o ABSOLUTE
    std\Source\gd32f10x_fwdgt.c              0x00000000   Number         0  gd32f10x_fwdgt.o ABSOLUTE
    std\Source\gd32f10x_gpio.c               0x00000000   Number         0  gd32f10x_gpio.o ABSOLUTE
    std\Source\gd32f10x_i2c.c                0x00000000   Number         0  gd32f10x_i2c.o ABSOLUTE
    std\Source\gd32f10x_misc.c               0x00000000   Number         0  gd32f10x_misc.o ABSOLUTE
    std\Source\gd32f10x_pmu.c                0x00000000   Number         0  gd32f10x_pmu.o ABSOLUTE
    std\Source\gd32f10x_rcu.c                0x00000000   Number         0  gd32f10x_rcu.o ABSOLUTE
    std\Source\gd32f10x_rtc.c                0x00000000   Number         0  gd32f10x_rtc.o ABSOLUTE
    std\Source\gd32f10x_sdio.c               0x00000000   Number         0  gd32f10x_sdio.o ABSOLUTE
    std\Source\gd32f10x_spi.c                0x00000000   Number         0  gd32f10x_spi.o ABSOLUTE
    std\Source\gd32f10x_timer.c              0x00000000   Number         0  gd32f10x_timer.o ABSOLUTE
    std\Source\gd32f10x_usart.c              0x00000000   Number         0  gd32f10x_usart.o ABSOLUTE
    std\Source\gd32f10x_wwdgt.c              0x00000000   Number         0  gd32f10x_wwdgt.o ABSOLUTE
    std\\Source\\gd32f10x_adc.c              0x00000000   Number         0  gd32f10x_adc.o ABSOLUTE
    std\\Source\\gd32f10x_bkp.c              0x00000000   Number         0  gd32f10x_bkp.o ABSOLUTE
    std\\Source\\gd32f10x_can.c              0x00000000   Number         0  gd32f10x_can.o ABSOLUTE
    std\\Source\\gd32f10x_crc.c              0x00000000   Number         0  gd32f10x_crc.o ABSOLUTE
    std\\Source\\gd32f10x_dac.c              0x00000000   Number         0  gd32f10x_dac.o ABSOLUTE
    std\\Source\\gd32f10x_dbg.c              0x00000000   Number         0  gd32f10x_dbg.o ABSOLUTE
    std\\Source\\gd32f10x_dma.c              0x00000000   Number         0  gd32f10x_dma.o ABSOLUTE
    std\\Source\\gd32f10x_enet.c             0x00000000   Number         0  gd32f10x_enet.o ABSOLUTE
    std\\Source\\gd32f10x_exmc.c             0x00000000   Number         0  gd32f10x_exmc.o ABSOLUTE
    std\\Source\\gd32f10x_exti.c             0x00000000   Number         0  gd32f10x_exti.o ABSOLUTE
    std\\Source\\gd32f10x_fmc.c              0x00000000   Number         0  gd32f10x_fmc.o ABSOLUTE
    std\\Source\\gd32f10x_fwdgt.c            0x00000000   Number         0  gd32f10x_fwdgt.o ABSOLUTE
    std\\Source\\gd32f10x_gpio.c             0x00000000   Number         0  gd32f10x_gpio.o ABSOLUTE
    std\\Source\\gd32f10x_i2c.c              0x00000000   Number         0  gd32f10x_i2c.o ABSOLUTE
    std\\Source\\gd32f10x_misc.c             0x00000000   Number         0  gd32f10x_misc.o ABSOLUTE
    std\\Source\\gd32f10x_pmu.c              0x00000000   Number         0  gd32f10x_pmu.o ABSOLUTE
    std\\Source\\gd32f10x_rcu.c              0x00000000   Number         0  gd32f10x_rcu.o ABSOLUTE
    std\\Source\\gd32f10x_rtc.c              0x00000000   Number         0  gd32f10x_rtc.o ABSOLUTE
    std\\Source\\gd32f10x_sdio.c             0x00000000   Number         0  gd32f10x_sdio.o ABSOLUTE
    std\\Source\\gd32f10x_spi.c              0x00000000   Number         0  gd32f10x_spi.o ABSOLUTE
    std\\Source\\gd32f10x_timer.c            0x00000000   Number         0  gd32f10x_timer.o ABSOLUTE
    std\\Source\\gd32f10x_usart.c            0x00000000   Number         0  gd32f10x_usart.o ABSOLUTE
    std\\Source\\gd32f10x_wwdgt.c            0x00000000   Number         0  gd32f10x_wwdgt.o ABSOLUTE
    user\\gd32f10x_it.c                      0x00000000   Number         0  gd32f10x_it.o ABSOLUTE
    user\\main.c                             0x00000000   Number         0  main.o ABSOLUTE
    user\\system_gd32f10x.c                  0x00000000   Number         0  system_gd32f10x.o ABSOLUTE
    user\gd32f10x_it.c                       0x00000000   Number         0  gd32f10x_it.o ABSOLUTE
    user\main.c                              0x00000000   Number         0  main.o ABSOLUTE
    user\startup_gd32f10x_xd.s               0x00000000   Number         0  startup_gd32f10x_xd.o ABSOLUTE
    user\system_gd32f10x.c                   0x00000000   Number         0  system_gd32f10x.o ABSOLUTE
    RESET                                    0x08000000   Section      304  startup_gd32f10x_xd.o(RESET)
    .ARM.Collect$$$$00000000                 0x08000130   Section        0  entry.o(.ARM.Collect$$$$00000000)
    .ARM.Collect$$$$00000001                 0x08000130   Section        4  entry2.o(.ARM.Collect$$$$00000001)
    .ARM.Collect$$$$00000004                 0x08000134   Section        4  entry5.o(.ARM.Collect$$$$00000004)
    .ARM.Collect$$$$00000008                 0x08000138   Section        0  entry7b.o(.ARM.Collect$$$$00000008)
    .ARM.Collect$$$$0000000A                 0x08000138   Section        0  entry8b.o(.ARM.Collect$$$$0000000A)
    .ARM.Collect$$$$0000000B                 0x08000138   Section        8  entry9a.o(.ARM.Collect$$$$0000000B)
    .ARM.Collect$$$$0000000D                 0x08000140   Section        0  entry10a.o(.ARM.Collect$$$$0000000D)
    .ARM.Collect$$$$0000000F                 0x08000140   Section        0  entry11a.o(.ARM.Collect$$$$0000000F)
    .ARM.Collect$$$$00002712                 0x08000140   Section        4  entry2.o(.ARM.Collect$$$$00002712)
    __lit__00000000                          0x08000140   Data           4  entry2.o(.ARM.Collect$$$$00002712)
    .text                                    0x08000144   Section       36  startup_gd32f10x_xd.o(.text)
    .text                                    0x08000168   Section        0  uldiv.o(.text)
    .text                                    0x080001ca   Section        0  llshl.o(.text)
    .text                                    0x080001e8   Section        0  llsshr.o(.text)
    .text                                    0x0800020c   Section        0  fadd.o(.text)
    .text                                    0x080002bc   Section        0  fmul.o(.text)
    .text                                    0x08000320   Section        0  fdiv.o(.text)
    .text                                    0x0800039c   Section        0  dadd.o(.text)
    .text                                    0x080004ea   Section        0  dmul.o(.text)
    .text                                    0x080005ce   Section        0  ddiv.o(.text)
    .text                                    0x080006ac   Section        0  fflti.o(.text)
    .text                                    0x080006be   Section        0  dflti.o(.text)
    .text                                    0x080006e0   Section        0  dfltui.o(.text)
    .text                                    0x080006fa   Section        0  f2d.o(.text)
    .text                                    0x08000720   Section        0  d2f.o(.text)
    .text                                    0x08000758   Section        0  uidiv.o(.text)
    .text                                    0x08000784   Section        0  llushr.o(.text)
    .text                                    0x080007a4   Section        0  iusefp.o(.text)
    .text                                    0x080007a4   Section        0  fepilogue.o(.text)
    .text                                    0x08000812   Section        0  depilogue.o(.text)
    .text                                    0x080008cc   Section        0  dscalb.o(.text)
    .text                                    0x080008fa   Section        0  dsqrt.o(.text)
    .text                                    0x0800099c   Section        0  dfixul.o(.text)
    .text                                    0x080009cc   Section       48  cdrcmple.o(.text)
    .text                                    0x080009fc   Section       36  init.o(.text)
    .text                                    0x08000a20   Section        0  dfixi.o(.text)
    i.BusFault_Handler                       0x08000a5e   Section        0  gd32f10x_it.o(i.BusFault_Handler)
    i.DebugMon_Handler                       0x08000a62   Section        0  gd32f10x_it.o(i.DebugMon_Handler)
    i.HardFault_Handler                      0x08000a64   Section        0  gd32f10x_it.o(i.HardFault_Handler)
    i.MemManage_Handler                      0x08000a68   Section        0  gd32f10x_it.o(i.MemManage_Handler)
    i.NMI_Handler                            0x08000a6c   Section        0  gd32f10x_it.o(i.NMI_Handler)
    i.PendSV_Handler                         0x08000a6e   Section        0  gd32f10x_it.o(i.PendSV_Handler)
    i.SVC_Handler                            0x08000a70   Section        0  gd32f10x_it.o(i.SVC_Handler)
    i.SystemInit                             0x08000a74   Section        0  system_gd32f10x.o(i.SystemInit)
    i.UsageFault_Handler                     0x08000b48   Section        0  gd32f10x_it.o(i.UsageFault_Handler)
    i.__0printf                              0x08000b4c   Section        0  printfa.o(i.__0printf)
    i.__ARM_fpclassify                       0x08000b6c   Section        0  fpclassify.o(i.__ARM_fpclassify)
    i.__ieee754_rem_pio2                     0x08000b94   Section        0  rred.o(i.__ieee754_rem_pio2)
    i.__kernel_cos                           0x08000f1c   Section        0  cos_i.o(i.__kernel_cos)
    i.__kernel_poly                          0x08001018   Section        0  poly.o(i.__kernel_poly)
    i.__kernel_sin                           0x080010c4   Section        0  sin_i.o(i.__kernel_sin)
    i.__mathlib_dbl_infnan                   0x080011b0   Section        0  dunder.o(i.__mathlib_dbl_infnan)
    i.__mathlib_dbl_invalid                  0x080011b6   Section        0  dunder.o(i.__mathlib_dbl_invalid)
    i.__mathlib_dbl_underflow                0x080011c4   Section        0  dunder.o(i.__mathlib_dbl_underflow)
    i.__scatterload_copy                     0x080011d4   Section       14  handlers.o(i.__scatterload_copy)
    i.__scatterload_null                     0x080011e2   Section        2  handlers.o(i.__scatterload_null)
    i.__scatterload_zeroinit                 0x080011e4   Section       14  handlers.o(i.__scatterload_zeroinit)
    i.__set_errno                            0x080011f4   Section        0  errno.o(i.__set_errno)
    i._fp_digits                             0x08001200   Section        0  printfa.o(i._fp_digits)
    _fp_digits                               0x08001201   Thumb Code   366  printfa.o(i._fp_digits)
    i._printf_core                           0x08001384   Section        0  printfa.o(i._printf_core)
    _printf_core                             0x08001385   Thumb Code  1744  printfa.o(i._printf_core)
    i._printf_post_padding                   0x08001a60   Section        0  printfa.o(i._printf_post_padding)
    _printf_post_padding                     0x08001a61   Thumb Code    36  printfa.o(i._printf_post_padding)
    i._printf_pre_padding                    0x08001a84   Section        0  printfa.o(i._printf_pre_padding)
    _printf_pre_padding                      0x08001a85   Thumb Code    46  printfa.o(i._printf_pre_padding)
    i.cos                                    0x08001ab4   Section        0  cos.o(i.cos)
    i.delay_ms                               0x08001b50   Section        0  systick.o(i.delay_ms)
    i.delay_nms                              0x08001b7c   Section        0  systick.o(i.delay_nms)
    delay_nms                                0x08001b7d   Thumb Code    74  systick.o(i.delay_nms)
    i.dsp_test                               0x08001bcc   Section        0  dsp_test.o(i.dsp_test)
    i.fputc                                  0x08001d40   Section        0  print.o(i.fputc)
    i.get_mem_infor                          0x08001d64   Section        0  bitband.o(i.get_mem_infor)
    i.get_uid                                0x08001d78   Section        0  bitband.o(i.get_uid)
    i.gpio_init                              0x08001d94   Section        0  gd32f10x_gpio.o(i.gpio_init)
    i.led_init                               0x08001e40   Section        0  led.o(i.led_init)
    i.led_off                                0x08001ea8   Section        0  led.o(i.led_off)
    i.led_on                                 0x08001ecc   Section        0  led.o(i.led_on)
    i.main                                   0x08001ef0   Section        0  main.o(i.main)
    i.nvic_vector_table_set                  0x08001fa8   Section        0  gd32f10x_misc.o(i.nvic_vector_table_set)
    i.print_config                           0x08001fc0   Section        0  print.o(i.print_config)
    i.rcu_clock_freq_get                     0x08002040   Section        0  gd32f10x_rcu.o(i.rcu_clock_freq_get)
    i.rcu_periph_clock_enable                0x08002164   Section        0  gd32f10x_rcu.o(i.rcu_periph_clock_enable)
    i.sin                                    0x08002184   Section        0  sin.o(i.sin)
    i.sqrt                                   0x08002224   Section        0  sqrt.o(i.sqrt)
    i.system_clock_96m_hxtal                 0x08002270   Section        0  system_gd32f10x.o(i.system_clock_96m_hxtal)
    system_clock_96m_hxtal                   0x08002271   Thumb Code   180  system_gd32f10x.o(i.system_clock_96m_hxtal)
    i.system_clock_config                    0x0800232c   Section        0  system_gd32f10x.o(i.system_clock_config)
    system_clock_config                      0x0800232d   Thumb Code     8  system_gd32f10x.o(i.system_clock_config)
    i.systick_clksource_set                  0x08002334   Section        0  gd32f10x_misc.o(i.systick_clksource_set)
    i.systick_set                            0x0800235c   Section        0  systick.o(i.systick_set)
    i.usart_baudrate_set                     0x08002380   Section        0  gd32f10x_usart.o(i.usart_baudrate_set)
    i.usart_data_transmit                    0x08002410   Section        0  gd32f10x_usart.o(i.usart_data_transmit)
    i.usart_enable                           0x08002418   Section        0  gd32f10x_usart.o(i.usart_enable)
    i.usart_flag_get                         0x08002422   Section        0  gd32f10x_usart.o(i.usart_flag_get)
    i.usart_hardware_flow_cts_config         0x08002440   Section        0  gd32f10x_usart.o(i.usart_hardware_flow_cts_config)
    i.usart_hardware_flow_rts_config         0x08002450   Section        0  gd32f10x_usart.o(i.usart_hardware_flow_rts_config)
    i.usart_parity_config                    0x08002460   Section        0  gd32f10x_usart.o(i.usart_parity_config)
    i.usart_receive_config                   0x08002470   Section        0  gd32f10x_usart.o(i.usart_receive_config)
    i.usart_stop_bit_set                     0x08002480   Section        0  gd32f10x_usart.o(i.usart_stop_bit_set)
    i.usart_transmit_config                  0x08002490   Section        0  gd32f10x_usart.o(i.usart_transmit_config)
    i.usart_word_length_set                  0x080024a0   Section        0  gd32f10x_usart.o(i.usart_word_length_set)
    .constdata                               0x080024b0   Section       48  cos_i.o(.constdata)
    C                                        0x080024b0   Data          48  cos_i.o(.constdata)
    .constdata                               0x080024e0   Section      200  rred.o(.constdata)
    pio2s                                    0x080024e0   Data          48  rred.o(.constdata)
    twooverpi                                0x08002510   Data         152  rred.o(.constdata)
    .constdata                               0x080025a8   Section       40  sin_i.o(.constdata)
    S                                        0x080025a8   Data          40  sin_i.o(.constdata)
    .data                                    0x20000000   Section        4  main.o(.data)
    .data                                    0x20000004   Section        8  systick.o(.data)
    .data                                    0x2000000c   Section        8  dsp_test.o(.data)
    .data                                    0x20000014   Section        4  stdout.o(.data)
    .data                                    0x20000018   Section        4  errno.o(.data)
    _errno                                   0x20000018   Data           4  errno.o(.data)
    .bss                                     0x2000001c   Section       12  main.o(.bss)
    .bss                                     0x20000028   Section     1024  dsp_test.o(.bss)
    STACK                                    0x20000428   Section     1024  startup_gd32f10x_xd.o(STACK)

    Global Symbols

    Symbol Name                              Value     Ov Type        Size  Object(Section)

    BuildAttributes$$THM_ISAv4$P$D$K$B$S$PE$A:L22UL41UL21$X:L11$S22US41US21$IEEE1$IW$USESV6$~STKCKD$USESV7$~SHL$OTIME$ROPI$IEEEX$EBA8$MICROLIB$REQ8$PRES8$EABIv2 0x00000000   Number         0  anon$$obj.o ABSOLUTE
    __ARM_use_no_argv                        0x00000000   Number         0  main.o ABSOLUTE
    _printf_a                                0x00000000   Number         0  stubs.o ABSOLUTE
    _printf_c                                0x00000000   Number         0  stubs.o ABSOLUTE
    _printf_charcount                        0x00000000   Number         0  stubs.o ABSOLUTE
    _printf_d                                0x00000000   Number         0  stubs.o ABSOLUTE
    _printf_e                                0x00000000   Number         0  stubs.o ABSOLUTE
    _printf_f                                0x00000000   Number         0  stubs.o ABSOLUTE
    _printf_flags                            0x00000000   Number         0  stubs.o ABSOLUTE
    _printf_fp_dec                           0x00000000   Number         0  stubs.o ABSOLUTE
    _printf_fp_hex                           0x00000000   Number         0  stubs.o ABSOLUTE
    _printf_g                                0x00000000   Number         0  stubs.o ABSOLUTE
    _printf_i                                0x00000000   Number         0  stubs.o ABSOLUTE
    _printf_int_dec                          0x00000000   Number         0  stubs.o ABSOLUTE
    _printf_l                                0x00000000   Number         0  stubs.o ABSOLUTE
    _printf_lc                               0x00000000   Number         0  stubs.o ABSOLUTE
    _printf_ll                               0x00000000   Number         0  stubs.o ABSOLUTE
    _printf_lld                              0x00000000   Number         0  stubs.o ABSOLUTE
    _printf_lli                              0x00000000   Number         0  stubs.o ABSOLUTE
    _printf_llo                              0x00000000   Number         0  stubs.o ABSOLUTE
    _printf_llu                              0x00000000   Number         0  stubs.o ABSOLUTE
    _printf_llx                              0x00000000   Number         0  stubs.o ABSOLUTE
    _printf_longlong_dec                     0x00000000   Number         0  stubs.o ABSOLUTE
    _printf_longlong_hex                     0x00000000   Number         0  stubs.o ABSOLUTE
    _printf_longlong_oct                     0x00000000   Number         0  stubs.o ABSOLUTE
    _printf_ls                               0x00000000   Number         0  stubs.o ABSOLUTE
    _printf_mbtowc                           0x00000000   Number         0  stubs.o ABSOLUTE
    _printf_n                                0x00000000   Number         0  stubs.o ABSOLUTE
    _printf_o                                0x00000000   Number         0  stubs.o ABSOLUTE
    _printf_p                                0x00000000   Number         0  stubs.o ABSOLUTE
    _printf_percent                          0x00000000   Number         0  stubs.o ABSOLUTE
    _printf_pre_padding                      0x00000000   Number         0  stubs.o ABSOLUTE
    _printf_return_value                     0x00000000   Number         0  stubs.o ABSOLUTE
    _printf_s                                0x00000000   Number         0  stubs.o ABSOLUTE
    _printf_sizespec                         0x00000000   Number         0  stubs.o ABSOLUTE
    _printf_str                              0x00000000   Number         0  stubs.o ABSOLUTE
    _printf_truncate_signed                  0x00000000   Number         0  stubs.o ABSOLUTE
    _printf_truncate_unsigned                0x00000000   Number         0  stubs.o ABSOLUTE
    _printf_u                                0x00000000   Number         0  stubs.o ABSOLUTE
    _printf_wc                               0x00000000   Number         0  stubs.o ABSOLUTE
    _printf_wctomb                           0x00000000   Number         0  stubs.o ABSOLUTE
    _printf_widthprec                        0x00000000   Number         0  stubs.o ABSOLUTE
    _printf_x                                0x00000000   Number         0  stubs.o ABSOLUTE
    __cpp_initialize__aeabi_                  - Undefined Weak Reference
    __cxa_finalize                            - Undefined Weak Reference
    __decompress                              - Undefined Weak Reference
    _clock_init                               - Undefined Weak Reference
    _microlib_exit                            - Undefined Weak Reference
    __Vectors_Size                           0x00000130   Number         0  startup_gd32f10x_xd.o ABSOLUTE
    __Vectors                                0x08000000   Data           4  startup_gd32f10x_xd.o(RESET)
    __Vectors_End                            0x08000130   Data           0  startup_gd32f10x_xd.o(RESET)
    __main                                   0x08000131   Thumb Code     0  entry.o(.ARM.Collect$$$$00000000)
    _main_stk                                0x08000131   Thumb Code     0  entry2.o(.ARM.Collect$$$$00000001)
    _main_scatterload                        0x08000135   Thumb Code     0  entry5.o(.ARM.Collect$$$$00000004)
    __main_after_scatterload                 0x08000139   Thumb Code     0  entry5.o(.ARM.Collect$$$$00000004)
    _main_clock                              0x08000139   Thumb Code     0  entry7b.o(.ARM.Collect$$$$00000008)
    _main_cpp_init                           0x08000139   Thumb Code     0  entry8b.o(.ARM.Collect$$$$0000000A)
    _main_init                               0x08000139   Thumb Code     0  entry9a.o(.ARM.Collect$$$$0000000B)
    __rt_final_cpp                           0x08000141   Thumb Code     0  entry10a.o(.ARM.Collect$$$$0000000D)
    __rt_final_exit                          0x08000141   Thumb Code     0  entry11a.o(.ARM.Collect$$$$0000000F)
    Reset_Handler                            0x08000145   Thumb Code     8  startup_gd32f10x_xd.o(.text)
    SysTick_Handler                          0x0800015d   Thumb Code     2  startup_gd32f10x_xd.o(.text)
    ADC0_1_IRQHandler                        0x0800015f   Thumb Code     0  startup_gd32f10x_xd.o(.text)
    ADC2_IRQHandler                          0x0800015f   Thumb Code     0  startup_gd32f10x_xd.o(.text)
    CAN0_EWMC_IRQHandler                     0x0800015f   Thumb Code     0  startup_gd32f10x_xd.o(.text)
    CAN0_RX1_IRQHandler                      0x0800015f   Thumb Code     0  startup_gd32f10x_xd.o(.text)
    DMA0_Channel0_IRQHandler                 0x0800015f   Thumb Code     0  startup_gd32f10x_xd.o(.text)
    DMA0_Channel1_IRQHandler                 0x0800015f   Thumb Code     0  startup_gd32f10x_xd.o(.text)
    DMA0_Channel2_IRQHandler                 0x0800015f   Thumb Code     0  startup_gd32f10x_xd.o(.text)
    DMA0_Channel3_IRQHandler                 0x0800015f   Thumb Code     0  startup_gd32f10x_xd.o(.text)
    DMA0_Channel4_IRQHandler                 0x0800015f   Thumb Code     0  startup_gd32f10x_xd.o(.text)
    DMA0_Channel5_IRQHandler                 0x0800015f   Thumb Code     0  startup_gd32f10x_xd.o(.text)
    DMA0_Channel6_IRQHandler                 0x0800015f   Thumb Code     0  startup_gd32f10x_xd.o(.text)
    DMA1_Channel0_IRQHandler                 0x0800015f   Thumb Code     0  startup_gd32f10x_xd.o(.text)
    DMA1_Channel1_IRQHandler                 0x0800015f   Thumb Code     0  startup_gd32f10x_xd.o(.text)
    DMA1_Channel2_IRQHandler                 0x0800015f   Thumb Code     0  startup_gd32f10x_xd.o(.text)
    DMA1_Channel3_4_IRQHandler               0x0800015f   Thumb Code     0  startup_gd32f10x_xd.o(.text)
    EXMC_IRQHandler                          0x0800015f   Thumb Code     0  startup_gd32f10x_xd.o(.text)
    EXTI0_IRQHandler                         0x0800015f   Thumb Code     0  startup_gd32f10x_xd.o(.text)
    EXTI10_15_IRQHandler                     0x0800015f   Thumb Code     0  startup_gd32f10x_xd.o(.text)
    EXTI1_IRQHandler                         0x0800015f   Thumb Code     0  startup_gd32f10x_xd.o(.text)
    EXTI2_IRQHandler                         0x0800015f   Thumb Code     0  startup_gd32f10x_xd.o(.text)
    EXTI3_IRQHandler                         0x0800015f   Thumb Code     0  startup_gd32f10x_xd.o(.text)
    EXTI4_IRQHandler                         0x0800015f   Thumb Code     0  startup_gd32f10x_xd.o(.text)
    EXTI5_9_IRQHandler                       0x0800015f   Thumb Code     0  startup_gd32f10x_xd.o(.text)
    FMC_IRQHandler                           0x0800015f   Thumb Code     0  startup_gd32f10x_xd.o(.text)
    I2C0_ER_IRQHandler                       0x0800015f   Thumb Code     0  startup_gd32f10x_xd.o(.text)
    I2C0_EV_IRQHandler                       0x0800015f   Thumb Code     0  startup_gd32f10x_xd.o(.text)
    I2C1_ER_IRQHandler                       0x0800015f   Thumb Code     0  startup_gd32f10x_xd.o(.text)
    I2C1_EV_IRQHandler                       0x0800015f   Thumb Code     0  startup_gd32f10x_xd.o(.text)
    LVD_IRQHandler                           0x0800015f   Thumb Code     0  startup_gd32f10x_xd.o(.text)
    RCU_IRQHandler                           0x0800015f   Thumb Code     0  startup_gd32f10x_xd.o(.text)
    RTC_Alarm_IRQHandler                     0x0800015f   Thumb Code     0  startup_gd32f10x_xd.o(.text)
    RTC_IRQHandler                           0x0800015f   Thumb Code     0  startup_gd32f10x_xd.o(.text)
    SDIO_IRQHandler                          0x0800015f   Thumb Code     0  startup_gd32f10x_xd.o(.text)
    SPI0_IRQHandler                          0x0800015f   Thumb Code     0  startup_gd32f10x_xd.o(.text)
    SPI1_IRQHandler                          0x0800015f   Thumb Code     0  startup_gd32f10x_xd.o(.text)
    SPI2_IRQHandler                          0x0800015f   Thumb Code     0  startup_gd32f10x_xd.o(.text)
    TAMPER_IRQHandler                        0x0800015f   Thumb Code     0  startup_gd32f10x_xd.o(.text)
    TIMER0_BRK_TIMER8_IRQHandler             0x0800015f   Thumb Code     0  startup_gd32f10x_xd.o(.text)
    TIMER0_Channel_IRQHandler                0x0800015f   Thumb Code     0  startup_gd32f10x_xd.o(.text)
    TIMER0_TRG_CMT_TIMER10_IRQHandler        0x0800015f   Thumb Code     0  startup_gd32f10x_xd.o(.text)
    TIMER0_UP_TIMER9_IRQHandler              0x0800015f   Thumb Code     0  startup_gd32f10x_xd.o(.text)
    TIMER1_IRQHandler                        0x0800015f   Thumb Code     0  startup_gd32f10x_xd.o(.text)
    TIMER2_IRQHandler                        0x0800015f   Thumb Code     0  startup_gd32f10x_xd.o(.text)
    TIMER3_IRQHandler                        0x0800015f   Thumb Code     0  startup_gd32f10x_xd.o(.text)
    TIMER4_IRQHandler                        0x0800015f   Thumb Code     0  startup_gd32f10x_xd.o(.text)
    TIMER5_IRQHandler                        0x0800015f   Thumb Code     0  startup_gd32f10x_xd.o(.text)
    TIMER6_IRQHandler                        0x0800015f   Thumb Code     0  startup_gd32f10x_xd.o(.text)
    TIMER7_BRK_TIMER11_IRQHandler            0x0800015f   Thumb Code     0  startup_gd32f10x_xd.o(.text)
    TIMER7_Channel_IRQHandler                0x0800015f   Thumb Code     0  startup_gd32f10x_xd.o(.text)
    TIMER7_TRG_CMT_TIMER13_IRQHandler        0x0800015f   Thumb Code     0  startup_gd32f10x_xd.o(.text)
    TIMER7_UP_TIMER12_IRQHandler             0x0800015f   Thumb Code     0  startup_gd32f10x_xd.o(.text)
    UART3_IRQHandler                         0x0800015f   Thumb Code     0  startup_gd32f10x_xd.o(.text)
    UART4_IRQHandler                         0x0800015f   Thumb Code     0  startup_gd32f10x_xd.o(.text)
    USART0_IRQHandler                        0x0800015f   Thumb Code     0  startup_gd32f10x_xd.o(.text)
    USART1_IRQHandler                        0x0800015f   Thumb Code     0  startup_gd32f10x_xd.o(.text)
    USART2_IRQHandler                        0x0800015f   Thumb Code     0  startup_gd32f10x_xd.o(.text)
    USBD_HP_CAN0_TX_IRQHandler               0x0800015f   Thumb Code     0  startup_gd32f10x_xd.o(.text)
    USBD_LP_CAN0_RX0_IRQHandler              0x0800015f   Thumb Code     0  startup_gd32f10x_xd.o(.text)
    USBD_WKUP_IRQHandler                     0x0800015f   Thumb Code     0  startup_gd32f10x_xd.o(.text)
    WWDGT_IRQHandler                         0x0800015f   Thumb Code     0  startup_gd32f10x_xd.o(.text)
    __aeabi_uldivmod                         0x08000169   Thumb Code    98  uldiv.o(.text)
    __aeabi_llsl                             0x080001cb   Thumb Code    30  llshl.o(.text)
    _ll_shift_l                              0x080001cb   Thumb Code     0  llshl.o(.text)
    __aeabi_lasr                             0x080001e9   Thumb Code    36  llsshr.o(.text)
    _ll_sshift_r                             0x080001e9   Thumb Code     0  llsshr.o(.text)
    __aeabi_fadd                             0x0800020d   Thumb Code   164  fadd.o(.text)
    __aeabi_fsub                             0x080002b1   Thumb Code     6  fadd.o(.text)
    __aeabi_frsub                            0x080002b7   Thumb Code     6  fadd.o(.text)
    __aeabi_fmul                             0x080002bd   Thumb Code   100  fmul.o(.text)
    __aeabi_fdiv                             0x08000321   Thumb Code   124  fdiv.o(.text)
    __aeabi_dadd                             0x0800039d   Thumb Code   322  dadd.o(.text)
    __aeabi_dsub                             0x080004df   Thumb Code     6  dadd.o(.text)
    __aeabi_drsub                            0x080004e5   Thumb Code     6  dadd.o(.text)
    __aeabi_dmul                             0x080004eb   Thumb Code   228  dmul.o(.text)
    __aeabi_ddiv                             0x080005cf   Thumb Code   222  ddiv.o(.text)
    __aeabi_i2f                              0x080006ad   Thumb Code    18  fflti.o(.text)
    __aeabi_i2d                              0x080006bf   Thumb Code    34  dflti.o(.text)
    __aeabi_ui2d                             0x080006e1   Thumb Code    26  dfltui.o(.text)
    __aeabi_f2d                              0x080006fb   Thumb Code    38  f2d.o(.text)
    __aeabi_d2f                              0x08000721   Thumb Code    56  d2f.o(.text)
    __aeabi_uidiv                            0x08000759   Thumb Code     0  uidiv.o(.text)
    __aeabi_uidivmod                         0x08000759   Thumb Code    44  uidiv.o(.text)
    __aeabi_llsr                             0x08000785   Thumb Code    32  llushr.o(.text)
    _ll_ushift_r                             0x08000785   Thumb Code     0  llushr.o(.text)
    __I$use$fp                               0x080007a5   Thumb Code     0  iusefp.o(.text)
    _float_round                             0x080007a5   Thumb Code    18  fepilogue.o(.text)
    _float_epilogue                          0x080007b7   Thumb Code    92  fepilogue.o(.text)
    _double_round                            0x08000813   Thumb Code    30  depilogue.o(.text)
    _double_epilogue                         0x08000831   Thumb Code   156  depilogue.o(.text)
    __ARM_scalbn                             0x080008cd   Thumb Code    46  dscalb.o(.text)
    scalbn                                   0x080008cd   Thumb Code     0  dscalb.o(.text)
    _dsqrt                                   0x080008fb   Thumb Code   162  dsqrt.o(.text)
    __aeabi_d2ulz                            0x0800099d   Thumb Code    48  dfixul.o(.text)
    __aeabi_cdrcmple                         0x080009cd   Thumb Code    48  cdrcmple.o(.text)
    __scatterload                            0x080009fd   Thumb Code    28  init.o(.text)
    __scatterload_rt2                        0x080009fd   Thumb Code     0  init.o(.text)
    __aeabi_d2iz                             0x08000a21   Thumb Code    62  dfixi.o(.text)
    BusFault_Handler                         0x08000a5f   Thumb Code     4  gd32f10x_it.o(i.BusFault_Handler)
    DebugMon_Handler                         0x08000a63   Thumb Code     2  gd32f10x_it.o(i.DebugMon_Handler)
    HardFault_Handler                        0x08000a65   Thumb Code     4  gd32f10x_it.o(i.HardFault_Handler)
    MemManage_Handler                        0x08000a69   Thumb Code     4  gd32f10x_it.o(i.MemManage_Handler)
    NMI_Handler                              0x08000a6d   Thumb Code     2  gd32f10x_it.o(i.NMI_Handler)
    PendSV_Handler                           0x08000a6f   Thumb Code     2  gd32f10x_it.o(i.PendSV_Handler)
    SVC_Handler                              0x08000a71   Thumb Code     2  gd32f10x_it.o(i.SVC_Handler)
    SystemInit                               0x08000a75   Thumb Code   196  system_gd32f10x.o(i.SystemInit)
    UsageFault_Handler                       0x08000b49   Thumb Code     4  gd32f10x_it.o(i.UsageFault_Handler)
    __0printf                                0x08000b4d   Thumb Code    22  printfa.o(i.__0printf)
    __1printf                                0x08000b4d   Thumb Code     0  printfa.o(i.__0printf)
    __2printf                                0x08000b4d   Thumb Code     0  printfa.o(i.__0printf)
    __c89printf                              0x08000b4d   Thumb Code     0  printfa.o(i.__0printf)
    printf                                   0x08000b4d   Thumb Code     0  printfa.o(i.__0printf)
    __ARM_fpclassify                         0x08000b6d   Thumb Code    40  fpclassify.o(i.__ARM_fpclassify)
    __ieee754_rem_pio2                       0x08000b95   Thumb Code   828  rred.o(i.__ieee754_rem_pio2)
    __kernel_cos                             0x08000f1d   Thumb Code   230  cos_i.o(i.__kernel_cos)
    __kernel_poly                            0x08001019   Thumb Code   170  poly.o(i.__kernel_poly)
    __kernel_sin                             0x080010c5   Thumb Code   224  sin_i.o(i.__kernel_sin)
    __mathlib_dbl_infnan                     0x080011b1   Thumb Code     6  dunder.o(i.__mathlib_dbl_infnan)
    __mathlib_dbl_invalid                    0x080011b7   Thumb Code    12  dunder.o(i.__mathlib_dbl_invalid)
    __mathlib_dbl_underflow                  0x080011c5   Thumb Code    10  dunder.o(i.__mathlib_dbl_underflow)
    __scatterload_copy                       0x080011d5   Thumb Code    14  handlers.o(i.__scatterload_copy)
    __scatterload_null                       0x080011e3   Thumb Code     2  handlers.o(i.__scatterload_null)
    __scatterload_zeroinit                   0x080011e5   Thumb Code    14  handlers.o(i.__scatterload_zeroinit)
    __set_errno                              0x080011f5   Thumb Code     6  errno.o(i.__set_errno)
    cos                                      0x08001ab5   Thumb Code   148  cos.o(i.cos)
    delay_ms                                 0x08001b51   Thumb Code    42  systick.o(i.delay_ms)
    dsp_test                                 0x08001bcd   Thumb Code   326  dsp_test.o(i.dsp_test)
    fputc                                    0x08001d41   Thumb Code    32  print.o(i.fputc)
    get_mem_infor                            0x08001d65   Thumb Code    14  bitband.o(i.get_mem_infor)
    get_uid                                  0x08001d79   Thumb Code    24  bitband.o(i.get_uid)
    gpio_init                                0x08001d95   Thumb Code   172  gd32f10x_gpio.o(i.gpio_init)
    led_init                                 0x08001e41   Thumb Code    92  led.o(i.led_init)
    led_off                                  0x08001ea9   Thumb Code    26  led.o(i.led_off)
    led_on                                   0x08001ecd   Thumb Code    26  led.o(i.led_on)
    main                                     0x08001ef1   Thumb Code    92  main.o(i.main)
    nvic_vector_table_set                    0x08001fa9   Thumb Code    16  gd32f10x_misc.o(i.nvic_vector_table_set)
    print_config                             0x08001fc1   Thumb Code   120  print.o(i.print_config)
    rcu_clock_freq_get                       0x08002041   Thumb Code   264  gd32f10x_rcu.o(i.rcu_clock_freq_get)
    rcu_periph_clock_enable                  0x08002165   Thumb Code    28  gd32f10x_rcu.o(i.rcu_periph_clock_enable)
    sin                                      0x08002185   Thumb Code   150  sin.o(i.sin)
    sqrt                                     0x08002225   Thumb Code    76  sqrt.o(i.sqrt)
    systick_clksource_set                    0x08002335   Thumb Code    40  gd32f10x_misc.o(i.systick_clksource_set)
    systick_set                              0x0800235d   Thumb Code    26  systick.o(i.systick_set)
    usart_baudrate_set                       0x08002381   Thumb Code   136  gd32f10x_usart.o(i.usart_baudrate_set)
    usart_data_transmit                      0x08002411   Thumb Code     8  gd32f10x_usart.o(i.usart_data_transmit)
    usart_enable                             0x08002419   Thumb Code    10  gd32f10x_usart.o(i.usart_enable)
    usart_flag_get                           0x08002423   Thumb Code    30  gd32f10x_usart.o(i.usart_flag_get)
    usart_hardware_flow_cts_config           0x08002441   Thumb Code    16  gd32f10x_usart.o(i.usart_hardware_flow_cts_config)
    usart_hardware_flow_rts_config           0x08002451   Thumb Code    16  gd32f10x_usart.o(i.usart_hardware_flow_rts_config)
    usart_parity_config                      0x08002461   Thumb Code    16  gd32f10x_usart.o(i.usart_parity_config)
    usart_receive_config                     0x08002471   Thumb Code    16  gd32f10x_usart.o(i.usart_receive_config)
    usart_stop_bit_set                       0x08002481   Thumb Code    16  gd32f10x_usart.o(i.usart_stop_bit_set)
    usart_transmit_config                    0x08002491   Thumb Code    16  gd32f10x_usart.o(i.usart_transmit_config)
    usart_word_length_set                    0x080024a1   Thumb Code    16  gd32f10x_usart.o(i.usart_word_length_set)
    Region$$Table$$Base                      0x080025d0   Number         0  anon$$obj.o(Region$$Table)
    Region$$Table$$Limit                     0x080025f0   Number         0  anon$$obj.o(Region$$Table)
    mem_infor                                0x20000000   Data           4  main.o(.data)
    fac_us                                   0x20000004   Data           1  systick.o(.data)
    fac_ms                                   0x20000008   Data           4  systick.o(.data)
    A                                        0x2000000c   Data           4  dsp_test.o(.data)
    s                                        0x20000010   Data           4  dsp_test.o(.data)
    __stdout                                 0x20000014   Data           4  stdout.o(.data)
    uid                                      0x2000001c   Data          12  main.o(.bss)
    x                                        0x20000028   Data         512  dsp_test.o(.bss)
    X                                        0x20000228   Data         512  dsp_test.o(.bss)
    __initial_sp                             0x20000828   Data           0  startup_gd32f10x_xd.o(STACK)



==============================================================================

Memory Map of the image

  Image Entry point : 0x08000131

  Load Region LR_IROM1 (Base: 0x08000000, Size: 0x0000260c, Max: 0x00300000, ABSOLUTE)

    Execution Region ER_IROM1 (Exec base: 0x08000000, Load base: 0x08000000, Size: 0x000025f0, Max: 0x00300000, ABSOLUTE)

    Exec Addr    Load Addr    Size         Type   Attr      Idx    E Section Name        Object

    0x08000000   0x08000000   0x00000130   Data   RO          296    RESET               startup_gd32f10x_xd.o
    0x08000130   0x08000130   0x00000000   Code   RO         8007  * .ARM.Collect$$$$00000000  mc_w.l(entry.o)
    0x08000130   0x08000130   0x00000004   Code   RO         8368    .ARM.Collect$$$$00000001  mc_w.l(entry2.o)
    0x08000134   0x08000134   0x00000004   Code   RO         8371    .ARM.Collect$$$$00000004  mc_w.l(entry5.o)
    0x08000138   0x08000138   0x00000000   Code   RO         8373    .ARM.Collect$$$$00000008  mc_w.l(entry7b.o)
    0x08000138   0x08000138   0x00000000   Code   RO         8375    .ARM.Collect$$$$0000000A  mc_w.l(entry8b.o)
    0x08000138   0x08000138   0x00000008   Code   RO         8376    .ARM.Collect$$$$0000000B  mc_w.l(entry9a.o)
    0x08000140   0x08000140   0x00000000   Code   RO         8378    .ARM.Collect$$$$0000000D  mc_w.l(entry10a.o)
    0x08000140   0x08000140   0x00000000   Code   RO         8380    .ARM.Collect$$$$0000000F  mc_w.l(entry11a.o)
    0x08000140   0x08000140   0x00000004   Code   RO         8369    .ARM.Collect$$$$00002712  mc_w.l(entry2.o)
    0x08000144   0x08000144   0x00000024   Code   RO          297    .text               startup_gd32f10x_xd.o
    0x08000168   0x08000168   0x00000062   Code   RO         8010    .text               mc_w.l(uldiv.o)
    0x080001ca   0x080001ca   0x0000001e   Code   RO         8014    .text               mc_w.l(llshl.o)
    0x080001e8   0x080001e8   0x00000024   Code   RO         8016    .text               mc_w.l(llsshr.o)
    0x0800020c   0x0800020c   0x000000b0   Code   RO         8285    .text               mf_w.l(fadd.o)
    0x080002bc   0x080002bc   0x00000064   Code   RO         8287    .text               mf_w.l(fmul.o)
    0x08000320   0x08000320   0x0000007c   Code   RO         8289    .text               mf_w.l(fdiv.o)
    0x0800039c   0x0800039c   0x0000014e   Code   RO         8291    .text               mf_w.l(dadd.o)
    0x080004ea   0x080004ea   0x000000e4   Code   RO         8293    .text               mf_w.l(dmul.o)
    0x080005ce   0x080005ce   0x000000de   Code   RO         8295    .text               mf_w.l(ddiv.o)
    0x080006ac   0x080006ac   0x00000012   Code   RO         8297    .text               mf_w.l(fflti.o)
    0x080006be   0x080006be   0x00000022   Code   RO         8301    .text               mf_w.l(dflti.o)
    0x080006e0   0x080006e0   0x0000001a   Code   RO         8303    .text               mf_w.l(dfltui.o)
    0x080006fa   0x080006fa   0x00000026   Code   RO         8311    .text               mf_w.l(f2d.o)
    0x08000720   0x08000720   0x00000038   Code   RO         8315    .text               mf_w.l(d2f.o)
    0x08000758   0x08000758   0x0000002c   Code   RO         8383    .text               mc_w.l(uidiv.o)
    0x08000784   0x08000784   0x00000020   Code   RO         8385    .text               mc_w.l(llushr.o)
    0x080007a4   0x080007a4   0x00000000   Code   RO         8394    .text               mc_w.l(iusefp.o)
    0x080007a4   0x080007a4   0x0000006e   Code   RO         8395    .text               mf_w.l(fepilogue.o)
    0x08000812   0x08000812   0x000000ba   Code   RO         8403    .text               mf_w.l(depilogue.o)
    0x080008cc   0x080008cc   0x0000002e   Code   RO         8405    .text               mf_w.l(dscalb.o)
    0x080008fa   0x080008fa   0x000000a2   Code   RO         8407    .text               mf_w.l(dsqrt.o)
    0x0800099c   0x0800099c   0x00000030   Code   RO         8409    .text               mf_w.l(dfixul.o)
    0x080009cc   0x080009cc   0x00000030   Code   RO         8413    .text               mf_w.l(cdrcmple.o)
    0x080009fc   0x080009fc   0x00000024   Code   RO         8419    .text               mc_w.l(init.o)
    0x08000a20   0x08000a20   0x0000003e   Code   RO         8421    .text               mf_w.l(dfixi.o)
    0x08000a5e   0x08000a5e   0x00000004   Code   RO            4    i.BusFault_Handler  gd32f10x_it.o
    0x08000a62   0x08000a62   0x00000002   Code   RO            5    i.DebugMon_Handler  gd32f10x_it.o
    0x08000a64   0x08000a64   0x00000004   Code   RO            6    i.HardFault_Handler  gd32f10x_it.o
    0x08000a68   0x08000a68   0x00000004   Code   RO            7    i.MemManage_Handler  gd32f10x_it.o
    0x08000a6c   0x08000a6c   0x00000002   Code   RO            8    i.NMI_Handler       gd32f10x_it.o
    0x08000a6e   0x08000a6e   0x00000002   Code   RO            9    i.PendSV_Handler    gd32f10x_it.o
    0x08000a70   0x08000a70   0x00000002   Code   RO           10    i.SVC_Handler       gd32f10x_it.o
    0x08000a72   0x08000a72   0x00000002   PAD
    0x08000a74   0x08000a74   0x000000d4   Code   RO          257    i.SystemInit        system_gd32f10x.o
    0x08000b48   0x08000b48   0x00000004   Code   RO           11    i.UsageFault_Handler  gd32f10x_it.o
    0x08000b4c   0x08000b4c   0x00000020   Code   RO         8257    i.__0printf         mc_w.l(printfa.o)
    0x08000b6c   0x08000b6c   0x00000028   Code   RO         8417    i.__ARM_fpclassify  m_ws.l(fpclassify.o)
    0x08000b94   0x08000b94   0x00000388   Code   RO         8357    i.__ieee754_rem_pio2  m_ws.l(rred.o)
    0x08000f1c   0x08000f1c   0x000000fc   Code   RO         8321    i.__kernel_cos      m_ws.l(cos_i.o)
    0x08001018   0x08001018   0x000000aa   Code   RO         8354    i.__kernel_poly     m_ws.l(poly.o)
    0x080010c2   0x080010c2   0x00000002   PAD
    0x080010c4   0x080010c4   0x000000ec   Code   RO         8362    i.__kernel_sin      m_ws.l(sin_i.o)
    0x080011b0   0x080011b0   0x00000006   Code   RO         8325    i.__mathlib_dbl_infnan  m_ws.l(dunder.o)
    0x080011b6   0x080011b6   0x0000000c   Code   RO         8327    i.__mathlib_dbl_invalid  m_ws.l(dunder.o)
    0x080011c2   0x080011c2   0x00000002   PAD
    0x080011c4   0x080011c4   0x00000010   Code   RO         8330    i.__mathlib_dbl_underflow  m_ws.l(dunder.o)
    0x080011d4   0x080011d4   0x0000000e   Code   RO         8425    i.__scatterload_copy  mc_w.l(handlers.o)
    0x080011e2   0x080011e2   0x00000002   Code   RO         8426    i.__scatterload_null  mc_w.l(handlers.o)
    0x080011e4   0x080011e4   0x0000000e   Code   RO         8427    i.__scatterload_zeroinit  mc_w.l(handlers.o)
    0x080011f2   0x080011f2   0x00000002   PAD
    0x080011f4   0x080011f4   0x0000000c   Code   RO         8389    i.__set_errno       mc_w.l(errno.o)
    0x08001200   0x08001200   0x00000184   Code   RO         8264    i._fp_digits        mc_w.l(printfa.o)
    0x08001384   0x08001384   0x000006dc   Code   RO         8265    i._printf_core      mc_w.l(printfa.o)
    0x08001a60   0x08001a60   0x00000024   Code   RO         8266    i._printf_post_padding  mc_w.l(printfa.o)
    0x08001a84   0x08001a84   0x0000002e   Code   RO         8267    i._printf_pre_padding  mc_w.l(printfa.o)
    0x08001ab2   0x08001ab2   0x00000002   PAD
    0x08001ab4   0x08001ab4   0x0000009c   Code   RO         7928    i.cos               m_ws.l(cos.o)
    0x08001b50   0x08001b50   0x0000002a   Code   RO         4006    i.delay_ms          systick.o
    0x08001b7a   0x08001b7a   0x00000002   PAD
    0x08001b7c   0x08001b7c   0x00000050   Code   RO         4007    i.delay_nms         systick.o
    0x08001bcc   0x08001bcc   0x00000174   Code   RO         4104    i.dsp_test          dsp_test.o
    0x08001d40   0x08001d40   0x00000024   Code   RO         4071    i.fputc             print.o
    0x08001d64   0x08001d64   0x00000014   Code   RO         3976    i.get_mem_infor     bitband.o
    0x08001d78   0x08001d78   0x0000001c   Code   RO         3977    i.get_uid           bitband.o
    0x08001d94   0x08001d94   0x000000ac   Code   RO         1866    i.gpio_init         gd32f10x_gpio.o
    0x08001e40   0x08001e40   0x00000068   Code   RO         3934    i.led_init          led.o
    0x08001ea8   0x08001ea8   0x00000024   Code   RO         3935    i.led_off           led.o
    0x08001ecc   0x08001ecc   0x00000024   Code   RO         3936    i.led_on            led.o
    0x08001ef0   0x08001ef0   0x000000b8   Code   RO          174    i.main              main.o
    0x08001fa8   0x08001fa8   0x00000018   Code   RO         2184    i.nvic_vector_table_set  gd32f10x_misc.o
    0x08001fc0   0x08001fc0   0x00000080   Code   RO         4072    i.print_config      print.o
    0x08002040   0x08002040   0x00000124   Code   RO         2340    i.rcu_clock_freq_get  gd32f10x_rcu.o
    0x08002164   0x08002164   0x00000020   Code   RO         2357    i.rcu_periph_clock_enable  gd32f10x_rcu.o
    0x08002184   0x08002184   0x000000a0   Code   RO         7976    i.sin               m_ws.l(sin.o)
    0x08002224   0x08002224   0x0000004c   Code   RO         7984    i.sqrt              m_ws.l(sqrt.o)
    0x08002270   0x08002270   0x000000bc   Code   RO          258    i.system_clock_96m_hxtal  system_gd32f10x.o
    0x0800232c   0x0800232c   0x00000008   Code   RO          259    i.system_clock_config  system_gd32f10x.o
    0x08002334   0x08002334   0x00000028   Code   RO         2187    i.systick_clksource_set  gd32f10x_misc.o
    0x0800235c   0x0800235c   0x00000024   Code   RO         4012    i.systick_set       systick.o
    0x08002380   0x08002380   0x00000090   Code   RO         3599    i.usart_baudrate_set  gd32f10x_usart.o
    0x08002410   0x08002410   0x00000008   Code   RO         3601    i.usart_data_transmit  gd32f10x_usart.o
    0x08002418   0x08002418   0x0000000a   Code   RO         3606    i.usart_enable      gd32f10x_usart.o
    0x08002422   0x08002422   0x0000001e   Code   RO         3608    i.usart_flag_get    gd32f10x_usart.o
    0x08002440   0x08002440   0x00000010   Code   RO         3612    i.usart_hardware_flow_cts_config  gd32f10x_usart.o
    0x08002450   0x08002450   0x00000010   Code   RO         3613    i.usart_hardware_flow_rts_config  gd32f10x_usart.o
    0x08002460   0x08002460   0x00000010   Code   RO         3627    i.usart_parity_config  gd32f10x_usart.o
    0x08002470   0x08002470   0x00000010   Code   RO         3629    i.usart_receive_config  gd32f10x_usart.o
    0x08002480   0x08002480   0x00000010   Code   RO         3635    i.usart_stop_bit_set  gd32f10x_usart.o
    0x08002490   0x08002490   0x00000010   Code   RO         3639    i.usart_transmit_config  gd32f10x_usart.o
    0x080024a0   0x080024a0   0x00000010   Code   RO         3640    i.usart_word_length_set  gd32f10x_usart.o
    0x080024b0   0x080024b0   0x00000030   Data   RO         8322    .constdata          m_ws.l(cos_i.o)
    0x080024e0   0x080024e0   0x000000c8   Data   RO         8359    .constdata          m_ws.l(rred.o)
    0x080025a8   0x080025a8   0x00000028   Data   RO         8363    .constdata          m_ws.l(sin_i.o)
    0x080025d0   0x080025d0   0x00000020   Data   RO         8423    Region$$Table       anon$$obj.o


    Execution Region RW_IRAM1 (Exec base: 0x20000000, Load base: 0x080025f0, Size: 0x00000828, Max: 0x00018000, ABSOLUTE)

    Exec Addr    Load Addr    Size         Type   Attr      Idx    E Section Name        Object

    0x20000000   0x080025f0   0x00000004   Data   RW          176    .data               main.o
    0x20000004   0x080025f4   0x00000008   Data   RW         4013    .data               systick.o
    0x2000000c   0x080025fc   0x00000008   Data   RW         4106    .data               dsp_test.o
    0x20000014   0x08002604   0x00000004   Data   RW         8382    .data               mc_w.l(stdout.o)
    0x20000018   0x08002608   0x00000004   Data   RW         8390    .data               mc_w.l(errno.o)
    0x2000001c        -       0x0000000c   Zero   RW          175    .bss                main.o
    0x20000028        -       0x00000400   Zero   RW         4105    .bss                dsp_test.o
    0x20000428        -       0x00000400   Zero   RW          294    STACK               startup_gd32f10x_xd.o


==============================================================================

Image component sizes


      Code (inc. data)   RO Data    RW Data    ZI Data      Debug   Object Name

        48         10          0          0          0       1194   bitband.o
       372         46          0          8       1024       1213   dsp_test.o
       172          0          0          0          0        796   gd32f10x_gpio.o
        24          0          0          0          0      26924   gd32f10x_it.o
        64          8          0          0          0       1016   gd32f10x_misc.o
       324         32          0          0          0       1575   gd32f10x_rcu.o
       304          8          0          0          0       6107   gd32f10x_usart.o
       176         32          0          0          0       3034   led.o
       184         92          0          4         12       8291   main.o
       164         12          0          0          0       1043   print.o
        36          8        304          0       1024        772   startup_gd32f10x_xd.o
       408         24          0          0          0       2153   system_gd32f10x.o
       158         16          0          8          0       1749   systick.o

    ----------------------------------------------------------------------
      2438        288        336         20       2060      55867   Object Totals
         0          0         32          0          0          0   (incl. Generated)
         4          0          0          0          0          0   (incl. Padding)

    ----------------------------------------------------------------------

      Code (inc. data)   RO Data    RW Data    ZI Data      Debug   Library Member Name

       156          8          0          0          0        104   cos.o
       252         22         48          0          0        124   cos_i.o
        34          6          0          0          0        204   dunder.o
        40          0          0          0          0         68   fpclassify.o
       170          0          0          0          0         96   poly.o
       904         76        200          0          0        140   rred.o
       160         10          0          0          0        108   sin.o
       236         12         40          0          0        128   sin_i.o
        76          0          0          0          0         84   sqrt.o
         0          0          0          0          0          0   entry.o
         0          0          0          0          0          0   entry10a.o
         0          0          0          0          0          0   entry11a.o
         8          4          0          0          0          0   entry2.o
         4          0          0          0          0          0   entry5.o
         0          0          0          0          0          0   entry7b.o
         0          0          0          0          0          0   entry8b.o
         8          4          0          0          0          0   entry9a.o
        12          6          0          4          0         68   errno.o
        30          0          0          0          0          0   handlers.o
        36          8          0          0          0         68   init.o
         0          0          0          0          0          0   iusefp.o
        30          0          0          0          0         68   llshl.o
        36          0          0          0          0         68   llsshr.o
        32          0          0          0          0         68   llushr.o
      2258         90          0          0          0        452   printfa.o
         0          0          0          4          0          0   stdout.o
        44          0          0          0          0         80   uidiv.o
        98          0          0          0          0         92   uldiv.o
        48          0          0          0          0         68   cdrcmple.o
        56          0          0          0          0         88   d2f.o
       334          0          0          0          0        148   dadd.o
       222          0          0          0          0        100   ddiv.o
       186          0          0          0          0        176   depilogue.o
        62          0          0          0          0         80   dfixi.o
        48          0          0          0          0         68   dfixul.o
        34          0          0          0          0         76   dflti.o
        26          0          0          0          0         76   dfltui.o
       228          0          0          0          0         96   dmul.o
        46          0          0          0          0         80   dscalb.o
       162          0          0          0          0        100   dsqrt.o
        38          0          0          0          0         68   f2d.o
       176          0          0          0          0        140   fadd.o
       124          0          0          0          0         88   fdiv.o
       110          0          0          0          0        168   fepilogue.o
        18          0          0          0          0         68   fflti.o
       100          0          0          0          0         76   fmul.o

    ----------------------------------------------------------------------
      6650        246        288          8          0       3784   Library Totals
         8          0          0          0          0          0   (incl. Padding)

    ----------------------------------------------------------------------

      Code (inc. data)   RO Data    RW Data    ZI Data      Debug   Library Name

      2028        134        288          0          0       1056   m_ws.l
      2596        112          0          8          0        964   mc_w.l
      2018          0          0          0          0       1764   mf_w.l

    ----------------------------------------------------------------------
      6650        246        288          8          0       3784   Library Totals

    ----------------------------------------------------------------------

==============================================================================


      Code (inc. data)   RO Data    RW Data    ZI Data      Debug   

      9088        534        624         28       2060      55955   Grand Totals
      9088        534        624         28       2060      55955   ELF Image Totals
      9088        534        624         28          0          0   ROM Totals

==============================================================================

    Total RO  Size (Code + RO Data)                 9712 (   9.48kB)
    Total RW  Size (RW Data + ZI Data)              2088 (   2.04kB)
    Total ROM Size (Code + RO Data + RW Data)       9740 (   9.51kB)

==============================================================================

