:020000040800F2
:10000000680A002045010008630900085B09000830
:100010005F090008550900083D0A000800000000BB
:100020000000000000000000000000006709000858
:100030005909000800000000650900085D0100087A
:100040005F0100085F0100085F0100085F01000810
:100050005F0100085F0100085F0100085F01000800
:100060005F0100085F0100085F0100085F010008F0
:100070005F0100085F0100085F0100085F010008E0
:100080005F0100085F0100085F0100085F010008D0
:100090005F0100085F0100085F0100085F010008C0
:1000A0005F0100085F0100085F0100085F010008B0
:1000B0005F0100085F0100085F0100085F010008A0
:1000C0005F0100085F0100085F0100085F01000890
:1000D0005F0100085F0100085F0100085F01000880
:1000E0005F0100085F0100085F0100085F01000870
:1000F0005F0100085F0100085F0100085F01000860
:100100005F0100085F0100085F0100085F0100084F
:100110005F0100085F0100085F0100085F0100083F
:100120005F0100085F0100085F0100085F0100082F
:10013000DFF80CD000F0FCFB004800472125000848
:10014000680A00200648804706480047FEE7FEE7A9
:10015000FEE7FEE7FEE7FEE7FEE7FEE7FEE7FEE777
:1001600069090008310100082DE9F05F054600200B
:1001700092469B4688460646814640241BE0284618
:1001800041464746224600F0FFFA53465A46C01AF7
:10019000914110D311461846224600F016F82D1A48
:1001A00067EB01084F4622460120002100F00DF8C0
:1001B00017EB00094E41201EA4F10104DFDC484684
:1001C00031462A464346BDE8F09F202A04DB203A08
:1001D00000FA02F1002070479140C2F1200320FA9A
:1001E00003F3194390407047202A06DBCB17203ACF
:1001F00041FA02F043EAE07306E041FA02F3D0402C
:10020000C2F120029140084319467047F0B480EAD9
:100210000102D40F4200B2EB410F02D2024608465F
:1002200011464A0042D0C30DDDB2C1F3C752AD1A28
:10023000202D35DAC1F3160141F4000204B1524217
:10024000C5F1200602FA06F12A411044B3EBD05F53
:1002500023D0C4B1012DA0EBC35009DCF0BC4FF09A
:10026000004202EAC352DBB200F5000000F0A5BA7A
:10027000400000F1807000EBC350A0F1807040EAB4
:10028000D170490009E0490841EAC071A0EBC350B0
:1002900000F50000400800EBC350F0BC00F084BA49
:1002A0006142012202EB4101001BF6E7F0BC7047FE
:1002B00081F00041AAE780F00040A7E780EA010250
:1002C00010B502F00043400022D04A001FD0010EBA
:1002D00001EB1261C0F35600C2F3560240F4000075
:1002E00042F40002A0FB022000047F39140400D075
:1002F000401C50EA124001D44000491EC2B20C0614
:1003000004EBD010401C4008802A02D003E00020FB
:1003100010BD20F00100002900DA0020184310BDB4
:1003200030B480EA010202F0004530F0004221F0D2
:10033000004013D090B1C30DD40DC2F31601C0F329
:100340001600E41A41F4000140F400027D349142A9
:1003500001D3641C00E04900002C02DA30BC00200C
:1003600070474FF400000023914201D3891A0343E0
:1003700040084FEA4101F7D151B1914202D14FF00B
:10038000004105E002D24FF0010101E06FF00101F0
:1003900003EBC450284430BC00F006BA2DE9FE4FF0
:1003A000804681EA0300C00F0C46009021F0004116
:1003B00023F00045B8EB0200A94105D24046214692
:1003C00090461C460B46024623F00040104347D09F
:1003D000270DC7F30A00C3F30A510290401A019097
:1003E00040286BDAC3F3130040F4801B0098924658
:1003F00020B10023D2EB030A63EB0B0B01985946A3
:10040000C0F140025046FFF7E0FE06460D4650465A
:100410005946019AFFF7E8FE10EB080061410024FD
:1004200087EA115284EAE7731A4340D0009A62B314
:10043000019A012A4FEA075215DC001B61EB020109
:100440004FF0004202EA0752CDE90042001C41F59C
:10045000801132462B4600F0EDF903B0BDE8F08F75
:1004600040462146F9E7001B61EB0201001C41F503
:10047000801300185B412018A2F5001747EB030119
:1004800040EAD570B6196D4111E06D084FEA3606A5
:1004900045EAC0754FEA0752001B61EB0201001CE0
:1004A00041F5801149084FEA3000001951413246A8
:1004B0002B4603B0BDE8F04F00F0ADB90098012223
:1004C00040000023D0EB020263EBE073009821466A
:1004D0004FEAE074B8EB000061EB0401E9E783F058
:1004E00000435BE781F0004158E72DE9FE4F81EAC8
:1004F000030404F0004421F0004100944FF0000B8D
:1005000023F0004350EA01045ED052EA03045BD0BA
:10051000C3F30A54C1F30A552C44A4F2F3340194F2
:10052000A0FB0254C1F3130141F48011C3F3130380
:1005300043F4801301FB024400FB034E840A970A34
:1005400044EA815447EA8357A4FB076802958D0A61
:1005500005FB07854FEA932C04FB0C542705029DED
:100560004FEA065847EA1637B5EB08056EEB070C5D
:10057000870E920E47EA811742EA8312A7FB020117
:10058000B6EB0B0164EB00042B0D43EA0C335E1851
:1005900044EB1C50DA465146E7FB0201C5F3130455
:1005A0004FEA0B3343EA14534FEA0432019C43EA07
:1005B0000603A4F10C040294009CCDE900B400F001
:1005C00039F903B0BDE8F08F00200146F9E72DE9C5
:1005D000F04D81EA030404F0004B21F0004514467D
:1005E0004FF0000A23F0004150EA050220D054EAFF
:1005F00001021DD0C5F30A570246C5F31303C1F328
:100600001300C1F30A5640F4801543F48013A7EB9E
:100610000608101BD64608F2FD3873EB050002D31E
:1006200008F1010801E092185B41B8F1000F03DA0C
:1006300000200146BDE8F08D00204FF480110646F1
:1006400084460EE0171B73EB050705D3121B63EB03
:10065000050306434CEA010C49084FEA30009218A2
:100660005B4150EA0107EDD152EA030012D082EA61
:10067000040083EA0501084305D0101BAB4106D2F4
:100680000122002306E000224FF0004302E06FF059
:10069000010253101AEB06004CEB085110EB0A0054
:1006A00041EB0B01BDE8F04D00F0B5B8C10F80EA99
:1006B000E0700844CA079623002100F07EB8962314
:1006C0000022114600F079B800F0004220F000400E
:1006D000C10DC0F3160040F400007F2901DA0020AC
:1006E0007047962903DCC1F19601C84001E09639B4
:1006F0008840002AF4D04042704720F00040C10DED
:10070000C0F3160040F400007F2901DA0020704792
:10071000962903DCC1F19601C8407047963988409C
:10072000704700F0004230F000400AD0C10D01F5E2
:100730006071C0F3160042EA0151C208400711433C
:100740007047002001467047002801DBC0F10040DF
:10075000002901DBC1F100418142704730B50B46F1
:10076000014600202022012409E021FA02F59D42E1
:1007700005D303FA02F5491B04FA02F52844151EB5
:10078000A2F10102F1DC30BD202A04DB203A21FA7B
:1007900002F00021704721FA02F3D040C2F120029A
:1007A00091400843194670470029A8BF7047401C74
:1007B000490008BF20F00100704710B4B0FA80FC77
:1007C00000FA0CF050EA010404BF10BC704749B1B4
:1007D000CCF1200421FA04F411FA0CF118BF012124
:1007E00021430843A3EB0C01CB1D4FEA00614FEA04
:1007F000102042BF002010BC704700EBC3501044D3
:100800000029A4BF10BC7047401C490008BF20F05D
:10081000010010BC704710B5141E73F1000408DA13
:10082000401C41F1000192185B411A4301D120F0B4
:10083000010010BD2DE9F04D92469B4611B1B1FA71
:1008400081F202E0B0FA80F220329046FFF7BDFC60
:1008500004460F4640EA0A0041EA0B0153465A4655
:10086000084313D0114653EA010019D0C8F14002E1
:100870005046FFF789FF05460E4650465946424608
:10088000FFF7A3FC084305D0012004E020463946C9
:10089000BDE8F08D0020054346EAE0762C4337435F
:1008A0000A986305E40AA0EB08000022FD0A44EA66
:1008B00047540A3002D500200146E9E70105101926
:1008C0006941DDE9084500196941BDE8F04DA2E73D
:1008D000C1F30A52C1F3130140F2FF3341F4801116
:1008E0009A4202DA00200146704740F233439A42AE
:1008F000A2F2334202DC5242FFF746BFFFF765BC6B
:1009000030B5041E71F1000404DB4FF00044404296
:1009100064EB0101141E73F1000405DB1C464FF06B
:100920000043524263EB0403994208BF904230BD3A
:10093000064C074D06E0E06840F0010394E807002C
:1009400098471034AC42F6D3FFF7F6FB2C350E086F
:100950004C350E0800BFFEE7704700BFFEE700BF42
:10096000FEE770477047704708B53048006840F0B0
:1009700001002E49086000BF2C48006800F002000A
:100980000028F9D000BF2948406840F0800027497E
:1009900048600020009002E00098401C0090009801
:1009A0005028F9D32148406840F090001F49486022
:1009B0000020009002E00098401C00900098502811
:1009C000F9D300BF1948406820F003001749486078
:1009D00008460068164908401449086008464068FF
:1009E0001449084011494860084600681049084009
:1009F0000E4908600846006820F480200860084618
:100A000040680D490840094948600846006808499F
:100A10000840064908604FF41F00886001F028FF75
:100A200000214FF0006001F0D7FD08BD001002402A
:100A3000FFFFF6FE0C00FFE8FFFF00F700BFFEE738
:100A40000FB4054B10B503A9044A029800F0DAF878
:100A500010BC5DF814FB000071230008100000209A
:100A600002E008C8121F08C1002AFAD17047704777
:100A7000002001E001C1121F002AFBD170470000D5
:100A80002DE9FF5F82B00021DDE90430020DDDF8C1
:100A900040B0034318D044F61050A2F2FF32424354
:100AA0001514119801281FD0A5EB0B00401C5FEA1C
:100AB000000A4FF000064E4FDFF83891B04650461E
:100AC00015D5CAF1000413E0119801244AA30128A6
:100AD00001D16FEA0B010298119AC0E90031C0E917
:100AE000024206B0BDE8F09FCBF10000DFE704460C
:100AF0000021404A491842EB0450CDE9001012E0B1
:100B0000E00707D032463B4640464946FFF7EDFC3A
:100B10008046894632463B4610461946FFF7E5FCBB
:100B200006460F466410002CEAD1DDE90401DDE938
:100B30000023BAF1000F06DAFFF7D7FC42464B4616
:100B4000FFF7D3FC05E0FFF742FD42464B46FFF7B7
:100B50003EFD04460E460022284BFFF7D1FE03D887
:100B60004FF0FF30014607E00022254B204631467A
:100B7000FFF714FCFFF7ACFE102409E0002C0ADBA1
:100B80000A220023FFF7F0FA039B30321A55641E45
:100B900050EA0102F2D1641C039AC4F11103144417
:100BA000119A012A03D0012208430DD10AE008431B
:100BB00004D000204FF0110B119072E7A3EB0B054E
:100BC0006D1E0DE05B4504DD4FF0000205F10105EF
:100BD00004E003DA4FF00002A5F10105002AECD091
:100BE00002981199C0E90231C0E9004579E7000097
:100BF000000014400000F03F300000000000F0430F
:100C00000000E03F2DE9FF4F95B09B468946064620
:100C100000250FE2252877D100242746F84A012134
:100C2000059400E0044316F8013F203B01FA03F06D
:100C30001042F7D130782A2811D06FF02F03307886
:100C4000A0F13002092A16D8059A44F0020402EBFA
:100C5000820203EB42021044761C0590EFE759F83C
:100C6000042B0592002A03DA504244F40054059004
:100C700044F00204761C30782E2816D116F8010FA5
:100C800044F004042A280DD06FF02F023078A0F130
:100C90003003092B09D807EB870302EB4303C7187E
:100CA000761CF3E759F8047B761C30786C280FD05B
:100CB00006DC4C2817D068280DD06A2814D104E02F
:100CC000742810D07A280FD10DE044F400140AE003
:100CD00044F4801401E044F440147278824202D15A
:100CE00004F58014761C761C307866280BD013DC53
:100CF000582877D009DC002875D04528F6D046283A
:100D0000F4D047281AD19DE118E0632835D0642833
:100D100079D0652812D195E1702873D008DC672856
:100D2000F1D069286FD06E280DD06F2806D1B5E0BC
:100D300073282CD0752875D0782874D05A46179906
:100D400090476D1C75E1C4F30250022809D00328B6
:100D50000DD0D9F8001004280DD00D6009F1040958
:100D600067E1D9F80010EA17C1E90052F6E7D9F8AF
:100D700000100D80F2E70D70F0E719F8041B8DF8F4
:100D8000001000208DF80100EA46012003E059F828
:100D900004AB4FF0FF3061074FF0000102D40DE0CB
:100DA00008F101018846B9420FDA8045F8DB1AF8EC
:100DB00008100029F4D108E008F1010188468142B9
:100DC000FADB1AF808100029F6D105985B46A0EB6B
:100DD000080721463846179A00F094FA284400EB99
:100DE000080507E04DE029E10DE01AF8010B5A462D
:100DF00017999047B8F10108F7D25B46214638466B
:100E0000179A13E142E00A220092C4F302524FF013
:100E1000000A022A08D059F804CB032A4FEAEC71E1
:100E20000AD00DE029E02AE009F1070121F00702CC
:100E3000F2E802C1914609E00FFA8CFC4FEAEC712E
:100E4000042A03D14FFA8CFC4FEAEC71002907DA2F
:100E50000A460021DCF1000C61EB02012D2202E0C8
:100E6000220504D52B228DF80420012203E0E2079D
:100E700001D02022F7E7904659E00A2102E0102233
:100E80000DE010214FF0000A00910BE010224FF00E
:100E9000000A44F004040827009203E008224FF0FF
:100EA000000A0092C4F30252022A05D059F804CB7A
:100EB0000021032A08D009E009F1070121F0070207
:100EC000F2E802C1914605E01FFA8CFC042A01D128
:100ED0000CF0FF0C4FF00008220728D5702806D030
:100EE000009B83F0100353EA0A0305D00EE0402272
:100EF0008DF80420012208E05CEA010206D03022CD
:100F00008DF804208DF8050002229046009B83F0A6
:100F1000080353EA0A030AD15CEA010201D162071D
:100F200005D530228DF804204FF001087F1E582887
:100F300004D034A003900EA802900DE036A0F9E78B
:100F400053466046009AFFF70FF984460398825C87
:100F50000298401E029002705CEA0100F0D10298F3
:100F600006A9081A00F1200A600702D524F480348B
:100F700000E00127574502DDA7EB0A0000E0002052
:100F800000EB0A01009005984144401A0590E003E7
:100F900006D45B462146179A059800F0B3F905443C
:100FA000002706E001A85A46C05D179990476D1CBE
:100FB0007F1C4745F6DBE0030CD55B462146179ABC
:100FC000059800F09FF9054404E030205A4617992F
:100FD00090476D1C0099481E00900029F5DC08E040
:100FE000029802995A460078491C02911799904735
:100FF0006D1CBAF10001AAF1010AF1DC65E1000003
:1010000009280100303132333435363738396162DE
:1010100063646566000000003031323334353637A2
:1010200038394142434445460000000000F058F979
:101030000544761C307800287FF4ECAD19B02846C2
:10104000BDE8F08F620700D4062709F1070222F0FD
:10105000070CFCE80223E14603F000485FEA080CB5
:1010600002D00FF2702C0DE05FEA045C02D50FF2A3
:10107000682C07E05FEAC47C02D00FF2602C01E02C
:10108000AFF2700C4FF0FF3823F00043CDF850C0A2
:1010900065280CD006DC452809D046281DD04728F5
:1010A0003DD13DE0662818D067287ED138E0002188
:1010B000112F01DB112000E0781CCDE9000106A909
:1010C0000EA8FFF7DDFCDDE90F010E9A0391002168
:1010D000009207F1010A04914DE04FF000400097A3
:1010E000CDE9011006A90EA8FFF7CAFCDDE90F0241
:1010F00003920E9B11990022DDF80CA0009304923C
:1011000011B9791C00EB010AB7EB0A0004D4C0F155
:10111000FF3007F1010A0490AAEB0700019044E0B8
:10112000012F00DA01270021112F01DD112000E03D
:101130003846CDE9000106A90EA8FFF7A1FCDDE9BC
:101140000F010E9A0391002104910092BA462107E3
:101150000CD40399514500DA8A46BAF1010F05DD36
:10116000009AAAF10101515C302908D0B84202DA94
:1011700010F1040F06DA0121CDE9011015E0AAF102
:101180000101E9E7002805DC049901440491AAEB78
:10119000000102E0411C514500DD8A460499401AD5
:1011A000401C01904FF000400290200704D40198A9
:1011B000504501DBCDF8048000208DF84F000298E7
:1011C0000DF14F07B0F1004F25D02B200E90029863
:1011D0004FF0020800280CDA404202902D200E90B9
:1011E00007E00A210298FFF7B9FA3031029007F8B8
:1011F000011DB8F10001A8F10108F2DC02980028F5
:10120000EFD1791E0E980870307800F0200040F081
:10121000450007F8020D12A8C01B00F1070814983A
:10122000007800B1012000EB0A01019801EBE071A8
:1012300005984144401A401E0590E00306D45B46E1
:101240002146179A059800F05DF805441498007837
:1012500018B15A46179990476D1CE00324D55B4698
:101260002146179A059800F04DF805441CE00498B3
:10127000002807DBDDE90301884203DD0098405CBC
:10128000179901E0179930205A469047049805F1C4
:101290000105401C04900198401E019004D12E20AD
:1012A0005A46179990476D1CBAF10001AAF1010A3C
:1012B000DDDC05E017F8010B5A46179990476D1CC5
:1012C000B8F10001A8F10108F4DC5B462146179A49
:1012D0000598ABE62D0000002B0000002000000068
:1012E0002DE9F041044600251E461746880404D423
:1012F00005E039462020B0476D1C641EF9D528460C
:10130000BDE8F0812DE9F041044600251E469046D7
:10131000C80301D5302700E02027880404D505E064
:1013200041463846B0476D1C641EF9D52846BDE8D5
:10133000F0812DE9F0430E4694461F4600227510B9
:101340004FF0010808EB66030021A0E091425FDA4C
:101350004FEA410850F828404FEA420850F82880E8
:101360004FEA410940F829804FEA420840F82840F6
:101370004FEA410808F1010850F828404FEA4208B6
:1013800008F1010850F828904FEA410808F10108D7
:1013900040F828904FEA420808F1010840F8284038
:1013A00001EB03084FEA480850F8284002EB030815
:1013B0004FEA480850F8288001EB03094FEA490931
:1013C00040F8298002EB03084FEA480840F828401B
:1013D00001EB03084FEA480808F1010850F82840DB
:1013E00002EB03084FEA480808F1010850F828907A
:1013F00001EB03084FEA480808F1010840F828907B
:1014000002EB03084FEA480808F1010840F82840B9
:1014100001F101084FEA480850F8284002EB05089E
:101420004FEA480850F8289001F101084FEA4808AF
:1014300040F8289002EB05084FEA480840F8284099
:1014400001F101084FEA480808F1010850F8284066
:1014500002EB05084FEA480808F1010850F8289007
:1014600001F101084FEA480808F1010840F8289006
:1014700002EB05084FEA480808F1010840F8284047
:101480003A8807EB4C0701F102081FFA88F1A5F131
:1014900002088845BFF45AAFBDE8F08330B5044672
:1014A00000202180244D6560A270E3702588B5F589
:1014B000807F1ED004DC102D2FD0402D37D122E0AC
:1014C000B5F5806F0BD0B5F5805F30D10125A581D2
:1014D000E5811A4DA5604FF0665525612AE0042587
:1014E000A581E581154DAD1DA5604FF06A552561BB
:1014F00020E01025A581E581104D1E35A5604FF037
:101500006E55256116E04025A581E5810B4D7E35A0
:10151000A5604FF0725525610CE04FF48075A581F0
:10152000E581074DA5604FF07655256102E04FF04B
:10153000FF3000BF00BF30BD78B00208F8290008B6
:10154000F62B00082DE9FE4F04460D4616461F46B1
:10155000B84625E054F8049B54F804AB55F804BB96
:1015600001CD029050460299FEF7A8FE594601901F
:101570004846FEF7A3FE00900199FEF799FE01C6CA
:1015800059465046FEF79AFE019048460299FEF7EA
:1015900095FE00900199FEF739FE01C6A8F10108F9
:1015A000B8F1000FD6D1BDE8FE8F2DE9FC5F0446EF
:1015B0000F469046A0680190E0680090238842465C
:1015C0004FF08041404600F0B5FC2388424640463B
:1015D000009900F0A9F83E462088401E07EB800BDA
:1015E0004546B4F8029000BF01CD01C601CD4BF8CD
:1015F0000409A9F10109B9F1000FF5D145463E46AC
:10160000B4F8009000BF01CE01C5A9F10109B9F1FC
:10161000000FF8D13A464146206900F002FC2388C9
:101620003A4638460199FFF78DFF45463E4601CEC2
:101630004FF07C51FEF742FE824645F804AB361D62
:101640002088A0F1010900BF01CE5146FEF730FE0F
:10165000824645F804AB361DA9F10109B9F1000F26
:10166000F2D1B4F80090454600BFD5F800A050462E
:101670006168FEF723FE01C5A9F10109B9F1000F68
:10168000F3D1BDE8FC9F00002DE9F84704460E4663
:1016900017461D46DDE909894FF0000A2580A4F8A8
:1016A0000280C4F8049026616761802D17D0B5F5DB
:1016B000007F0FD0B5F5006F07D0B5F5005F13D1EF
:1016C0001148A0601148E06011E01148A060114885
:1016D000E0600CE01048A0601048E06007E01048AF
:1016E000A0601048E06002E04FF0FF3A00BF00BF8A
:1016F0000120009022880023D4E9040100F0D0FBEF
:101700005046BDE8F8870000309D0908309D0A0862
:10171000303D0908307D09083025090830350908B1
:10172000301F0908302309082DE9F04104460D4611
:1017300016461F46B84606E002CD01CCFEF7BEFDB8
:1017400001C6A8F10108B8F1000FF5D1BDE8F0819C
:101750002DE9FF4F93B004469146DDF85080CDF857
:101760002880DDF85080CDF8208038E1CDF8288041
:101770004FEA98084FF0000B0020099000BF4FEA95
:101780004B000C900C9858440B904FEA4B0059F8C2
:1017900020001290012000EB4B0059F820000F9020
:1017A0000C98400059F82000119001210C9801EB91
:1017B000400059F820000E900B98400059F8200086
:1017C00010900B9801EB400059F820000D901698EE
:1017D0008344099D00BF05EB080606EB080707EBED
:1017E000080A7A0054F822106A0054F82200FEF722
:1017F0000DFD05907A0054F822106A0054F822007A
:10180000FEF756FD04907A00521C54F822106A002C
:10181000521C54F82200FEF7F9FC03907A00521C87
:1018200054F822106A00521C54F82200FEF740FDC2
:1018300002904FEA4A0254F82210720054F8220033
:10184000FEF7E4FC079007990598FEF7DFFC6900B6
:1018500044F8210007990598FEF72AFD05904FEA04
:101860004A02521C54F822107200521C54F82200F2
:10187000FEF7CCFC069006990398FEF7C7FC6900BA
:10188000491C44F8210006990398FEF711FD0390C6
:101890004FEA4A02521C54F822107200521C54F8AB
:1018A0002200FEF705FD07904FEA4A0254F8221085
:1018B000720054F82200FEF7FBFC06900E99039884
:1018C000FEF7FCFC019011990598FEF7F7FC0090DB
:1018D0000199FEF79BFC710044F821000E990598D0
:1018E000FEF7ECFC019011990398FEF7E7FC0090DD
:1018F0000199FEF7DDFC7100491C44F821000799AD
:101900000498FEF783FC059007990498FEF7D0FC35
:10191000049006990298FEF7CBFC03900699029872
:10192000FEF774FC02900F990398FEF7C7FC019034
:1019300012990598FEF7C2FC00900199FEF766FC2B
:10194000790044F821000F990598FEF7B7FC019043
:1019500012990398FEF7B2FC00900199FEF7A8FCDB
:101960007900491C44F821000D990298FEF7A6FC65
:10197000019010990498FEF7A1FC00900199FEF7E0
:1019800045FC4FEA4A0144F821000D990498FEF7FE
:1019900095FC019010990298FEF790FC0090019937
:1019A000FEF786FC4FEA4A01491C44F821000A98D8
:1019B000054414988542FFF40EAF0998401C099025
:1019C000A8F1010009998842BFF4D9AE4FF6FF7122
:1019D000169801EA800016900898800808900898E8
:1019E00001283FF6C3AE17B0BDE8F08F2DE9FF4FD9
:1019F00095B004468B469246D946CDF82C90CDF84A
:101A000024B039E1CDF82C904FEA990900200E90CE
:101A10000A9000BF0E9840000D90DDE90D010844CA
:101A20000C900E9840005AF82000149001210E9856
:101A300001EB40005AF8200011900D9840005AF830
:101A4000200013900D9801EB40005AF820001090F0
:101A50000C9840005AF8200012900C9801EB4000BE
:101A60005AF820000F9018990E9808440E900A9D7D
:101A700000BF05EB090606EB090707EB09087A002A
:101A800054F822106A0054F82200FEF7BFFB0690BB
:101A90007A0054F822106A0054F82200FEF708FC7D
:101AA00005907A00521C54F822106A00521C54F817
:101AB0002200FEF7ABFB04907A00521C54F822106F
:101AC0006A00521C54F82200FEF7F2FB03904FEA22
:101AD000480254F82210720054F82200FEF796FBD8
:101AE000089008990698FEF791FB690044F82100D8
:101AF00008990698FEF7DCFB06904FEA4802521C54
:101B000054F822107200521C54F82200FEF77EFB9B
:101B1000079007990498FEF779FB6900491C44F87F
:101B2000210007990498FEF7C3FB04904FEA48028E
:101B3000521C54F822107200521C54F82200FEF776
:101B4000B7FB08904FEA480254F82210720054F88C
:101B50002200FEF7ADFB079010990498FEF7AEFB4C
:101B6000029013990698FEF7A9FB01900299FEF7DF
:101B70009FFB710044F8210010990698FEF79EFB28
:101B8000029013990498FEF799FB01900299FEF7D1
:101B90003DFB7100491C44F8210008990598FEF7A7
:101BA00087FB069008990598FEF730FB059007998A
:101BB0000398FEF72BFB049007990398FEF778FB38
:101BC000039011990498FEF779FB029014990698F6
:101BD000FEF774FB01900299FEF76AFB790044F866
:101BE000210011990698FEF769FB02901499049858
:101BF000FEF764FB01900299FEF708FB7900491C8F
:101C000044F821000F990398FEF758FB02901299AF
:101C10000598FEF753FB01900299FEF749FB4FEA46
:101C2000480144F821000F990598FEF747FB029000
:101C300012990398FEF742FB01900299FEF7E6FA2B
:101C40004FEA4801491C44F821000B9805445D45C2
:101C5000FFF40FAF0A98401C0A90A9F101000A99FD
:101C60008842BFF4D7AE4FF6FF71189801EA8000A2
:101C70001890099880080990099804283FF6C2AE88
:101C8000CDF82C904FEA99090025C1E005EB090633
:101C900006EB090707EB09087A0054F822106A00DE
:101CA00054F82200FEF7B2FA06907A0054F8221097
:101CB0006A0054F82200FEF7FBFA05907A00521CE5
:101CC00054F822106A00521C54F82200FEF79EFAC3
:101CD00004907A00521C54F822106A00521C54F8E6
:101CE0002200FEF7E5FA03904FEA480254F822106A
:101CF000720054F82200FEF789FA089008990698B5
:101D0000FEF784FA02902299FEF7D8FA690044F8A7
:101D1000210008990698FEF7CBFA06904FEA480290
:101D2000521C54F822107200521C54F82200FEF784
:101D30006DFA079007990498FEF768FA02902299C5
:101D4000FEF7BCFA6900491C44F821000799049881
:101D5000FEF7AEFA04904FEA4802521C54F82210E3
:101D60007200521C54F82200FEF7A2FA08904FEAC3
:101D7000480254F82210720054F82200FEF798FA34
:101D8000079022990698FEF799FA710044F821000D
:101D900022990498FEF792FA01467000401C44F81C
:101DA000201008990598FEF783FA0690089905987F
:101DB000FEF72CFA059007990398FEF727FA04908E
:101DC00007990398FEF774FA039022990698FEF794
:101DD00075FA790044F8210022990498FEF76EFA0A
:101DE00001467800401C44F8201022990598FEF71F
:101DF00065FA4FEA480144F8210022990398FEF75A
:101E00005DFA4FEA4801491C44F821000B9805444B
:101E10000B98ABEB0000A842BFF438AF19B0BDE897
:101E2000F08F2DE9FC4104460F4616466569A079FE
:101E300001281AD1A068CDE90060A1883846D4E90C
:101E4000032300F082F928690090AB892988304685
:101E50006A68FFF7CBFDE07901281ED1EA8929885D
:101E60003046AB68FFF765FA17E0AB89298838463A
:101E70006A68FFF76DFCE079012805D1EA892988B5
:101E80003846AB68FFF755FAA068CDE90060A18835
:101E90003846D4E9032300F0B9F8BDE8FC8100001E
:101EA0002DE9F04304460E4615461F46DDF81C801A
:101EB0004FF00009A8B22060C5F34E00A0801B4877
:101EC000E0601B482061A77184F8078020688028A3
:101ED00011D0B0F5007F0BD0B0F5006F05D0B0F594
:101EE000005F0BD10120A0600BE00420A06008E09F
:101EF0001020A06005E04020A06002E04FF0FF3914
:101F000000BF00BF6661A07930B1A1880023012223
:101F10006069FFF7C3FA05E0A18800231A466069EB
:101F2000FFF7BCFA4846BDE8F0830000309F060882
:101F3000301F07082DE9F0410446884615461E4625
:101F4000374605E001CC4146FEF7B8F901C57F1ED2
:101F5000002FF7D1BDE8F0812DE9FF5F83462949C5
:101F60005846FEF7ABF907463846FEF7ADFB82460A
:101F700000213846FEF7E8FB01D2AAF1010A5046DB
:101F8000FEF794FB39460290FEF795F9074639466D
:101F90004FF08840FEF792F903900398FEF7ADFBEF
:101FA00084B2B4F5007F06DB00244FF0884103982B
:101FB000FEF77EF903902046FEF781FB029003991D
:101FC000FEF779F90546104850F824800146601C58
:101FD00051F8209049462846FEF770F929460290AC
:101FE0004FF07E50FEF764F941460090FEF766F927
:101FF00001900299FEF70AF90646304604B0BDE8A2
:10200000F09F000083F9223EB01B0E082DE9FF4F20
:102010008BB004460D46DDE9186906F1080BA800EF
:10202000401E06EB8000039004F108076800401E84
:1020300004EB80080D9800EBC90A0E9800EBC9006C
:102040000790681E0A9067E05AF8040B0690DAF8C9
:102050000000059038680699FEF730F9099001CF25
:102060000599FEF72BF90890D8F800103868FEF7AC
:10207000CDF801900599FEF721F902900999FEF734
:102080001AF9099001CF0699FEF718F902900899FC
:10209000FEF7BCF8089007980068049058F8040907
:1020A0000499FEF70BF902900899FEF704F90890DD
:1020B000D8F800000599FEF701F902900899FEF79B
:1020C000FAF8089058F804090499FEF7F7F8029016
:1020D0000999FEF79BF8099009984BF8040B0898AA
:1020E0004BF8040B089880F00041039801600398B6
:1020F000001F03900399099808600398001F03903C
:10210000079800EBC90007900120C0EB49000AEBDB
:10211000800A0A98401E0A900A98002894D1D4E9AF
:102120000001FEF7C5F8690046F8210000216800AB
:10213000401C46F82010D4E90001FEF767F8306033
:10214000002070600FB0BDE8F08F2DE9FF4F89B01F
:1021500081460E469346DDE9167A4C467000401CD7
:1021600009EB8005D8460C98069056E058F8040B09
:102170000590D8F80000049020680599FEF79EF8B5
:10218000089002CC81F0004002900499FEF796F886
:10219000079029682068FEF739F801900499FEF746
:1021A0008DF802900899FEF731F8089001CC059956
:1021B000FEF784F802900799FEF728F80790069832
:1021C0000068039055F804090399FEF777F8029028
:1021D0000799FEF770F8079028680399FEF76EF8E4
:1021E00002900899FEF712F8089055F8040904992E
:1021F000FEF764F802900799FEF708F80790089830
:1022000001C7079801C7069800EBCA000690012095
:10221000C0EB4A0008EB8008761E002EA6D10DB058
:10222000BDE8F08F70B504463C20B4FBF0F6B4FB7B
:10223000F0F100FB114503E03C2000F009F8761EA8
:10224000002EF9D115B1284600F002F870BD00004B
:1022500001460020114A12684A434FF0E0235A61B8
:1022600000229A611A46126942F001021A6100BF07
:102270004FF0E022106900F001021AB100F4803240
:10228000002AF5D04FF0E022126922F001024FF04F
:10229000E0231A6100229A617047000008000020C4
:1022A0002DE9FC41002400BF27E02046FEF707FA95
:1022B00080462449FEF702F807462349FEF730F826
:1022C0000646FFF749FE05464FF07F51FDF79EFF9A
:1022D0001E4941F8240051F82400FEF722FA054671
:1022E0002A460B461AA0FEF7ABFB184850F824000C
:1022F000194941F82400601C84B2802CD5DB1748B2
:10230000006840218023164ACDE90010154916487F
:10231000FFF7BAF9104A15491348FFF746F90024A8
:102320000CE00D4951F82400FEF7FBF905462A465A
:102330000B4607A0FEF784FB601C84B2802CF0DB08
:10234000BDE8FC8163149D430000C845640400207F
:1023500025660D0A00000000640000200C0000202B
:1023600050000020380000202000002064020020DF
:1023700070B504460D46E1B2054800F0EBFA00BF27
:102380000721034800F0EFFA0028F9D0204670BD7D
:10239000003801400022034B1A68130C03800A80A6
:1023A00070470000E0F7FF1F054909680160044914
:1023B000091F09684160024908390968816070474E
:1023C000F0F7FF1FF0B5044616460025002201F085
:1023D0000F0501F0100707B1354300201EE001276B
:1023E00087401F40C7B122684FEA800C0F2707FAC9
:1023F0000CF7BA43870005FA07F73A43282904D1B6
:10240000012787401F40676105E0482903D1012764
:1024100087401F4027612260471CB8B20828DED3DE
:10242000082022E0012787401F40E7B16268A0F141
:1024300008074FEA870C0F2707FA0CF7BA43A0F1F9
:102440000807BF0005FA07F73A43282904D10127F6
:1024500087401F40676105E0482903D10127874075
:102460001F4027616260471CB8B21028DAD3F0BD64
:1024700010B540F2066000F08DF94FF48063012240
:1024800010211248FFF79EFF4FF400630122102134
:102490000E48FFF797FF4FF48053012210210B489D
:1024A000FFF790FF4FF40053012210210748FFF778
:1024B00089FF0020064908600649C1F8AC010449BB
:1024C000083108600349C1F8B40110BD001801408B
:1024D000A801234200002342002006490860064963
:1024E000C1F8AC010349083108600349C1F8B401DF
:1024F00070470000A8012342000023420120064942
:1025000008600649C1F8AC01034908310860034975
:10251000C1F8B40170470000A80123420000234223
:10252000602000F0BDF9FFF7A3FF4FF4165000F054
:102530005FF81249881EFFF72DFF1048801E0288A1
:1025400041880FA0FEF77CFA1A48FFF72DFF1948C3
:1025500083684268016818A0FEF772FAFFF7A0FED0
:102560000BE0FFF7CBFF4FF47A70FFF75BFEFFF74E
:10257000B3FF4FF47A70FFF755FEF2E70200002038
:102580004744333246313033564B543620466C6123
:1025900073682053697A653D25644B422C53726100
:1025A0006D2053697A653D25644B422E2E2E0D0A0F
:1025B000000000001400002047443332463130331D
:1025C000564B5436205549443D2564256425642ED8
:1025D0002E2E0D0A00000000034A0A400243034B5E
:1025E0001A60BFF34F8F704780FFFF1F08ED00E0B8
:1025F00010B5044640F2026000F0CCF840F20E60E4
:1026000000F0C8F84FF40073032218211648FFF7B2
:10261000D9FE4FF48063032248211348FFF7D2FE0E
:102620002146124800F04EF90021104800F0DAF976
:1026300000210E4800F0C6F900210C4800F0B2F964
:1026400000210A4800F09EF90021084800F0A2F994
:102650000821064800F0BEF90421044800F0AAF958
:10266000024800F07BF910BD00080140003801402D
:102670002DE9F04F8BB00746002009903EA090E86E
:10268000004CC068CDE905BECDF810A007900FF250
:10269000EC0ADAE9000ACDE9020A0FF2E00ADAE907
:1026A000000ACDE9000A38484068C0F381000A906A
:1026B0000A9820B1012804D0022829D103E0334927
:1026C00028E0324926E03048406800F48038B8F508
:1026D000803F09D12D4C2C48406800F40039B9F5F1
:1026E000003F02D1641000E0294C27484068C0F345
:1026F00083422548406800F0006008B142F01002B3
:102700000F2A01D2921C00E0521C04FB02F101E0EE
:102710001E4900BF00BF1C484068C0F3031504A851
:10272000465D21FA06F318484068C0F3022502A866
:10273000465D23FA06FC14484068C0F3C2251DF824
:10274000056023FA06F0089037B1012F06D0022F5A
:1027500006D0032F0AD106E0099108E0099306E0AC
:10276000CDF824C003E00898099000E000BF00BF46
:1027700009980BB0BDE8F08F0000000000000000D9
:1027800001020304060708090010024000127A0043
:1027900000093D00064A02EB9011096800F01F0392
:1027A00001229A401143024B03EB901211607047D3
:1027B00000100240002000212B4A126842F48032AF
:1027C000294B1A6000BF401C274A126802F40031EE
:1027D00019B94FF6FF729042F5D1234A126802F4FC
:1027E00000320AB900BFFEE71F4A52681E4B5A600A
:1027F0001A4652685A601A46526842F480625A6019
:102800001A46526822F440325A601A46526842F41C
:1028100080325A601A465268144B1A40124B5A6062
:102820001A46526842F420125A601A46126842F060
:1028300080721A6000BF0C4A126802F00072002A0F
:10284000F9D0094A526822F00302074B5A601A462F
:10285000526842F002025A6000BF034A526802F016
:102860000C02082AF9D1704700100240FFFFC3F79D
:1028700010B5FFF79FFF10BD042808D14FF0E021ED
:10288000096941F004014FF0E022116107E04FF0C7
:10289000E021096921F004014FF0E0221161704745
:1028A00010B504460420FFF7E7FF044804704FF416
:1028B0007A7060430249086010BD000004000020E7
:1028C000080000202DE9F04704460D460027B846D1
:1028D000B94600261D49601A8C421CD006DC1C48F3
:1028E000204470B1B0F5806F1FD10FE0B0F5806F5C
:1028F00016D0B0F56C4F18D10320FFF7B9FE07468C
:1029000014E00220FFF7B4FE07460FE00220FFF7B5
:10291000AFFE07460AE00220FFF7AAFE074605E0E1
:102920000220FFF7A5FE074600E000BF00BF07EB4F
:102930005500B0FBF5F64FF6F07006EA000806F019
:102940000F0948EA0900A060BDE8F087004C00408C
:1029500000BCFFBFC1F3080242607047C16841F488
:102960000051C160704710B5024602EB911000683B
:1029700001F01F040123A340184008B1012010BD3D
:102980000020FCE70A460021416921F4007111434F
:10299000416170470A460021416921F48071114369
:1029A00041617047C26822F4C062C260C2680A43D3
:1029B000C26070470A460021C16821F0040111433A
:1029C000C1607047026922F44052026102690A4301
:1029D000026170470A460021C16821F008011143D5
:1029E000C1607047C26822F48052C260C2680A4364
:1029F000C2607047000000000004000200060001F1
:102A0000000500030007800080048002800680012A
:102A100080058003800740004004400240064001DA
:102A2000400540034007C000C004C002C006C0010A
:102A3000C005C003C007200020042002200620019A
:102A4000200520032007A000A004A002A006A001EA
:102A5000A005A003A007600060046002600660019A
:102A6000600560036007E000E004E002E006E001CA
:102A7000E005E003E007100010041002100610014A
:102A8000100510031007900090049002900690012A
:102A900090059003900750005004500250065001DA
:102AA000500550035007D000D004D002D006D0010A
:102AB000D005D003D007300030043002300630019A
:102AC000300530033007B000B004B002B006B001EA
:102AD000B005B003B007700070047002700670019A
:102AE000700570037007F000F004F002F006F001CA
:102AF000F005F003F00708000804080208060801C2
:102B000008050803080788008804880288068801E9
:102B10008805880388074800480448024806480199
:102B2000480548034807C800C804C802C806C801C9
:102B3000C805C803C8072800280428022806280159
:102B4000280528032807A800A804A802A806A801A9
:102B5000A805A803A8076800680468026806680159
:102B6000680568036807E800E804E802E806E80189
:102B7000E805E803E8071800180418021806180109
:102B800018051803180798009804980298069801E9
:102B90009805980398075800580458025806580199
:102BA000580558035807D800D804D802D806D801C9
:102BB000D805D803D8073800380438023806380159
:102BC000380538033807B800B804B802B806B801A9
:102BD000B805B803B8077800780478027806780159
:102BE000780578037807F800F804F802F806F80189
:102BF000F805F803F80704000404040204060401BD
:102C00000405040304078400840484028406840108
:102C100084058403840744004404440244064401B8
:102C2000440544034407C400C404C402C406C401E8
:102C3000C405C403C4072400240424022406240178
:102C4000240524032407A400A404A402A406A401C8
:102C5000A405A403A4076400640464026406640178
:102C6000640564036407E400E404E402E406E401A8
:102C7000E405E403E4071400140414021406140128
:102C80001405140314079400940494029406940108
:102C900094059403940754005404540254065401B8
:102CA000540554035407D400D404D402D406D401E8
:102CB000D405D403D4073400340434023406340178
:102CC000340534033407B400B404B402B406B401C8
:102CD000B405B403B4077400740474027406740178
:102CE000740574037407F400F404F402F406F401A8
:102CF000F405F403F4070C000C040C020C060C01A0
:102D00000C050C030C078C008C048C028C068C01C7
:102D10008C058C038C074C004C044C024C064C0177
:102D20004C054C034C07CC00CC04CC02CC06CC01A7
:102D3000CC05CC03CC072C002C042C022C062C0137
:102D40002C052C032C07AC00AC04AC02AC06AC0187
:102D5000AC05AC03AC076C006C046C026C066C0137
:102D60006C056C036C07EC00EC04EC02EC06EC0167
:102D7000EC05EC03EC071C001C041C021C061C01E7
:102D80001C051C031C079C009C049C029C069C01C7
:102D90009C059C039C075C005C045C025C065C0177
:102DA0005C055C035C07DC00DC04DC02DC06DC01A7
:102DB000DC05DC03DC073C003C043C023C063C0137
:102DC0003C053C033C07BC00BC04BC02BC06BC0187
:102DD000BC05BC03BC077C007C047C027C067C0137
:102DE0007C057C037C07FC00FC04FC02FC06FC0167
:102DF000FC05FC03FC0702000204020202060201B9
:102E00000205020302078200820482028206820116
:102E100082058203820742004204420242064201C6
:102E2000420542034207C200C204C202C206C201F6
:102E3000C205C203C2072200220422022206220186
:102E4000220522032207A200A204A202A206A201D6
:102E5000A205A203A2076200620462026206620186
:102E6000620562036207E200E204E202E206E201B6
:102E7000E205E203E2071200120412021206120136
:102E80001205120312079200920492029206920116
:102E900092059203920752005204520252065201C6
:102EA000520552035207D200D204D202D206D201F6
:102EB000D205D203D2073200320432023206320186
:102EC000320532033207B200B204B202B206B201D6
:102ED000B205B203B2077200720472027206720186
:102EE000720572037207F200F204F202F206F201B6
:102EF000F205F203F2070A000A040A020A060A01AE
:102F00000A050A030A078A008A048A028A068A01D5
:102F10008A058A038A074A004A044A024A064A0185
:102F20004A054A034A07CA00CA04CA02CA06CA01B5
:102F3000CA05CA03CA072A002A042A022A062A0145
:102F40002A052A032A07AA00AA04AA02AA06AA0195
:102F5000AA05AA03AA076A006A046A026A066A0145
:102F60006A056A036A07EA00EA04EA02EA06EA0175
:102F7000EA05EA03EA071A001A041A021A061A01F5
:102F80001A051A031A079A009A049A029A069A01D5
:102F90009A059A039A075A005A045A025A065A0185
:102FA0005A055A035A07DA00DA04DA02DA06DA01B5
:102FB000DA05DA03DA073A003A043A023A063A0145
:102FC0003A053A033A07BA00BA04BA02BA06BA0195
:102FD000BA05BA03BA077A007A047A027A067A0145
:102FE0007A057A037A07FA00FA04FA02FA06FA0175
:102FF000FA05FA03FA0706000604060206060601A9
:1030000006050603060786008604860286068601F4
:1030100086058603860746004604460246064601A4
:10302000460546034607C600C604C602C606C601D4
:10303000C605C603C6072600260426022606260164
:10304000260526032607A600A604A602A606A601B4
:10305000A605A603A6076600660466026606660164
:10306000660566036607E600E604E602E606E60194
:10307000E605E603E6071600160416021606160114
:1030800016051603160796009604960296069601F4
:1030900096059603960756005604560256065601A4
:1030A000560556035607D600D604D602D606D601D4
:1030B000D605D603D6073600360436023606360164
:1030C000360536033607B600B604B602B606B601B4
:1030D000B605B603B6077600760476027606760164
:1030E000760576037607F600F604F602F606F60194
:1030F000F605F603F6070E000E040E020E060E018C
:103100000E050E030E078E008E048E028E068E01B3
:103110008E058E038E074E004E044E024E064E0163
:103120004E054E034E07CE00CE04CE02CE06CE0193
:10313000CE05CE03CE072E002E042E022E062E0123
:103140002E052E032E07AE00AE04AE02AE06AE0173
:10315000AE05AE03AE076E006E046E026E066E0123
:103160006E056E036E07EE00EE04EE02EE06EE0153
:10317000EE05EE03EE071E001E041E021E061E01D3
:103180001E051E031E079E009E049E029E069E01B3
:103190009E059E039E075E005E045E025E065E0163
:1031A0005E055E035E07DE00DE04DE02DE06DE0193
:1031B000DE05DE03DE073E003E043E023E063E0123
:1031C0003E053E033E07BE00BE04BE02BE06BE0173
:1031D000BE05BE03BE077E007E047E027E067E0123
:1031E0007E057E037E07FE00FE04FE02FE06FE0153
:1031F000FE05FE03FE070100000000000000F03F96
:103200000000000000000000468D32CF6B90ED3FC3
:1032100063A9AEA6E27DD83FCC3B7F669EA0E63F89
:10322000CC3B7F669EA0E63F63A9AEA6E27DD83F79
:10323000468D32CF6B90ED3F000000000000000093
:10324000000000000000F03F63A9AEA6E27DD8BFF9
:10325000468D32CF6B90ED3FCC3B7F669EA0E6BFA4
:10326000CC3B7F669EA0E63F468D32CF6B90EDBF94
:1032700063A9AEA6E27DD83F000000000000F0BFC9
:103280000000000000000000468D32CF6B90EDBFC3
:1032900063A9AEA6E27DD8BFCC3B7F669EA0E6BF09
:1032A000CC3B7F669EA0E6BF63A9AEA6E27DD8BFF9
:1032B000468D32CF6B90EDBF000000000000000093
:1032C000000000000000F0BF63A9AEA6E27DD83F79
:1032D000468D32CF6B90EDBFCC3B7F669EA0E63F24
:1032E000CC3B7F669EA0E6BF468D32CF6B90ED3F14
:1032F00063A9AEA6E27DD8BF000000000000F03F49
:103300000000000000000000B05CF7CF9762EF3FC4
:103310000AA6693CB8F8C83F468D32CF6B90ED3FA6
:1033200063A9AEA6E27DD83FA3A10E29669BEA3F22
:10333000C868AE393BC7E13FCC3B7F669EA0E63F05
:10334000CC3B7F669EA0E63FC868AE393BC7E13FF5
:10335000A3A10E29669BEA3F63A9AEA6E27DD83FF2
:10336000468D32CF6B90ED3F0AA6693CB8F8C83F56
:10337000B05CF7CF9762EF3F000000000000000054
:10338000000000000000F03F0AA6693CB8F8C8BF82
:10339000B05CF7CF9762EF3F63A9AEA6E27DD8BFDE
:1033A000468D32CF6B90ED3FC868AE393BC7E1BF69
:1033B000A3A10E29669BEA3FCC3B7F669EA0E6BF99
:1033C000CC3B7F669EA0E63FA3A10E29669BEABF89
:1033D000C868AE393BC7E13F468D32CF6B90EDBF39
:1033E00063A9AEA6E27DD83FB05CF7CF9762EFBF8E
:1033F0000AA6693CB8F8C83F000000000000F0BF12
:103400000000000000000000B05CF7CF9762EFBF43
:103410000AA6693CB8F8C8BF468D32CF6B90EDBFA5
:1034200063A9AEA6E27DD8BFA3A10E29669BEABF21
:10343000C868AE393BC7E1BFCC3B7F669EA0E6BF04
:10344000CC3B7F669EA0E6BFC868AE393BC7E1BFF4
:10345000A3A10E29669BEABF63A9AEA6E27DD8BFF1
:10346000468D32CF6B90EDBF0AA6693CB8F8C8BF55
:10347000B05CF7CF9762EFBF0000000000000000D3
:10348000000000000000F0BF0AA6693CB8F8C83F81
:10349000B05CF7CF9762EFBF63A9AEA6E27DD83FDD
:1034A000468D32CF6B90EDBFC868AE393BC7E13F68
:1034B000A3A10E29669BEABFCC3B7F669EA0E63F98
:1034C000CC3B7F669EA0E6BFA3A10E29669BEA3F88
:1034D000C868AE393BC7E1BF468D32CF6B90ED3F38
:1034E00063A9AEA6E27DD8BFB05CF7CF9762EF3F8D
:1034F0000AA6693CB8F8C8BF000000000000F03F11
:1035000000000000000000002625D1A38DD8EF3F69
:103510002CB429BCA617B93FB05CF7CF9762EF3F38
:103520000AA6693CB8F8C83FDA2DC656419FEE3F5F
:10353000059FD52E0694D23F468D32CF6B90ED3F3E
:1035400063A9AEA6E27DD83FB1BD80F1B238EC3FB1
:103550003BF606385D2BDE3FA3A10E29669BEA3FB2
:10356000C868AE393BC7E13F4117156B80BCE83FE7
:10357000D61D0925F34CE43FCC3B7F669EA0E63F79
:10358000CC3B7F669EA0E63FD61D0925F34CE43F69
:103590004117156B80BCE83FC868AE393BC7E13FB7
:1035A000A3A10E29669BEA3F3BF606385D2BDE3F62
:1035B000B1BD80F1B238EC3F63A9AEA6E27DD83F41
:1035C000468D32CF6B90ED3F059FD52E0694D23FAE
:1035D000DA2DC656419FEE3F0AA6693CB8F8C83FAF
:1035E000B05CF7CF9762EF3F2CB429BCA617B93F68
:1035F0002625D1A38DD8EF3F000000000000000079
:10360000000000000000F03F2CB429BCA617B9BF91
:103610002625D1A38DD8EF3F0AA6693CB8F8C8BFCC
:10362000B05CF7CF9762EF3F059FD52E0694D2BFCF
:10363000DA2DC656419FEE3F63A9AEA6E27DD8BF04
:10364000468D32CF6B90ED3F3BF606385D2BDEBFEB
:10365000B1BD80F1B238EC3FC868AE393BC7E1BFBD
:10366000A3A10E29669BEA3FD61D0925F34CE4BFB2
:103670004117156B80BCE83FCC3B7F669EA0E6BF40
:10368000CC3B7F669EA0E63F4117156B80BCE8BF30
:10369000D61D0925F34CE43FA3A10E29669BEABF82
:1036A000C868AE393BC7E13FB1BD80F1B238ECBF6D
:1036B0003BF606385D2BDE3F468D32CF6B90EDBF7B
:1036C00063A9AEA6E27DD83FDA2DC656419FEEBF74
:1036D000059FD52E0694D23FB05CF7CF9762EFBF1F
:1036E0000AA6693CB8F8C83F2625D1A38DD8EFBFFC
:1036F0002CB429BCA617B93F000000000000F0BFA1
:1037000000000000000000002625D1A38DD8EFBFE7
:103710002CB429BCA617B9BFB05CF7CF9762EFBF36
:103720000AA6693CB8F8C8BFDA2DC656419FEEBF5D
:10373000059FD52E0694D2BF468D32CF6B90EDBF3C
:1037400063A9AEA6E27DD8BFB1BD80F1B238ECBFAF
:103750003BF606385D2BDEBFA3A10E29669BEABFB0
:10376000C868AE393BC7E1BF4117156B80BCE8BFE5
:10377000D61D0925F34CE4BFCC3B7F669EA0E6BF77
:10378000CC3B7F669EA0E6BFD61D0925F34CE4BF67
:103790004117156B80BCE8BFC868AE393BC7E1BFB5
:1037A000A3A10E29669BEABF3BF606385D2BDEBF60
:1037B000B1BD80F1B238ECBF63A9AEA6E27DD8BF3F
:1037C000468D32CF6B90EDBF059FD52E0694D2BFAC
:1037D000DA2DC656419FEEBF0AA6693CB8F8C8BFAD
:1037E000B05CF7CF9762EFBF2CB429BCA617B9BF66
:1037F0002625D1A38DD8EFBF0000000000000000F7
:10380000000000000000F0BF2CB429BCA617B93F8F
:103810002625D1A38DD8EFBF0AA6693CB8F8C83FCA
:10382000B05CF7CF9762EFBF059FD52E0694D23FCD
:10383000DA2DC656419FEEBF63A9AEA6E27DD83F02
:10384000468D32CF6B90EDBF3BF606385D2BDE3FE9
:10385000B1BD80F1B238ECBFC868AE393BC7E13FBB
:10386000A3A10E29669BEABFD61D0925F34CE43FB0
:103870004117156B80BCE8BFCC3B7F669EA0E63F3E
:10388000CC3B7F669EA0E6BF4117156B80BCE83F2E
:10389000D61D0925F34CE4BFA3A10E29669BEA3F80
:1038A000C868AE393BC7E1BFB1BD80F1B238EC3F6B
:1038B0003BF606385D2BDEBF468D32CF6B90ED3F79
:1038C00063A9AEA6E27DD8BFDA2DC656419FEE3F72
:1038D000059FD52E0694D2BFB05CF7CF9762EF3F1D
:1038E0000AA6693CB8F8C8BF2625D1A38DD8EF3FFA
:1038F0002CB429BCA617B9BF000000000000F03F9F
:1039000000000000000000007E6D79E321F6EF3F2B
:1039100014D80DF1651FA93F2625D1A38DD8EF3FFF
:103920002CB429BCA617B93F17A5087F55A7EF3FB0
:103930003A618E6E10C8C23FB05CF7CF9762EF3F1E
:103940000AA6693CB8F8C83FD73092FB7E0AEF3F21
:103950001A5F217BF919CF3FDA2DC656419FEE3F02
:10396000059FD52E0694D23FE586F6042121EE3F31
:10397000DD1FAB759A8FD53F468D32CF6B90ED3FF3
:1039800063A9AEA6E27DD83F73C73CF47AEDEC3F65
:10399000C05CE109105DDB3FB1BD80F1B238EC3FA6
:1039A0003BF606385D2BDE3F3E6E19458372EB3FDA
:1039B000EDFF22998773E03FA3A10E29669BEA3FA2
:1039C000C868AE393BC7E13F4187F347E0B3E93F01
:1039D0003570E1FCF70FE33F4117156B80BCE83F02
:1039E000D61D0925F34CE43FB0AF6A22DFB5E73FAF
:1039F0009FEC8C34697DE53FCC3B7F669EA0E63F23
:103A0000CC3B7F669EA0E63F9FEC8C34697DE53F12
:103A1000B0AF6A22DFB5E73FD61D0925F34CE43F7E
:103A20004117156B80BCE83F3570E1FCF70FE33FB1
:103A30004187F347E0B3E93FC868AE393BC7E13F90
:103A4000A3A10E29669BEA3FEDFF22998773E03F11
:103A50003E6E19458372EB3F3BF606385D2BDE3F29
:103A6000B1BD80F1B238EC3FC05CE109105DDB3FD5
:103A700073C73CF47AEDEC3F63A9AEA6E27DD83F74
:103A8000468D32CF6B90ED3FDD1FAB759A8FD53FE2
:103A9000E586F6042121EE3F059FD52E0694D23F00
:103AA000DA2DC656419FEE3F1A5F217BF919CF3FB1
:103AB000D73092FB7E0AEF3F0AA6693CB8F8C83FB0
:103AC000B05CF7CF9762EF3F3A618E6E10C8C23F8D
:103AD00017A5087F55A7EF3F2CB429BCA617B93FFF
:103AE0002625D1A38DD8EF3F14D80DF1651FA93F2E
:103AF0007E6D79E321F6EF3F00000000000000003A
:103B0000000000000000F03F14D80DF1651FA9BFB0
:103B10007E6D79E321F6EF3F2CB429BCA617B9BF1F
:103B20002625D1A38DD8EF3F3A618E6E10C8C2BF53
:103B300017A5087F55A7EF3F0AA6693CB8F8C8BF8C
:103B4000B05CF7CF9762EF3F1A5F217BF919CFBFC7
:103B5000D73092FB7E0AEF3F059FD52E0694D2BF49
:103B6000DA2DC656419FEE3FDD1FAB759A8FD5BF4C
:103B7000E586F6042121EE3F63A9AEA6E27DD8BF1B
:103B8000468D32CF6B90ED3FC05CE109105DDBBF2D
:103B900073C73CF47AEDEC3F3BF606385D2BDEBF95
:103BA000B1BD80F1B238EC3FEDFF22998773E0BFE1
:103BB0003E6E19458372EB3FC868AE393BC7E1BF23
:103BC000A3A10E29669BEA3F3570E1FCF70FE3BF26
:103BD0004187F347E0B3E93FD61D0925F34CE4BF25
:103BE0004117156B80BCE83F9FEC8C34697DE5BFC5
:103BF000B0AF6A22DFB5E73FCC3B7F669EA0E6BF51
:103C0000CC3B7F669EA0E63FB0AF6A22DFB5E7BF40
:103C10009FEC8C34697DE53F4117156B80BCE8BF94
:103C2000D61D0925F34CE43F4187F347E0B3E9BFD4
:103C30003570E1FCF70FE33FA3A10E29669BEABFB5
:103C4000C868AE393BC7E13F3E6E19458372EBBF92
:103C5000EDFF22998773E03FB1BD80F1B238ECBF30
:103C60003BF606385D2BDE3F73C73CF47AEDECBFC4
:103C7000C05CE109105DDB3F468D32CF6B90EDBF3C
:103C800063A9AEA6E27DD83FE586F6042121EEBF0A
:103C9000DD1FAB759A8FD53FDA2DC656419FEEBF1B
:103CA000059FD52E0694D23FD73092FB7E0AEFBFF8
:103CB0001A5F217BF919CF3FB05CF7CF9762EFBF56
:103CC0000AA6693CB8F8C83F17A5087F55A7EFBFFB
:103CD0003A618E6E10C8C23F2625D1A38DD8EFBFA2
:103CE0002CB429BCA617B93F7E6D79E321F6EFBF4E
:103CF00014D80DF1651FA93F000000000000F0BFBF
:103D000000000000000000007E6D79E321F6EFBFA7
:103D100014D80DF1651FA9BF2625D1A38DD8EFBFFB
:103D20002CB429BCA617B9BF17A5087F55A7EFBFAC
:103D30003A618E6E10C8C2BFB05CF7CF9762EFBF1A
:103D40000AA6693CB8F8C8BFD73092FB7E0AEFBF1D
:103D50001A5F217BF919CFBFDA2DC656419FEEBFFE
:103D6000059FD52E0694D2BFE586F6042121EEBF2D
:103D7000DD1FAB759A8FD5BF468D32CF6B90EDBFEF
:103D800063A9AEA6E27DD8BF73C73CF47AEDECBF61
:103D9000C05CE109105DDBBFB1BD80F1B238ECBFA2
:103DA0003BF606385D2BDEBF3E6E19458372EBBFD6
:103DB000EDFF22998773E0BFA3A10E29669BEABF9E
:103DC000C868AE393BC7E1BF4187F347E0B3E9BFFD
:103DD0003570E1FCF70FE3BF4117156B80BCE8BFFE
:103DE000D61D0925F34CE4BFB0AF6A22DFB5E7BFAB
:103DF0009FEC8C34697DE5BFCC3B7F669EA0E6BF1F
:103E0000CC3B7F669EA0E6BF9FEC8C34697DE5BF0E
:103E1000B0AF6A22DFB5E7BFD61D0925F34CE4BF7A
:103E20004117156B80BCE8BF3570E1FCF70FE3BFAD
:103E30004187F347E0B3E9BFC868AE393BC7E1BF8C
:103E4000A3A10E29669BEABFEDFF22998773E0BF0D
:103E50003E6E19458372EBBF3BF606385D2BDEBF25
:103E6000B1BD80F1B238ECBFC05CE109105DDBBFD1
:103E700073C73CF47AEDECBF63A9AEA6E27DD8BF70
:103E8000468D32CF6B90EDBFDD1FAB759A8FD5BFDE
:103E9000E586F6042121EEBF059FD52E0694D2BFFC
:103EA000DA2DC656419FEEBF1A5F217BF919CFBFAD
:103EB000D73092FB7E0AEFBF0AA6693CB8F8C8BFAC
:103EC000B05CF7CF9762EFBF3A618E6E10C8C2BF89
:103ED00017A5087F55A7EFBF2CB429BCA617B9BFFB
:103EE0002625D1A38DD8EFBF14D80DF1651FA9BF2A
:103EF0007E6D79E321F6EFBF0000000000000000B6
:103F0000000000000000F0BF14D80DF1651FA93FAC
:103F10007E6D79E321F6EFBF2CB429BCA617B93F1B
:103F20002625D1A38DD8EFBF3A618E6E10C8C23F4F
:103F300017A5087F55A7EFBF0AA6693CB8F8C83F88
:103F4000B05CF7CF9762EFBF1A5F217BF919CF3FC3
:103F5000D73092FB7E0AEFBF059FD52E0694D23F45
:103F6000DA2DC656419FEEBFDD1FAB759A8FD53F48
:103F7000E586F6042121EEBF63A9AEA6E27DD83F17
:103F8000468D32CF6B90EDBFC05CE109105DDB3F29
:103F900073C73CF47AEDECBF3BF606385D2BDE3F91
:103FA000B1BD80F1B238ECBFEDFF22998773E03FDD
:103FB0003E6E19458372EBBFC868AE393BC7E13F1F
:103FC000A3A10E29669BEABF3570E1FCF70FE33F22
:103FD0004187F347E0B3E9BFD61D0925F34CE43F21
:103FE0004117156B80BCE8BF9FEC8C34697DE53FC1
:103FF000B0AF6A22DFB5E7BFCC3B7F669EA0E63F4D
:10400000CC3B7F669EA0E6BFB0AF6A22DFB5E73F3C
:104010009FEC8C34697DE5BF4117156B80BCE83F90
:10402000D61D0925F34CE4BF4187F347E0B3E93FD0
:104030003570E1FCF70FE3BFA3A10E29669BEA3FB1
:10404000C868AE393BC7E1BF3E6E19458372EB3F8E
:10405000EDFF22998773E0BFB1BD80F1B238EC3F2C
:104060003BF606385D2BDEBF73C73CF47AEDEC3FC0
:10407000C05CE109105DDBBF468D32CF6B90ED3F38
:1040800063A9AEA6E27DD8BFE586F6042121EE3F06
:10409000DD1FAB759A8FD5BFDA2DC656419FEE3F17
:1040A000059FD52E0694D2BFD73092FB7E0AEF3FF4
:1040B0001A5F217BF919CFBFB05CF7CF9762EF3F52
:1040C0000AA6693CB8F8C8BF17A5087F55A7EF3FF7
:1040D0003A618E6E10C8C2BF2625D1A38DD8EF3F9E
:1040E0002CB429BCA617B9BF7E6D79E321F6EF3F4A
:1040F00014D80DF1651FA9BF000000000000F03FBB
:1041000000000000000000000DCD846088FDEF3F3E
:104110007E66A3F75521993F7E6D79E321F6EF3F47
:1041200014D80DF1651FA93F3A8801ADCDE9EF3FE5
:10413000F619CE9220D5B23F2625D1A38DD8EF3FD8
:104140002CB429BCA617B93FD39FE17064C2EF3FDE
:104150000E73A9564E56BF3F17A5087F55A7EF3FD0
:104160003A618E6E10C8C23FA94B71FA6487EF3F67
:10417000C63F8B4414E2C53FB05CF7CF9762EF3F78
:104180000AA6693CB8F8C83F89E564ACF338EF3F4C
:10419000634F7E6A820BCC3FD73092FB7E0AEF3FA3
:1041A0001A5F217BF919CF3F634968E740D7EE3F9B
:1041B00077F6B162D211D13FDA2DC656419FEE3F5C
:1041C000059FD52E0694D23F12E148EC8862EE3F5F
:1041D000026617945C13D43FE586F6042121EE3F76
:1041E000DD1FAB759A8FD53F3DC2CCB613DBED3FDB
:1041F0009E45FA308508D73F468D32CF6B90ED3F14
:1042000063A9AEA6E27DD83F3AC94DD13441ED3F16
:104210008AEDA84379EFD93F73C73CF47AEDEC3FC0
:10422000C05CE109105DDB3FF51134214B95EC3F9B
:104230005DC431996EC6DC3FB1BD80F1B238EC3F50
:104240003BF606385D2BDE3F2A956FACC0D7EB3FBF
:10425000BA9AF8DBA48BDF3F3E6E19458372EB3FC1
:10426000EDFF22998773E03F000215580A09EB3FE2
:10427000224B1B54B31EE13FA3A10E29669BEA3FCC
:10428000C868AE393BC7E13F822746A0A729EA3F6D
:10429000DF12DD4C056DE23F4187F347E0B3E93FB4
:1042A0003570E1FCF70FE33FFC639249223AE93FA6
:1042B000B9502029FAAFE33F4117156B80BCE83FA6
:1042C000D61D0925F34CE43F6E97FF0B0E3BE83FEC
:1042D000E9E5E3BBCAE6E43FB0AF6A22DFB5E73FFA
:1042E0009FEC8C34697DE53F97FFEF37082DE73F62
:1042F000DE2C1D55B710E63FCC3B7F669EA0E63F07
:10430000CC3B7F669EA0E63FDE2C1D55B710E63FF6
:1043100097FFEF37082DE73F9FEC8C34697DE53F31
:10432000B0AF6A22DFB5E73FE9E5E3BBCAE6E43FA9
:104330006E97FF0B0E3BE83FD61D0925F34CE43F7B
:104340004117156B80BCE83FB9502029FAAFE33F15
:10435000FC639249223AE93F3570E1FCF70FE33FF5
:104360004187F347E0B3E93FDF12DD4C056DE23FE3
:10437000822746A0A729EA3FC868AE393BC7E13F7C
:10438000A3A10E29669BEA3F224B1B54B31EE13FBB
:10439000000215580A09EB3FEDFF22998773E03FB1
:1043A0003E6E19458372EB3FBA9AF8DBA48BDF3F70
:1043B0002A956FACC0D7EB3F3BF606385D2BDE3F4E
:1043C000B1BD80F1B238EC3F5DC431996EC6DC3FBF
:1043D000F51134214B95EC3FC05CE109105DDB3FEA
:1043E00073C73CF47AEDEC3F8AEDA84379EFD93FEF
:1043F0003AC94DD13441ED3F63A9AEA6E27DD83F25
:10440000468D32CF6B90ED3F9E45FA308508D73F01
:104410003DC2CCB613DBED3FDD1FAB759A8FD53FA8
:10442000E586F6042121EE3F026617945C13D43F23
:1044300012E148EC8862EE3F059FD52E0694D23FEC
:10444000DA2DC656419FEE3F77F6B162D211D13FC9
:10445000634968E740D7EE3F1A5F217BF919CF3FE8
:10446000D73092FB7E0AEF3F634F7E6A820BCC3FD0
:1044700089E564ACF338EF3F0AA6693CB8F8C83F59
:10448000B05CF7CF9762EF3FC63F8B4414E2C53F65
:10449000A94B71FA6487EF3F3A618E6E10C8C23F34
:1044A00017A5087F55A7EF3F0E73A9564E56BF3F7D
:1044B000D39FE17064C2EF3F2CB429BCA617B93F6B
:1044C0002625D1A38DD8EF3FF619CE9220D5B23F45
:1044D0003A8801ADCDE9EF3F14D80DF1651FA93F32
:1044E0007E6D79E321F6EF3F7E66A3F75521993F74
:1044F0000DCD846088FDEF3F00000000000000004B
:10450000000000000000F03F7E66A3F7552199BF30
:104510000DCD846088FDEF3F14D80DF1651FA9BF54
:104520007E6D79E321F6EF3FF619CE9220D5B2BF2A
:104530003A8801ADCDE9EF3F2CB429BCA617B9BF2D
:104540002625D1A38DD8EF3F0E73A9564E56BFBF77
:10455000D39FE17064C2EF3F3A618E6E10C8C2BF54
:1045600017A5087F55A7EF3FC63F8B4414E2C5BF90
:10457000A94B71FA6487EF3F0AA6693CB8F8C8BF37
:10458000B05CF7CF9762EF3F634F7E6A820BCCBF80
:1045900089E564ACF338EF3F1A5F217BF919CFBF8F
:1045A000D73092FB7E0AEF3F77F6B162D211D1BFCE
:1045B000634968E740D7EE3F059FD52E0694D2BFEA
:1045C000DA2DC656419FEE3F026617945C13D4BFA6
:1045D00012E148EC8862EE3FDD1FAB759A8FD5BFC4
:1045E000E586F6042121EE3F9E45FA308508D7BFC7
:1045F0003DC2CCB613DBED3F63A9AEA6E27DD8BFCA
:10460000468D32CF6B90ED3F8AEDA84379EFD9BF4D
:104610003AC94DD13441ED3FC05CE109105DDBBFCB
:1046200073C73CF47AEDEC3F5DC431996EC6DCBFD4
:10463000F51134214B95EC3F3BF606385D2BDEBF80
:10464000B1BD80F1B238EC3FBA9AF8DBA48BDFBF82
:104650002A956FACC0D7EB3FEDFF22998773E0BF7F
:104660003E6E19458372EB3F224B1B54B31EE1BFD4
:10467000000215580A09EB3FC868AE393BC7E1BFD5
:10468000A3A10E29669BEA3FDF12DD4C056DE2BF58
:10469000822746A0A729EA3F3570E1FCF70FE3BF68
:1046A0004187F347E0B3E93FB9502029FAAFE3BFB0
:1046B000FC639249223AE93FD61D0925F34CE4BF39
:1046C0004117156B80BCE83FE9E5E3BBCAE6E4BFF0
:1046D0006E97FF0B0E3BE83F9FEC8C34697DE5BF86
:1046E000B0AF6A22DFB5E73FDE2C1D55B710E6BF3D
:1046F00097FFEF37082DE73FCC3B7F669EA0E6BFD4
:10470000CC3B7F669EA0E63F97FFEF37082DE7BFC3
:10471000DE2C1D55B710E63FB0AF6A22DFB5E7BF0C
:104720009FEC8C34697DE53F6E97FF0B0E3BE8BF35
:10473000E9E5E3BBCAE6E43F4117156B80BCE8BF7F
:10474000D61D0925F34CE43FFC639249223AE9BFA8
:10475000B9502029FAAFE33F4187F347E0B3E9BFFF
:104760003570E1FCF70FE33F822746A0A729EABF97
:10477000DF12DD4C056DE23FA3A10E29669BEABF67
:10478000C868AE393BC7E13F000215580A09EBBFC4
:10479000224B1B54B31EE13F3E6E19458372EBBFA3
:1047A000EDFF22998773E03F2A956FACC0D7EBBF2E
:1047B000BA9AF8DBA48BDF3FB1BD80F1B238ECBF11
:1047C0003BF606385D2BDE3FF51134214B95ECBFEF
:1047D0005DC431996EC6DC3F73C73CF47AEDECBF23
:1047E000C05CE109105DDB3F3AC94DD13441EDBFFA
:1047F0008AEDA84379EFD93F468D32CF6B90EDBF5C
:1048000063A9AEA6E27DD83F3DC2CCB613DBEDBFB7
:104810009E45FA308508D73FE586F6042121EEBF94
:10482000DD1FAB759A8FD53F12E148EC8862EEBF71
:10483000026617945C13D43FDA2DC656419FEEBF33
:10484000059FD52E0694D23F634968E740D7EEBF57
:1048500077F6B162D211D13FD73092FB7E0AEFBF1B
:104860001A5F217BF919CF3F89E564ACF338EFBFBC
:10487000634F7E6A820BCC3FB05CF7CF9762EFBF8D
:104880000AA6693CB8F8C83FA94B71FA6487EFBF24
:10489000C63F8B4414E2C53F17A5087F55A7EFBF5D
:1048A0003A618E6E10C8C23FD39FE17064C2EFBF01
:1048B0000E73A9564E56BF3F2625D1A38DD8EFBF04
:1048C0002CB429BCA617B93F3A8801ADCDE9EFBF9A
:1048D000F619CE9220D5B23F7E6D79E321F6EFBF77
:1048E00014D80DF1651FA93F0DCD846088FDEFBF81
:1048F0007E66A3F75521993F000000000000F0BF3D
:1049000000000000000000000DCD846088FDEFBFB6
:104910007E66A3F7552199BF7E6D79E321F6EFBF3F
:1049200014D80DF1651FA9BF3A8801ADCDE9EFBFDD
:10493000F619CE9220D5B2BF2625D1A38DD8EFBFD0
:104940002CB429BCA617B9BFD39FE17064C2EFBFD6
:104950000E73A9564E56BFBF17A5087F55A7EFBFC8
:104960003A618E6E10C8C2BFA94B71FA6487EFBF5F
:10497000C63F8B4414E2C5BFB05CF7CF9762EFBF70
:104980000AA6693CB8F8C8BF89E564ACF338EFBF44
:10499000634F7E6A820BCCBFD73092FB7E0AEFBF9B
:1049A0001A5F217BF919CFBF634968E740D7EEBF93
:1049B00077F6B162D211D1BFDA2DC656419FEEBF54
:1049C000059FD52E0694D2BF12E148EC8862EEBF57
:1049D000026617945C13D4BFE586F6042121EEBF6E
:1049E000DD1FAB759A8FD5BF3DC2CCB613DBEDBFD3
:1049F0009E45FA308508D7BF468D32CF6B90EDBF0C
:104A000063A9AEA6E27DD8BF3AC94DD13441EDBF0E
:104A10008AEDA84379EFD9BF73C73CF47AEDECBFB8
:104A2000C05CE109105DDBBFF51134214B95ECBF93
:104A30005DC431996EC6DCBFB1BD80F1B238ECBF48
:104A40003BF606385D2BDEBF2A956FACC0D7EBBFB7
:104A5000BA9AF8DBA48BDFBF3E6E19458372EBBFB9
:104A6000EDFF22998773E0BF000215580A09EBBFDA
:104A7000224B1B54B31EE1BFA3A10E29669BEABFC4
:104A8000C868AE393BC7E1BF822746A0A729EABF65
:104A9000DF12DD4C056DE2BF4187F347E0B3E9BFAC
:104AA0003570E1FCF70FE3BFFC639249223AE9BF9E
:104AB000B9502029FAAFE3BF4117156B80BCE8BF9E
:104AC000D61D0925F34CE4BF6E97FF0B0E3BE8BFE4
:104AD000E9E5E3BBCAE6E4BFB0AF6A22DFB5E7BFF2
:104AE0009FEC8C34697DE5BF97FFEF37082DE7BF5A
:104AF000DE2C1D55B710E6BFCC3B7F669EA0E6BFFF
:104B0000CC3B7F669EA0E6BFDE2C1D55B710E6BFEE
:104B100097FFEF37082DE7BF9FEC8C34697DE5BF29
:104B2000B0AF6A22DFB5E7BFE9E5E3BBCAE6E4BFA1
:104B30006E97FF0B0E3BE8BFD61D0925F34CE4BF73
:104B40004117156B80BCE8BFB9502029FAAFE3BF0D
:104B5000FC639249223AE9BF3570E1FCF70FE3BFED
:104B60004187F347E0B3E9BFDF12DD4C056DE2BFDB
:104B7000822746A0A729EABFC868AE393BC7E1BF74
:104B8000A3A10E29669BEABF224B1B54B31EE1BFB3
:104B9000000215580A09EBBFEDFF22998773E0BFA9
:104BA0003E6E19458372EBBFBA9AF8DBA48BDFBF68
:104BB0002A956FACC0D7EBBF3BF606385D2BDEBF46
:104BC000B1BD80F1B238ECBF5DC431996EC6DCBFB7
:104BD000F51134214B95ECBFC05CE109105DDBBFE2
:104BE00073C73CF47AEDECBF8AEDA84379EFD9BFE7
:104BF0003AC94DD13441EDBF63A9AEA6E27DD8BF1D
:104C0000468D32CF6B90EDBF9E45FA308508D7BFF9
:104C10003DC2CCB613DBEDBFDD1FAB759A8FD5BFA0
:104C2000E586F6042121EEBF026617945C13D4BF1B
:104C300012E148EC8862EEBF059FD52E0694D2BFE4
:104C4000DA2DC656419FEEBF77F6B162D211D1BFC1
:104C5000634968E740D7EEBF1A5F217BF919CFBFE0
:104C6000D73092FB7E0AEFBF634F7E6A820BCCBFC8
:104C700089E564ACF338EFBF0AA6693CB8F8C8BF51
:104C8000B05CF7CF9762EFBFC63F8B4414E2C5BF5D
:104C9000A94B71FA6487EFBF3A618E6E10C8C2BF2C
:104CA00017A5087F55A7EFBF0E73A9564E56BFBF75
:104CB000D39FE17064C2EFBF2CB429BCA617B9BF63
:104CC0002625D1A38DD8EFBFF619CE9220D5B2BF3D
:104CD0003A8801ADCDE9EFBF14D80DF1651FA9BF2A
:104CE0007E6D79E321F6EFBF7E66A3F7552199BF6C
:104CF0000DCD846088FDEFBF0000000000000000C3
:104D0000000000000000F0BF7E66A3F75521993F28
:104D10000DCD846088FDEFBF14D80DF1651FA93F4C
:104D20007E6D79E321F6EFBFF619CE9220D5B23F22
:104D30003A8801ADCDE9EFBF2CB429BCA617B93F25
:104D40002625D1A38DD8EFBF0E73A9564E56BF3F6F
:104D5000D39FE17064C2EFBF3A618E6E10C8C23F4C
:104D600017A5087F55A7EFBFC63F8B4414E2C53F88
:104D7000A94B71FA6487EFBF0AA6693CB8F8C83F2F
:104D8000B05CF7CF9762EFBF634F7E6A820BCC3F78
:104D900089E564ACF338EFBF1A5F217BF919CF3F87
:104DA000D73092FB7E0AEFBF77F6B162D211D13FC6
:104DB000634968E740D7EEBF059FD52E0694D23FE2
:104DC000DA2DC656419FEEBF026617945C13D43F9E
:104DD00012E148EC8862EEBFDD1FAB759A8FD53FBC
:104DE000E586F6042121EEBF9E45FA308508D73FBF
:104DF0003DC2CCB613DBEDBF63A9AEA6E27DD83FC2
:104E0000468D32CF6B90EDBF8AEDA84379EFD93F45
:104E10003AC94DD13441EDBFC05CE109105DDB3FC3
:104E200073C73CF47AEDECBF5DC431996EC6DC3FCC
:104E3000F51134214B95ECBF3BF606385D2BDE3F78
:104E4000B1BD80F1B238ECBFBA9AF8DBA48BDF3F7A
:104E50002A956FACC0D7EBBFEDFF22998773E03F77
:104E60003E6E19458372EBBF224B1B54B31EE13FCC
:104E7000000215580A09EBBFC868AE393BC7E13FCD
:104E8000A3A10E29669BEABFDF12DD4C056DE23F50
:104E9000822746A0A729EABF3570E1FCF70FE33F60
:104EA0004187F347E0B3E9BFB9502029FAAFE33FA8
:104EB000FC639249223AE9BFD61D0925F34CE43F31
:104EC0004117156B80BCE8BFE9E5E3BBCAE6E43FE8
:104ED0006E97FF0B0E3BE8BF9FEC8C34697DE53F7E
:104EE000B0AF6A22DFB5E7BFDE2C1D55B710E63F35
:104EF00097FFEF37082DE7BFCC3B7F669EA0E63FCC
:104F0000CC3B7F669EA0E6BF97FFEF37082DE73FBB
:104F1000DE2C1D55B710E6BFB0AF6A22DFB5E73F04
:104F20009FEC8C34697DE5BF6E97FF0B0E3BE83F2D
:104F3000E9E5E3BBCAE6E4BF4117156B80BCE83F77
:104F4000D61D0925F34CE4BFFC639249223AE93FA0
:104F5000B9502029FAAFE3BF4187F347E0B3E93FF7
:104F60003570E1FCF70FE3BF822746A0A729EA3F8F
:104F7000DF12DD4C056DE2BFA3A10E29669BEA3F5F
:104F8000C868AE393BC7E1BF000215580A09EB3FBC
:104F9000224B1B54B31EE1BF3E6E19458372EB3F9B
:104FA000EDFF22998773E0BF2A956FACC0D7EB3F26
:104FB000BA9AF8DBA48BDFBFB1BD80F1B238EC3F09
:104FC0003BF606385D2BDEBFF51134214B95EC3FE7
:104FD0005DC431996EC6DCBF73C73CF47AEDEC3F1B
:104FE000C05CE109105DDBBF3AC94DD13441ED3FF2
:104FF0008AEDA84379EFD9BF468D32CF6B90ED3F54
:1050000063A9AEA6E27DD8BF3DC2CCB613DBED3FAF
:105010009E45FA308508D7BFE586F6042121EE3F8C
:10502000DD1FAB759A8FD5BF12E148EC8862EE3F69
:10503000026617945C13D4BFDA2DC656419FEE3F2B
:10504000059FD52E0694D2BF634968E740D7EE3F4F
:1050500077F6B162D211D1BFD73092FB7E0AEF3F13
:105060001A5F217BF919CFBF89E564ACF338EF3FB4
:10507000634F7E6A820BCCBFB05CF7CF9762EF3F85
:105080000AA6693CB8F8C8BFA94B71FA6487EF3F1C
:10509000C63F8B4414E2C5BF17A5087F55A7EF3F55
:1050A0003A618E6E10C8C2BFD39FE17064C2EF3FF9
:1050B0000E73A9564E56BFBF2625D1A38DD8EF3FFC
:1050C0002CB429BCA617B9BF3A8801ADCDE9EF3F92
:1050D000F619CE9220D5B2BF7E6D79E321F6EF3F6F
:1050E00014D80DF1651FA9BF0DCD846088FDEF3F79
:1050F0007E66A3F7552199BF000000000000F03F35
:105100000000000000000000DB929B1662FFEF3FF2
:1051100084C7DEFCD121893F0DCD846088FDEF3F3F
:105120007E66A3F75521993F5DF7FEEF72FAEF3FD8
:10513000CD55947565D8A23F7E6D79E321F6EF3F9A
:1051400014D80DF1651FA93FAD718E6595F0EF3F45
:10515000E020F8796E65AF3F3A8801ADCDE9EF3FC9
:10516000F619CE9220D5B23F095BBDFCCAE1EF3FF4
:1051700019A49A0AD0F6B53F2625D1A38DD8EF3FC2
:105180002CB429BCA617B93F7BA66DFD15CEEF3F09
:10519000D5C29EC78537BC3FD39FE17064C2EF3F45
:1051A0000E73A9564E56BF3F41D7957179B5EF3F63
:1051B00076F5DACEF039C13F17A5087F55A7EF3F46
:1051C0003A618E6E10C8C23F9B09C924F997EF3F20
:1051D0005A3E29B17655C43FA94B71FA6487EF3F17
:1051E000C63F8B4414E2C53F7720A1A39975EF3FDA
:1051F00031BF50DED96DC73FB05CF7CF9762EF3F4C
:105200000AA6693CB8F8C83F2D2F0B3B604EEF3F14
:105210005104B025A082CA3F89E564ACF338EF3F62
:10522000634F7E6A820BCC3FDA3A76F75222EF3F29
:10523000114345E54F93CD3FD73092FB7E0AEF3FB8
:105240001A5F217BF919CF3FC273E4A378F1EE3FD7
:10525000AEFD370EB84FD03F634968E740D7EE3F09
:1052600077F6B162D211D13F740BDFC8D8BBEE3FE5
:105270003DDB4C3F44D3D13FDA2DC656419FEE3F34
:10528000059FD52E0694D23F0DD14CAB7B81EE3FCE
:105290005281E1C21054D33F12E148EC8862EE3FE4
:1052A000026617945C13D43F7EC12B4B6A42EE3FDB
:1052B0006AE77842E2D1D43FE586F6042121EE3F49
:1052C000DD1FAB759A8FD53F2BBE2D62AEFEED3F35
:1052D000C6273FDD7D4CD63F3DC2CCB613DBED3F4C
:1052E0009E45FA308508D73F9BA0386252B6ED3F05
:1052F000E7CC1D31A9C3D73F468D32CF6B90ED3F30
:1053000063A9AEA6E27DD83F8BE6C9736169ED3F24
:10531000D793BC632A37D93F3AC94DD13441ED3FC9
:105320008AEDA84379EFD93FDC353E74E717ED3FAE
:10533000C93F6D2BC8A6DA3F73C73CF47AEDEC3F4A
:10534000C05CE109105DDB3F5CFCFCF3F0C1EC3FAD
:10535000E71E01D84912DC3FF51134214B95EC3F93
:105360005DC431996EC6DC3F9B7388348B67EC3F1C
:1053700089E3865B7779DD3FB1BD80F1B238EC3FE0
:105380003BF606385D2BDE3F49557226C408EC3FDC
:10539000D578EF5219DCDE3F2A956FACC0D7EB3FD2
:1053A000BA9AF8DBA48BDF3FD2903567AAA5EB3F12
:1053B000B73E4C87FC1CE03F3E6E19458372EB3FC5
:1053C000EDFF22998773E03F1257F53E4D3EEB3FCC
:1053D0008F895D4D70C9E03F000215580A09EB3F07
:1053E000224B1B54B31EE13F11D5219EBCD2EA3F94
:1053F00049DBDE634D73E13FA3A10E29669BEA3FC3
:10540000C868AE393BC7E13FE2FA021B0963EA3FD5
:1054100058EB3399791AE23F822746A0A729EA3F41
:10542000DF12DD4C056DE23F94AF29EF43EFE93F1A
:10543000EAF3FA25DBBEE23F4187F347E0B3E93FF9
:105440003570E1FCF70FE33F42D7C7F47E77E93FC1
:10545000F35906B15860E33FFC639249223AE93FB1
:10546000B9502029FAAFE33F0D94EFA3CCFBE83FFE
:10547000D4564553D9FEE33F4117156B80BCE83F36
:10548000D61D0925F34CE43FBF2EBA0F407CE83F00
:1054900038099B9B449AE43F6E97FF0B0E3BE83F15
:1054A000E9E5E3BBCAE6E43F711757E3ECF8E73FF1
:1054B0009655A3928232E53FB0AF6A22DFB5E73F4F
:1054C0009FEC8C34697DE53F6172035FE771E73FD4
:1054D0008C0165BE7BC7E53F97FFEF37082DE73F9F
:1054E000DE2C1D55B710E63FAEA8EA5444E7E63F70
:1054F0003E78F0251959E63FCC3B7F669EA0E63FFB
:10550000CC3B7F669EA0E63F3E78F0251959E63FEA
:10551000AEA8EA5444E7E63FDE2C1D55B710E63F3F
:1055200097FFEF37082DE73F8C0165BE7BC7E53F4E
:105530006172035FE771E73F9FEC8C34697DE53F63
:10554000B0AF6A22DFB5E73F9655A3928232E53FBE
:10555000711757E3ECF8E73FE9E5E3BBCAE6E43F40
:105560006E97FF0B0E3BE83F38099B9B449AE43F44
:10557000BF2EBA0F407CE83FD61D0925F34CE43F0F
:105580004117156B80BCE83FD4564553D9FEE33F25
:105590000D94EFA3CCFBE83FB9502029FAAFE33FCD
:1055A000FC639249223AE93FF35906B15860E33F60
:1055B00042D7C7F47E77E93F3570E1FCF70FE33F50
:1055C0004187F347E0B3E93FEAF3FA25DBBEE23F68
:1055D00094AF29EF43EFE93FDF12DD4C056DE23F69
:1055E000822746A0A729EA3F58EB3399791AE23F70
:1055F000E2FA021B0963EA3FC868AE393BC7E13FE4
:10560000A3A10E29669BEA3F49DBDE634D73E13FB0
:1056100011D5219EBCD2EA3F224B1B54B31EE13F61
:10562000000215580A09EB3F8F895D4D70C9E03FB4
:105630001257F53E4D3EEB3FEDFF22998773E03F59
:105640003E6E19458372EB3FB73E4C87FC1CE03F32
:10565000D2903567AAA5EB3FBA9AF8DBA48BDF3F5F
:105660002A956FACC0D7EB3FD578EF5219DCDE3FFF
:1056700049557226C408EC3F3BF606385D2BDE3FE9
:10568000B1BD80F1B238EC3F89E3865B7779DD3FCD
:105690009B7388348B67EC3F5DC431996EC6DC3FE9
:1056A000F51134214B95EC3FE71E01D84912DC3F40
:1056B0005CFCFCF3F0C1EC3FC05CE109105DDB3F3A
:1056C00073C73CF47AEDEC3FC93F6D2BC8A6DA3FB7
:1056D000DC353E74E717ED3F8AEDA84379EFD93FFB
:1056E0003AC94DD13441ED3FD793BC632A37D93FF6
:1056F0008BE6C9736169ED3F63A9AEA6E27DD83F31
:10570000468D32CF6B90ED3FE7CC1D31A9C3D73F1B
:105710009BA0386252B6ED3F9E45FA308508D73FD0
:105720003DC2CCB613DBED3FC6273FDD7D4CD63FF7
:105730002BBE2D62AEFEED3FDD1FAB759A8FD53FC0
:10574000E586F6042121EE3F6AE77842E2D1D43FB4
:105750007EC12B4B6A42EE3F026617945C13D43F26
:1057600012E148EC8862EE3F5281E1C21054D33F0F
:105770000DD14CAB7B81EE3F059FD52E0694D23FD9
:10578000DA2DC656419FEE3F3DDB4C3F44D3D13F1F
:10579000740BDFC8D8BBEE3F77F6B162D211D13FB0
:1057A000634968E740D7EE3FAEFD370EB84FD03FB4
:1057B000C273E4A378F1EE3F1A5F217BF919CF3F62
:1057C000D73092FB7E0AEF3F114345E54F93CD3F23
:1057D000DA3A76F75222EF3F634F7E6A820BCC3F74
:1057E00089E564ACF338EF3F5104B025A082CA3F8D
:1057F0002D2F0B3B604EEF3F0AA6693CB8F8C83F1F
:10580000B05CF7CF9762EF3F31BF50DED96DC73F35
:105810007720A1A39975EF3FC63F8B4414E2C53FA3
:10582000A94B71FA6487EF3F5A3E29B17655C43FC0
:105830009B09C924F997EF3F3A618E6E10C8C23FA9
:1058400017A5087F55A7EF3F76F5DACEF039C13FAF
:1058500041D7957179B5EF3F0E73A9564E56BF3FAC
:10586000D39FE17064C2EF3FD5C29EC78537BC3F6E
:105870007BA66DFD15CEEF3F2CB429BCA617B93F12
:105880002625D1A38DD8EF3F19A49A0AD0F6B53FAB
:10589000095BBDFCCAE1EF3FF619CE9220D5B23FBD
:1058A0003A8801ADCDE9EF3FE020F8796E65AF3F72
:1058B000AD718E6595F0EF3F14D80DF1651FA93FCE
:1058C0007E6D79E321F6EF3FCD55947565D8A23F03
:1058D0005DF7FEEF72FAEF3F7E66A3F75521993F21
:1058E0000DCD846088FDEF3F84C7DEFCD121893F68
:1058F000DB929B1662FFEF3F0000000000000000FB
:10590000000000000000F03F84C7DEFCD12189BF09
:10591000DB929B1662FFEF3F7E66A3F7552199BF8E
:105920000DCD846088FDEF3FCD55947565D8A2BF3D
:105930005DF7FEEF72FAEF3F14D80DF1651FA9BFB6
:105940007E6D79E321F6EF3FE020F8796E65AFBF19
:10595000AD718E6595F0EF3FF619CE9220D5B2BFAE
:105960003A8801ADCDE9EF3F19A49A0AD0F6B5BF48
:10597000095BBDFCCAE1EF3F2CB429BCA617B9BF37
:105980002625D1A38DD8EF3FD5C29EC78537BCBF92
:105990007BA66DFD15CEEF3F0E73A9564E56BFBFC9
:1059A000D39FE17064C2EF3F76F5DACEF039C1BF24
:1059B00041D7957179B5EF3F3A618E6E10C8C2BF7D
:1059C00017A5087F55A7EF3F5A3E29B17655C4BFAA
:1059D0009B09C924F997EF3FC63F8B4414E2C5BF2A
:1059E000A94B71FA6487EF3F31BF50DED96DC7BF55
:1059F0007720A1A39975EF3F0AA6693CB8F8C8BF04
:105A0000B05CF7CF9762EF3F5104B025A082CABFC8
:105A10002D2F0B3B604EEF3F634F7E6A820BCCBF56
:105A200089E564ACF338EF3F114345E54F93CDBFB3
:105A3000DA3A76F75222EF3F1A5F217BF919CFBF8E
:105A4000D73092FB7E0AEF3FAEFD370EB84FD0BF86
:105A5000C273E4A378F1EE3F77F6B162D211D1BF01
:105A6000634968E740D7EE3F3DDB4C3F44D3D1BFAD
:105A7000740BDFC8D8BBEE3F059FD52E0694D2BF6E
:105A8000DA2DC656419FEE3F5281E1C21054D3BF7A
:105A90000DD14CAB7B81EE3F026617945C13D4BFF3
:105AA00012E148EC8862EE3F6AE77842E2D1D4BF67
:105AB0007EC12B4B6A42EE3FDD1FAB759A8FD5BF7F
:105AC000E586F6042121EE3FC6273FDD7D4CD6BF9B
:105AD0002BBE2D62AEFEED3F9E45FA308508D7BF46
:105AE0003DC2CCB613DBED3FE7CC1D31A9C3D7BF18
:105AF0009BA0386252B6ED3F63A9AEA6E27DD8BF47
:105B0000468D32CF6B90ED3FD793BC632A37D9BF18
:105B10008BE6C9736169ED3F8AEDA84379EFD9BF80
:105B20003AC94DD13441ED3FC93F6D2BC8A6DABF0C
:105B3000DC353E74E717ED3FC05CE109105DDBBF6B
:105B400073C73CF47AEDEC3FE71E01D84912DCBF85
:105B50005CFCFCF3F0C1EC3F5DC431996EC6DCBF68
:105B6000F51134214B95EC3F89E3865B7779DDBFF6
:105B70009B7388348B67EC3F3BF606385D2BDEBFAA
:105B8000B1BD80F1B238EC3FD578EF5219DCDEBF01
:105B900049557226C408EC3FBA9AF8DBA48BDFBFE4
:105BA0002A956FACC0D7EB3FB73E4C87FC1CE0BFDB
:105BB000D2903567AAA5EB3FEDFF22998773E0BF2E
:105BC0003E6E19458372EB3F8F895D4D70C9E0BF12
:105BD0001257F53E4D3EEB3F224B1B54B31EE1BF27
:105BE000000215580A09EB3F49DBDE634D73E1BF44
:105BF00011D5219EBCD2EA3FC868AE393BC7E1BF90
:105C0000A3A10E29669BEA3F58EB3399791AE2BFAC
:105C1000E2FA021B0963EA3FDF12DD4C056DE2BFC9
:105C2000822746A0A729EA3FEAF3FA25DBBEE2BFB6
:105C300094AF29EF43EFE93F3570E1FCF70FE3BF85
:105C40004187F347E0B3E93FF35906B15860E3BF3A
:105C500042D7C7F47E77E93FB9502029FAAFE3BFB6
:105C6000FC639249223AE93FD4564553D9FEE3BF3B
:105C70000D94EFA3CCFBE83FD61D0925F34CE4BF00
:105C80004117156B80BCE83F38099B9B449AE4BFE1
:105C9000BF2EBA0F407CE83FE9E5E3BBCAE6E4BFAC
:105CA0006E97FF0B0E3BE83F9655A3928232E5BFFD
:105CB000711757E3ECF8E73F9FEC8C34697DE5BF43
:105CC000B0AF6A22DFB5E73F8C0165BE7BC7E5BF99
:105CD0006172035FE771E73FDE2C1D55B710E6BF29
:105CE00097FFEF37082DE73F3E78F0251959E6BFBB
:105CF000AEA8EA5444E7E63FCC3B7F669EA0E6BFF1
:105D0000CC3B7F669EA0E63FAEA8EA5444E7E6BFE0
:105D10003E78F0251959E63F97FFEF37082DE7BF8A
:105D2000DE2C1D55B710E63F6172035FE771E7BFD8
:105D30008C0165BE7BC7E53FB0AF6A22DFB5E7BF28
:105D40009FEC8C34697DE53F711757E3ECF8E7BFB2
:105D50009655A3928232E53F6E97FF0B0E3BE8BF4C
:105D6000E9E5E3BBCAE6E43FBF2EBA0F407CE8BFDB
:105D700038099B9B449AE43F4117156B80BCE8BFF0
:105D8000D61D0925F34CE43F0D94EFA3CCFBE8BFEF
:105D9000D4564553D9FEE33FFC639249223AE9BF0A
:105DA000B9502029FAAFE33F42D7C7F47E77E9BF65
:105DB000F35906B15860E33F4187F347E0B3E9BFC9
:105DC0003570E1FCF70FE33F94AF29EF43EFE9BFF4
:105DD000EAF3FA25DBBEE23F822746A0A729EABF05
:105DE000DF12DD4C056DE23FE2FA021B0963EABFF8
:105DF00058EB3399791AE23FA3A10E29669BEABFBB
:105E0000C868AE393BC7E13F11D5219EBCD2EABF7D
:105E100049DBDE634D73E13F000215580A09EBBF11
:105E2000224B1B54B31EE13F1257F53E4D3EEBBFD4
:105E30008F895D4D70C9E03F3E6E19458372EBBF9F
:105E4000EDFF22998773E03FD2903567AAA5EBBF9B
:105E5000B73E4C87FC1CE03F2A956FACC0D7EBBF28
:105E6000BA9AF8DBA48BDF3F49557226C408ECBF11
:105E7000D578EF5219DCDE3FB1BD80F1B238ECBF0E
:105E80003BF606385D2BDE3F9B7388348B67ECBF97
:105E900089E3865B7779DD3FF51134214B95ECBFC3
:105EA0005DC431996EC6DC3F5CFCFCF3F0C1ECBF15
:105EB000E71E01D84912DC3F73C73CF47AEDECBF12
:105EC000C05CE109105DDB3FDC353E74E717EDBFD8
:105ED000C93F6D2BC8A6DA3F3AC94DD13441EDBF59
:105EE0008AEDA84379EFD93F8BE6C9736169EDBFAD
:105EF000D793BC632A37D93F468D32CF6B90EDBF25
:105F000063A9AEA6E27DD83F9BA0386252B6EDBF32
:105F1000E7CC1D31A9C3D73F3DC2CCB613DBEDBFE3
:105F20009E45FA308508D73F2BBE2D62AEFEEDBFF1
:105F3000C6273FDD7D4CD63FE586F6042121EEBF26
:105F4000DD1FAB759A8FD53F7EC12B4B6A42EEBFEA
:105F50006AE77842E2D1D43F12E148EC8862EEBFB2
:105F6000026617945C13D43F0DD14CAB7B81EEBF1E
:105F70005281E1C21054D33FDA2DC656419FEEBF85
:105F8000059FD52E0694D23F740BDFC8D8BBEEBF59
:105F90003DDB4C3F44D3D13F634968E740D7EEBF78
:105FA00077F6B162D211D13FC273E4A378F1EEBFAC
:105FB000AEFD370EB84FD03FD73092FB7E0AEFBF11
:105FC0001A5F217BF919CF3FDA3A76F75222EFBFF9
:105FD000114345E54F93CD3F89E564ACF338EFBFFE
:105FE000634F7E6A820BCC3F2D2F0B3B604EEFBF81
:105FF0005104B025A082CA3FB05CF7CF9762EFBFD3
:106000000AA6693CB8F8C83F7720A1A39975EFBFED
:1060100031BF50DED96DC73FA94B71FA6487EFBF1E
:10602000C63F8B4414E2C53F9B09C924F997EFBFD3
:106030005A3E29B17655C43F17A5087F55A7EFBF33
:106040003A618E6E10C8C23F41D7957179B5EFBFE6
:1060500076F5DACEF039C13FD39FE17064C2EFBF6D
:106060000E73A9564E56BF3F7BA66DFD15CEEFBFF2
:10607000D5C29EC78537BC3F2625D1A38DD8EFBF9B
:106080002CB429BCA617B93F095BBDFCCAE1EFBF20
:1060900019A49A0AD0F6B53F3A8801ADCDE9EFBF11
:1060A000F619CE9220D5B23FAD718E6595F0EFBF57
:1060B000E020F8796E65AF3F7E6D79E321F6EFBFA2
:1060C00014D80DF1651FA93F5DF7FEEF72FAEFBF1F
:1060D000CD55947565D8A23F0DCD846088FDEFBF86
:1060E0007E66A3F75521993FDB929B1662FFEFBFB7
:1060F00084C7DEFCD121893F000000000000F0BF12
:106100000000000000000000DB929B1662FFEFBF62
:1061100084C7DEFCD12189BF0DCD846088FDEFBF2F
:106120007E66A3F7552199BF5DF7FEEF72FAEFBFC8
:10613000CD55947565D8A2BF7E6D79E321F6EFBF8A
:1061400014D80DF1651FA9BFAD718E6595F0EFBF35
:10615000E020F8796E65AFBF3A8801ADCDE9EFBFB9
:10616000F619CE9220D5B2BF095BBDFCCAE1EFBFE4
:1061700019A49A0AD0F6B5BF2625D1A38DD8EFBFB2
:106180002CB429BCA617B9BF7BA66DFD15CEEFBFF9
:10619000D5C29EC78537BCBFD39FE17064C2EFBF35
:1061A0000E73A9564E56BFBF41D7957179B5EFBF53
:1061B00076F5DACEF039C1BF17A5087F55A7EFBF36
:1061C0003A618E6E10C8C2BF9B09C924F997EFBF10
:1061D0005A3E29B17655C4BFA94B71FA6487EFBF07
:1061E000C63F8B4414E2C5BF7720A1A39975EFBFCA
:1061F00031BF50DED96DC7BFB05CF7CF9762EFBF3C
:106200000AA6693CB8F8C8BF2D2F0B3B604EEFBF04
:106210005104B025A082CABF89E564ACF338EFBF52
:10622000634F7E6A820BCCBFDA3A76F75222EFBF19
:10623000114345E54F93CDBFD73092FB7E0AEFBFA8
:106240001A5F217BF919CFBFC273E4A378F1EEBFC7
:10625000AEFD370EB84FD0BF634968E740D7EEBFF9
:1062600077F6B162D211D1BF740BDFC8D8BBEEBFD5
:106270003DDB4C3F44D3D1BFDA2DC656419FEEBF24
:10628000059FD52E0694D2BF0DD14CAB7B81EEBFBE
:106290005281E1C21054D3BF12E148EC8862EEBFD4
:1062A000026617945C13D4BF7EC12B4B6A42EEBFCB
:1062B0006AE77842E2D1D4BFE586F6042121EEBF39
:1062C000DD1FAB759A8FD5BF2BBE2D62AEFEEDBF25
:1062D000C6273FDD7D4CD6BF3DC2CCB613DBEDBF3C
:1062E0009E45FA308508D7BF9BA0386252B6EDBFF5
:1062F000E7CC1D31A9C3D7BF468D32CF6B90EDBF20
:1063000063A9AEA6E27DD8BF8BE6C9736169EDBF14
:10631000D793BC632A37D9BF3AC94DD13441EDBFB9
:106320008AEDA84379EFD9BFDC353E74E717EDBF9E
:10633000C93F6D2BC8A6DABF73C73CF47AEDECBF3A
:10634000C05CE109105DDBBF5CFCFCF3F0C1ECBF9D
:10635000E71E01D84912DCBFF51134214B95ECBF83
:106360005DC431996EC6DCBF9B7388348B67ECBF0C
:1063700089E3865B7779DDBFB1BD80F1B238ECBFD0
:106380003BF606385D2BDEBF49557226C408ECBFCC
:10639000D578EF5219DCDEBF2A956FACC0D7EBBFC2
:1063A000BA9AF8DBA48BDFBFD2903567AAA5EBBF02
:1063B000B73E4C87FC1CE0BF3E6E19458372EBBFB5
:1063C000EDFF22998773E0BF1257F53E4D3EEBBFBC
:1063D0008F895D4D70C9E0BF000215580A09EBBFF7
:1063E000224B1B54B31EE1BF11D5219EBCD2EABF84
:1063F00049DBDE634D73E1BFA3A10E29669BEABFB3
:10640000C868AE393BC7E1BFE2FA021B0963EABFC5
:1064100058EB3399791AE2BF822746A0A729EABF31
:10642000DF12DD4C056DE2BF94AF29EF43EFE9BF0A
:10643000EAF3FA25DBBEE2BF4187F347E0B3E9BFE9
:106440003570E1FCF70FE3BF42D7C7F47E77E9BFB1
:10645000F35906B15860E3BFFC639249223AE9BFA1
:10646000B9502029FAAFE3BF0D94EFA3CCFBE8BFEE
:10647000D4564553D9FEE3BF4117156B80BCE8BF26
:10648000D61D0925F34CE4BFBF2EBA0F407CE8BFF0
:1064900038099B9B449AE4BF6E97FF0B0E3BE8BF05
:1064A000E9E5E3BBCAE6E4BF711757E3ECF8E7BFE1
:1064B0009655A3928232E5BFB0AF6A22DFB5E7BF3F
:1064C0009FEC8C34697DE5BF6172035FE771E7BFC4
:1064D0008C0165BE7BC7E5BF97FFEF37082DE7BF8F
:1064E000DE2C1D55B710E6BFAEA8EA5444E7E6BF60
:1064F0003E78F0251959E6BFCC3B7F669EA0E6BFEB
:10650000CC3B7F669EA0E6BF3E78F0251959E6BFDA
:10651000AEA8EA5444E7E6BFDE2C1D55B710E6BF2F
:1065200097FFEF37082DE7BF8C0165BE7BC7E5BF3E
:106530006172035FE771E7BF9FEC8C34697DE5BF53
:10654000B0AF6A22DFB5E7BF9655A3928232E5BFAE
:10655000711757E3ECF8E7BFE9E5E3BBCAE6E4BF30
:106560006E97FF0B0E3BE8BF38099B9B449AE4BF34
:10657000BF2EBA0F407CE8BFD61D0925F34CE4BFFF
:106580004117156B80BCE8BFD4564553D9FEE3BF15
:106590000D94EFA3CCFBE8BFB9502029FAAFE3BFBD
:1065A000FC639249223AE9BFF35906B15860E3BF50
:1065B00042D7C7F47E77E9BF3570E1FCF70FE3BF40
:1065C0004187F347E0B3E9BFEAF3FA25DBBEE2BF58
:1065D00094AF29EF43EFE9BFDF12DD4C056DE2BF59
:1065E000822746A0A729EABF58EB3399791AE2BF60
:1065F000E2FA021B0963EABFC868AE393BC7E1BFD4
:10660000A3A10E29669BEABF49DBDE634D73E1BFA0
:1066100011D5219EBCD2EABF224B1B54B31EE1BF51
:10662000000215580A09EBBF8F895D4D70C9E0BFA4
:106630001257F53E4D3EEBBFEDFF22998773E0BF49
:106640003E6E19458372EBBFB73E4C87FC1CE0BF22
:10665000D2903567AAA5EBBFBA9AF8DBA48BDFBF4F
:106660002A956FACC0D7EBBFD578EF5219DCDEBFEF
:1066700049557226C408ECBF3BF606385D2BDEBFD9
:10668000B1BD80F1B238ECBF89E3865B7779DDBFBD
:106690009B7388348B67ECBF5DC431996EC6DCBFD9
:1066A000F51134214B95ECBFE71E01D84912DCBF30
:1066B0005CFCFCF3F0C1ECBFC05CE109105DDBBF2A
:1066C00073C73CF47AEDECBFC93F6D2BC8A6DABFA7
:1066D000DC353E74E717EDBF8AEDA84379EFD9BFEB
:1066E0003AC94DD13441EDBFD793BC632A37D9BFE6
:1066F0008BE6C9736169EDBF63A9AEA6E27DD8BF21
:10670000468D32CF6B90EDBFE7CC1D31A9C3D7BF0B
:106710009BA0386252B6EDBF9E45FA308508D7BFC0
:106720003DC2CCB613DBEDBFC6273FDD7D4CD6BFE7
:106730002BBE2D62AEFEEDBFDD1FAB759A8FD5BFB0
:10674000E586F6042121EEBF6AE77842E2D1D4BFA4
:106750007EC12B4B6A42EEBF026617945C13D4BF16
:1067600012E148EC8862EEBF5281E1C21054D3BFFF
:106770000DD14CAB7B81EEBF059FD52E0694D2BFC9
:10678000DA2DC656419FEEBF3DDB4C3F44D3D1BF0F
:10679000740BDFC8D8BBEEBF77F6B162D211D1BFA0
:1067A000634968E740D7EEBFAEFD370EB84FD0BFA4
:1067B000C273E4A378F1EEBF1A5F217BF919CFBF52
:1067C000D73092FB7E0AEFBF114345E54F93CDBF13
:1067D000DA3A76F75222EFBF634F7E6A820BCCBF64
:1067E00089E564ACF338EFBF5104B025A082CABF7D
:1067F0002D2F0B3B604EEFBF0AA6693CB8F8C8BF0F
:10680000B05CF7CF9762EFBF31BF50DED96DC7BF25
:106810007720A1A39975EFBFC63F8B4414E2C5BF93
:10682000A94B71FA6487EFBF5A3E29B17655C4BFB0
:106830009B09C924F997EFBF3A618E6E10C8C2BF99
:1068400017A5087F55A7EFBF76F5DACEF039C1BF9F
:1068500041D7957179B5EFBF0E73A9564E56BFBF9C
:10686000D39FE17064C2EFBFD5C29EC78537BCBF5E
:106870007BA66DFD15CEEFBF2CB429BCA617B9BF02
:106880002625D1A38DD8EFBF19A49A0AD0F6B5BF9B
:10689000095BBDFCCAE1EFBFF619CE9220D5B2BFAD
:1068A0003A8801ADCDE9EFBFE020F8796E65AFBF62
:1068B000AD718E6595F0EFBF14D80DF1651FA9BFBE
:1068C0007E6D79E321F6EFBFCD55947565D8A2BFF3
:1068D0005DF7FEEF72FAEFBF7E66A3F7552199BF11
:1068E0000DCD846088FDEFBF84C7DEFCD12189BF58
:1068F000DB929B1662FFEFBF00000000000000006B
:10690000000000000000F0BF84C7DEFCD121893FF9
:10691000DB929B1662FFEFBF7E66A3F75521993F7E
:106920000DCD846088FDEFBFCD55947565D8A23F2D
:106930005DF7FEEF72FAEFBF14D80DF1651FA93FA6
:106940007E6D79E321F6EFBFE020F8796E65AF3F09
:10695000AD718E6595F0EFBFF619CE9220D5B23F9E
:106960003A8801ADCDE9EFBF19A49A0AD0F6B53F38
:10697000095BBDFCCAE1EFBF2CB429BCA617B93F27
:106980002625D1A38DD8EFBFD5C29EC78537BC3F82
:106990007BA66DFD15CEEFBF0E73A9564E56BF3FB9
:1069A000D39FE17064C2EFBF76F5DACEF039C13F14
:1069B00041D7957179B5EFBF3A618E6E10C8C23F6D
:1069C00017A5087F55A7EFBF5A3E29B17655C43F9A
:1069D0009B09C924F997EFBFC63F8B4414E2C53F1A
:1069E000A94B71FA6487EFBF31BF50DED96DC73F45
:1069F0007720A1A39975EFBF0AA6693CB8F8C83FF4
:106A0000B05CF7CF9762EFBF5104B025A082CA3FB8
:106A10002D2F0B3B604EEFBF634F7E6A820BCC3F46
:106A200089E564ACF338EFBF114345E54F93CD3FA3
:106A3000DA3A76F75222EFBF1A5F217BF919CF3F7E
:106A4000D73092FB7E0AEFBFAEFD370EB84FD03F76
:106A5000C273E4A378F1EEBF77F6B162D211D13FF1
:106A6000634968E740D7EEBF3DDB4C3F44D3D13F9D
:106A7000740BDFC8D8BBEEBF059FD52E0694D23F5E
:106A8000DA2DC656419FEEBF5281E1C21054D33F6A
:106A90000DD14CAB7B81EEBF026617945C13D43FE3
:106AA00012E148EC8862EEBF6AE77842E2D1D43F57
:106AB0007EC12B4B6A42EEBFDD1FAB759A8FD53F6F
:106AC000E586F6042121EEBFC6273FDD7D4CD63F8B
:106AD0002BBE2D62AEFEEDBF9E45FA308508D73F36
:106AE0003DC2CCB613DBEDBFE7CC1D31A9C3D73F08
:106AF0009BA0386252B6EDBF63A9AEA6E27DD83F37
:106B0000468D32CF6B90EDBFD793BC632A37D93F08
:106B10008BE6C9736169EDBF8AEDA84379EFD93F70
:106B20003AC94DD13441EDBFC93F6D2BC8A6DA3FFC
:106B3000DC353E74E717EDBFC05CE109105DDB3F5B
:106B400073C73CF47AEDECBFE71E01D84912DC3F75
:106B50005CFCFCF3F0C1ECBF5DC431996EC6DC3F58
:106B6000F51134214B95ECBF89E3865B7779DD3FE6
:106B70009B7388348B67ECBF3BF606385D2BDE3F9A
:106B8000B1BD80F1B238ECBFD578EF5219DCDE3FF1
:106B900049557226C408ECBFBA9AF8DBA48BDF3FD4
:106BA0002A956FACC0D7EBBFB73E4C87FC1CE03FCB
:106BB000D2903567AAA5EBBFEDFF22998773E03F1E
:106BC0003E6E19458372EBBF8F895D4D70C9E03F02
:106BD0001257F53E4D3EEBBF224B1B54B31EE13F17
:106BE000000215580A09EBBF49DBDE634D73E13F34
:106BF00011D5219EBCD2EABFC868AE393BC7E13F80
:106C0000A3A10E29669BEABF58EB3399791AE23F9C
:106C1000E2FA021B0963EABFDF12DD4C056DE23FB9
:106C2000822746A0A729EABFEAF3FA25DBBEE23FA6
:106C300094AF29EF43EFE9BF3570E1FCF70FE33F75
:106C40004187F347E0B3E9BFF35906B15860E33F2A
:106C500042D7C7F47E77E9BFB9502029FAAFE33FA6
:106C6000FC639249223AE9BFD4564553D9FEE33F2B
:106C70000D94EFA3CCFBE8BFD61D0925F34CE43FF0
:106C80004117156B80BCE8BF38099B9B449AE43FD1
:106C9000BF2EBA0F407CE8BFE9E5E3BBCAE6E43F9C
:106CA0006E97FF0B0E3BE8BF9655A3928232E53FED
:106CB000711757E3ECF8E7BF9FEC8C34697DE53F33
:106CC000B0AF6A22DFB5E7BF8C0165BE7BC7E53F89
:106CD0006172035FE771E7BFDE2C1D55B710E63F19
:106CE00097FFEF37082DE7BF3E78F0251959E63FAB
:106CF000AEA8EA5444E7E6BFCC3B7F669EA0E63FE1
:106D0000CC3B7F669EA0E6BFAEA8EA5444E7E63FD0
:106D10003E78F0251959E6BF97FFEF37082DE73F7A
:106D2000DE2C1D55B710E6BF6172035FE771E73FC8
:106D30008C0165BE7BC7E5BFB0AF6A22DFB5E73F18
:106D40009FEC8C34697DE5BF711757E3ECF8E73FA2
:106D50009655A3928232E5BF6E97FF0B0E3BE83F3C
:106D6000E9E5E3BBCAE6E4BFBF2EBA0F407CE83FCB
:106D700038099B9B449AE4BF4117156B80BCE83FE0
:106D8000D61D0925F34CE4BF0D94EFA3CCFBE83FDF
:106D9000D4564553D9FEE3BFFC639249223AE93FFA
:106DA000B9502029FAAFE3BF42D7C7F47E77E93F55
:106DB000F35906B15860E3BF4187F347E0B3E93FB9
:106DC0003570E1FCF70FE3BF94AF29EF43EFE93FE4
:106DD000EAF3FA25DBBEE2BF822746A0A729EA3FF5
:106DE000DF12DD4C056DE2BFE2FA021B0963EA3FE8
:106DF00058EB3399791AE2BFA3A10E29669BEA3FAB
:106E0000C868AE393BC7E1BF11D5219EBCD2EA3F6D
:106E100049DBDE634D73E1BF000215580A09EB3F01
:106E2000224B1B54B31EE1BF1257F53E4D3EEB3FC4
:106E30008F895D4D70C9E0BF3E6E19458372EB3F8F
:106E4000EDFF22998773E0BFD2903567AAA5EB3F8B
:106E5000B73E4C87FC1CE0BF2A956FACC0D7EB3F18
:106E6000BA9AF8DBA48BDFBF49557226C408EC3F01
:106E7000D578EF5219DCDEBFB1BD80F1B238EC3FFE
:106E80003BF606385D2BDEBF9B7388348B67EC3F87
:106E900089E3865B7779DDBFF51134214B95EC3FB3
:106EA0005DC431996EC6DCBF5CFCFCF3F0C1EC3F05
:106EB000E71E01D84912DCBF73C73CF47AEDEC3F02
:106EC000C05CE109105DDBBFDC353E74E717ED3FC8
:106ED000C93F6D2BC8A6DABF3AC94DD13441ED3F49
:106EE0008AEDA84379EFD9BF8BE6C9736169ED3F9D
:106EF000D793BC632A37D9BF468D32CF6B90ED3F15
:106F000063A9AEA6E27DD8BF9BA0386252B6ED3F22
:106F1000E7CC1D31A9C3D7BF3DC2CCB613DBED3FD3
:106F20009E45FA308508D7BF2BBE2D62AEFEED3FE1
:106F3000C6273FDD7D4CD6BFE586F6042121EE3F16
:106F4000DD1FAB759A8FD5BF7EC12B4B6A42EE3FDA
:106F50006AE77842E2D1D4BF12E148EC8862EE3FA2
:106F6000026617945C13D4BF0DD14CAB7B81EE3F0E
:106F70005281E1C21054D3BFDA2DC656419FEE3F75
:106F8000059FD52E0694D2BF740BDFC8D8BBEE3F49
:106F90003DDB4C3F44D3D1BF634968E740D7EE3F68
:106FA00077F6B162D211D1BFC273E4A378F1EE3F9C
:106FB000AEFD370EB84FD0BFD73092FB7E0AEF3F01
:106FC0001A5F217BF919CFBFDA3A76F75222EF3FE9
:106FD000114345E54F93CDBF89E564ACF338EF3FEE
:106FE000634F7E6A820BCCBF2D2F0B3B604EEF3F71
:106FF0005104B025A082CABFB05CF7CF9762EF3FC3
:107000000AA6693CB8F8C8BF7720A1A39975EF3FDD
:1070100031BF50DED96DC7BFA94B71FA6487EF3F0E
:10702000C63F8B4414E2C5BF9B09C924F997EF3FC3
:107030005A3E29B17655C4BF17A5087F55A7EF3F23
:107040003A618E6E10C8C2BF41D7957179B5EF3FD6
:1070500076F5DACEF039C1BFD39FE17064C2EF3F5D
:107060000E73A9564E56BFBF7BA66DFD15CEEF3FE2
:10707000D5C29EC78537BCBF2625D1A38DD8EF3F8B
:107080002CB429BCA617B9BF095BBDFCCAE1EF3F10
:1070900019A49A0AD0F6B5BF3A8801ADCDE9EF3F01
:1070A000F619CE9220D5B2BFAD718E6595F0EF3F47
:1070B000E020F8796E65AFBF7E6D79E321F6EF3F92
:1070C00014D80DF1651FA9BF5DF7FEEF72FAEF3F0F
:1070D000CD55947565D8A2BF0DCD846088FDEF3F76
:1070E0007E66A3F7552199BFDB929B1662FFEF3FA7
:1070F00084C7DEFCD12189BF000000000000F03F02
:107100000000000000000000928A8E85D8FFEF3F4B
:10711000710067FEF021793FDB929B1662FFEF3F23
:1071200084C7DEFCD121893FA1514BB49CFEEF3FC7
:10713000FD0EE3BB36D9923F0DCD846088FDEF3F55
:107140007E66A3F75521993FF8D3F11D25FCEF3F4B
:1071500001CFD13137699F3F5DF7FEEF72FAEF3F04
:10716000CD55947565D8A23FDF81DBDA71F8EF3F2A
:1071700043CD90D200FCA53F7E6D79E321F6EF3F31
:1071800014D80DF1651FA93F5C578D0F83F3EF3FB6
:10719000E3D7C0128D42AC3FAD718E6595F0EF3FE5
:1071A000E020F8796E65AF3FC473B6EC58EDEF3F61
:1071B000B209D7340144B13F3A8801ADCDE9EF3F80
:1071C000F619CE9220D5B23F40392EAFF3E5EF3F0E
:1071D000962027791166B43F095BBDFCCAE1EF3FF9
:1071E00019A49A0AD0F6B53F56F4F19F53DDEF3F4C
:1071F000215B5D6A5887B73F2625D1A38DD8EF3F25
:107200002CB429BCA617B93F840B221479D3EF3FC5
:10721000045C4924B7A7BA3F7BA66DFD15CEEF3FAE
:10722000D5C29EC78537BC3F21B7FE6C64C8EF3F0F
:10723000C89FAECB0EC7BD3FD39FE17064C2EF3F86
:107240000E73A9564E56BF3F8641E41716BCEF3F5A
:107250001D83BA47A072C03F41D7957179B5EF3F02
:1072600076F5DACEF039C13FBBCF468E8EAEEF3F1A
:10727000CE7BECD41601C23F17A5087F55A7EF3F80
:107280003A618E6E10C8C23FC8B2AD55CE9FEF3F77
:10729000148DCDB0DB8EC33F9B09C924F997EF3F16
:1072A0005A3E29B17655C43FDB41AEFFD58FEF3F43
:1072B000F2C59785DF1BC53FA94B71FA6487EF3F85
:1072C000C63F8B4414E2C53F6E3DE629A67EEF3FE4
:1072D000B24AF60413A8C63F7720A1A39975EF3FE1
:1072E00031BF50DED96DC73FB7BBF57D3F6CEF3F77
:1072F000C5649CE86633C83FB05CF7CF9762EF3F48
:107300000AA6693CB8F8C83F849E78B1A258EF3FFE
:107310006643DCF2CBBDC93F2D2F0B3B604EEF3FE8
:107320005104B025A082CA3FDD92FF85D043EF3FD4
:1073300022673DEF3247CB3F89E564ACF338EF3F3E
:10734000634F7E6A820BCC3F9D9A08C9C92DEF3FDF
:1073500086B212B38CCFCC3FDA3A76F75222EF3FA7
:10736000114345E54F93CD3F5D20F7538F16EF3F17
:107370001B1A101ECA56CE3FD73092FB7E0AEF3F33
:107380001A5F217BF919CF3FEC950B0C22FEEE3FE3
:10739000F8EDDF1ADCDCCF3FC273E4A378F1EE3FF7
:1073A000AEFD370EB84FD03FBC9D5AE282E4EE3FAF
:1073B00090DBDBCFD9B0D03F634968E740D7EE3FE1
:1073C00077F6B162D211D13F84BFC3D3B2C9EE3FC9
:1073D000775176D7A072D13F740BDFC8D8BBEE3F90
:1073E0003DDB4C3F44D3D13F8EA8E7E8B2ADEE3F42
:1073F00072BBC3ABBB33D23FDA2DC656419FEE3FC3
:10740000059FD52E0694D23FF3F71D368490EE3FAC
:107410008603ECDA22F4D23F0DD14CAB7B81EE3FF8
:107420005281E1C21054D33F44976ADB2772EE3F8A
:10743000B71404FACEB3D33F12E148EC8862EE3FB2
:10744000026617945C13D43FFC9F72049F52EE3F78
:10745000541057A5B872D43F7EC12B4B6A42EE3F01
:107460006AE77842E2D1D43F25CE70E8EA31EE3FB8
:10747000243CAF80D830D53FE586F6042121EE3F8D
:10748000DD1FAB759A8FD53FAC8029CA0C10EE3F3B
:1074900093A69E3727EED53F2BBE2D62AEFEED3F65
:1074A000C6273FDD7D4CD63FDA47DEF705EDED3FE1
:1074B000167EC77D9DAAD63F3DC2CCB613DBED3FFD
:1074C0009E45FA308508D73F600241CBD7C8ED3FD3
:1074D000F618240F3466D73F9BA0386252B6ED3FB2
:1074E000E7CC1D31A9C3D73F888966A983A3ED3FA7
:1074F000C4AA4EB0E320D83F468D32CF6B90ED3F0B
:1075000063A9AEA6E27DD83FF9ECB8020B7DED3F52
:10751000AFA4C82EA5DAD83F8BE6C9736169ED3FE9
:10752000D793BC632A37D93FB13EE9526F55ED3F3F
:10753000FEBD41617193D93F3AC94DD13441ED3F10
:107540008AEDA84379EFD93F9FEFE020B22CED3FC1
:10755000E4A1DE27414BDA3FDC353E74E717ED3F0F
:10756000C93F6D2BC8A6DA3F92BDB2FED402ED3FF3
:1075700009407F6C0D02DB3F73C73CF47AEDEC3FB2
:10758000C05CE109105DDB3FF6328B89D9D7EC3F57
:1075900001BD0423CFB7DB3F5CFCFCF3F0C1EC3F43
:1075A000E71E01D84912DC3F01B9A069C1ABEC3F2D
:1075B0000A0097497F6CDC3FF51134214B95EC3F75
:1075C0005DC431996EC6DC3FF33C23528E7EEC3FA6
:1075D0005BDBE9E81620DD3F9B7388348B67EC3F6B
:1075E00089E3865B7779DD3F07692B014250EC3FE9
:1075F00058CC81148FD2DD3FB1BD80F1B238EC3F61
:107600003BF606385D2BDE3FB071A93FDE20EC3F34
:107610001351F8EAE083DE3F49557226C408EC3F77
:10762000D578EF5219DCDE3FDD7753E164F0EB3FB4
:1076300068D03F960534DF3F2A956FACC0D7EB3F4B
:10764000BA9AF8DBA48BDF3FEA8093C4D7BEEB3F46
:107650000F12E74BF6E2DF3FD2903567AAA5EB3F6A
:10766000B73E4C87FC1CE03FE90475D2388CEB3FF9
:107670001A22AE265648E03F3E6E19458372EB3F14
:10768000EDFF22998773E03F051492FE8958EB3F86
:10769000E1C51774909EE03F1257F53E4D3EEB3F1B
:1076A0008F895D4D70C9E03FB4130047CD23EB3F98
:1076B0007D8E2ABB26F4E03F000215580A09EB3FF5
:1076C000224B1B54B31EE13F74143CB404EEEA3F5A
:1076D000EB6C33AF1549E13F11D5219EBCD2EA3F97
:1076E00049DBDE634D73E13FD4C0165932B7EA3F40
:1076F000B8B9F2095A9DE13FA3A10E29669BEA3F62
:10770000C868AE393BC7E13F9DE69F52587FEA3FCC
:107710001B86BC8BF0F0E13FE2FA021B0963EA3FF3
:1077200058EB3399791AE23FC89A11C87846EA3F74
:107730001FAC98FBD543E23F822746A0A729EA3F2A
:10774000DF12DD4C056DE23F37F9BAEA950CEA3FEE
:10775000A89C62270796E23F94AF29EF43EFE93FE9
:10776000EAF3FA25DBBEE23FD680EAF5B1D1E93F84
:1077700016EAE8E380E7E23F4187F347E0B3E93FF9
:107780003570E1FCF70FE33F220DD82ECF95E93F8E
:10779000578E0C0D4038E33F42D7C7F47E77E93F60
:1077A000F35906B15860E33FD76D8EE4EF58E93FD7
:1077B00022EBDF854188E33FFC639249223AE93FAF
:1077C000B9502029FAAFE33FA29DD46F161BE93FC1
:1077D0004383C53882D7E33F0D94EFA3CCFBE83F4A
:1077E000D4564553D9FEE33FCC98163345DCE83FE9
:1077F000B16B8E17FF25E43F4117156B80BCE83F46
:10780000D61D0925F34CE43FABD44D9A7E9CE83F4E
:107810004773981BB573E43FBF2EBA0F407CE83F17
:1078200038099B9B449AE43FCC58E91AC55BE83F72
:107830000400EC45A1C0E43F6E97FF0B0E3BE83F10
:10784000E9E5E3BBCAE6E43FCC7AB5331B1AE83F6F
:107850009BA0599FC00CE53F711757E3ECF8E73F39
:107860009655A3928232E53FB23DC36C83D7E73F82
:10787000375197381058E53FB0AF6A22DFB5E73F80
:107880009FEC8C34697DE53FE4554F570094E73F0A
:1078900050725D2A8DA2E53F6172035FE771E73F99
:1078A0008C0165BE7BC7E53F8DD2A88D944FE73F25
:1078B0007470839534ECE53F97FFEF37082DE73F71
:1078C000DE2C1D55B710E63F7A6D17B3420AE73F2D
:1078D000E81B1CA30335E63FAEA8EA5444E7E63FA5
:1078E0003E78F0251959E63F7582C1730DC4E63F15
:1078F00010AF9184F77CE63FCC3B7F669EA0E63FCD
:10790000CC3B7F669EA0E63F10AF9184F77CE63FBC
:107910007582C1730DC4E63F3E78F0251959E63FE4
:10792000AEA8EA5444E7E63FE81B1CA30335E63F54
:107930007A6D17B3420AE73FDE2C1D55B710E63FBC
:1079400097FFEF37082DE73F7470839534ECE53FE0
:107950008DD2A88D944FE73F8C0165BE7BC7E53F74
:107960006172035FE771E73F50725D2A8DA2E53FC8
:10797000E4554F570094E73F9FEC8C34697DE53F19
:10798000B0AF6A22DFB5E73F375197381058E53F6F
:10799000B23DC36C83D7E73F9655A3928232E53F51
:1079A000711757E3ECF8E73F9BA0599FC00CE53FE8
:1079B000CC7AB5331B1AE83FE9E5E3BBCAE6E43FFE
:1079C0006E97FF0B0E3BE83F0400EC45A1C0E43F7F
:1079D000CC58E91AC55BE83F38099B9B449AE43FC1
:1079E000BF2EBA0F407CE83F4773981BB573E43F46
:1079F000ABD44D9A7E9CE83FD61D0925F34CE43F5D
:107A00004117156B80BCE83FB16B8E17FF25E43F33
:107A1000CC98163345DCE83FD4564553D9FEE33FB6
:107A20000D94EFA3CCFBE83F4383C53882D7E33FF7
:107A3000A29DD46F161BE93FB9502029FAAFE33F4E
:107A4000FC639249223AE93F22EBDF854188E33F1C
:107A5000D76D8EE4EF58E93FF35906B15860E33F24
:107A600042D7C7F47E77E93F578E0C0D4038E33F8D
:107A7000220DD82ECF95E93F3570E1FCF70FE33F9B
:107A80004187F347E0B3E93F16EAE8E380E7E23FE6
:107A9000D680EAF5B1D1E93FEAF3FA25DBBEE23F51
:107AA00094AF29EF43EFE93FA89C62270796E23F96
:107AB00037F9BAEA950CEA3FDF12DD4C056DE23F7B
:107AC000822746A0A729EA3F1FAC98FBD543E23F97
:107AD000C89A11C87846EA3F58EB3399791AE23FC1
:107AE000E2FA021B0963EA3F1B86BC8BF0F0E13F20
:107AF0009DE69F52587FEA3FC868AE393BC7E13FD9
:107B0000A3A10E29669BEA3FB8B9F2095A9DE13F4D
:107B1000D4C0165932B7EA3F49DBDE634D73E13F0B
:107B200011D5219EBCD2EA3FEB6C33AF1549E13F42
:107B300074143CB404EEEA3F224B1B54B31EE13FE5
:107B4000000215580A09EB3F7D8E2ABB26F4E03F60
:107B5000B4130047CD23EB3F8F895D4D70C9E03FE3
:107B60001257F53E4D3EEB3FE1C51774909EE03F46
:107B7000051492FE8958EB3FEDFF22998773E03F91
:107B80003E6E19458372EB3F1A22AE265648E03FFF
:107B9000E90475D2388CEB3FB73E4C87FC1CE03FC4
:107BA000D2903567AAA5EB3F0F12E74BF6E2DF3F15
:107BB000EA8093C4D7BEEB3FBA9AF8DBA48BDF3FD1
:107BC0002A956FACC0D7EB3F68D03F960534DF3FB6
:107BD000DD7753E164F0EB3FD578EF5219DCDE3FFF
:107BE00049557226C408EC3F1351F8EAE083DE3FA2
:107BF000B071A93FDE20EC3F3BF606385D2BDE3F3F
:107C0000B1BD80F1B238EC3F58CC81148FD2DD3F4A
:107C100007692B014250EC3F89E3865B7779DD3FB2
:107C20009B7388348B67EC3F5BDBE9E81620DD3F14
:107C3000F33C23528E7EEC3F5DC431996EC6DC3F2F
:107C4000F51134214B95EC3F0A0097497F6CDC3FDE
:107C500001B9A069C1ABEC3FE71E01D84912DC3F76
:107C60005CFCFCF3F0C1EC3F01BD0423CFB7DB3F6C
:107C7000F6328B89D9D7EC3FC05CE109105DDB3F60
:107C800073C73CF47AEDEC3F09407F6C0D02DB3F9B
:107C900092BDB2FED402ED3FC93F6D2BC8A6DA3FBC
:107CA000DC353E74E717ED3FE4A1DE27414BDA3FB8
:107CB0009FEFE020B22CED3F8AEDA84379EFD93F4A
:107CC0003AC94DD13441ED3FFEBD41617193D93F79
:107CD000B13EE9526F55ED3FD793BC632A37D93F88
:107CE0008BE6C9736169ED3FAFA4C82EA5DAD83F12
:107CF000F9ECB8020B7DED3F63A9AEA6E27DD83F5B
:107D0000468D32CF6B90ED3FC4AA4EB0E320D83FF2
:107D1000888966A983A3ED3FE7CC1D31A9C3D73F6E
:107D20009BA0386252B6ED3FF618240F3466D73F59
:107D3000600241CBD7C8ED3F9E45FA308508D73F5A
:107D40003DC2CCB613DBED3F167EC77D9DAAD63F64
:107D5000DA47DEF705EDED3FC6273FDD7D4CD63F28
:107D60002BBE2D62AEFEED3F93A69E3727EED53F8C
:107D7000AC8029CA0C10EE3FDD1FAB759A8FD53F42
:107D8000E586F6042121EE3F243CAF80D830D53F74
:107D900025CE70E8EA31EE3F6AE77842E2D1D43F7F
:107DA0007EC12B4B6A42EE3F541057A5B872D43FA8
:107DB000FC9F72049F52EE3F026617945C13D43FFF
:107DC00012E148EC8862EE3FB71404FACEB3D33F19
:107DD00044976ADB2772EE3F5281E1C21054D33FD1
:107DE0000DD14CAB7B81EE3F8603ECDA22F4D23F1F
:107DF000F3F71D368490EE3F059FD52E0694D23FB3
:107E0000DA2DC656419FEE3F72BBC3ABBB33D23FA8
:107E10008EA8E7E8B2ADEE3F3DDB4C3F44D3D13F07
:107E2000740BDFC8D8BBEE3F775176D7A072D13F35
:107E300084BFC3D3B2C9EE3F77F6B162D211D13F4E
:107E4000634968E740D7EE3F90DBDBCFD9B0D03F46
:107E5000BC9D5AE282E4EE3FAEFD370EB84FD03FF4
:107E6000C273E4A378F1EE3FF8EDDF1ADCDCCF3F1C
:107E7000EC950B0C22FEEE3F1A5F217BF919CF3FE8
:107E8000D73092FB7E0AEF3F1B1A101ECA56CE3F18
:107E90005D20F7538F16EF3F114345E54F93CD3FDC
:107EA000DA3A76F75222EF3F86B212B38CCFCC3F4C
:107EB0009D9A08C9C92DEF3F634F7E6A820BCC3F64
:107EC00089E564ACF338EF3F22673DEF3247CB3FA3
:107ED000DD92FF85D043EF3F5104B025A082CA3F19
:107EE0002D2F0B3B604EEF3F6643DCF2CBBDC93F0D
:107EF000849E78B1A258EF3F0AA6693CB8F8C83F03
:107F0000B05CF7CF9762EF3FC5649CE86633C83F2B
:107F1000B7BBF57D3F6CEF3F31BF50DED96DC73F3A
:107F20007720A1A39975EF3FB24AF60413A8C63F84
:107F30006E3DE629A67EEF3FC63F8B4414E2C53F67
:107F4000A94B71FA6487EF3FF2C59785DF1BC53FE8
:107F5000DB41AEFFD58FEF3F5A3E29B17655C43F86
:107F60009B09C924F997EF3F148DCDB0DB8EC33F39
:107F7000C8B2AD55CE9FEF3F3A618E6E10C8C23F7A
:107F800017A5087F55A7EF3FCE7BECD41601C23F63
:107F9000BBCF468E8EAEEF3F76F5DACEF039C13FDD
:107FA00041D7957179B5EF3F1D83BA47A072C03FA5
:107FB0008641E41716BCEF3F0E73A9564E56BF3FDD
:107FC000D39FE17064C2EF3FC89FAECB0EC7BD3FE9
:107FD00021B7FE6C64C8EF3FD5C29EC78537BC3F52
:107FE0007BA66DFD15CEEF3F045C4924B7A7BA3FD1
:107FF000840B221479D3EF3F2CB429BCA617B93FC8
:108000002625D1A38DD8EF3F215B5D6A5887B73F06
:1080100056F4F19F53DDEF3F19A49A0AD0F6B53F0D
:10802000095BBDFCCAE1EF3F962027791166B43F9A
:1080300040392EAFF3E5EF3FF619CE9220D5B23F8F
:108040003A8801ADCDE9EF3FB209D7340144B13FE1
:10805000C473B6EC58EDEF3FE020F8796E65AF3FA2
:10806000AD718E6595F0EF3FE3D7C0128D42AC3F06
:108070005C578D0F83F3EF3F14D80DF1651FA93FB7
:108080007E6D79E321F6EF3F43CD90D200FCA53F12
:10809000DF81DBDA71F8EF3FCD55947565D8A23FEB
:1080A0005DF7FEEF72FAEF3F01CFD13137699F3FA5
:1080B000F8D3F11D25FCEF3F7E66A3F75521993FCC
:1080C0000DCD846088FDEF3FFD0EE3BB36D9923FB6
:1080D000A1514BB49CFEEF3F84C7DEFCD121893F08
:1080E000DB929B1662FFEF3F710067FEF021793F44
:1080F000928A8E85D8FFEF3F00000000000000004C
:10810000000000000000F03F710067FEF02179BF21
:10811000928A8E85D8FFEF3F84C7DEFCD12189BFCC
:10812000DB929B1662FFEF3FFD0EE3BB36D992BF99
:10813000A1514BB49CFEEF3F7E66A3F7552199BF3A
:108140000DCD846088FDEF3F01CFD13137699FBFEE
:10815000F8D3F11D25FCEF3FCD55947565D8A2BF2E
:108160005DF7FEEF72FAEF3F43CD90D200FCA5BF62
:10817000DF81DBDA71F8EF3F14D80DF1651FA9BF7D
:108180007E6D79E321F6EF3FE3D7C0128D42ACBF9D
:108190005C578D0F83F3EF3FE020F8796E65AFBF3A
:1081A000AD718E6595F0EF3FB209D7340144B1BF90
:1081B000C473B6EC58EDEF3FF619CE9220D5B2BF9E
:1081C0003A8801ADCDE9EF3F962027791166B4BF1B
:1081D00040392EAFF3E5EF3F19A49A0AD0F6B5BFA8
:1081E000095BBDFCCAE1EF3F215B5D6A5887B7BF01
:1081F00056F4F19F53DDEF3F2CB429BCA617B9BF4D
:108200002625D1A38DD8EF3F045C4924B7A7BABF78
:10821000840B221479D3EF3FD5C29EC78537BCBFEC
:108220007BA66DFD15CEEF3FC89FAECB0EC7BDBF81
:1082300021B7FE6C64C8EF3F0E73A9564E56BFBF00
:10824000D39FE17064C2EF3F1D83BA47A072C0BFE5
:108250008641E41716BCEF3F76F5DACEF039C1BFA0
:1082600041D7957179B5EF3FCE7BECD41601C2BFF3
:10827000BBCF468E8EAEEF3F3A618E6E10C8C2BF46
:1082800017A5087F55A7EF3F148DCDB0DB8EC3BF78
:10829000C8B2AD55CE9FEF3F5A3E29B17655C4BF07
:1082A0009B09C924F997EF3FF2C59785DF1BC5BF2E
:1082B000DB41AEFFD58FEF3FC63F8B4414E2C5BF15
:1082C000A94B71FA6487EF3FB24AF60413A8C6BF00
:1082D0006E3DE629A67EEF3F31BF50DED96DC7BFA8
:1082E0007720A1A39975EF3FC5649CE86633C8BFAA
:1082F000B7BBF57D3F6CEF3F0AA6693CB8F8C8BF35
:10830000B05CF7CF9762EF3F6643DCF2CBBDC9BFED
:10831000849E78B1A258EF3F5104B025A082CABF15
:108320002D2F0B3B604EEF3F22673DEF3247CBBF17
:10833000DD92FF85D043EF3F634F7E6A820BCCBF57
:1083400089E564ACF338EF3F86B212B38CCFCCBF73
:108350009D9A08C9C92DEF3F114345E54F93CDBF05
:10836000DA3A76F75222EF3F1B1A101ECA56CEBFDA
:108370005D20F7538F16EF3F1A5F217BF919CFBFAE
:10838000D73092FB7E0AEF3FF8EDDF1ADCDCCFBF7F
:10839000EC950B0C22FEEE3FAEFD370EB84FD0BF72
:1083A000C273E4A378F1EE3F90DBDBCFD9B0D0BF4E
:1083B000BC9D5AE282E4EE3F77F6B162D211D1BFA2
:1083C000634968E740D7EE3F775176D7A072D1BFB7
:1083D00084BFC3D3B2C9EE3F3DDB4C3F44D3D1BFD2
:1083E000740BDFC8D8BBEE3F72BBC3ABBB33D2BF8D
:1083F0008EA8E7E8B2ADEE3F059FD52E0694D2BF1A
:10840000DA2DC656419FEE3F8603ECDA22F4D2BF46
:10841000F3F71D368490EE3F5281E1C21054D3BF72
:108420000DD14CAB7B81EE3FB71404FACEB3D3BF72
:1084300044976ADB2772EE3F026617945C13D4BF41
:1084400012E148EC8862EE3F541057A5B872D4BFD1
:10845000FC9F72049F52EE3F6AE77842E2D1D4BF9C
:108460007EC12B4B6A42EE3F243CAF80D830D5BF53
:1084700025CE70E8EA31EE3FDD1FAB759A8FD5BF90
:10848000E586F6042121EE3F93A69E3727EED5BF61
:10849000AC8029CA0C10EE3FC6273FDD7D4CD6BF0D
:1084A0002BBE2D62AEFEED3F167EC77D9DAAD6BFC8
:1084B000DA47DEF705EDED3F9E45FA308508D7BF78
:1084C0003DC2CCB613DBED3FF618240F3466D7BFA0
:1084D000600241CBD7C8ED3FE7CC1D31A9C3D7BF60
:1084E0009BA0386252B6ED3FC4AA4EB0E320D8BF7D
:1084F000888966A983A3ED3F63A9AEA6E27DD8BFB4
:10850000468D32CF6B90ED3FAFA4C82EA5DAD8BF11
:10851000F9ECB8020B7DED3FD793BC632A37D9BF86
:108520008BE6C9736169ED3FFEBD41617193D9BFAF
:10853000B13EE9526F55ED3F8AEDA84379EFD9BFBF
:108540003AC94DD13441ED3FE4A1DE27414BDABFBA
:108550009FEFE020B22CED3FC93F6D2BC8A6DABFDC
:10856000DC353E74E717ED3F09407F6C0D02DBBF41
:1085700092BDB2FED402ED3FC05CE109105DDBBFED
:1085800073C73CF47AEDEC3F01BD0423CFB7DBBFEA
:10859000F6328B89D9D7EC3FE71E01D84912DCBFF0
:1085A0005CFCFCF3F0C1EC3F0A0097497F6CDCBF38
:1085B00001B9A069C1ABEC3F5DC431996EC6DCBFA7
:1085C000F51134214B95EC3F5BDBE9E81620DDBF6C
:1085D000F33C23528E7EEC3F89E3865B7779DDBFE7
:1085E0009B7388348B67EC3F58CC81148FD2DDBFEE
:1085F00007692B014250EC3F3BF606385D2BDEBF8E
:10860000B1BD80F1B238EC3F1351F8EAE083DEBF30
:10861000B071A93FDE20EC3FD578EF5219DCDEBF08
:1086200049557226C408EC3F68D03F960534DFBF39
:10863000DD7753E164F0EB3FBA9AF8DBA48BDFBF40
:108640002A956FACC0D7EB3F0F12E74BF6E2DFBFC6
:10865000EA8093C4D7BEEB3FB73E4C87FC1CE0BF1B
:10866000D2903567AAA5EB3F1A22AE265648E0BF46
:10867000E90475D2388CEB3FEDFF22998773E0BF98
:108680003E6E19458372EB3FE1C51774909EE0BFC3
:10869000051492FE8958EB3F8F895D4D70C9E0BF8C
:1086A0001257F53E4D3EEB3F7D8E2ABB26F4E0BFD0
:1086B000B4130047CD23EB3F224B1B54B31EE1BF45
:1086C000000215580A09EB3FEB6C33AF1549E1BFC7
:1086D00074143CB404EEEA3F49DBDE634D73E1BF42
:1086E00011D5219EBCD2EA3FB8B9F2095A9DE1BF2B
:1086F000D4C0165932B7EA3FC868AE393BC7E1BFAC
:10870000A3A10E29669BEA3F1B86BC8BF0F0E1BF5C
:108710009DE69F52587FEA3F58EB3399791AE2BFA2
:10872000E2FA021B0963EA3F1FAC98FBD543E2BFA4
:10873000C89A11C87846EA3FDF12DD4C056DE2BFEA
:10874000822746A0A729EA3FA89C62270796E2BF96
:1087500037F9BAEA950CEA3FEAF3FA25DBBEE2BF45
:1087600094AF29EF43EFE93F16EAE8E380E7E2BF81
:10877000D680EAF5B1D1E93F3570E1FCF70FE3BFF0
:108780004187F347E0B3E93F578E0C0D4038E3BF14
:10879000220DD82ECF95E93FF35906B15860E3BFBB
:1087A00042D7C7F47E77E93F22EBDF854188E3BFFC
:1087B000D76D8EE4EF58E93FB9502029FAAFE3BFF7
:1087C000FC639249223AE93F4383C53882D7E3BF2D
:1087D000A29DD46F161BE93FD4564553D9FEE3BF83
:1087E0000D94EFA3CCFBE83FB16B8E17FF25E4BFE0
:1087F000CC98163345DCE83FD61D0925F34CE4BF81
:108800004117156B80BCE83F4773981BB573E4BFF5
:10881000ABD44D9A7E9CE83F38099B9B449AE4BFB9
:10882000BF2EBA0F407CE83F0400EC45A1C0E4BF76
:10883000CC58E91AC55BE83FE9E5E3BBCAE6E4BF0B
:108840006E97FF0B0E3BE83F9BA0599FC00CE5BF06
:10885000CC7AB5331B1AE83F9655A3928232E5BF16
:10886000711757E3ECF8E73F375197381058E5BFD9
:10887000B23DC36C83D7E73F9FEC8C34697DE5BF85
:10888000B0AF6A22DFB5E73F50725D2A8DA2E5BF27
:10889000E4554F570094E73F8C0165BE7BC7E5BFA9
:1088A0006172035FE771E73F7470839534ECE5BF55
:1088B0008DD2A88D944FE73FDE2C1D55B710E6BF33
:1088C00097FFEF37082DE73FE81B1CA30335E6BFF2
:1088D0007A6D17B3420AE73F3E78F0251959E6BF93
:1088E000AEA8EA5444E7E63F10AF9184F77CE6BFB8
:1088F0007582C1730DC4E63FCC3B7F669EA0E6BF88
:10890000CC3B7F669EA0E63F7582C1730DC4E6BF77
:1089100010AF9184F77CE63FAEA8EA5444E7E6BF87
:108920003E78F0251959E63F7A6D17B3420AE7BF42
:10893000E81B1CA30335E63F97FFEF37082DE7BF81
:10894000DE2C1D55B710E63F8DD2A88D944FE7BFA2
:108950007470839534ECE53F6172035FE771E7BFA4
:108960008C0165BE7BC7E53FE4554F570094E7BFD8
:1089700050725D2A8DA2E53FB0AF6A22DFB5E7BF36
:108980009FEC8C34697DE53FB23DC36C83D7E7BF74
:10899000375197381058E53F711757E3ECF8E7BFA8
:1089A0009655A3928232E53FCC7AB5331B1AE8BFC5
:1089B0009BA0599FC00CE53F6E97FF0B0E3BE8BF95
:1089C000E9E5E3BBCAE6E43FCC58E91AC55BE8BF7A
:1089D0000400EC45A1C0E43FBF2EBA0F407CE8BFC5
:1089E00038099B9B449AE43FABD44D9A7E9CE8BFE8
:1089F0004773981BB573E43F4117156B80BCE8BF04
:108A0000D61D0925F34CE43FCC98163345DCE8BF6E
:108A1000B16B8E17FF25E43F0D94EFA3CCFBE8BFAD
:108A2000D4564553D9FEE33FA29DD46F161BE9BF30
:108A30004383C53882D7E33FFC639249223AE9BFBA
:108A4000B9502029FAAFE33FD76D8EE4EF58E9BF64
:108A500022EBDF854188E33F42D7C7F47E77E9BF49
:108A6000F35906B15860E33F220DD82ECF95E9BFE8
:108A7000578E0C0D4038E33F4187F347E0B3E9BF21
:108A80003570E1FCF70FE33FD680EAF5B1D1E9BFDD
:108A900016EAE8E380E7E23F94AF29EF43EFE9BF4E
:108AA000EAF3FA25DBBEE23F37F9BAEA950CEABFF2
:108AB000A89C62270796E23F822746A0A729EABF23
:108AC000DF12DD4C056DE23FC89A11C87846EABF57
:108AD0001FAC98FBD543E23FE2FA021B0963EABFF1
:108AE00058EB3399791AE23F9DE69F52587FEABFCF
:108AF0001B86BC8BF0F0E13FA3A10E29669BEABF69
:108B0000C868AE393BC7E13FD4C0165932B7EABF97
:108B1000B8B9F2095A9DE13F11D5219EBCD2EABFF6
:108B200049DBDE634D73E13F74143CB404EEEABFED
:108B3000EB6C33AF1549E13F000215580A09EBBF52
:108B4000224B1B54B31EE13FB4130047CD23EBBFB0
:108B50007D8E2ABB26F4E03F1257F53E4D3EEBBF1B
:108B60008F895D4D70C9E03F051492FE8958EBBFB7
:108B7000E1C51774909EE03F3E6E19458372EBBFCE
:108B8000EDFF22998773E03FE90475D2388CEBBF83
:108B90001A22AE265648E03FD2903567AAA5EBBF11
:108BA000B73E4C87FC1CE03FEA8093C4D7BEEBBFC6
:108BB0000F12E74BF6E2DF3F2A956FACC0D7EBBF51
:108BC000BA9AF8DBA48BDF3FDD7753E164F0EBBFAB
:108BD00068D03F960534DF3F49557226C408ECBF84
:108BE000D578EF5219DCDE3FB071A93FDE20ECBF33
:108BF0001351F8EAE083DE3FB1BD80F1B238ECBF3B
:108C00003BF606385D2BDE3F07692B014250ECBF77
:108C100058CC81148FD2DD3F9B7388348B67ECBFB7
:108C200089E3865B7779DD3FF33C23528E7EECBF90
:108C30005BDBE9E81620DD3FF51134214B95ECBFF5
:108C40005DC431996EC6DC3F01B9A069C1ABECBF10
:108C50000A0097497F6CDC3F5CFCFCF3F0C1ECBF81
:108C6000E71E01D84912DC3FF6328B89D9D7ECBF19
:108C700001BD0423CFB7DB3F73C73CF47AEDECBFF3
:108C8000C05CE109105DDB3F92BDB2FED402EDBFD6
:108C900009407F6C0D02DB3FDC353E74E717EDBF0A
:108CA000C93F6D2BC8A6DA3F9FEFE020B22CEDBF85
:108CB000E4A1DE27414BDA3F3AC94DD13441EDBF43
:108CC0008AEDA84379EFD93FB13EE9526F55EDBF28
:108CD000FEBD41617193D93F8BE6C9736169EDBFF8
:108CE000D793BC632A37D93FF9ECB8020B7DEDBFAF
:108CF000AFA4C82EA5DAD83F468D32CF6B90EDBF1A
:108D000063A9AEA6E27DD83F888966A983A3EDBF9B
:108D1000C4AA4EB0E320D83F9BA0386252B6EDBF44
:108D2000E7CC1D31A9C3D73F600241CBD7C8EDBF07
:108D3000F618240F3466D73F3DC2CCB613DBEDBF27
:108D40009E45FA308508D73FDA47DEF705EDEDBFDF
:108D5000167EC77D9DAAD63F2BBE2D62AEFEEDBF0F
:108D6000C6273FDD7D4CD63FAC8029CA0C10EEBF34
:108D700093A69E3727EED53FE586F6042121EEBF68
:108D8000DD1FAB759A8FD53F25CE70E8EA31EEBF77
:108D9000243CAF80D830D53F7EC12B4B6A42EEBF1A
:108DA0006AE77842E2D1D43FFC9F72049F52EEBF43
:108DB000541057A5B872D43F12E148EC8862EEBF58
:108DC000026617945C13D43F44976ADB2772EEBFA8
:108DD000B71404FACEB3D33F0DD14CAB7B81EEBFB9
:108DE0005281E1C21054D33FF3F71D368490EEBF99
:108DF0008603ECDA22F4D23FDA2DC656419FEEBF4D
:108E0000059FD52E0694D23F8EA8E7E8B2ADEEBFFF
:108E100072BBC3ABBB33D23F740BDFC8D8BBEEBF52
:108E20003DDB4C3F44D3D13F84BFC3D3B2C9EEBF77
:108E3000775176D7A072D13F634968E740D7EEBF3C
:108E400077F6B162D211D13FBC9D5AE282E4EEBF07
:108E500090DBDBCFD9B0D03FC273E4A378F1EEBF93
:108E6000AEFD370EB84FD03FEC950B0C22FEEEBF97
:108E7000F8EDDF1ADCDCCF3FD73092FB7E0AEFBF84
:108E80001A5F217BF919CF3F5D20F7538F16EFBF93
:108E90001B1A101ECA56CE3FDA3A76F75222EFBF9F
:108EA000114345E54F93CD3F9D9A08C9C92DEFBFAA
:108EB00086B212B38CCFCC3F89E564ACF338EFBFF8
:108EC000634F7E6A820BCC3FDD92FF85D043EFBFBC
:108ED00022673DEF3247CB3F2D2F0B3B604EEFBF5C
:108EE0005104B025A082CA3F849E78B1A258EFBF3A
:108EF0006643DCF2CBBDC93FB05CF7CF9762EFBFF2
:108F00000AA6693CB8F8C83FB7BBF57D3F6CEFBF18
:108F1000C5649CE86633C83F7720A1A39975EFBF6D
:108F200031BF50DED96DC73F6E3DE629A67EEFBF4B
:108F3000B24AF60413A8C63FA94B71FA6487EFBF83
:108F4000C63F8B4414E2C53FDB41AEFFD58FEFBF78
:108F5000F2C59785DF1BC53F9B09C924F997EFBF71
:108F60005A3E29B17655C43FC8B2AD55CE9FEFBF2A
:108F7000148DCDB0DB8EC33F17A5087F55A7EFBF7B
:108F80003A618E6E10C8C23FBBCF468E8EAEEFBF29
:108F9000CE7BECD41601C23F41D7957179B5EFBFB6
:108FA00076F5DACEF039C13F8641E41716BCEFBF43
:108FB0001D83BA47A072C03FD39FE17064C2EFBF68
:108FC0000E73A9564E56BF3F21B7FE6C64C8EFBF63
:108FD000C89FAECB0EC7BD3F7BA66DFD15CEEFBFC4
:108FE000D5C29EC78537BC3F840B221479D3EFBF0F
:108FF000045C4924B7A7BA3F2625D1A38DD8EFBF7B
:109000002CB429BCA617B93F56F4F19F53DDEFBF2E
:10901000215B5D6A5887B73F095BBDFCCAE1EFBFC2
:1090200019A49A0AD0F6B53F40392EAFF3E5EFBF49
:10903000962027791166B43F3A8801ADCDE9EFBF9C
:10904000F619CE9220D5B23FC473B6EC58EDEFBFFF
:10905000B209D7340144B13FAD718E6595F0EFBFD1
:10906000E020F8796E65AF3F5C578D0F83F3EFBF5B
:10907000E3D7C0128D42AC3F7E6D79E321F6EFBF9E
:1090800014D80DF1651FA93FDF81DBDA71F8EFBF5E
:1090900043CD90D200FCA53F5DF7FEEF72FAEFBF23
:1090A000CD55947565D8A23FF8D3F11D25FCEFBFCF
:1090B00001CFD13137699F3F0DCD846088FDEFBF6F
:1090C0007E66A3F75521993FA1514BB49CFEEFBF9B
:1090D000FD0EE3BB36D9923FDB929B1662FFEFBFDA
:1090E00084C7DEFCD121893F928A8E85D8FFEFBFED
:1090F000710067FEF021793F000000000000F0BF22
:109100000000000000000000928A8E85D8FFEFBFAB
:10911000710067FEF02179BFDB929B1662FFEFBF03
:1091200084C7DEFCD12189BFA1514BB49CFEEFBFA7
:10913000FD0EE3BB36D992BF0DCD846088FDEFBF35
:109140007E66A3F7552199BFF8D3F11D25FCEFBF2B
:1091500001CFD13137699FBF5DF7FEEF72FAEFBFE4
:10916000CD55947565D8A2BFDF81DBDA71F8EFBF0A
:1091700043CD90D200FCA5BF7E6D79E321F6EFBF11
:1091800014D80DF1651FA9BF5C578D0F83F3EFBF96
:10919000E3D7C0128D42ACBFAD718E6595F0EFBFC5
:1091A000E020F8796E65AFBFC473B6EC58EDEFBF41
:1091B000B209D7340144B1BF3A8801ADCDE9EFBF60
:1091C000F619CE9220D5B2BF40392EAFF3E5EFBFEE
:1091D000962027791166B4BF095BBDFCCAE1EFBFD9
:1091E00019A49A0AD0F6B5BF56F4F19F53DDEFBF2C
:1091F000215B5D6A5887B7BF2625D1A38DD8EFBF05
:109200002CB429BCA617B9BF840B221479D3EFBFA5
:10921000045C4924B7A7BABF7BA66DFD15CEEFBF8E
:10922000D5C29EC78537BCBF21B7FE6C64C8EFBFEF
:10923000C89FAECB0EC7BDBFD39FE17064C2EFBF66
:109240000E73A9564E56BFBF8641E41716BCEFBF3A
:109250001D83BA47A072C0BF41D7957179B5EFBFE2
:1092600076F5DACEF039C1BFBBCF468E8EAEEFBFFA
:10927000CE7BECD41601C2BF17A5087F55A7EFBF60
:109280003A618E6E10C8C2BFC8B2AD55CE9FEFBF57
:10929000148DCDB0DB8EC3BF9B09C924F997EFBFF6
:1092A0005A3E29B17655C4BFDB41AEFFD58FEFBF23
:1092B000F2C59785DF1BC5BFA94B71FA6487EFBF65
:1092C000C63F8B4414E2C5BF6E3DE629A67EEFBFC4
:1092D000B24AF60413A8C6BF7720A1A39975EFBFC1
:1092E00031BF50DED96DC7BFB7BBF57D3F6CEFBF57
:1092F000C5649CE86633C8BFB05CF7CF9762EFBF28
:109300000AA6693CB8F8C8BF849E78B1A258EFBFDE
:109310006643DCF2CBBDC9BF2D2F0B3B604EEFBFC8
:109320005104B025A082CABFDD92FF85D043EFBFB4
:1093300022673DEF3247CBBF89E564ACF338EFBF1E
:10934000634F7E6A820BCCBF9D9A08C9C92DEFBFBF
:1093500086B212B38CCFCCBFDA3A76F75222EFBF87
:10936000114345E54F93CDBF5D20F7538F16EFBFF7
:109370001B1A101ECA56CEBFD73092FB7E0AEFBF13
:109380001A5F217BF919CFBFEC950B0C22FEEEBFC3
:10939000F8EDDF1ADCDCCFBFC273E4A378F1EEBFD7
:1093A000AEFD370EB84FD0BFBC9D5AE282E4EEBF8F
:1093B00090DBDBCFD9B0D0BF634968E740D7EEBFC1
:1093C00077F6B162D211D1BF84BFC3D3B2C9EEBFA9
:1093D000775176D7A072D1BF740BDFC8D8BBEEBF70
:1093E0003DDB4C3F44D3D1BF8EA8E7E8B2ADEEBF22
:1093F00072BBC3ABBB33D2BFDA2DC656419FEEBFA3
:10940000059FD52E0694D2BFF3F71D368490EEBF8C
:109410008603ECDA22F4D2BF0DD14CAB7B81EEBFD8
:109420005281E1C21054D3BF44976ADB2772EEBF6A
:10943000B71404FACEB3D3BF12E148EC8862EEBF92
:10944000026617945C13D4BFFC9F72049F52EEBF58
:10945000541057A5B872D4BF7EC12B4B6A42EEBFE1
:109460006AE77842E2D1D4BF25CE70E8EA31EEBF98
:10947000243CAF80D830D5BFE586F6042121EEBF6D
:10948000DD1FAB759A8FD5BFAC8029CA0C10EEBF1B
:1094900093A69E3727EED5BF2BBE2D62AEFEEDBF45
:1094A000C6273FDD7D4CD6BFDA47DEF705EDEDBFC1
:1094B000167EC77D9DAAD6BF3DC2CCB613DBEDBFDD
:1094C0009E45FA308508D7BF600241CBD7C8EDBFB3
:1094D000F618240F3466D7BF9BA0386252B6EDBF92
:1094E000E7CC1D31A9C3D7BF888966A983A3EDBF87
:1094F000C4AA4EB0E320D8BF468D32CF6B90EDBFEB
:1095000063A9AEA6E27DD8BFF9ECB8020B7DEDBF32
:10951000AFA4C82EA5DAD8BF8BE6C9736169EDBFC9
:10952000D793BC632A37D9BFB13EE9526F55EDBF1F
:10953000FEBD41617193D9BF3AC94DD13441EDBFF0
:109540008AEDA84379EFD9BF9FEFE020B22CEDBFA1
:10955000E4A1DE27414BDABFDC353E74E717EDBFEF
:10956000C93F6D2BC8A6DABF92BDB2FED402EDBFD3
:1095700009407F6C0D02DBBF73C73CF47AEDECBF92
:10958000C05CE109105DDBBFF6328B89D9D7ECBF37
:1095900001BD0423CFB7DBBF5CFCFCF3F0C1ECBF23
:1095A000E71E01D84912DCBF01B9A069C1ABECBF0D
:1095B0000A0097497F6CDCBFF51134214B95ECBF55
:1095C0005DC431996EC6DCBFF33C23528E7EECBF86
:1095D0005BDBE9E81620DDBF9B7388348B67ECBF4B
:1095E00089E3865B7779DDBF07692B014250ECBFC9
:1095F00058CC81148FD2DDBFB1BD80F1B238ECBF41
:109600003BF606385D2BDEBFB071A93FDE20ECBF14
:109610001351F8EAE083DEBF49557226C408ECBF57
:10962000D578EF5219DCDEBFDD7753E164F0EBBF94
:1096300068D03F960534DFBF2A956FACC0D7EBBF2B
:10964000BA9AF8DBA48BDFBFEA8093C4D7BEEBBF26
:109650000F12E74BF6E2DFBFD2903567AAA5EBBF4A
:10966000B73E4C87FC1CE0BFE90475D2388CEBBFD9
:109670001A22AE265648E0BF3E6E19458372EBBFF4
:10968000EDFF22998773E0BF051492FE8958EBBF66
:10969000E1C51774909EE0BF1257F53E4D3EEBBFFB
:1096A0008F895D4D70C9E0BFB4130047CD23EBBF78
:1096B0007D8E2ABB26F4E0BF000215580A09EBBFD5
:1096C000224B1B54B31EE1BF74143CB404EEEABF3A
:1096D000EB6C33AF1549E1BF11D5219EBCD2EABF77
:1096E00049DBDE634D73E1BFD4C0165932B7EABF20
:1096F000B8B9F2095A9DE1BFA3A10E29669BEABF42
:10970000C868AE393BC7E1BF9DE69F52587FEABFAC
:109710001B86BC8BF0F0E1BFE2FA021B0963EABFD3
:1097200058EB3399791AE2BFC89A11C87846EABF54
:109730001FAC98FBD543E2BF822746A0A729EABF0A
:10974000DF12DD4C056DE2BF37F9BAEA950CEABFCE
:10975000A89C62270796E2BF94AF29EF43EFE9BFC9
:10976000EAF3FA25DBBEE2BFD680EAF5B1D1E9BF64
:1097700016EAE8E380E7E2BF4187F347E0B3E9BFD9
:109780003570E1FCF70FE3BF220DD82ECF95E9BF6E
:10979000578E0C0D4038E3BF42D7C7F47E77E9BF40
:1097A000F35906B15860E3BFD76D8EE4EF58E9BFB7
:1097B00022EBDF854188E3BFFC639249223AE9BF8F
:1097C000B9502029FAAFE3BFA29DD46F161BE9BFA1
:1097D0004383C53882D7E3BF0D94EFA3CCFBE8BF2A
:1097E000D4564553D9FEE3BFCC98163345DCE8BFC9
:1097F000B16B8E17FF25E4BF4117156B80BCE8BF26
:10980000D61D0925F34CE4BFABD44D9A7E9CE8BF2E
:109810004773981BB573E4BFBF2EBA0F407CE8BFF7
:1098200038099B9B449AE4BFCC58E91AC55BE8BF52
:109830000400EC45A1C0E4BF6E97FF0B0E3BE8BFF0
:10984000E9E5E3BBCAE6E4BFCC7AB5331B1AE8BF4F
:109850009BA0599FC00CE5BF711757E3ECF8E7BF19
:109860009655A3928232E5BFB23DC36C83D7E7BF62
:10987000375197381058E5BFB0AF6A22DFB5E7BF60
:109880009FEC8C34697DE5BFE4554F570094E7BFEA
:1098900050725D2A8DA2E5BF6172035FE771E7BF79
:1098A0008C0165BE7BC7E5BF8DD2A88D944FE7BF05
:1098B0007470839534ECE5BF97FFEF37082DE7BF51
:1098C000DE2C1D55B710E6BF7A6D17B3420AE7BF0D
:1098D000E81B1CA30335E6BFAEA8EA5444E7E6BF85
:1098E0003E78F0251959E6BF7582C1730DC4E6BFF5
:1098F00010AF9184F77CE6BFCC3B7F669EA0E6BFAD
:10990000CC3B7F669EA0E6BF10AF9184F77CE6BF9C
:109910007582C1730DC4E6BF3E78F0251959E6BFC4
:10992000AEA8EA5444E7E6BFE81B1CA30335E6BF34
:109930007A6D17B3420AE7BFDE2C1D55B710E6BF9C
:1099400097FFEF37082DE7BF7470839534ECE5BFC0
:109950008DD2A88D944FE7BF8C0165BE7BC7E5BF54
:109960006172035FE771E7BF50725D2A8DA2E5BFA8
:10997000E4554F570094E7BF9FEC8C34697DE5BFF9
:10998000B0AF6A22DFB5E7BF375197381058E5BF4F
:10999000B23DC36C83D7E7BF9655A3928232E5BF31
:1099A000711757E3ECF8E7BF9BA0599FC00CE5BFC8
:1099B000CC7AB5331B1AE8BFE9E5E3BBCAE6E4BFDE
:1099C0006E97FF0B0E3BE8BF0400EC45A1C0E4BF5F
:1099D000CC58E91AC55BE8BF38099B9B449AE4BFA1
:1099E000BF2EBA0F407CE8BF4773981BB573E4BF26
:1099F000ABD44D9A7E9CE8BFD61D0925F34CE4BF3D
:109A00004117156B80BCE8BFB16B8E17FF25E4BF13
:109A1000CC98163345DCE8BFD4564553D9FEE3BF96
:109A20000D94EFA3CCFBE8BF4383C53882D7E3BFD7
:109A3000A29DD46F161BE9BFB9502029FAAFE3BF2E
:109A4000FC639249223AE9BF22EBDF854188E3BFFC
:109A5000D76D8EE4EF58E9BFF35906B15860E3BF04
:109A600042D7C7F47E77E9BF578E0C0D4038E3BF6D
:109A7000220DD82ECF95E9BF3570E1FCF70FE3BF7B
:109A80004187F347E0B3E9BF16EAE8E380E7E2BFC6
:109A9000D680EAF5B1D1E9BFEAF3FA25DBBEE2BF31
:109AA00094AF29EF43EFE9BFA89C62270796E2BF76
:109AB00037F9BAEA950CEABFDF12DD4C056DE2BF5B
:109AC000822746A0A729EABF1FAC98FBD543E2BF77
:109AD000C89A11C87846EABF58EB3399791AE2BFA1
:109AE000E2FA021B0963EABF1B86BC8BF0F0E1BF00
:109AF0009DE69F52587FEABFC868AE393BC7E1BFB9
:109B0000A3A10E29669BEABFB8B9F2095A9DE1BF2D
:109B1000D4C0165932B7EABF49DBDE634D73E1BFEB
:109B200011D5219EBCD2EABFEB6C33AF1549E1BF22
:109B300074143CB404EEEABF224B1B54B31EE1BFC5
:109B4000000215580A09EBBF7D8E2ABB26F4E0BF40
:109B5000B4130047CD23EBBF8F895D4D70C9E0BFC3
:109B60001257F53E4D3EEBBFE1C51774909EE0BF26
:109B7000051492FE8958EBBFEDFF22998773E0BF71
:109B80003E6E19458372EBBF1A22AE265648E0BFDF
:109B9000E90475D2388CEBBFB73E4C87FC1CE0BFA4
:109BA000D2903567AAA5EBBF0F12E74BF6E2DFBFF5
:109BB000EA8093C4D7BEEBBFBA9AF8DBA48BDFBFB1
:109BC0002A956FACC0D7EBBF68D03F960534DFBF96
:109BD000DD7753E164F0EBBFD578EF5219DCDEBFDF
:109BE00049557226C408ECBF1351F8EAE083DEBF82
:109BF000B071A93FDE20ECBF3BF606385D2BDEBF1F
:109C0000B1BD80F1B238ECBF58CC81148FD2DDBF2A
:109C100007692B014250ECBF89E3865B7779DDBF92
:109C20009B7388348B67ECBF5BDBE9E81620DDBFF4
:109C3000F33C23528E7EECBF5DC431996EC6DCBF0F
:109C4000F51134214B95ECBF0A0097497F6CDCBFBE
:109C500001B9A069C1ABECBFE71E01D84912DCBF56
:109C60005CFCFCF3F0C1ECBF01BD0423CFB7DBBF4C
:109C7000F6328B89D9D7ECBFC05CE109105DDBBF40
:109C800073C73CF47AEDECBF09407F6C0D02DBBF7B
:109C900092BDB2FED402EDBFC93F6D2BC8A6DABF9C
:109CA000DC353E74E717EDBFE4A1DE27414BDABF98
:109CB0009FEFE020B22CEDBF8AEDA84379EFD9BF2A
:109CC0003AC94DD13441EDBFFEBD41617193D9BF59
:109CD000B13EE9526F55EDBFD793BC632A37D9BF68
:109CE0008BE6C9736169EDBFAFA4C82EA5DAD8BFF2
:109CF000F9ECB8020B7DEDBF63A9AEA6E27DD8BF3B
:109D0000468D32CF6B90EDBFC4AA4EB0E320D8BFD2
:109D1000888966A983A3EDBFE7CC1D31A9C3D7BF4E
:109D20009BA0386252B6EDBFF618240F3466D7BF39
:109D3000600241CBD7C8EDBF9E45FA308508D7BF3A
:109D40003DC2CCB613DBEDBF167EC77D9DAAD6BF44
:109D5000DA47DEF705EDEDBFC6273FDD7D4CD6BF08
:109D60002BBE2D62AEFEEDBF93A69E3727EED5BF6C
:109D7000AC8029CA0C10EEBFDD1FAB759A8FD5BF22
:109D8000E586F6042121EEBF243CAF80D830D5BF54
:109D900025CE70E8EA31EEBF6AE77842E2D1D4BF5F
:109DA0007EC12B4B6A42EEBF541057A5B872D4BF88
:109DB000FC9F72049F52EEBF026617945C13D4BFDF
:109DC00012E148EC8862EEBFB71404FACEB3D3BFF9
:109DD00044976ADB2772EEBF5281E1C21054D3BFB1
:109DE0000DD14CAB7B81EEBF8603ECDA22F4D2BFFF
:109DF000F3F71D368490EEBF059FD52E0694D2BF93
:109E0000DA2DC656419FEEBF72BBC3ABBB33D2BF88
:109E10008EA8E7E8B2ADEEBF3DDB4C3F44D3D1BFE7
:109E2000740BDFC8D8BBEEBF775176D7A072D1BF15
:109E300084BFC3D3B2C9EEBF77F6B162D211D1BF2E
:109E4000634968E740D7EEBF90DBDBCFD9B0D0BF26
:109E5000BC9D5AE282E4EEBFAEFD370EB84FD0BFD4
:109E6000C273E4A378F1EEBFF8EDDF1ADCDCCFBFFC
:109E7000EC950B0C22FEEEBF1A5F217BF919CFBFC8
:109E8000D73092FB7E0AEFBF1B1A101ECA56CEBFF8
:109E90005D20F7538F16EFBF114345E54F93CDBFBC
:109EA000DA3A76F75222EFBF86B212B38CCFCCBF2C
:109EB0009D9A08C9C92DEFBF634F7E6A820BCCBF44
:109EC00089E564ACF338EFBF22673DEF3247CBBF83
:109ED000DD92FF85D043EFBF5104B025A082CABFF9
:109EE0002D2F0B3B604EEFBF6643DCF2CBBDC9BFED
:109EF000849E78B1A258EFBF0AA6693CB8F8C8BFE3
:109F0000B05CF7CF9762EFBFC5649CE86633C8BF0B
:109F1000B7BBF57D3F6CEFBF31BF50DED96DC7BF1A
:109F20007720A1A39975EFBFB24AF60413A8C6BF64
:109F30006E3DE629A67EEFBFC63F8B4414E2C5BF47
:109F4000A94B71FA6487EFBFF2C59785DF1BC5BFC8
:109F5000DB41AEFFD58FEFBF5A3E29B17655C4BF66
:109F60009B09C924F997EFBF148DCDB0DB8EC3BF19
:109F7000C8B2AD55CE9FEFBF3A618E6E10C8C2BF5A
:109F800017A5087F55A7EFBFCE7BECD41601C2BF43
:109F9000BBCF468E8EAEEFBF76F5DACEF039C1BFBD
:109FA00041D7957179B5EFBF1D83BA47A072C0BF85
:109FB0008641E41716BCEFBF0E73A9564E56BFBFBD
:109FC000D39FE17064C2EFBFC89FAECB0EC7BDBFC9
:109FD00021B7FE6C64C8EFBFD5C29EC78537BCBF32
:109FE0007BA66DFD15CEEFBF045C4924B7A7BABFB1
:109FF000840B221479D3EFBF2CB429BCA617B9BFA8
:10A000002625D1A38DD8EFBF215B5D6A5887B7BFE6
:10A0100056F4F19F53DDEFBF19A49A0AD0F6B5BFED
:10A02000095BBDFCCAE1EFBF962027791166B4BF7A
:10A0300040392EAFF3E5EFBFF619CE9220D5B2BF6F
:10A040003A8801ADCDE9EFBFB209D7340144B1BFC1
:10A05000C473B6EC58EDEFBFE020F8796E65AFBF82
:10A06000AD718E6595F0EFBFE3D7C0128D42ACBFE6
:10A070005C578D0F83F3EFBF14D80DF1651FA9BF97
:10A080007E6D79E321F6EFBF43CD90D200FCA5BFF2
:10A09000DF81DBDA71F8EFBFCD55947565D8A2BFCB
:10A0A0005DF7FEEF72FAEFBF01CFD13137699FBF85
:10A0B000F8D3F11D25FCEFBF7E66A3F7552199BFAC
:10A0C0000DCD846088FDEFBFFD0EE3BB36D992BF96
:10A0D000A1514BB49CFEEFBF84C7DEFCD12189BFE8
:10A0E000DB929B1662FFEFBF710067FEF02179BF24
:10A0F000928A8E85D8FFEFBF0000000000000000AC
:10A10000000000000000F0BF710067FEF021793F01
:10A11000928A8E85D8FFEFBF84C7DEFCD121893FAC
:10A12000DB929B1662FFEFBFFD0EE3BB36D9923F79
:10A13000A1514BB49CFEEFBF7E66A3F75521993F1A
:10A140000DCD846088FDEFBF01CFD13137699F3FCE
:10A15000F8D3F11D25FCEFBFCD55947565D8A23F0E
:10A160005DF7FEEF72FAEFBF43CD90D200FCA53F42
:10A17000DF81DBDA71F8EFBF14D80DF1651FA93F5D
:10A180007E6D79E321F6EFBFE3D7C0128D42AC3F7D
:10A190005C578D0F83F3EFBFE020F8796E65AF3F1A
:10A1A000AD718E6595F0EFBFB209D7340144B13F70
:10A1B000C473B6EC58EDEFBFF619CE9220D5B23F7E
:10A1C0003A8801ADCDE9EFBF962027791166B43FFB
:10A1D00040392EAFF3E5EFBF19A49A0AD0F6B53F88
:10A1E000095BBDFCCAE1EFBF215B5D6A5887B73FE1
:10A1F00056F4F19F53DDEFBF2CB429BCA617B93F2D
:10A200002625D1A38DD8EFBF045C4924B7A7BA3F58
:10A21000840B221479D3EFBFD5C29EC78537BC3FCC
:10A220007BA66DFD15CEEFBFC89FAECB0EC7BD3F61
:10A2300021B7FE6C64C8EFBF0E73A9564E56BF3FE0
:10A24000D39FE17064C2EFBF1D83BA47A072C03FC5
:10A250008641E41716BCEFBF76F5DACEF039C13F80
:10A2600041D7957179B5EFBFCE7BECD41601C23FD3
:10A27000BBCF468E8EAEEFBF3A618E6E10C8C23F26
:10A2800017A5087F55A7EFBF148DCDB0DB8EC33F58
:10A29000C8B2AD55CE9FEFBF5A3E29B17655C43FE7
:10A2A0009B09C924F997EFBFF2C59785DF1BC53F0E
:10A2B000DB41AEFFD58FEFBFC63F8B4414E2C53FF5
:10A2C000A94B71FA6487EFBFB24AF60413A8C63FE0
:10A2D0006E3DE629A67EEFBF31BF50DED96DC73F88
:10A2E0007720A1A39975EFBFC5649CE86633C83F8A
:10A2F000B7BBF57D3F6CEFBF0AA6693CB8F8C83F15
:10A30000B05CF7CF9762EFBF6643DCF2CBBDC93FCD
:10A31000849E78B1A258EFBF5104B025A082CA3FF5
:10A320002D2F0B3B604EEFBF22673DEF3247CB3FF7
:10A33000DD92FF85D043EFBF634F7E6A820BCC3F37
:10A3400089E564ACF338EFBF86B212B38CCFCC3F53
:10A350009D9A08C9C92DEFBF114345E54F93CD3FE5
:10A36000DA3A76F75222EFBF1B1A101ECA56CE3FBA
:10A370005D20F7538F16EFBF1A5F217BF919CF3F8E
:10A38000D73092FB7E0AEFBFF8EDDF1ADCDCCF3F5F
:10A39000EC950B0C22FEEEBFAEFD370EB84FD03F52
:10A3A000C273E4A378F1EEBF90DBDBCFD9B0D03F2E
:10A3B000BC9D5AE282E4EEBF77F6B162D211D13F82
:10A3C000634968E740D7EEBF775176D7A072D13F97
:10A3D00084BFC3D3B2C9EEBF3DDB4C3F44D3D13FB2
:10A3E000740BDFC8D8BBEEBF72BBC3ABBB33D23F6D
:10A3F0008EA8E7E8B2ADEEBF059FD52E0694D23FFA
:10A40000DA2DC656419FEEBF8603ECDA22F4D23F26
:10A41000F3F71D368490EEBF5281E1C21054D33F52
:10A420000DD14CAB7B81EEBFB71404FACEB3D33F52
:10A4300044976ADB2772EEBF026617945C13D43F21
:10A4400012E148EC8862EEBF541057A5B872D43FB1
:10A45000FC9F72049F52EEBF6AE77842E2D1D43F7C
:10A460007EC12B4B6A42EEBF243CAF80D830D53F33
:10A4700025CE70E8EA31EEBFDD1FAB759A8FD53F70
:10A48000E586F6042121EEBF93A69E3727EED53F41
:10A49000AC8029CA0C10EEBFC6273FDD7D4CD63FED
:10A4A0002BBE2D62AEFEEDBF167EC77D9DAAD63FA8
:10A4B000DA47DEF705EDEDBF9E45FA308508D73F58
:10A4C0003DC2CCB613DBEDBFF618240F3466D73F80
:10A4D000600241CBD7C8EDBFE7CC1D31A9C3D73F40
:10A4E0009BA0386252B6EDBFC4AA4EB0E320D83F5D
:10A4F000888966A983A3EDBF63A9AEA6E27DD83F94
:10A50000468D32CF6B90EDBFAFA4C82EA5DAD83FF1
:10A51000F9ECB8020B7DEDBFD793BC632A37D93F66
:10A520008BE6C9736169EDBFFEBD41617193D93F8F
:10A53000B13EE9526F55EDBF8AEDA84379EFD93F9F
:10A540003AC94DD13441EDBFE4A1DE27414BDA3F9A
:10A550009FEFE020B22CEDBFC93F6D2BC8A6DA3FBC
:10A56000DC353E74E717EDBF09407F6C0D02DB3F21
:10A5700092BDB2FED402EDBFC05CE109105DDB3FCD
:10A5800073C73CF47AEDECBF01BD0423CFB7DB3FCA
:10A59000F6328B89D9D7ECBFE71E01D84912DC3FD0
:10A5A0005CFCFCF3F0C1ECBF0A0097497F6CDC3F18
:10A5B00001B9A069C1ABECBF5DC431996EC6DC3F87
:10A5C000F51134214B95ECBF5BDBE9E81620DD3F4C
:10A5D000F33C23528E7EECBF89E3865B7779DD3FC7
:10A5E0009B7388348B67ECBF58CC81148FD2DD3FCE
:10A5F00007692B014250ECBF3BF606385D2BDE3F6E
:10A60000B1BD80F1B238ECBF1351F8EAE083DE3F10
:10A61000B071A93FDE20ECBFD578EF5219DCDE3FE8
:10A6200049557226C408ECBF68D03F960534DF3F19
:10A63000DD7753E164F0EBBFBA9AF8DBA48BDF3F20
:10A640002A956FACC0D7EBBF0F12E74BF6E2DF3FA6
:10A65000EA8093C4D7BEEBBFB73E4C87FC1CE03FFB
:10A66000D2903567AAA5EBBF1A22AE265648E03F26
:10A67000E90475D2388CEBBFEDFF22998773E03F78
:10A680003E6E19458372EBBFE1C51774909EE03FA3
:10A69000051492FE8958EBBF8F895D4D70C9E03F6C
:10A6A0001257F53E4D3EEBBF7D8E2ABB26F4E03FB0
:10A6B000B4130047CD23EBBF224B1B54B31EE13F25
:10A6C000000215580A09EBBFEB6C33AF1549E13FA7
:10A6D00074143CB404EEEABF49DBDE634D73E13F22
:10A6E00011D5219EBCD2EABFB8B9F2095A9DE13F0B
:10A6F000D4C0165932B7EABFC868AE393BC7E13F8C
:10A70000A3A10E29669BEABF1B86BC8BF0F0E13F3C
:10A710009DE69F52587FEABF58EB3399791AE23F82
:10A72000E2FA021B0963EABF1FAC98FBD543E23F84
:10A73000C89A11C87846EABFDF12DD4C056DE23FCA
:10A74000822746A0A729EABFA89C62270796E23F76
:10A7500037F9BAEA950CEABFEAF3FA25DBBEE23F25
:10A7600094AF29EF43EFE9BF16EAE8E380E7E23F61
:10A77000D680EAF5B1D1E9BF3570E1FCF70FE33FD0
:10A780004187F347E0B3E9BF578E0C0D4038E33FF4
:10A79000220DD82ECF95E9BFF35906B15860E33F9B
:10A7A00042D7C7F47E77E9BF22EBDF854188E33FDC
:10A7B000D76D8EE4EF58E9BFB9502029FAAFE33FD7
:10A7C000FC639249223AE9BF4383C53882D7E33F0D
:10A7D000A29DD46F161BE9BFD4564553D9FEE33F63
:10A7E0000D94EFA3CCFBE8BFB16B8E17FF25E43FC0
:10A7F000CC98163345DCE8BFD61D0925F34CE43F61
:10A800004117156B80BCE8BF4773981BB573E43FD5
:10A81000ABD44D9A7E9CE8BF38099B9B449AE43F99
:10A82000BF2EBA0F407CE8BF0400EC45A1C0E43F56
:10A83000CC58E91AC55BE8BFE9E5E3BBCAE6E43FEB
:10A840006E97FF0B0E3BE8BF9BA0599FC00CE53FE6
:10A85000CC7AB5331B1AE8BF9655A3928232E53FF6
:10A86000711757E3ECF8E7BF375197381058E53FB9
:10A87000B23DC36C83D7E7BF9FEC8C34697DE53F65
:10A88000B0AF6A22DFB5E7BF50725D2A8DA2E53F07
:10A89000E4554F570094E7BF8C0165BE7BC7E53F89
:10A8A0006172035FE771E7BF7470839534ECE53F35
:10A8B0008DD2A88D944FE7BFDE2C1D55B710E63F13
:10A8C00097FFEF37082DE7BFE81B1CA30335E63FD2
:10A8D0007A6D17B3420AE7BF3E78F0251959E63F73
:10A8E000AEA8EA5444E7E6BF10AF9184F77CE63F98
:10A8F0007582C1730DC4E6BFCC3B7F669EA0E63F68
:10A90000CC3B7F669EA0E6BF7582C1730DC4E63F57
:10A9100010AF9184F77CE6BFAEA8EA5444E7E63F67
:10A920003E78F0251959E6BF7A6D17B3420AE73F22
:10A93000E81B1CA30335E6BF97FFEF37082DE73F61
:10A94000DE2C1D55B710E6BF8DD2A88D944FE73F82
:10A950007470839534ECE5BF6172035FE771E73F84
:10A960008C0165BE7BC7E5BFE4554F570094E73FB8
:10A9700050725D2A8DA2E5BFB0AF6A22DFB5E73F16
:10A980009FEC8C34697DE5BFB23DC36C83D7E73F54
:10A99000375197381058E5BF711757E3ECF8E73F88
:10A9A0009655A3928232E5BFCC7AB5331B1AE83FA5
:10A9B0009BA0599FC00CE5BF6E97FF0B0E3BE83F75
:10A9C000E9E5E3BBCAE6E4BFCC58E91AC55BE83F5A
:10A9D0000400EC45A1C0E4BFBF2EBA0F407CE83FA5
:10A9E00038099B9B449AE4BFABD44D9A7E9CE83FC8
:10A9F0004773981BB573E4BF4117156B80BCE83FE4
:10AA0000D61D0925F34CE4BFCC98163345DCE83F4E
:10AA1000B16B8E17FF25E4BF0D94EFA3CCFBE83F8D
:10AA2000D4564553D9FEE3BFA29DD46F161BE93F10
:10AA30004383C53882D7E3BFFC639249223AE93F9A
:10AA4000B9502029FAAFE3BFD76D8EE4EF58E93F44
:10AA500022EBDF854188E3BF42D7C7F47E77E93F29
:10AA6000F35906B15860E3BF220DD82ECF95E93FC8
:10AA7000578E0C0D4038E3BF4187F347E0B3E93F01
:10AA80003570E1FCF70FE3BFD680EAF5B1D1E93FBD
:10AA900016EAE8E380E7E2BF94AF29EF43EFE93F2E
:10AAA000EAF3FA25DBBEE2BF37F9BAEA950CEA3FD2
:10AAB000A89C62270796E2BF822746A0A729EA3F03
:10AAC000DF12DD4C056DE2BFC89A11C87846EA3F37
:10AAD0001FAC98FBD543E2BFE2FA021B0963EA3FD1
:10AAE00058EB3399791AE2BF9DE69F52587FEA3FAF
:10AAF0001B86BC8BF0F0E1BFA3A10E29669BEA3F49
:10AB0000C868AE393BC7E1BFD4C0165932B7EA3F77
:10AB1000B8B9F2095A9DE1BF11D5219EBCD2EA3FD6
:10AB200049DBDE634D73E1BF74143CB404EEEA3FCD
:10AB3000EB6C33AF1549E1BF000215580A09EB3F32
:10AB4000224B1B54B31EE1BFB4130047CD23EB3F90
:10AB50007D8E2ABB26F4E0BF1257F53E4D3EEB3FFB
:10AB60008F895D4D70C9E0BF051492FE8958EB3F97
:10AB7000E1C51774909EE0BF3E6E19458372EB3FAE
:10AB8000EDFF22998773E0BFE90475D2388CEB3F63
:10AB90001A22AE265648E0BFD2903567AAA5EB3FF1
:10ABA000B73E4C87FC1CE0BFEA8093C4D7BEEB3FA6
:10ABB0000F12E74BF6E2DFBF2A956FACC0D7EB3F31
:10ABC000BA9AF8DBA48BDFBFDD7753E164F0EB3F8B
:10ABD00068D03F960534DFBF49557226C408EC3F64
:10ABE000D578EF5219DCDEBFB071A93FDE20EC3F13
:10ABF0001351F8EAE083DEBFB1BD80F1B238EC3F1B
:10AC00003BF606385D2BDEBF07692B014250EC3F57
:10AC100058CC81148FD2DDBF9B7388348B67EC3F97
:10AC200089E3865B7779DDBFF33C23528E7EEC3F70
:10AC30005BDBE9E81620DDBFF51134214B95EC3FD5
:10AC40005DC431996EC6DCBF01B9A069C1ABEC3FF0
:10AC50000A0097497F6CDCBF5CFCFCF3F0C1EC3F61
:10AC6000E71E01D84912DCBFF6328B89D9D7EC3FF9
:10AC700001BD0423CFB7DBBF73C73CF47AEDEC3FD3
:10AC8000C05CE109105DDBBF92BDB2FED402ED3FB6
:10AC900009407F6C0D02DBBFDC353E74E717ED3FEA
:10ACA000C93F6D2BC8A6DABF9FEFE020B22CED3F65
:10ACB000E4A1DE27414BDABF3AC94DD13441ED3F23
:10ACC0008AEDA84379EFD9BFB13EE9526F55ED3F08
:10ACD000FEBD41617193D9BF8BE6C9736169ED3FD8
:10ACE000D793BC632A37D9BFF9ECB8020B7DED3F8F
:10ACF000AFA4C82EA5DAD8BF468D32CF6B90ED3FFA
:10AD000063A9AEA6E27DD8BF888966A983A3ED3F7B
:10AD1000C4AA4EB0E320D8BF9BA0386252B6ED3F24
:10AD2000E7CC1D31A9C3D7BF600241CBD7C8ED3FE7
:10AD3000F618240F3466D7BF3DC2CCB613DBED3F07
:10AD40009E45FA308508D7BFDA47DEF705EDED3FBF
:10AD5000167EC77D9DAAD6BF2BBE2D62AEFEED3FEF
:10AD6000C6273FDD7D4CD6BFAC8029CA0C10EE3F14
:10AD700093A69E3727EED5BFE586F6042121EE3F48
:10AD8000DD1FAB759A8FD5BF25CE70E8EA31EE3F57
:10AD9000243CAF80D830D5BF7EC12B4B6A42EE3FFA
:10ADA0006AE77842E2D1D4BFFC9F72049F52EE3F23
:10ADB000541057A5B872D4BF12E148EC8862EE3F38
:10ADC000026617945C13D4BF44976ADB2772EE3F88
:10ADD000B71404FACEB3D3BF0DD14CAB7B81EE3F99
:10ADE0005281E1C21054D3BFF3F71D368490EE3F79
:10ADF0008603ECDA22F4D2BFDA2DC656419FEE3F2D
:10AE0000059FD52E0694D2BF8EA8E7E8B2ADEE3FDF
:10AE100072BBC3ABBB33D2BF740BDFC8D8BBEE3F32
:10AE20003DDB4C3F44D3D1BF84BFC3D3B2C9EE3F57
:10AE3000775176D7A072D1BF634968E740D7EE3F1C
:10AE400077F6B162D211D1BFBC9D5AE282E4EE3FE7
:10AE500090DBDBCFD9B0D0BFC273E4A378F1EE3F73
:10AE6000AEFD370EB84FD0BFEC950B0C22FEEE3F77
:10AE7000F8EDDF1ADCDCCFBFD73092FB7E0AEF3F64
:10AE80001A5F217BF919CFBF5D20F7538F16EF3F73
:10AE90001B1A101ECA56CEBFDA3A76F75222EF3F7F
:10AEA000114345E54F93CDBF9D9A08C9C92DEF3F8A
:10AEB00086B212B38CCFCCBF89E564ACF338EF3FD8
:10AEC000634F7E6A820BCCBFDD92FF85D043EF3F9C
:10AED00022673DEF3247CBBF2D2F0B3B604EEF3F3C
:10AEE0005104B025A082CABF849E78B1A258EF3F1A
:10AEF0006643DCF2CBBDC9BFB05CF7CF9762EF3FD2
:10AF00000AA6693CB8F8C8BFB7BBF57D3F6CEF3FF8
:10AF1000C5649CE86633C8BF7720A1A39975EF3F4D
:10AF200031BF50DED96DC7BF6E3DE629A67EEF3F2B
:10AF3000B24AF60413A8C6BFA94B71FA6487EF3F63
:10AF4000C63F8B4414E2C5BFDB41AEFFD58FEF3F58
:10AF5000F2C59785DF1BC5BF9B09C924F997EF3F51
:10AF60005A3E29B17655C4BFC8B2AD55CE9FEF3F0A
:10AF7000148DCDB0DB8EC3BF17A5087F55A7EF3F5B
:10AF80003A618E6E10C8C2BFBBCF468E8EAEEF3F09
:10AF9000CE7BECD41601C2BF41D7957179B5EF3F96
:10AFA00076F5DACEF039C1BF8641E41716BCEF3F23
:10AFB0001D83BA47A072C0BFD39FE17064C2EF3F48
:10AFC0000E73A9564E56BFBF21B7FE6C64C8EF3F43
:10AFD000C89FAECB0EC7BDBF7BA66DFD15CEEF3FA4
:10AFE000D5C29EC78537BCBF840B221479D3EF3FEF
:10AFF000045C4924B7A7BABF2625D1A38DD8EF3F5B
:10B000002CB429BCA617B9BF56F4F19F53DDEF3F0E
:10B01000215B5D6A5887B7BF095BBDFCCAE1EF3FA2
:10B0200019A49A0AD0F6B5BF40392EAFF3E5EF3F29
:10B03000962027791166B4BF3A8801ADCDE9EF3F7C
:10B04000F619CE9220D5B2BFC473B6EC58EDEF3FDF
:10B05000B209D7340144B1BFAD718E6595F0EF3FB1
:10B06000E020F8796E65AFBF5C578D0F83F3EF3F3B
:10B07000E3D7C0128D42ACBF7E6D79E321F6EF3F7E
:10B0800014D80DF1651FA9BFDF81DBDA71F8EF3F3E
:10B0900043CD90D200FCA5BF5DF7FEEF72FAEF3F03
:10B0A000CD55947565D8A2BFF8D3F11D25FCEF3FAF
:10B0B00001CFD13137699FBF0DCD846088FDEF3F4F
:10B0C0007E66A3F7552199BFA1514BB49CFEEF3F7B
:10B0D000FD0EE3BB36D992BFDB929B1662FFEF3FBA
:10B0E00084C7DEFCD12189BF928A8E85D8FFEF3FCD
:10B0F000710067FEF02179BF000000000000F03F02
:10B100000000000000000000021D6221F6FFEF3F7A
:10B11000BAA4CCBEF821693F928A8E85D8FFEF3F52
:10B12000710067FEF021793F4F8C972CA7FFEF3F0E
:10B130000397500E6BD9823FDB929B1662FFEF3F65
:10B1400084C7DEFCD121893FD13BC54309FFEF3FD6
:10B15000CA97B96A296A8F3FA1514BB49CFEEF3F51
:10B16000FD0EE3BB36D9923F77CB70681CFEEF3FF4
:10B1700026B2FA214DFD953F0DCD846088FDEF3F4D
:10B180007E66A3F75521993F79A6E29CE0FCEF3F4C
:10B190001C3BE54C4F459C3FF8D3F11D25FCEF3F90
:10B1A00001CFD13137699F3FAEFD25E455FBEF3F1D
:10B1B0007EC142DB8546A13F5DF7FEEF72FAEF3FAD
:10B1C000CD55947565D8A23F14C008427CF9EF3F75
:10B1D0007961F86F396AA43FDF81DBDA71F8EF3FFC
:10B1E00043CD90D200FCA53F64911BBB53F7EF3FCA
:10B1F000854687A5BA8DA73F7E6D79E321F6EF3F9F
:10B2000014D80DF1651FA93FD3BEB154DCF4EF3F54
:10B2100017835FBD01B1AA3F5C578D0F83F3EF3FEA
:10B22000E3D7C0128D42AC3FED31E11416F2EF3F8F
:10B23000C88E80F906D4AD3FAD718E6595F0EF3FB5
:10B24000E020F8796E65AF3F9161820201EFEF3F38
:10B250006430464E617BB03FC473B6EC58EDEF3FAF
:10B26000B209D7340144B13F0F4130259DEBEF3F88
:10B270004C44ED74960CB23F3A8801ADCDE9EF3FF6
:10B28000F619CE9220D5B23F602D4885EAE7EF3F10
:10B2900099A2C5129F9DB33F40392EAFF3E5EF3F12
:10B2A000962027791166B43F86D8E92BE9E3EF3F72
:10B2B0000A4D4D4A772EB53F095BBDFCCAE1EF3F11
:10B2C00019A49A0AD0F6B53F0733F72299DFEF3F6A
:10B2D00029B1793E1BBFB63F56F4F19F53DDEF3FD6
:10B2E000215B5D6A5887B73F8C531475FADAEF3FDC
:10B2F000A030C112874FB83F2625D1A38DD8EF3F8C
:10B300002CB429BCA617B93F9E5CA72D0DD6EF3FE4
:10B310005CA824EBB6DFB93F840B221479D3EF3F4E
:10B32000045C4924B7A7BA3F8760D858D1D0EF3F13
:10B330004CF638ECA66FBB3F7BA66DFD15CEEF3FFC
:10B34000D5C29EC78537BC3F5443910347CBEF3FDF
:10B35000C17D303B53FFBC3F21B7FE6C64C8EF3F5B
:10B36000C89FAECB0EC7BD3FF69A7D3B6EC5EF3F83
:10B370003EAAE4FDB78EBE3FD39FE17064C2EF3FAB
:10B380000E73A9564E56BF3F888D0A0F47BFEF3F39
:10B390005BB86FADE80EC03F8641E41716BCEF3FC7
:10B3A0001D83BA47A072C03FB7AD668DD1B8EF3FDD
:10B3B0008667B2BC4DD6C03F41D7957179B5EF3F96
:10B3C00076F5DACEF039C13F4DD581C60DB2EF3FEB
:10B3D000E724BE40899DC13FBBCF468E8EAEEF3F76
:10B3E000CE7BECD41601C23FDCFD0CCBFBAAEF3FB9
:10B3F0000A34FD4D9964C23F17A5087F55A7EF3F5A
:10B400003A618E6E10C8C23F91177AAC9BA3EF3F92
:10B41000A71645F97B2BC33FC8B2AD55CE9FEF3F72
:10B42000148DCDB0DB8EC33F29DEFB7CED9BEF3F5F
:10B430009348DB572FF2C33F9B09C924F997EF3F8D
:10B440005A3E29B17655C43F08AC854FF193EF3F82
:10B4500088FA797FB1B8C43FDB41AEFFD58FEF3FAB
:10B46000F2C59785DF1BC53F784BCB37A78BEF3FE6
:10B47000DECB5486007FC53FA94B71FA6487EF3F4E
:10B48000C63F8B4414E2C53F0CC6404A0F83EF3FD2
:10B490000D831D831A45C63F6E3DE629A67EEF3F0C
:10B4A000B24AF60413A8C63F2A321A9C297AEF3F03
:10B4B000FFC4088DFD0AC73F7720A1A39975EF3F10
:10B4C00031BF50DED96DC73FB77E4B43F670EF3FBB
:10B4D0001BCBD2BBA7D0C73FB7BBF57D3F6CEF3FBF
:10B4E000C5649CE86633C83FEE3C88567567EF3FFD
:10B4F0000418C4271796C83FB05CF7CF9762EF3F98
:10B500000AA6693CB8F8C83F5D6843EDA65DEF3F09
:10B51000F92AB6E9495BC93F849E78B1A258EF3F4A
:10B520006643DCF2CBBDC93F072DAF1F8B53EF3F06
:10B53000DA31181B3E20CA3F2D2F0B3B604EEF3FE8
:10B540005104B025A082CA3FB4ABBC062249EF3FEC
:10B55000ABB9F3D5F1E4CA3FDD92FF85D043EF3FAD
:10B5600022673DEF3247CB3F65BC1BBC6B3EEF3FD4
:10B57000AD5DF13463A9CB3F89E564ACF338EF3FAF
:10B58000634F7E6A820BCC3FF0AE3A5A6833EF3F8E
:10B59000DC745D53906DCC3F9D9A08C9C92DEF3F77
:10B5A00086B212B38CCFCC3FCE0946FC1728EF3FB2
:10B5B000EEBD2C4D7731CD3FDA3A76F75222EF3F90
:10B5C000114345E54F93CD3F084728BE7A1CEF3F16
:10B5D0009A09013F16F5CD3F5D20F7538F16EF3FD7
:10B5E0001B1A101ECA56CE3F5F8F89BC9010EF3FCA
:10B5F00048E32D466BB8CE3FD73092FB7E0AEF3F33
:10B600001A5F217BF919CF3F8C73CF145A04EF3F97
:10B610000138BD80747BCF3FEC950B0C22FEEE3FD2
:10B62000F8EDDF1ADCDCCF3FC0A31CE5D6F7EE3F18
:10B63000D2FDB906181FD03FC273E4A378F1EE3FE4
:10B64000AEFD370EB84FD03F44A5504C07EBEE3F50
:10B650001E66EB054E80D03FBC9D5AE282E4EE3F71
:10B6600090DBDBCFD9B0D03F5186076AEBDDEE3FF0
:10B67000CD49174E5BE1D03F634968E740D7EE3FC5
:10B6800077F6B162D211D13F0990995E83D0EE3F37
:10B690007893C6EF3E42D13F84BFC3D3B2C9EE3FD9
:10B6A000775176D7A072D13FB2F61A4BCFC2EE3F98
:10B6B00043F2E8FBF7A2D13F740BDFC8D8BBEE3FE3
:10B6C0003DDB4C3F44D3D13F11885B51CFB4EE3FBB
:10B6D000BD27D7838503D23F8EA8E7E8B2ADEE3F02
:10B6E00072BBC3ABBB33D23F0058E69383A6EE3F99
:10B6F000BA545599E663D23FDA2DC656419FEE3FC4
:10B70000059FD52E0694D23F306B0136EC97EE3F65
:10B710002045954E1AC4D23FF3F71D368490EE3F74
:10B720008603ECDA22F4D23F2560AD5B0989EE3F57
:10B73000AFBA38B61F24D33F0DD14CAB7B81EE3F5F
:10B740005281E1C21054D33F5A16A529DB79EE3F4E
:10B75000AAB653E3F583D33F44976ADB2772EE3FE3
:10B76000B71404FACEB3D33FA7535DC5616AEE3F69
:10B7700071C26EE99BE3D33F12E148EC8862EE3F71
:10B78000026617945C13D43FD36704559D5AEE3F6D
:10B79000F03689DC1043D43FFC9F72049F52EE3F89
:10B7A000541057A5B872D43F5ECE81FF8D4AEE3F4C
:10B7B000F3821BD153A2D43F7EC12B4B6A42EE3F92
:10B7C0006AE77842E2D1D43F85CE75EC333AEE3F5A
:10B7D000477019DC6301D53F25CE70E8EA31EE3FB2
:10B7E000243CAF80D830D53F7A1939448F29EE3FB9
:10B7F000B467F4124060D53FE586F6042121EE3FA0
:10B80000DD1FAB759A8FD53FD966DC2FA018EE3FB0
:10B81000B6B39D8BE7BED53FAC8029CA0C10EE3F76
:10B8200093A69E3727EED53F540F28D96607EE3FE3
:10B8300003C2885C591DD63F2BBE2D62AEFEED3F84
:10B84000C6273FDD7D4CD63F9CA59B6AE3F5ED3FC7
:10B85000CA63AD9C947BD63FDA47DEF705EDED3F3A
:10B86000167EC77D9DAAD63F818D6D0F16E4ED3FF4
:10B87000B50C8A6398D9D63F3DC2CCB613DBED3FF9
:10B880009E45FA308508D73F5A918AF3FED1ED3FA5
:10B89000921026C96337D73F600241CBD7C8ED3F2E
:10B8A000F618240F3466D73F9A7595439EBFED3F37
:10B8B000AEDF13E6F594D73F9BA0386252B6ED3F5A
:10B8C000E7CC1D31A9C3D73FB98AE62CF4ACED3FD4
:10B8D000E34173D34DF2D73F888966A983A3ED3F37
:10B8E000C4AA4EB0E320D83F463D8BDD009AED3F21
:10B8F0003F90F3AA6A4FD83F468D32CF6B90ED3F11
:10B9000063A9AEA6E27DD83F50A44584C486ED3F2E
:10B9100044EDD5864BACD83FF9ECB8020B7DED3F3A
:10B92000AFA4C82EA5DAD83FFF0D8C503F73ED3F72
:10B93000D17BEF81EF08D93F8BE6C9736169ED3F99
:10B94000D793BC632A37D93F7F8A8872715FED3FF6
:10B950008F94ABB75565D93FB13EE9526F55ED3F76
:10B96000FEBD41617193D93F2475181B5B4BED3FC0
:10B97000F2F90D447DC1D93F3AC94DD13441ED3F73
:10B980008AEDA84379EFD93FDCFBCB7BFC36ED3F5A
:10B99000C00AB543651DDA3F9FEFE020B22CED3FB2
:10B9A000E4A1DE27414BDA3FE1A4E5C65522ED3F95
:10B9B0001AF3DBD30C79DA3FDC353E74E717ED3F41
:10B9C000C93F6D2BC8A6DA3FB9D2592F670DED3F9D
:10B9D00008DC5C1273D4DA3F92BDB2FED402ED3FB4
:10B9E00009407F6C0D02DB3F7B46CEE830F8EC3F30
:10B9F0007219B31D972FDB3F73C73CF47AEDEC3F10
:10BA0000C05CE109105DDB3F60A09927B3E2EC3F29
:10BA10009356FD14788ADB3FF6328B89D9D7EC3FF9
:10BA200001BD0423CFB7DB3F9FDEC220EECCEC3F4D
:10BA3000D9C0FF1715E5DB3F5CFCFCF3F0C1EC3F20
:10BA4000E71E01D84912DC3F99DA000AE2B6EC3F62
:10BA5000293126476D3FDC3F01B9A069C1ABEC3FFE
:10BA60000A0097497F6CDC3F49C4B9198FA0EC3FAD
:10BA7000885386C37F99DC3FF51134214B95EC3F09
:10BA80005DC431996EC6DC3F139C0287F589EC3F9B
:10BA900021CDE1AE4BF3DC3FF33C23528E7EEC3FF5
:10BAA0005BDBE9E81620DD3FD7AA9E891573EC3FE2
:10BAB0009C60A82BD04CDD3F9B7388348B67EC3F98
:10BAC00089E3865B7779DD3F5AF8FE59EF5BEC3FFF
:10BAD000D810FA5C0CA6DD3F07692B014250EC3F01
:10BAE00058CC81148FD2DD3F04C041318344EC3FF8
:10BAF000DE41A966FFFEDD3FB1BD80F1B238EC3F0B
:10BB00003BF606385D2BDE3FF1E33149D12CEC3FAB
:10BB100024D83C6DA857DE3FB071A93FDE20EC3F32
:10BB20001351F8EAE083DE3F585E46DCD914EC3F5F
:10BB30002056F29506B0DE3F49557226C408EC3F08
:10BB4000D578EF5219DCDE3F47B1A1259DFCEB3FD4
:10BB5000FDF7BF061908DF3FDD7753E164F0EB3FE7
:10BB600068D03F960534DF3FC15411611BE4EB3FC1
:10BB7000A3CD56E6DE5FDF3F2A956FACC0D7EB3F23
:10BB8000BA9AF8DBA48BDF3F27230DCB54CBEB3FD6
:10BB9000DED2245C57B7DF3FEA8093C4D7BEEB3FC9
:10BBA0000F12E74BF6E2DF3F0DC4B6A049B2EB3F00
:10BBB000E0822BC84007E03FD2903567AAA5EB3F53
:10BBC000B73E4C87FC1CE03F5E15D91FFA98EB3F4F
:10BBD00095BDED55AE32E03FE90475D2388CEB3FB0
:10BBE0001A22AE265648E03FEA92E786667FEB3F90
:10BBF000B6B831ECF35DE03F3E6E19458372EB3F22
:10BC0000EDFF22998773E03F47BCFD148F65EB3F42
:10BC10008CB032201189E03F051492FE8958EB3F29
:10BC2000E1C51774909EE03F2579DE09744BEB3F28
:10BC3000EC858F8705B4E03F1257F53E4D3EEB3F54
:10BC40008F895D4D70C9E03FF47BF3A51531EB3F63
:10BC5000B5C44BB8D0DEE03FB4130047CD23EB3F73
:10BC60007D8E2ABB26F4E03FF5A24C2A7416EB3FEA
:10BC700056A9D0487209E13F000215580A09EB3F66
:10BC8000224B1B54B31EE13FB6579FD88FFBEA3FB0
:10BC90004E25EECFE933E13F74143CB404EEEA3FA5
:10BCA000EB6C33AF1549E13FEFEC45F368E0EA3F59
:10BCB000BCE2DBE4365EE13F11D5219EBCD2EA3F17
:10BCC00049DBDE634D73E13FC8FA3EBDFFC4EA3F86
:10BCD000E5463A1F5988E13FD4C0165932B7EA3FCA
:10BCE000B8B9F2095A9DE13F8EB92C7A54A9EA3FBE
:10BCF000BE73131750B2E13FA3A10E29669BEA3F22
:10BD0000C868AE393BC7E13FD25A546E678DEA3FEF
:10BD10007248DC641BDCE13F9DE69F52587FEA3F9E
:10BD20001B86BC8BF0F0E13FF5609DDE3871EA3F89
:10BD3000D66075A1BA05E23FE2FA021B0963EA3F49
:10BD400058EB3399791AE23F24F59010C954EA3F31
:10BD5000E1132C662D2FE23FC89A11C87846EA3FBE
:10BD60001FAC98FBD543E23FC63B594A1838EA3F1F
:10BD70001071BB4C7358E23F822746A0A729EA3FC7
:10BD8000DF12DD4C056DE23F5EA7C0D2261BEA3F05
:10BD9000BA3C4DEF8B81E23F37F9BAEA950CEA3FA6
:10BDA000A89C62270796E23FDE4931F1F4FDE93FA6
:10BDB00058EB7AE876AAE23F94AF29EF43EFE93FE8
:10BDC000EAF3FA25DBBEE23F7224B4ED82E0E93FFC
:10BDD000B79B4ED333D3E23FD680EAF5B1D1E93FEA
:10BDE00016EAE8E380E7E23FC375F010D1C2E93F0D
:10BDF0001510444BC2FBE23F4187F347E0B3E93FF4
:10BE00003570E1FCF70FE33FB2062BA4DFA4E93F56
:10BE100020A649EC2124E33F220DD82ECF95E93FFF
:10BE2000578E0C0D4038E33F947545F1AE86E93FDF
:10BE3000E14DC152524CE33F42D7C7F47E77E93F10
:10BE4000F35906B15860E33FE17FBD423F68E93FE7
:10BE50008D7F811B5374E33FD76D8EE4EF58E93F2C
:10BE600022EBDF854188E33F6C4AACE39049E93F30
:10BE70002930D6E3239CE33FFC639249223AE93F11
:10BE8000B9502029FAAFE33F15A8C51FA42AE93FFE
:10BE900017C58149C4C3E33FA29DD46F161BE93F78
:10BEA0004383C53882D7E33FFE5E5743790BE93FB2
:10BEB0008006BEEA33EBE33F0D94EFA3CCFBE83FF3
:10BEC000D4564553D9FEE33F496C489B10ECE83FFC
:10BED0008C103D667212E43FCC98163345DCE83F87
:10BEE000B16B8E17FF25E43F554618756ACCE83FC5
:10BEF00080432A5B7F39E43F4117156B80BCE83FE4
:10BF0000D61D0925F34CE43F881DDE1E87ACE83FB3
:10BF1000A2322B695A60E43FABD44D9A7E9CE83F35
:10BF20004773981BB573E43FA11B48E7668CE83F55
:10BF3000FE9160300387E43FBF2EBA0F407CE83F9C
:10BF400038099B9B449AE43F95A19A1D0A6CE83FEF
:10BF5000F022675179ADE43FCC58E91AC55BE83F60
:10BF60000400EC45A1C0E43FF983AF11714BE83FF9
:10BF7000809F586DBCD3E43F6E97FF0B0E3BE83FAC
:10BF8000E9E5E3BBCAE6E43FFF45F5139C2AE83F39
:10BF900086A4CC25CCF9E43FCC7AB5331B1AE83F14
:10BFA0009BA0599FC00CE53FFA526E758B09E83F84
:10BFB000A69AD91CA81FE53F711757E3ECF8E73F95
:10BFC0009655A3928232E53F8636B0873FE8E73F39
:10BFD000FB9D15F54F45E53FB23DC36C83D7E73F69
:10BFE000375197381058E53F33D3E29CB8C6E73F46
:10BFF0009E649751C36AE53FB0AF6A22DFB5E73F61
:10C000009FEC8C34697DE53FD297BF07F7A4E73FEB
:10C01000DF23F7D50190E53FE4554F570094E73F04
:10C0200050725D2A8DA2E53F5BB3901BFB82E73F18
:10C0300048744F260BB5E53F6172035FE771E73F38
:10C040008C0165BE7BC7E53F6447302CC560E73F88
:10C050005C343EE7DED9E53F8DD2A88D944FE73FB3
:10C060007470839534ECE53F4299078E553EE73F67
:10C070000F6AE5BD7CFEE53F97FFEF37082DE73FF0
:10C08000DE2C1D55B710E63FBF410E96AC1BE73FB7
:10C09000FF22EC4FE422E63F7A6D17B3420AE73FF6
:10C0A000E81B1CA30335E63F755BC999CAF8E63F58
:10C0B0005B537F431547E63FAEA8EA5444E7E63FAB
:10C0C0003E78F0251959E63FCCAF4AEFAFD5E63FB1
:10C0D00086B3523F0F6BE63F7582C1730DC4E63FD6
:10C0E00010AF9184F77CE63F9CE22FED5CB2E63F17
:10C0F000719CA1EAD18EE63FCC3B7F669EA0E63FD5
:10C10000CC3B7F669EA0E63F719CA1EAD18EE63FC4
:10C110009CE22FED5CB2E63F10AF9184F77CE63FE6
:10C120007582C1730DC4E63F86B3523F0F6BE63F85
:10C13000CCAF4AEFAFD5E63F3E78F0251959E63F40
:10C14000AEA8EA5444E7E63F5B537F431547E63F1A
:10C15000755BC999CAF8E63FE81B1CA30335E63FA7
:10C160007A6D17B3420AE73FFF22EC4FE422E63F25
:10C17000BF410E96AC1BE73FDE2C1D55B710E63FC6
:10C1800097FFEF37082DE73F0F6AE5BD7CFEE53FDF
:10C190004299078E553EE73F7470839534ECE53F36
:10C1A0008DD2A88D944FE73F5C343EE7DED9E53F62
:10C1B0006447302CC560E73F8C0165BE7BC7E53F17
:10C1C0006172035FE771E73F48744F260BB5E53FA7
:10C1D0005BB3901BFB82E73F50725D2A8DA2E53F67
:10C1E000E4554F570094E73FDF23F7D50190E53F33
:10C1F000D297BF07F7A4E73F9FEC8C34697DE53FFA
:10C20000B0AF6A22DFB5E73F9E649751C36AE53F4E
:10C2100033D3E29CB8C6E73F375197381058E53F13
:10C22000B23DC36C83D7E73FFB9D15F54F45E53F16
:10C230008636B0873FE8E73F9655A3928232E53FC6
:10C24000711757E3ECF8E73FA69AD91CA81FE53F02
:10C25000FA526E758B09E83F9BA0599FC00CE53FD1
:10C26000CC7AB5331B1AE83F86A4CC25CCF9E43F41
:10C27000FF45F5139C2AE83FE9E5E3BBCAE6E43F46
:10C280006E97FF0B0E3BE83F809F586DBCD3E43F99
:10C29000F983AF11714BE83F0400EC45A1C0E43FC6
:10C2A000CC58E91AC55BE83FF022675179ADE43F0D
:10C2B00095A19A1D0A6CE83F38099B9B449AE43F7C
:10C2C000BF2EBA0F407CE83FFE9160300387E43F09
:10C2D000A11B48E7668CE83F4773981BB573E43FA2
:10C2E000ABD44D9A7E9CE83FA2322B695A60E43F62
:10C2F000881DDE1E87ACE83FD61D0925F34CE43FC0
:10C300004117156B80BCE83F80432A5B7F39E43FCF
:10C31000554618756ACCE83FB16B8E17FF25E43F90
:10C32000CC98163345DCE83F8C103D667212E43F32
:10C33000496C489B10ECE83FD4564553D9FEE33F87
:10C340000D94EFA3CCFBE83F8006BEEA33EBE33F5E
:10C35000FE5E5743790BE93F4383C53882D7E33FFD
:10C36000A29DD46F161BE93F17C58149C4C3E33FA3
:10C3700015A8C51FA42AE93FB9502029FAAFE33F09
:10C38000FC639249223AE93F2930D6E3239CE33FFC
:10C390006C4AACE39049E93F22EBDF854188E33FFB
:10C3A000D76D8EE4EF58E93F8D7F811B5374E33FD7
:10C3B000E17FBD423F68E93FF35906B15860E33F72
:10C3C00042D7C7F47E77E93FE14DC152524CE33F7B
:10C3D000947545F1AE86E93F578E0C0D4038E33F2A
:10C3E000220DD82ECF95E93F20A649EC2124E33F2A
:10C3F000B2062BA4DFA4E93F3570E1FCF70FE33F61
:10C400004187F347E0B3E93F1510444BC2FBE23FDD
:10C41000C375F010D1C2E93F16EAE8E380E7E23FD6
:10C42000D680EAF5B1D1E93FB79B4ED333D3E23F93
:10C430007224B4ED82E0E93FEAF3FA25DBBEE23F85
:10C4400094AF29EF43EFE93F58EB7AE876AAE23F51
:10C45000DE4931F1F4FDE93FA89C62270796E23FEF
:10C4600037F9BAEA950CEA3FBA3C4DEF8B81E23FCF
:10C470005EA7C0D2261BEA3FDF12DD4C056DE23F0E
:10C48000822746A0A729EA3F1071BB4C7358E23FB0
:10C49000C63B594A1838EA3F1FAC98FBD543E23FE8
:10C4A000C89A11C87846EA3FE1132C662D2FE23F67
:10C4B00024F59010C954EA3F58EB3399791AE23FBA
:10C4C000E2FA021B0963EA3FD66075A1BA05E23FB2
:10C4D000F5609DDE3871EA3F1B86BC8BF0F0E13FD2
:10C4E0009DE69F52587FEA3F7248DC641BDCE13FC7
:10C4F000D25A546E678DEA3FC868AE393BC7E13FF8
:10C50000A3A10E29669BEA3FBE73131750B2E13F09
:10C510008EB92C7A54A9EA3FB8B9F2095A9DE13F85
:10C52000D4C0165932B7EA3FE5463A1F5988E13F71
:10C53000C8FA3EBDFFC4EA3F49DBDE634D73E13F0D
:10C5400011D5219EBCD2EA3FBCE2DBE4365EE13F7E
:10C55000EFEC45F368E0EA3FEB6C33AF1549E13FA0
:10C5600074143CB404EEEA3F4E25EECFE933E13FCC
:10C57000B6579FD88FFBEA3F224B1B54B31EE13FB7
:10C58000000215580A09EB3F56A9D0487209E13F4D
:10C59000F5A24C2A7416EB3F7D8E2ABB26F4E03FB1
:10C5A000B4130047CD23EB3FB5C44BB8D0DEE03F1A
:10C5B000F47BF3A51531EB3F8F895D4D70C9E03FEA
:10C5C0001257F53E4D3EEB3FEC858F8705B4E03FBB
:10C5D0002579DE09744BEB3FE1C51774909EE03F6F
:10C5E000051492FE8958EB3F8CB032201189E03F50
:10C5F00047BCFD148F65EB3FEDFF22998773E03F49
:10C600003E6E19458372EB3FB6B831ECF35DE03F07
:10C61000EA92E786667FEB3F1A22AE265648E03F55
:10C62000E90475D2388CEB3F95BDED55AE32E03F55
:10C630005E15D91FFA98EB3FB73E4C87FC1CE03FD4
:10C64000D2903567AAA5EB3FE0822BC84007E03FB8
:10C650000DC4B6A049B2EB3F0F12E74BF6E2DF3F45
:10C66000EA8093C4D7BEEB3FDED2245C57B7DF3FEE
:10C6700027230DCB54CBEB3FBA9AF8DBA48BDF3FDB
:10C680002A956FACC0D7EB3FA3CD56E6DE5FDF3F08
:10C69000C15411611BE4EB3F68D03F960534DF3F86
:10C6A000DD7753E164F0EB3FFDF7BF061908DF3F8C
:10C6B00047B1A1259DFCEB3FD578EF5219DCDE3F59
:10C6C00049557226C408EC3F2056F29506B0DE3F6D
:10C6D000585E46DCD914EC3F1351F8EAE083DE3FA4
:10C6E000B071A93FDE20EC3F24D83C6DA857DE3F57
:10C6F000F1E33149D12CEC3F3BF606385D2BDE3FB0
:10C70000B1BD80F1B238EC3FDE41A966FFFEDD3FEE
:10C7100004C041318344EC3F58CC81148FD2DD3FBB
:10C7200007692B014250EC3FD810FA5C0CA6DD3FA4
:10C730005AF8FE59EF5BEC3F89E3865B7779DD3F82
:10C740009B7388348B67EC3F9C60A82BD04CDD3FFB
:10C75000D7AA9E891573EC3F5BDBE9E81620DD3F25
:10C76000F33C23528E7EEC3F21CDE1AE4BF3DC3F18
:10C77000139C0287F589EC3F5DC431996EC6DC3F9E
:10C78000F51134214B95EC3F885386C37F99DC3FEC
:10C7900049C4B9198FA0EC3F0A0097497F6CDC3F70
:10C7A00001B9A069C1ABEC3F293126476D3FDC3FA1
:10C7B00099DA000AE2B6EC3FE71E01D84912DC3FE5
:10C7C0005CFCFCF3F0C1EC3FD9C0FF1715E5DB3F83
:10C7D0009FDEC220EECCEC3F01BD0423CFB7DB3F90
:10C7E000F6328B89D9D7EC3F9356FD14788ADB3F1C
:10C7F00060A09927B3E2EC3FC05CE109105DDB3F2C
:10C8000073C73CF47AEDEC3F7219B31D972FDB3FF1
:10C810007B46CEE830F8EC3F09407F6C0D02DB3FF1
:10C8200092BDB2FED402ED3F08DC5C1273D4DA3F55
:10C83000B9D2592F670DED3FC93F6D2BC8A6DA3F1E
:10C84000DC353E74E717ED3F1AF3DBD30C79DA3FA2
:10C85000E1A4E5C65522ED3FE4A1DE27414BDA3FD6
:10C860009FEFE020B22CED3FC00AB543651DDA3FD3
:10C87000DCFBCB7BFC36ED3F8AEDA84379EFD93F5B
:10C880003AC94DD13441ED3FF2F90D447DC1D93F54
:10C890002475181B5B4BED3FFEBD41617193D93F81
:10C8A000B13EE9526F55ED3F8F94ABB75565D93F17
:10C8B0007F8A8872715FED3FD793BC632A37D93F77
:10C8C0008BE6C9736169ED3FD17BEF81EF08D93FFA
:10C8D000FF0D8C503F73ED3FAFA4C82EA5DAD83FB3
:10C8E000F9ECB8020B7DED3F44EDD5864BACD83F5B
:10C8F00050A44584C486ED3F63A9AEA6E27DD83F2F
:10C90000468D32CF6B90ED3F3F90F3AA6A4FD83FF0
:10C91000463D8BDD009AED3FC4AA4EB0E320D83FE0
:10C92000888966A983A3ED3FE34173D34DF2D73FD6
:10C93000B98AE62CF4ACED3FE7CC1D31A9C3D73F53
:10C940009BA0386252B6ED3FAEDF13E6F594D73FB9
:10C950009A7595439EBFED3FF618240F3466D73F76
:10C96000600241CBD7C8ED3F921026C96337D73F4D
:10C970005A918AF3FED1ED3F9E45FA308508D73FA4
:10C980003DC2CCB613DBED3FB50C8A6398D9D63FD8
:10C99000818D6D0F16E4ED3F167EC77D9DAAD63FB3
:10C9A000DA47DEF705EDED3FCA63AD9C947BD63FD9
:10C9B0009CA59B6AE3F5ED3FC6273FDD7D4CD63F46
:10C9C0002BBE2D62AEFEED3F03C2885C591DD63FE3
:10C9D000540F28D96607EE3F93A69E3727EED53F22
:10C9E000AC8029CA0C10EE3FB6B39D8BE7BED53F95
:10C9F000D966DC2FA018EE3FDD1FAB759A8FD53FAF
:10CA0000E586F6042121EE3FB467F4124060D53F7D
:10CA10007A1939448F29EE3F243CAF80D830D53F76
:10CA200025CE70E8EA31EE3F477019DC6301D53F4F
:10CA300085CE75EC333AEE3F6AE77842E2D1D43FD7
:10CA40007EC12B4B6A42EE3FF3821BD153A2D43FEF
:10CA50005ECE81FF8D4AEE3F541057A5B872D43F89
:10CA6000FC9F72049F52EE3FF03689DC1043D43FA6
:10CA7000D36704559D5AEE3F026617945C13D43F6A
:10CA800012E148EC8862EE3F71C26EE99BE3D33F4E
:10CA9000A7535DC5616AEE3FB71404FACEB3D33F26
:10CAA00044976ADB2772EE3FAAB653E3F583D33F80
:10CAB0005A16A529DB79EE3F5281E1C21054D33FCB
:10CAC0000DD14CAB7B81EE3FAFBA38B61F24D33FBC
:10CAD0002560AD5B0989EE3F8603ECDA22F4D23F94
:10CAE000F3F71D368490EE3F2045954E1AC4D23F91
:10CAF000306B0136EC97EE3F059FD52E0694D23F62
:10CB0000DA2DC656419FEE3FBA545599E663D23F9F
:10CB10000058E69383A6EE3F72BBC3ABBB33D23F54
:10CB20008EA8E7E8B2ADEE3FBD27D7838503D23F9D
:10CB300011885B51CFB4EE3F3DDB4C3F44D3D13F36
:10CB4000740BDFC8D8BBEE3F43F2E8FBF7A2D13F3E
:10CB5000B2F61A4BCFC2EE3F775176D7A072D13FD3
:10CB600084BFC3D3B2C9EE3F7893C6EF3E42D13FF4
:10CB70000990995E83D0EE3F77F6B162D211D13F32
:10CB8000634968E740D7EE3FCD49174E5BE1D03FA0
:10CB90005186076AEBDDEE3F90DBDBCFD9B0D03FAB
:10CBA000BC9D5AE282E4EE3F1E66EB054E80D03F0C
:10CBB00044A5504C07EBEE3FAEFD370EB84FD03FCB
:10CBC000C273E4A378F1EE3FD2FDB906181FD03F3F
:10CBD000C0A31CE5D6F7EE3FF8EDDF1ADCDCCF3F53
:10CBE000EC950B0C22FEEE3F0138BD80747BCF3FED
:10CBF0008C73CF145A04EF3F1A5F217BF919CF3F92
:10CC0000D73092FB7E0AEF3F48E32D466BB8CE3F0C
:10CC10005F8F89BC9010EF3F1B1A101ECA56CE3F83
:10CC20005D20F7538F16EF3F9A09013F16F5CD3F70
:10CC3000084728BE7A1CEF3F114345E54F93CD3F8F
:10CC4000DA3A76F75222EF3FEEBD2C4D7731CD3FE9
:10CC5000CE0946FC1728EF3F86B212B38CCFCC3FEB
:10CC60009D9A08C9C92DEF3FDC745D53906DCC3F90
:10CC7000F0AE3A5A6833EF3F634F7E6A820BCC3F87
:10CC800089E564ACF338EF3FAD5DF13463A9CB3F88
:10CC900065BC1BBC6B3EEF3F22673DEF3247CB3F8D
:10CCA000DD92FF85D043EF3FABB9F3D5F1E4CA3F46
:10CCB000B4ABBC062249EF3F5104B025A082CA3F65
:10CCC0002D2F0B3B604EEF3FDA31181B3E20CA3F41
:10CCD000072DAF1F8B53EF3F6643DCF2CBBDC93F3F
:10CCE000849E78B1A258EF3FF92AB6E9495BC93F63
:10CCF0005D6843EDA65DEF3F0AA6693CB8F8C83F02
:10CD0000B05CF7CF9762EF3F0418C4271796C83F6F
:10CD1000EE3C88567567EF3FC5649CE86633C83FB4
:10CD2000B7BBF57D3F6CEF3F1BCBD2BBA7D0C73F56
:10CD3000B77E4B43F670EF3F31BF50DED96DC73F32
:10CD40007720A1A39975EF3FFFC4088DFD0AC73F67
:10CD50002A321A9C297AEF3FB24AF60413A8C63F3A
:10CD60006E3DE629A67EEF3F0D831D831A45C63F23
:10CD70000CC6404A0F83EF3FC63F8B4414E2C53FC9
:10CD8000A94B71FA6487EF3FDECB5486007FC53F25
:10CD9000784BCB37A78BEF3FF2C59785DF1BC53F9D
:10CDA000DB41AEFFD58FEF3F88FA797FB1B8C43F42
:10CDB00008AC854FF193EF3F5A3E29B17655C43FF9
:10CDC0009B09C924F997EF3F9348DB572FF2C33FE4
:10CDD00029DEFB7CED9BEF3F148DCDB0DB8EC33F96
:10CDE000C8B2AD55CE9FEF3FA71645F97B2BC33F89
:10CDF00091177AAC9BA3EF3F3A618E6E10C8C23F89
:10CE000017A5087F55A7EF3F0A34FD4D9964C23F2F
:10CE1000DCFD0CCBFBAAEF3FCE7BECD41601C23F6E
:10CE2000BBCF468E8EAEEF3FE724BE40899DC13F0B
:10CE30004DD581C60DB2EF3F76F5DACEF039C13F60
:10CE400041D7957179B5EF3F8667B2BC4DD6C03FEB
:10CE5000B7AD668DD1B8EF3F1D83BA47A072C03F12
:10CE60008641E41716BCEF3F5BB86FADE80EC03FDC
:10CE7000888D0A0F47BFEF3F0E73A9564E56BF3F2E
:10CE8000D39FE17064C2EF3F3EAAE4FDB78EBE3F80
:10CE9000F69A7D3B6EC5EF3FC89FAECB0EC7BD3F38
:10CEA00021B7FE6C64C8EF3FC17D303B53FFBC3FF0
:10CEB0005443910347CBEF3FD5C29EC78537BC3F54
:10CEC0007BA66DFD15CEEF3F4CF638ECA66FBB3F51
:10CED0008760D858D1D0EF3F045C4924B7A7BA3F48
:10CEE000840B221479D3EF3F5CA824EBB6DFB93F63
:10CEF0009E5CA72D0DD6EF3F2CB429BCA617B93FD9
:10CF00002625D1A38DD8EF3FA030C112874FB83F5F
:10CF10008C531475FADAEF3F215B5D6A5887B73F8F
:10CF200056F4F19F53DDEF3F29B1793E1BBFB63F69
:10CF30000733F72299DFEF3F19A49A0AD0F6B53FDD
:10CF4000095BBDFCCAE1EF3F0A4D4D4A772EB53F64
:10CF500086D8E92BE9E3EF3F962027791166B43FA5
:10CF600040392EAFF3E5EF3F99A2C5129F9DB33F25
:10CF7000602D4885EAE7EF3FF619CE9220D5B23F03
:10CF80003A8801ADCDE9EF3F4C44ED74960CB23FC9
:10CF90000F4130259DEBEF3FB209D7340144B13F3B
:10CFA000C473B6EC58EDEF3F6430464E617BB03F42
:10CFB0009161820201EFEF3FE020F8796E65AF3FAB
:10CFC000AD718E6595F0EF3FC88E80F906D4AD3F08
:10CFD000ED31E11416F2EF3FE3D7C0128D42AC3FC2
:10CFE0005C578D0F83F3EF3F17835FBD01B1AA3FFD
:10CFF000D3BEB154DCF4EF3F14D80DF1651FA93F47
:10D000007E6D79E321F6EF3F854687A5BA8DA73F70
:10D0100064911BBB53F7EF3F43CD90D200FCA53F7B
:10D02000DF81DBDA71F8EF3F7961F86F396AA43F8D
:10D0300014C008427CF9EF3FCD55947565D8A23FE6
:10D040005DF7FEEF72FAEF3F7EC142DB8546A13FFE
:10D05000AEFD25E455FBEF3F01CFD13137699F3F4E
:10D06000F8D3F11D25FCEF3F1C3BE54C4F459C3FA1
:10D0700079A6E29CE0FCEF3F7E66A3F75521993F3D
:10D080000DCD846088FDEF3F26B2FA214DFD953F1E
:10D0900077CB70681CFEEF3FFD0EE3BB36D9923FA5
:10D0A000A1514BB49CFEEF3FCA97B96A296A8F3FE2
:10D0B000D13BC54309FFEF3F84C7DEFCD121893F47
:10D0C000DB929B1662FFEF3F0397500E6BD9823FB6
:10D0D0004F8C972CA7FFEF3F710067FEF021793F3F
:10D0E000928A8E85D8FFEF3FBAA4CCBEF821693F63
:10D0F000021D6221F6FFEF3F00000000000000006B
:10D10000000000000000F03FBAA4CCBEF82169BFC7
:10D11000021D6221F6FFEF3F710067FEF02179BF2B
:10D12000928A8E85D8FFEF3F0397500E6BD982BF4E
:10D130004F8C972CA7FFEF3F84C7DEFCD12189BF1E
:10D14000DB929B1662FFEF3FCA97B96A296A8FBFCD
:10D15000D13BC54309FFEF3FFD0EE3BB36D992BF7C
:10D16000A1514BB49CFEEF3F26B2FA214DFD95BF75
:10D1700077CB70681CFEEF3F7E66A3F7552199BF01
:10D180000DCD846088FDEF3F1C3BE54C4F459CBFB7
:10D1900079A6E29CE0FCEF3F01CFD13137699FBF18
:10D1A000F8D3F11D25FCEF3F7EC142DB8546A1BFD0
:10D1B000AEFD25E455FBEF3FCD55947565D8A2BF74
:10D1C0005DF7FEEF72FAEF3F7961F86F396AA4BF3D
:10D1D00014C008427CF9EF3F43CD90D200FCA5BFBC
:10D1E000DF81DBDA71F8EF3F854687A5BA8DA7BFEF
:10D1F00064911BBB53F7EF3F14D80DF1651FA9BF16
:10D200007E6D79E321F6EF3F17835FBD01B1AABFC1
:10D21000D3BEB154DCF4EF3FE3D7C0128D42ACBFB4
:10D220005C578D0F83F3EF3FC88E80F906D4ADBFF6
:10D23000ED31E11416F2EF3FE020F8796E65AFBFF3
:10D24000AD718E6595F0EF3F6430464E617BB0BFA7
:10D250009161820201EFEF3FB209D7340144B1BFBF
:10D26000C473B6EC58EDEF3F4C44ED74960CB2BF6E
:10D270000F4130259DEBEF3FF619CE9220D5B2BF7E
:10D280003A8801ADCDE9EF3F99A2C5129F9DB3BF8A
:10D29000602D4885EAE7EF3F962027791166B4BFF5
:10D2A00040392EAFF3E5EF3F0A4D4D4A772EB5BF1B
:10D2B00086D8E92BE9E3EF3F19A49A0AD0F6B5BF67
:10D2C000095BBDFCCAE1EF3F29B1793E1BBFB6BF88
:10D2D0000733F72299DFEF3F215B5D6A5887B7BFBD
:10D2E00056F4F19F53DDEF3FA030C112874FB8BF16
:10D2F0008C531475FADAEF3F2CB429BCA617B9BFCA
:10D300002625D1A38DD8EF3F5CA824EBB6DFB9BFAB
:10D310009E5CA72D0DD6EF3F045C4924B7A7BABF8A
:10D32000840B221479D3EF3F4CF638ECA66FBBBFC9
:10D330008760D858D1D0EF3FD5C29EC78537BCBFD4
:10D340007BA66DFD15CEEF3FC17D303B53FFBCBFCB
:10D350005443910347CBEF3FC89FAECB0EC7BDBF31
:10D3600021B7FE6C64C8EF3F3EAAE4FDB78EBEBF96
:10D37000F69A7D3B6EC5EF3F0E73A9564E56BFBF62
:10D38000D39FE17064C2EF3F5BB86FADE80EC0BFE2
:10D39000888D0A0F47BFEF3F1D83BA47A072C0BFF9
:10D3A0008641E41716BCEF3F8667B2BC4DD6C0BFBE
:10D3B000B7AD668DD1B8EF3F76F5DACEF039C1BFA3
:10D3C00041D7957179B5EF3FE724BE40899DC1BF34
:10D3D0004DD581C60DB2EF3FCE7BECD41601C2BF56
:10D3E000BBCF468E8EAEEF3F0A34FD4D9964C2BF6F
:10D3F000DCFD0CCBFBAAEF3F3A618E6E10C8C2BFBA
:10D4000017A5087F55A7EF3FA71645F97B2BC3BF8C
:10D4100091177AAC9BA3EF3F148DCDB0DB8EC3BFC9
:10D42000C8B2AD55CE9FEF3F9348DB572FF2C3BF35
:10D4300029DEFB7CED9BEF3F5A3E29B17655C4BFF8
:10D440009B09C924F997EF3F88FA797FB1B8C4BF27
:10D4500008AC854FF193EF3FF2C59785DF1BC5BF41
:10D46000DB41AEFFD58FEF3FDECB5486007FC5BFDB
:10D47000784BCB37A78BEF3FC63F8B4414E2C5BF39
:10D48000A94B71FA6487EF3F0D831D831A45C6BF10
:10D490000CC6404A0F83EF3FB24AF60413A8C6BF3A
:10D4A0006E3DE629A67EEF3FFFC4088DFD0AC7BF8B
:10D4B0002A321A9C297AEF3F31BF50DED96DC7BF9F
:10D4C0007720A1A39975EF3F1BCBD2BBA7D0C7BFD5
:10D4D000B77E4B43F670EF3FC5649CE86633C8BF28
:10D4E000B7BBF57D3F6CEF3F0418C4271796C8BF44
:10D4F000EE3C88567567EF3F0AA6693CB8F8C8BF8E
:10D50000B05CF7CF9762EF3FF92AB6E9495BC9BF34
:10D510005D6843EDA65DEF3F6643DCF2CBBDC9BF5E
:10D52000849E78B1A258EF3FDA31181B3E20CABF63
:10D53000072DAF1F8B53EF3F5104B025A082CABF08
:10D540002D2F0B3B604EEF3FABB9F3D5F1E4CABFD3
:10D55000B4ABBC062249EF3F22673DEF3247CBBF59
:10D56000DD92FF85D043EF3FAD5DF13463A9CBBFC2
:10D5700065BC1BBC6B3EEF3F634F7E6A820BCCBF2A
:10D5800089E564ACF338EF3FDC745D53906DCCBF3C
:10D59000F0AE3A5A6833EF3F86B212B38CCFCCBFAD
:10D5A0009D9A08C9C92DEF3FEEBD2C4D7731CDBFF7
:10D5B000CE0946FC1728EF3F114345E54F93CDBFF9
:10D5C000DA3A76F75222EF3F9A09013F16F5CDBFBE
:10D5D000084728BE7A1CEF3F1B1A101ECA56CEBF42
:10D5E0005D20F7538F16EF3F48E32D466BB8CEBF53
:10D5F0005F8F89BC9010EF3F1A5F217BF919CFBF75
:10D60000D73092FB7E0AEF3F0138BD80747BCFBFDD
:10D610008C73CF145A04EF3FF8EDDF1ADCDCCFBF78
:10D62000EC950B0C22FEEE3FD2FDB906181FD0BFC1
:10D63000C0A31CE5D6F7EE3FAEFD370EB84FD0BF06
:10D64000C273E4A378F1EE3F1E66EB054E80D0BFB7
:10D6500044A5504C07EBEE3F90DBDBCFD9B0D0BFF9
:10D66000BC9D5AE282E4EE3FCD49174E5BE1D0BF4C
:10D670005186076AEBDDEE3F77F6B162D211D1BF7A
:10D68000634968E740D7EE3F7893C6EF3E42D1BF8B
:10D690000990995E83D0EE3F775176D7A072D1BFC3
:10D6A00084BFC3D3B2C9EE3F43F2E8FBF7A2D1BFB8
:10D6B000B2F61A4BCFC2EE3F3DDB4C3F44D3D1BF55
:10D6C000740BDFC8D8BBEE3FBD27D7838503D2BF1D
:10D6D00011885B51CFB4EE3F72BBC3ABBB33D2BF3B
:10D6E0008EA8E7E8B2ADEE3FBA545599E663D2BFD3
:10D6F0000058E69383A6EE3F059FD52E0694D2BF31
:10D70000DA2DC656419FEE3F2045954E1AC4D2BF32
:10D71000306B0136EC97EE3F8603ECDA22F4D2BF91
:10D72000F3F71D368490EE3FAFBA38B61F24D3BF4F
:10D730002560AD5B0989EE3F5281E1C21054D3BF31
:10D740000DD14CAB7B81EE3FAAB653E3F583D3BF3B
:10D750005A16A529DB79EE3FB71404FACEB3D3BF2E
:10D7600044976ADB2772EE3F71C26EE99BE3D3BF39
:10D77000A7535DC5616AEE3F026617945C13D4BF80
:10D7800012E148EC8862EE3FF03689DC1043D4BFEA
:10D79000D36704559D5AEE3F541057A5B872D4BFB5
:10D7A000FC9F72049F52EE3FF3821BD153A2D4BF61
:10D7B0005ECE81FF8D4AEE3F6AE77842E2D1D4BF68
:10D7C0007EC12B4B6A42EE3F477019DC6301D5BF27
:10D7D00085CE75EC333AEE3F243CAF80D830D5BFD0
:10D7E00025CE70E8EA31EE3FB467F4124060D5BF51
:10D7F0007A1939448F29EE3FDD1FAB759A8FD5BF5B
:10D80000E586F6042121EE3FB6B39D8BE7BED5BF7A
:10D81000D966DC2FA018EE3F93A69E3727EED5BF22
:10D82000AC8029CA0C10EE3F03C2885C591DD6BFDC
:10D83000540F28D96607EE3FC6273FDD7D4CD6BF83
:10D840002BBE2D62AEFEED3FCA63AD9C947BD6BF6E
:10D850009CA59B6AE3F5ED3F167EC77D9DAAD6BFCA
:10D86000DA47DEF705EDED3FB50C8A6398D9D6BFF0
:10D87000818D6D0F16E4ED3F9E45FA308508D7BFC8
:10D880003DC2CCB613DBED3F921026C96337D7BF3C
:10D890005A918AF3FED1ED3FF618240F3466D7BFB4
:10D8A000600241CBD7C8ED3FAEDF13E6F594D7BF9A
:10D8B0009A7595439EBFED3FE7CC1D31A9C3D7BFF5
:10D8C0009BA0386252B6ED3FE34173D34DF2D7BF10
:10D8D000B98AE62CF4ACED3FC4AA4EB0E320D8BF21
:10D8E000888966A983A3ED3F3F90F3AA6A4FD8BF0A
:10D8F000463D8BDD009AED3F63A9AEA6E27DD8BF21
:10D90000468D32CF6B90ED3F44EDD5864BACD8BF02
:10D9100050A44584C486ED3FAFA4C82EA5DAD8BF75
:10D92000F9ECB8020B7DED3FD17BEF81EF08D9BF59
:10D93000FF0D8C503F73ED3FD793BC632A37D9BF9F
:10D940008BE6C9736169ED3F8F94ABB75565D9BF5D
:10D950007F8A8872715FED3FFEBD41617193D9BFCF
:10D96000B13EE9526F55ED3FF2F90D447DC1D9BF8B
:10D970002475181B5B4BED3F8AEDA84379EFD9BFA7
:10D980003AC94DD13441ED3FC00AB543651DDABFF8
:10D99000DCFBCB7BFC36ED3FE4A1DE27414BDABF5D
:10D9A0009FEFE020B22CED3F1AF3DBD30C79DABF06
:10D9B000E1A4E5C65522ED3FC93F6D2BC8A6DABFED
:10D9C000DC353E74E717ED3F08DC5C1273D4DABF38
:10D9D000B9D2592F670DED3F09407F6C0D02DBBFB7
:10D9E00092BDB2FED402ED3F7219B31D972FDBBF7B
:10D9F0007B46CEE830F8EC3FC05CE109105DDBBF50
:10DA000073C73CF47AEDEC3F9356FD14788ADBBF84
:10DA100060A09927B3E2EC3F01BD0423CFB7DBBF81
:10DA2000F6328B89D9D7EC3FD9C0FF1715E5DBBF9C
:10DA30009FDEC220EECCEC3FE71E01D84912DCBFCE
:10DA40005CFCFCF3F0C1EC3F293126476D3FDCBFA5
:10DA500099DA000AE2B6EC3F0A0097497F6CDCBF16
:10DA600001B9A069C1ABEC3F885386C37F99DCBF85
:10DA700049C4B9198FA0EC3F5DC431996EC6DCBFB3
:10DA8000F51134214B95EC3F21CDE1AE4BF3DCBFDA
:10DA9000139C0287F589EC3F5BDBE9E81620DDBFCC
:10DAA000F33C23528E7EEC3F9C60A82BD04CDDBF14
:10DAB000D7AA9E891573EC3F89E3865B7779DDBF32
:10DAC0009B7388348B67EC3FD810FA5C0CA6DDBFE3
:10DAD0005AF8FE59EF5BEC3F58CC81148FD2DDBF72
:10DAE00007692B014250EC3FDE41A966FFFEDDBF16
:10DAF00004C041318344EC3F3BF606385D2BDEBF6A
:10DB0000B1BD80F1B238EC3F24D83C6DA857DEBFE0
:10DB1000F1E33149D12CEC3F1351F8EAE083DEBF49
:10DB2000B071A93FDE20EC3F2056F29506B0DEBF73
:10DB3000585E46DCD914EC3FD578EF5219DCDEBFD5
:10DB400049557226C408EC3FFDF7BF061908DFBF30
:10DB500047B1A1259DFCEB3F68D03F960534DFBF60
:10DB6000DD7753E164F0EB3FA3CD56E6DE5FDFBF28
:10DB7000C15411611BE4EB3FBA9AF8DBA48BDFBF01
:10DB80002A956FACC0D7EB3FDED2245C57B7DFBF1E
:10DB900027230DCB54CBEB3F0F12E74BF6E2DFBF51
:10DBA000EA8093C4D7BEEB3FE0822BC84007E0BFBA
:10DBB0000DC4B6A049B2EB3FB73E4C87FC1CE0BF9A
:10DBC000D2903567AAA5EB3F95BDED55AE32E0BFCB
:10DBD0005E15D91FFA98EB3F1A22AE265648E0BFD1
:10DBE000E90475D2388CEB3FB6B831ECF35DE0BF99
:10DBF000EA92E786667FEB3FEDFF22998773E0BFED
:10DC00003E6E19458372EB3F8CB032201189E0BF24
:10DC100047BCFD148F65EB3FE1C51774909EE0BFD4
:10DC2000051492FE8958EB3FEC858F8705B4E0BF61
:10DC30002579DE09744BEB3F8F895D4D70C9E0BFDC
:10DC40001257F53E4D3EEB3FB5C44BB8D0DEE0BFBA
:10DC5000F47BF3A51531EB3F7D8E2ABB26F4E0BFA4
:10DC6000B4130047CD23EB3F56A9D0487209E1BF5A
:10DC7000F5A24C2A7416EB3F224B1B54B31EE1BF96
:10DC8000000215580A09EB3F4E25EECFE933E1BFFC
:10DC9000B6579FD88FFBEA3FEB6C33AF1549E1BF16
:10DCA00074143CB404EEEA3FBCE2DBE4365EE1BF50
:10DCB000EFEC45F368E0EA3F49DBDE634D73E1BF1B
:10DCC00011D5219EBCD2EA3FE5463A1F5988E1BFF3
:10DCD000C8FA3EBDFFC4EA3FB8B9F2095A9DE1BF98
:10DCE000D4C0165932B7EA3FBE73131750B2E1BF22
:10DCF0008EB92C7A54A9EA3FC868AE393BC7E1BF58
:10DD0000A3A10E29669BEA3F7248DC641BDCE1BFDD
:10DD1000D25A546E678DEA3F1B86BC8BF0F0E1BF90
:10DD20009DE69F52587FEA3FD66075A1BA05E2BFD3
:10DD3000F5609DDE3871EA3F58EB3399791AE2BFFE
:10DD4000E2FA021B0963EA3FE1132C662D2FE2BFC2
:10DD500024F59010C954EA3F1FAC98FBD543E2BFAD
:10DD6000C89A11C87846EA3F1071BB4C7358E2BF9D
:10DD7000C63B594A1838EA3FDF12DD4C056DE2BF59
:10DD8000822746A0A729EA3FBA3C4DEF8B81E2BF2C
:10DD90005EA7C0D2261BEA3FA89C62270796E2BF77
:10DDA00037F9BAEA950CEA3F58EB7AE876AAE2BF6F
:10DDB000DE4931F1F4FDE93FEAF3FA25DBBEE2BFCB
:10DDC00094AF29EF43EFE93FB79B4ED333D3E2BF84
:10DDD0007224B4ED82E0E93F16EAE8E380E7E2BFAF
:10DDE000D680EAF5B1D1E93F1510444BC2FBE2BF42
:10DDF000C375F010D1C2E93F3570E1FCF70FE3BF06
:10DE00004187F347E0B3E93F20A649EC2124E3BF73
:10DE1000B2062BA4DFA4E93F578E0C0D4038E3BFB8
:10DE2000220DD82ECF95E93FE14DC152524CE3BFB0
:10DE3000947545F1AE86E93FF35906B15860E3BFEA
:10DE400042D7C7F47E77E93F8D7F811B5374E3BFD0
:10DE5000E17FBD423F68E93F22EBDF854188E3BFB8
:10DE6000D76D8EE4EF58E93F2930D6E3239CE3BF1A
:10DE70006C4AACE39049E93FB9502029FAAFE3BFBF
:10DE8000FC639249223AE93F17C58149C4C3E3BF05
:10DE900015A8C51FA42AE93F4383C53882D7E3BF2D
:10DEA000A29DD46F161BE93F8006BEEA33EBE3BFA9
:10DEB000FE5E5743790BE93FD4564553D9FEE3BF85
:10DEC0000D94EFA3CCFBE83F8C103D667212E4BFCB
:10DED000496C489B10ECE83FB16B8E17FF25E4BFFF
:10DEE000CC98163345DCE83F80432A5B7F39E4BF9A
:10DEF000554618756ACCE83FD61D0925F34CE4BF9A
:10DF00004117156B80BCE83FA2322B695A60E4BF11
:10DF1000881DDE1E87ACE83F4773981BB573E4BFCE
:10DF2000ABD44D9A7E9CE83FFE9160300387E4BFFE
:10DF3000A11B48E7668CE83F38099B9B449AE4BFE5
:10DF4000BF2EBA0F407CE83FF022675179ADE4BFA5
:10DF500095A19A1D0A6CE83F0400EC45A1C0E4BFFE
:10DF6000CC58E91AC55BE83F809F586DBCD3E4BF2D
:10DF7000F983AF11714BE83FE9E5E3BBCAE6E4BFC3
:10DF80006E97FF0B0E3BE83F86A4CC25CCF9E4BF8F
:10DF9000FF45F5139C2AE83F9BA0599FC00CE5BFA5
:10DFA000CC7AB5331B1AE83FA69AD91CA81FE5BF47
:10DFB000FA526E758B09E83F9655A3928232E5BFFF
:10DFC000711757E3ECF8E73FFB9D15F54F45E5BFAB
:10DFD0008636B0873FE8E73F375197381058E5BF9E
:10DFE000B23DC36C83D7E73F9E649751C36AE5BFD8
:10DFF00033D3E29CB8C6E73F9FEC8C34697DE5BF24
:10E00000B0AF6A22DFB5E73FDF23F7D50190E5BF68
:10E01000D297BF07F7A4E73F50725D2A8DA2E5BFF4
:10E02000E4554F570094E73F48744F260BB5E5BFC2
:10E030005BB3901BFB82E73F8C0165BE7BC7E5BFEE
:10E040006172035FE771E73F5C343EE7DED9E5BF0D
:10E050006447302CC560E73F7470839534ECE5BFAE
:10E060008DD2A88D944FE73F0F6AE5BD7CFEE5BFDA
:10E070004299078E553EE73FDE2C1D55B710E6BF8F
:10E0800097FFEF37082DE73FFF22EC4FE422E6BF72
:10E09000BF410E96AC1BE73FE81B1CA30335E6BF50
:10E0A0007A6D17B3420AE73F5B537F431547E6BFDC
:10E0B000755BC999CAF8E63F3E78F0251959E6BF65
:10E0C000AEA8EA5444E7E63F86B3523F0F6BE6BF83
:10E0D000CCAF4AEFAFD5E63F10AF9184F77CE6BFF7
:10E0E0007582C1730DC4E63F719CA1EAD18EE6BF73
:10E0F0009CE22FED5CB2E63FCC3B7F669EA0E6BF84
:10E10000CC3B7F669EA0E63F9CE22FED5CB2E6BF73
:10E11000719CA1EAD18EE63F7582C1730DC4E6BF42
:10E1200010AF9184F77CE63FCCAF4AEFAFD5E6BFA6
:10E1300086B3523F0F6BE63FAEA8EA5444E7E6BF12
:10E140003E78F0251959E63F755BC999CAF8E6BFD4
:10E150005B537F431547E63F7A6D17B3420AE7BF2B
:10E16000E81B1CA30335E63FBF410E96AC1BE7BF7F
:10E17000FF22EC4FE422E63F97FFEF37082DE7BF81
:10E18000DE2C1D55B710E63F4299078E553EE7BF7E
:10E190000F6AE5BD7CFEE53F8DD2A88D944FE7BFA9
:10E1A0007470839534ECE53F6447302CC560E7BF5D
:10E1B0005C343EE7DED9E53F6172035FE771E7BF9C
:10E1C0008C0165BE7BC7E53F5BB3901BFB82E7BF5D
:10E1D00048744F260BB5E53FE4554F570094E7BF11
:10E1E00050725D2A8DA2E53FD297BF07F7A4E7BF23
:10E1F000DF23F7D50190E53FB0AF6A22DFB5E7BF77
:10E200009FEC8C34697DE53F33D3E29CB8C6E7BF11
:10E210009E649751C36AE53FB23DC36C83D7E7BFA5
:10E22000375197381058E53F8636B0873FE8E7BF4B
:10E23000FB9D15F54F45E53F711757E3ECF8E7BF38
:10E240009655A3928232E53FFA526E758B09E8BF6C
:10E25000A69AD91CA81FE53FCC7AB5331B1AE8BF94
:10E260009BA0599FC00CE53FFF45F5139C2AE8BFD2
:10E2700086A4CC25CCF9E43F6E97FF0B0E3BE8BF9C
:10E28000E9E5E3BBCAE6E43FF983AF11714BE8BFB0
:10E29000809F586DBCD3E43FCC58E91AC55BE8BFFA
:10E2A0000400EC45A1C0E43F95A19A1D0A6CE8BFAB
:10E2B000F022675179ADE43FBF2EBA0F407CE8BF32
:10E2C00038099B9B449AE43FA11B48E7668CE8BF52
:10E2D000FE9160300387E43FABD44D9A7E9CE8BF4B
:10E2E0004773981BB573E43F881DDE1E87ACE8BFFB
:10E2F000A2322B695A60E43F4117156B80BCE8BF1E
:10E30000D61D0925F34CE43F554618756ACCE8BF85
:10E3100080432A5B7F39E43FCC98163345DCE8BF65
:10E32000B16B8E17FF25E43F496C489B10ECE8BFAA
:10E330008C103D667212E43F0D94EFA3CCFBE8BF56
:10E34000D4564553D9FEE33FFE5E5743790BE9BFF0
:10E350008006BEEA33EBE33FA29DD46F161BE9BFF4
:10E360004383C53882D7E33F15A8C51FA42AE9BF58
:10E3700017C58149C4C3E33FFC639249223AE9BF10
:10E38000B9502029FAAFE33F6C4AACE39049E9BFAA
:10E390002930D6E3239CE33FD76D8EE4EF58E9BFE5
:10E3A00022EBDF854188E33FE17FBD423F68E9BF63
:10E3B0008D7F811B5374E33F42D7C7F47E77E9BF5B
:10E3C000F35906B15860E33F947545F1AE86E9BF55
:10E3D000E14DC152524CE33F220DD82ECF95E9BFFB
:10E3E000578E0C0D4038E33FB2062BA4DFA4E9BFE3
:10E3F00020A649EC2124E33F4187F347E0B3E9BF7E
:10E400003570E1FCF70FE33FC375F010D1C2E9BFEF
:10E410001510444BC2FBE23FD680EAF5B1D1E9BF0B
:10E4200016EAE8E380E7E23F7224B4ED82E0E9BF58
:10E43000B79B4ED333D3E23F94AF29EF43EFE9BF0D
:10E44000EAF3FA25DBBEE23FDE4931F1F4FDE9BF34
:10E4500058EB7AE876AAE23F37F9BAEA950CEABFB8
:10E46000A89C62270796E23F5EA7C0D2261BEABFA0
:10E47000BA3C4DEF8B81E23F822746A0A729EABF35
:10E48000DF12DD4C056DE23FC63B594A1838EABF42
:10E490001071BB4C7358E23FC89A11C87846EABF66
:10E4A0001FAC98FBD543E23F24F59010C954EABF56
:10E4B000E1132C662D2FE23FE2FA021B0963EABF4B
:10E4C00058EB3399791AE23FF5609DDE3871EABF67
:10E4D000D66075A1BA05E23F9DE69F52587FEABF1C
:10E4E0001B86BC8BF0F0E13FD25A546E678DEABFB9
:10E4F0007248DC641BDCE13FA3A10E29669BEABFE6
:10E50000C868AE393BC7E13F8EB92C7A54A9EABF3F
:10E51000BE73131750B2E13FD4C0165932B7EABFE9
:10E52000B8B9F2095A9DE13FC8FA3EBDFFC4EABF3F
:10E53000E5463A1F5988E13F11D5219EBCD2EABF7A
:10E5400049DBDE634D73E13FEFEC45F368E0EABF82
:10E55000BCE2DBE4365EE13F74143CB404EEEABF97
:10E56000EB6C33AF1549E13FB6579FD88FFBEABF3D
:10E570004E25EECFE933E13F000215580A09EBBF03
:10E58000224B1B54B31EE13FF5A24C2A7416EBBF7D
:10E5900056A9D0487209E13FB4130047CD23EBBF21
:10E5A0007D8E2ABB26F4E03FF47BF3A51531EBBF4B
:10E5B000B5C44BB8D0DEE03F1257F53E4D3EEBBF41
:10E5C0008F895D4D70C9E03F2579DE09744BEBBF43
:10E5D000EC858F8705B4E03F051492FE8958EBBFA8
:10E5E000E1C51774909EE03F47BCFD148F65EBBFFB
:10E5F0008CB032201189E03F3E6E19458372EBBF2B
:10E60000EDFF22998773E03FEA92E786667FEBBFD2
:10E61000B6B831ECF35DE03FE90475D2388CEBBF5E
:10E620001A22AE265648E03F5E15D91FFA98EBBF76
:10E6300095BDED55AE32E03FD2903567AAA5EBBF50
:10E64000B73E4C87FC1CE03F0DC4B6A049B2EBBFFF
:10E65000E0822BC84007E03FEA8093C4D7BEEBBFFF
:10E660000F12E74BF6E2DF3F27230DCB54CBEBBF76
:10E67000DED2245C57B7DF3F2A956FACC0D7EBBF23
:10E68000BA9AF8DBA48BDF3FC15411611BE4EBBFE6
:10E69000A3CD56E6DE5FDF3FDD7753E164F0EBBFED
:10E6A00068D03F960534DF3F47B1A1259DFCEBBF05
:10E6B000FDF7BF061908DF3F49557226C408ECBFB5
:10E6C000D578EF5219DCDE3F585E46DCD914ECBF3A
:10E6D0002056F29506B0DE3FB071A93FDE20ECBFB8
:10E6E0001351F8EAE083DE3FF1E33149D12CECBF6E
:10E6F00024D83C6DA857DE3FB1BD80F1B238ECBFE5
:10E700003BF606385D2BDE3F04C041318344ECBF4D
:10E71000DE41A966FFFEDD3F07692B014250ECBFD9
:10E7200058CC81148FD2DD3F5AF8FE59EF5BECBF15
:10E73000D810FA5C0CA6DD3F9B7388348B67ECBF66
:10E7400089E3865B7779DD3FD7AA9E891573ECBF95
:10E750009C60A82BD04CDD3FF33C23528E7EECBF57
:10E760005BDBE9E81620DD3F139C0287F589ECBFEF
:10E7700021CDE1AE4BF3DC3FF51134214B95ECBFDD
:10E780005DC431996EC6DC3F49C4B9198FA0ECBF96
:10E79000885386C37F99DC3F01B9A069C1ABECBF48
:10E7A0000A0097497F6CDC3F99DA000AE2B6ECBFB9
:10E7B000293126476D3FDC3F5CFCFCF3F0C1ECBF28
:10E7C000E71E01D84912DC3F9FDEC220EECCECBF31
:10E7D000D9C0FF1715E5DB3FF6328B89D9D7ECBFDF
:10E7E00001BD0423CFB7DB3F60A09927B3E2ECBFA4
:10E7F0009356FD14788ADB3F73C73CF47AEDECBF87
:10E80000C05CE109105DDB3F7B46CEE830F8ECBF31
:10E810007219B31D972FDB3F92BDB2FED402EDBF3C
:10E8200009407F6C0D02DB3FB9D2592F670DEDBF58
:10E8300008DC5C1273D4DA3FDC353E74E717EDBFB9
:10E84000C93F6D2BC8A6DA3FE1A4E5C65522EDBF4E
:10E850001AF3DBD30C79DA3F9FEFE020B22CEDBF47
:10E86000E4A1DE27414BDA3FDCFBCB7BFC36EDBF7E
:10E87000C00AB543651DDA3F3AC94DD13441EDBFF9
:10E880008AEDA84379EFD93F2475181B5B4BEDBF88
:10E89000F2F90D447DC1D93FB13EE9526F55EDBF4C
:10E8A000FEBD41617193D93F7F8A8872715FEDBF70
:10E8B0008F94ABB75565D93F8BE6C9736169EDBFDE
:10E8C000D793BC632A37D93FFF0D8C503F73EDBF00
:10E8D000D17BEF81EF08D93FF9ECB8020B7DEDBF9A
:10E8E000AFA4C82EA5DAD83F50A44584C486EDBF96
:10E8F00044EDD5864BACD83F468D32CF6B90EDBF03
:10E9000063A9AEA6E27DD83F463D8BDD009AEDBF00
:10E910003F90F3AA6A4FD83F888966A983A3EDBFC9
:10E92000C4AA4EB0E320D83FB98AE62CF4ACEDBFC0
:10E93000E34173D34DF2D73F9BA0386252B6EDBF8F
:10E94000E7CC1D31A9C3D73F9A7595439EBFEDBF54
:10E95000AEDF13E6F594D73F600241CBD7C8EDBFD9
:10E96000F618240F3466D73F5A918AF3FED1EDBFD3
:10E97000921026C96337D73F3DC2CCB613DBEDBF3B
:10E980009E45FA308508D73F818D6D0F16E4EDBFA7
:10E99000B50C8A6398D9D63FDA47DEF705EDEDBFAF
:10E9A000167EC77D9DAAD63F9CA59B6AE3F5EDBF69
:10E9B000CA63AD9C947BD63F2BBE2D62AEFEEDBFED
:10E9C000C6273FDD7D4CD63F540F28D96607EEBFE2
:10E9D00003C2885C591DD63FAC8029CA0C10EEBF1B
:10E9E00093A69E3727EED53FD966DC2FA018EEBF41
:10E9F000B6B39D8BE7BED53FE586F6042121EEBF79
:10EA0000DD1FAB759A8FD53F7A1939448F29EEBF38
:10EA1000B467F4124060D53F25CE70E8EA31EEBF0E
:10EA2000243CAF80D830D53F85CE75EC333AEEBF6D
:10EA3000477019DC6301D53F7EC12B4B6A42EEBFA4
:10EA40006AE77842E2D1D43F5ECE81FF8D4AEEBFC5
:10EA5000F3821BD153A2D43FFC9F72049F52EEBF9E
:10EA6000541057A5B872D43FD36704559D5AEEBFD2
:10EA7000F03689DC1043D43F12E148EC8862EEBFE7
:10EA8000026617945C13D43FA7535DC5616AEEBF5D
:10EA900071C26EE99BE3D33F44976ADB2772EEBFF6
:10EAA000B71404FACEB3D33F5A16A529DB79EEBFCB
:10EAB000AAB653E3F583D33F0DD14CAB7B81EEBFB8
:10EAC0005281E1C21054D33F2560AD5B0989EEBF8E
:10EAD000AFBA38B61F24D33FF3F71D368490EEBF8C
:10EAE0008603ECDA22F4D23F306B0136EC97EEBFAE
:10EAF0002045954E1AC4D23FDA2DC656419FEEBF2F
:10EB0000059FD52E0694D23F0058E69383A6EEBF0C
:10EB1000BA545599E663D23F8EA8E7E8B2ADEEBF8E
:10EB200072BBC3ABBB33D23F11885B51CFB4EEBFD6
:10EB3000BD27D7838503D23F740BDFC8D8BBEEBF98
:10EB40003DDB4C3F44D3D13FB2F61A4BCFC2EEBFB0
:10EB500043F2E8FBF7A2D13F84BFC3D3B2C9EEBFF3
:10EB6000775176D7A072D13F0990995E83D0EEBFDE
:10EB70007893C6EF3E42D13F634968E740D7EEBF86
:10EB800077F6B162D211D13F5186076AEBDDEEBF55
:10EB9000CD49174E5BE1D03FBC9D5AE282E4EEBF07
:10EBA00090DBDBCFD9B0D03F44A5504C07EBEEBF94
:10EBB0001E66EB054E80D03FC273E4A378F1EEBF32
:10EBC000AEFD370EB84FD03FC0A31CE5D6F7EEBF61
:10EBD000D2FDB906181FD03FEC950B0C22FEEEBFFC
:10EBE000F8EDDF1ADCDCCF3F8C73CF145A04EFBF93
:10EBF0000138BD80747BCF3FD73092FB7E0AEFBFD8
:10EC00001A5F217BF919CF3F5F8F89BC9010EFBF4E
:10EC100048E32D466BB8CE3F5D20F7538F16EFBF0C
:10EC20001B1A101ECA56CE3F084728BE7A1CEFBFDB
:10EC30009A09013F16F5CD3FDA3A76F75222EFBF37
:10EC4000114345E54F93CD3FCE0946FC1728EFBF52
:10EC5000EEBD2C4D7731CD3F9D9A08C9C92DEFBF30
:10EC600086B212B38CCFCC3FF0AE3A5A6833EFBFC6
:10EC7000DC745D53906DCC3F89E564ACF338EFBF35
:10EC8000634F7E6A820BCC3F65BC1BBC6B3EEFBF03
:10EC9000AD5DF13463A9CB3FDD92FF85D043EFBF7B
:10ECA00022673DEF3247CB3FB4ABBC062249EFBFF2
:10ECB000ABB9F3D5F1E4CA3F2D2F0B3B604EEFBF4C
:10ECC0005104B025A082CA3F072DAF1F8B53EFBF61
:10ECD000DA31181B3E20CA3F849E78B1A258EFBF9C
:10ECE0006643DCF2CBBDC93F5D6843EDA65DEFBF77
:10ECF000F92AB6E9495BC93FB05CF7CF9762EFBF2D
:10ED00000AA6693CB8F8C83FEE3C88567567EFBF65
:10ED10000418C4271796C83FB7BBF57D3F6CEFBFFB
:10ED2000C5649CE86633C83FB77E4B43F670EFBFBF
:10ED30001BCBD2BBA7D0C73F7720A1A39975EFBF4C
:10ED400031BF50DED96DC73F2A321A9C297AEFBFF6
:10ED5000FFC4088DFD0AC73F6E3DE629A67EEFBFC2
:10ED6000B24AF60413A8C63F0CC6404A0F83EFBF51
:10ED70000D831D831A45C63FA94B71FA6487EFBF07
:10ED8000C63F8B4414E2C53F784BCB37A78BEFBF10
:10ED9000DECB5486007FC53FDB41AEFFD58FEFBF92
:10EDA000F2C59785DF1BC53F08AC854FF193EFBFD8
:10EDB00088FA797FB1B8C43F9B09C924F997EFBF9E
:10EDC0005A3E29B17655C43F29DEFB7CED9BEFBF4F
:10EDD0009348DB572FF2C33FC8B2AD55CE9FEFBF6C
:10EDE000148DCDB0DB8EC33F91177AAC9BA3EFBFE0
:10EDF000A71645F97B2BC33F17A5087F55A7EFBF83
:10EE00003A618E6E10C8C23FDCFD0CCBFBAAEFBF8F
:10EE10000A34FD4D9964C23FBBCF468E8EAEEFBF24
:10EE2000CE7BECD41601C23F4DD581C60DB2EFBFEB
:10EE3000E724BE40899DC13F41D7957179B5EFBFA9
:10EE400076F5DACEF039C13FB7AD668DD1B8EFBFF8
:10EE50008667B2BC4DD6C03F8641E41716BCEFBFF3
:10EE60001D83BA47A072C03F888D0A0F47BFEFBF0E
:10EE70005BB86FADE80EC03FD39FE17064C2EFBFD7
:10EE80000E73A9564E56BF3FF69A7D3B6EC5EFBF37
:10EE90003EAAE4FDB78EBE3F21B7FE6C64C8EFBF4B
:10EEA000C89FAECB0EC7BD3F5443910347CBEFBFC6
:10EEB000C17D303B53FFBC3F7BA66DFD15CEEFBF40
:10EEC000D5C29EC78537BC3F8760D858D1D0EFBF29
:10EED0004CF638ECA66FBB3F840B221479D3EFBFFE
:10EEE000045C4924B7A7BA3F9E5CA72D0DD6EFBF9F
:10EEF0005CA824EBB6DFB93F2625D1A38DD8EFBFA0
:10EF00002CB429BCA617B93F8C531475FADAEFBF9D
:10EF1000A030C112874FB83F56F4F19F53DDEFBFC9
:10EF2000215B5D6A5887B73F0733F72299DFEFBF50
:10EF300029B1793E1BBFB63F095BBDFCCAE1EFBFFB
:10EF400019A49A0AD0F6B53F86D8E92BE9E3EFBFBA
:10EF50000A4D4D4A772EB53F40392EAFF3E5EFBF4E
:10EF6000962027791166B43F602D4885EAE7EFBF08
:10EF700099A2C5129F9DB33F3A8801ADCDE9EFBF7D
:10EF8000F619CE9220D5B23F0F4130259DEBEFBF51
:10EF90004C44ED74960CB23FC473B6EC58EDEFBF21
:10EFA000B209D7340144B13F9161820201EFEFBF52
:10EFB0006430464E617BB03FAD718E6595F0EFBF1A
:10EFC000E020F8796E65AF3FED31E11416F2EFBF46
:10EFD000C88E80F906D4AD3F5C578D0F83F3EFBF29
:10EFE000E3D7C0128D42AC3FD3BEB154DCF4EFBFC7
:10EFF00017835FBD01B1AA3F7E6D79E321F6EFBFB4
:10F0000014D80DF1651FA93F64911BBB53F7EFBFE7
:10F01000854687A5BA8DA73FDF81DBDA71F8EFBFA0
:10F0200043CD90D200FCA53F14C008427CF9EFBF4D
:10F030007961F86F396AA43F5DF7FEEF72FAEFBFAE
:10F04000CD55947565D8A23FAEFD25E455FBEFBFC5
:10F050007EC142DB8546A13FF8D3F11D25FCEFBF01
:10F0600001CFD13137699F3F79A6E29CE0FCEFBF29
:10F070001C3BE54C4F459C3F0DCD846088FDEFBFA8
:10F080007E66A3F75521993F77CB70681CFEEFBFD2
:10F0900026B2FA214DFD953FA1514BB49CFEEFBF26
:10F0A000FD0EE3BB36D9923FD13BC54309FFEFBF0D
:10F0B000CA97B96A296A8F3FDB929B1662FFEFBF3E
:10F0C00084C7DEFCD121893F4F8C972CA7FFEFBF6F
:10F0D0000397500E6BD9823F928A8E85D8FFEFBF7F
:10F0E000710067FEF021793F021D6221F6FFEFBF3C
:10F0F000BAA4CCBEF821693F000000000000F0BFB8
:10F100000000000000000000021D6221F6FFEFBFBA
:10F11000BAA4CCBEF82169BF928A8E85D8FFEFBF12
:10F12000710067FEF02179BF4F8C972CA7FFEFBFCE
:10F130000397500E6BD982BFDB929B1662FFEFBF25
:10F1400084C7DEFCD12189BFD13BC54309FFEFBF96
:10F15000CA97B96A296A8FBFA1514BB49CFEEFBF11
:10F16000FD0EE3BB36D992BF77CB70681CFEEFBFB4
:10F1700026B2FA214DFD95BF0DCD846088FDEFBF0D
:10F180007E66A3F7552199BF79A6E29CE0FCEFBF0C
:10F190001C3BE54C4F459CBFF8D3F11D25FCEFBF50
:10F1A00001CFD13137699FBFAEFD25E455FBEFBFDD
:10F1B0007EC142DB8546A1BF5DF7FEEF72FAEFBF6D
:10F1C000CD55947565D8A2BF14C008427CF9EFBF35
:10F1D0007961F86F396AA4BFDF81DBDA71F8EFBFBC
:10F1E00043CD90D200FCA5BF64911BBB53F7EFBF8A
:10F1F000854687A5BA8DA7BF7E6D79E321F6EFBF5F
:10F2000014D80DF1651FA9BFD3BEB154DCF4EFBF14
:10F2100017835FBD01B1AABF5C578D0F83F3EFBFAA
:10F22000E3D7C0128D42ACBFED31E11416F2EFBF4F
:10F23000C88E80F906D4ADBFAD718E6595F0EFBF75
:10F24000E020F8796E65AFBF9161820201EFEFBFF8
:10F250006430464E617BB0BFC473B6EC58EDEFBF6F
:10F26000B209D7340144B1BF0F4130259DEBEFBF48
:10F270004C44ED74960CB2BF3A8801ADCDE9EFBFB6
:10F28000F619CE9220D5B2BF602D4885EAE7EFBFD0
:10F2900099A2C5129F9DB3BF40392EAFF3E5EFBFD2
:10F2A000962027791166B4BF86D8E92BE9E3EFBF32
:10F2B0000A4D4D4A772EB5BF095BBDFCCAE1EFBFD1
:10F2C00019A49A0AD0F6B5BF0733F72299DFEFBF2A
:10F2D00029B1793E1BBFB6BF56F4F19F53DDEFBF96
:10F2E000215B5D6A5887B7BF8C531475FADAEFBF9C
:10F2F000A030C112874FB8BF2625D1A38DD8EFBF4C
:10F300002CB429BCA617B9BF9E5CA72D0DD6EFBFA4
:10F310005CA824EBB6DFB9BF840B221479D3EFBF0E
:10F32000045C4924B7A7BABF8760D858D1D0EFBFD3
:10F330004CF638ECA66FBBBF7BA66DFD15CEEFBFBC
:10F34000D5C29EC78537BCBF5443910347CBEFBF9F
:10F35000C17D303B53FFBCBF21B7FE6C64C8EFBF1B
:10F36000C89FAECB0EC7BDBFF69A7D3B6EC5EFBF43
:10F370003EAAE4FDB78EBEBFD39FE17064C2EFBF6B
:10F380000E73A9564E56BFBF888D0A0F47BFEFBFF9
:10F390005BB86FADE80EC0BF8641E41716BCEFBF87
:10F3A0001D83BA47A072C0BFB7AD668DD1B8EFBF9D
:10F3B0008667B2BC4DD6C0BF41D7957179B5EFBF56
:10F3C00076F5DACEF039C1BF4DD581C60DB2EFBFAB
:10F3D000E724BE40899DC1BFBBCF468E8EAEEFBF36
:10F3E000CE7BECD41601C2BFDCFD0CCBFBAAEFBF79
:10F3F0000A34FD4D9964C2BF17A5087F55A7EFBF1A
:10F400003A618E6E10C8C2BF91177AAC9BA3EFBF52
:10F41000A71645F97B2BC3BFC8B2AD55CE9FEFBF32
:10F42000148DCDB0DB8EC3BF29DEFB7CED9BEFBF1F
:10F430009348DB572FF2C3BF9B09C924F997EFBF4D
:10F440005A3E29B17655C4BF08AC854FF193EFBF42
:10F4500088FA797FB1B8C4BFDB41AEFFD58FEFBF6B
:10F46000F2C59785DF1BC5BF784BCB37A78BEFBFA6
:10F47000DECB5486007FC5BFA94B71FA6487EFBF0E
:10F48000C63F8B4414E2C5BF0CC6404A0F83EFBF92
:10F490000D831D831A45C6BF6E3DE629A67EEFBFCC
:10F4A000B24AF60413A8C6BF2A321A9C297AEFBFC3
:10F4B000FFC4088DFD0AC7BF7720A1A39975EFBFD0
:10F4C00031BF50DED96DC7BFB77E4B43F670EFBF7B
:10F4D0001BCBD2BBA7D0C7BFB7BBF57D3F6CEFBF7F
:10F4E000C5649CE86633C8BFEE3C88567567EFBFBD
:10F4F0000418C4271796C8BFB05CF7CF9762EFBF58
:10F500000AA6693CB8F8C8BF5D6843EDA65DEFBFC9
:10F51000F92AB6E9495BC9BF849E78B1A258EFBF0A
:10F520006643DCF2CBBDC9BF072DAF1F8B53EFBFC6
:10F53000DA31181B3E20CABF2D2F0B3B604EEFBFA8
:10F540005104B025A082CABFB4ABBC062249EFBFAC
:10F55000ABB9F3D5F1E4CABFDD92FF85D043EFBF6D
:10F5600022673DEF3247CBBF65BC1BBC6B3EEFBF94
:10F57000AD5DF13463A9CBBF89E564ACF338EFBF6F
:10F58000634F7E6A820BCCBFF0AE3A5A6833EFBF4E
:10F59000DC745D53906DCCBF9D9A08C9C92DEFBF37
:10F5A00086B212B38CCFCCBFCE0946FC1728EFBF72
:10F5B000EEBD2C4D7731CDBFDA3A76F75222EFBF50
:10F5C000114345E54F93CDBF084728BE7A1CEFBFD6
:10F5D0009A09013F16F5CDBF5D20F7538F16EFBF97
:10F5E0001B1A101ECA56CEBF5F8F89BC9010EFBF8A
:10F5F00048E32D466BB8CEBFD73092FB7E0AEFBFF3
:10F600001A5F217BF919CFBF8C73CF145A04EFBF57
:10F610000138BD80747BCFBFEC950B0C22FEEEBF92
:10F62000F8EDDF1ADCDCCFBFC0A31CE5D6F7EEBFD8
:10F63000D2FDB906181FD0BFC273E4A378F1EEBFA4
:10F64000AEFD370EB84FD0BF44A5504C07EBEEBF10
:10F650001E66EB054E80D0BFBC9D5AE282E4EEBF31
:10F6600090DBDBCFD9B0D0BF5186076AEBDDEEBFB0
:10F67000CD49174E5BE1D0BF634968E740D7EEBF85
:10F6800077F6B162D211D1BF0990995E83D0EEBFF7
:10F690007893C6EF3E42D1BF84BFC3D3B2C9EEBF99
:10F6A000775176D7A072D1BFB2F61A4BCFC2EEBF58
:10F6B00043F2E8FBF7A2D1BF740BDFC8D8BBEEBFA3
:10F6C0003DDB4C3F44D3D1BF11885B51CFB4EEBF7B
:10F6D000BD27D7838503D2BF8EA8E7E8B2ADEEBFC2
:10F6E00072BBC3ABBB33D2BF0058E69383A6EEBF59
:10F6F000BA545599E663D2BFDA2DC656419FEEBF84
:10F70000059FD52E0694D2BF306B0136EC97EEBF25
:10F710002045954E1AC4D2BFF3F71D368490EEBF34
:10F720008603ECDA22F4D2BF2560AD5B0989EEBF17
:10F73000AFBA38B61F24D3BF0DD14CAB7B81EEBF1F
:10F740005281E1C21054D3BF5A16A529DB79EEBF0E
:10F75000AAB653E3F583D3BF44976ADB2772EEBFA3
:10F76000B71404FACEB3D3BFA7535DC5616AEEBF29
:10F7700071C26EE99BE3D3BF12E148EC8862EEBF31
:10F78000026617945C13D4BFD36704559D5AEEBF2D
:10F79000F03689DC1043D4BFFC9F72049F52EEBF49
:10F7A000541057A5B872D4BF5ECE81FF8D4AEEBF0C
:10F7B000F3821BD153A2D4BF7EC12B4B6A42EEBF52
:10F7C0006AE77842E2D1D4BF85CE75EC333AEEBF1A
:10F7D000477019DC6301D5BF25CE70E8EA31EEBF72
:10F7E000243CAF80D830D5BF7A1939448F29EEBF79
:10F7F000B467F4124060D5BFE586F6042121EEBF60
:10F80000DD1FAB759A8FD5BFD966DC2FA018EEBF70
:10F81000B6B39D8BE7BED5BFAC8029CA0C10EEBF36
:10F8200093A69E3727EED5BF540F28D96607EEBFA3
:10F8300003C2885C591DD6BF2BBE2D62AEFEEDBF44
:10F84000C6273FDD7D4CD6BF9CA59B6AE3F5EDBF87
:10F85000CA63AD9C947BD6BFDA47DEF705EDEDBFFA
:10F86000167EC77D9DAAD6BF818D6D0F16E4EDBFB4
:10F87000B50C8A6398D9D6BF3DC2CCB613DBEDBFB9
:10F880009E45FA308508D7BF5A918AF3FED1EDBF65
:10F89000921026C96337D7BF600241CBD7C8EDBFEE
:10F8A000F618240F3466D7BF9A7595439EBFEDBFF7
:10F8B000AEDF13E6F594D7BF9BA0386252B6EDBF1A
:10F8C000E7CC1D31A9C3D7BFB98AE62CF4ACEDBF94
:10F8D000E34173D34DF2D7BF888966A983A3EDBFF7
:10F8E000C4AA4EB0E320D8BF463D8BDD009AEDBFE1
:10F8F0003F90F3AA6A4FD8BF468D32CF6B90EDBFD1
:10F9000063A9AEA6E27DD8BF50A44584C486EDBFEE
:10F9100044EDD5864BACD8BFF9ECB8020B7DEDBFFA
:10F92000AFA4C82EA5DAD8BFFF0D8C503F73EDBF32
:10F93000D17BEF81EF08D9BF8BE6C9736169EDBF59
:10F94000D793BC632A37D9BF7F8A8872715FEDBFB6
:10F950008F94ABB75565D9BFB13EE9526F55EDBF36
:10F96000FEBD41617193D9BF2475181B5B4BEDBF80
:10F97000F2F90D447DC1D9BF3AC94DD13441EDBF33
:10F980008AEDA84379EFD9BFDCFBCB7BFC36EDBF1A
:10F99000C00AB543651DDABF9FEFE020B22CEDBF72
:10F9A000E4A1DE27414BDABFE1A4E5C65522EDBF55
:10F9B0001AF3DBD30C79DABFDC353E74E717EDBF01
:10F9C000C93F6D2BC8A6DABFB9D2592F670DEDBF5D
:10F9D00008DC5C1273D4DABF92BDB2FED402EDBF74
:10F9E00009407F6C0D02DBBF7B46CEE830F8ECBFF0
:10F9F0007219B31D972FDBBF73C73CF47AEDECBFD0
:10FA0000C05CE109105DDBBF60A09927B3E2ECBFE9
:10FA10009356FD14788ADBBFF6328B89D9D7ECBFB9
:10FA200001BD0423CFB7DBBF9FDEC220EECCECBF0D
:10FA3000D9C0FF1715E5DBBF5CFCFCF3F0C1ECBFE0
:10FA4000E71E01D84912DCBF99DA000AE2B6ECBF22
:10FA5000293126476D3FDCBF01B9A069C1ABECBFBE
:10FA60000A0097497F6CDCBF49C4B9198FA0ECBF6D
:10FA7000885386C37F99DCBFF51134214B95ECBFC9
:10FA80005DC431996EC6DCBF139C0287F589ECBF5B
:10FA900021CDE1AE4BF3DCBFF33C23528E7EECBFB5
:10FAA0005BDBE9E81620DDBFD7AA9E891573ECBFA2
:10FAB0009C60A82BD04CDDBF9B7388348B67ECBF58
:10FAC00089E3865B7779DDBF5AF8FE59EF5BECBFBF
:10FAD000D810FA5C0CA6DDBF07692B014250ECBFC1
:10FAE00058CC81148FD2DDBF04C041318344ECBFB8
:10FAF000DE41A966FFFEDDBFB1BD80F1B238ECBFCB
:10FB00003BF606385D2BDEBFF1E33149D12CECBF6B
:10FB100024D83C6DA857DEBFB071A93FDE20ECBFF2
:10FB20001351F8EAE083DEBF585E46DCD914ECBF1F
:10FB30002056F29506B0DEBF49557226C408ECBFC8
:10FB4000D578EF5219DCDEBF47B1A1259DFCEBBF94
:10FB5000FDF7BF061908DFBFDD7753E164F0EBBFA7
:10FB600068D03F960534DFBFC15411611BE4EBBF81
:10FB7000A3CD56E6DE5FDFBF2A956FACC0D7EBBFE3
:10FB8000BA9AF8DBA48BDFBF27230DCB54CBEBBF96
:10FB9000DED2245C57B7DFBFEA8093C4D7BEEBBF89
:10FBA0000F12E74BF6E2DFBF0DC4B6A049B2EBBFC0
:10FBB000E0822BC84007E0BFD2903567AAA5EBBF13
:10FBC000B73E4C87FC1CE0BF5E15D91FFA98EBBF0F
:10FBD00095BDED55AE32E0BFE90475D2388CEBBF70
:10FBE0001A22AE265648E0BFEA92E786667FEBBF50
:10FBF000B6B831ECF35DE0BF3E6E19458372EBBFE2
:10FC0000EDFF22998773E0BF47BCFD148F65EBBF02
:10FC10008CB032201189E0BF051492FE8958EBBFE9
:10FC2000E1C51774909EE0BF2579DE09744BEBBFE8
:10FC3000EC858F8705B4E0BF1257F53E4D3EEBBF14
:10FC40008F895D4D70C9E0BFF47BF3A51531EBBF23
:10FC5000B5C44BB8D0DEE0BFB4130047CD23EBBF33
:10FC60007D8E2ABB26F4E0BFF5A24C2A7416EBBFAA
:10FC700056A9D0487209E1BF000215580A09EBBF26
:10FC8000224B1B54B31EE1BFB6579FD88FFBEABF70
:10FC90004E25EECFE933E1BF74143CB404EEEABF65
:10FCA000EB6C33AF1549E1BFEFEC45F368E0EABF19
:10FCB000BCE2DBE4365EE1BF11D5219EBCD2EABFD7
:10FCC00049DBDE634D73E1BFC8FA3EBDFFC4EABF46
:10FCD000E5463A1F5988E1BFD4C0165932B7EABF8A
:10FCE000B8B9F2095A9DE1BF8EB92C7A54A9EABF7E
:10FCF000BE73131750B2E1BFA3A10E29669BEABFE2
:10FD0000C868AE393BC7E1BFD25A546E678DEABFAF
:10FD10007248DC641BDCE1BF9DE69F52587FEABF5E
:10FD20001B86BC8BF0F0E1BFF5609DDE3871EABF49
:10FD3000D66075A1BA05E2BFE2FA021B0963EABF09
:10FD400058EB3399791AE2BF24F59010C954EABFF1
:10FD5000E1132C662D2FE2BFC89A11C87846EABF7E
:10FD60001FAC98FBD543E2BFC63B594A1838EABFDF
:10FD70001071BB4C7358E2BF822746A0A729EABF87
:10FD8000DF12DD4C056DE2BF5EA7C0D2261BEABFC5
:10FD9000BA3C4DEF8B81E2BF37F9BAEA950CEABF66
:10FDA000A89C62270796E2BFDE4931F1F4FDE9BF66
:10FDB00058EB7AE876AAE2BF94AF29EF43EFE9BFA8
:10FDC000EAF3FA25DBBEE2BF7224B4ED82E0E9BFBC
:10FDD000B79B4ED333D3E2BFD680EAF5B1D1E9BFAA
:10FDE00016EAE8E380E7E2BFC375F010D1C2E9BFCD
:10FDF0001510444BC2FBE2BF4187F347E0B3E9BFB4
:10FE00003570E1FCF70FE3BFB2062BA4DFA4E9BF16
:10FE100020A649EC2124E3BF220DD82ECF95E9BFBF
:10FE2000578E0C0D4038E3BF947545F1AE86E9BF9F
:10FE3000E14DC152524CE3BF42D7C7F47E77E9BFD0
:10FE4000F35906B15860E3BFE17FBD423F68E9BFA7
:10FE50008D7F811B5374E3BFD76D8EE4EF58E9BFEC
:10FE600022EBDF854188E3BF6C4AACE39049E9BFF0
:10FE70002930D6E3239CE3BFFC639249223AE9BFD1
:10FE8000B9502029FAAFE3BF15A8C51FA42AE9BFBE
:10FE900017C58149C4C3E3BFA29DD46F161BE9BF38
:10FEA0004383C53882D7E3BFFE5E5743790BE9BF72
:10FEB0008006BEEA33EBE3BF0D94EFA3CCFBE8BFB3
:10FEC000D4564553D9FEE3BF496C489B10ECE8BFBC
:10FED0008C103D667212E4BFCC98163345DCE8BF47
:10FEE000B16B8E17FF25E4BF554618756ACCE8BF85
:10FEF00080432A5B7F39E4BF4117156B80BCE8BFA4
:10FF0000D61D0925F34CE4BF881DDE1E87ACE8BF73
:10FF1000A2322B695A60E4BFABD44D9A7E9CE8BFF5
:10FF20004773981BB573E4BFA11B48E7668CE8BF15
:10FF3000FE9160300387E4BFBF2EBA0F407CE8BF5C
:10FF400038099B9B449AE4BF95A19A1D0A6CE8BFAF
:10FF5000F022675179ADE4BFCC58E91AC55BE8BF20
:10FF60000400EC45A1C0E4BFF983AF11714BE8BFB9
:10FF7000809F586DBCD3E4BF6E97FF0B0E3BE8BF6C
:10FF8000E9E5E3BBCAE6E4BFFF45F5139C2AE8BFF9
:10FF900086A4CC25CCF9E4BFCC7AB5331B1AE8BFD4
:10FFA0009BA0599FC00CE5BFFA526E758B09E8BF44
:10FFB000A69AD91CA81FE5BF711757E3ECF8E7BF55
:10FFC0009655A3928232E5BF8636B0873FE8E7BFF9
:10FFD000FB9D15F54F45E5BFB23DC36C83D7E7BF29
:10FFE000375197381058E5BF33D3E29CB8C6E7BF06
:10FFF0009E649751C36AE5BFB0AF6A22DFB5E7BF21
:020000040801F1
:100000009FEC8C34697DE5BFD297BF07F7A4E7BFAB
:10001000DF23F7D50190E5BFE4554F570094E7BFC4
:1000200050725D2A8DA2E5BF5BB3901BFB82E7BFD8
:1000300048744F260BB5E5BF6172035FE771E7BFF8
:100040008C0165BE7BC7E5BF6447302CC560E7BF48
:100050005C343EE7DED9E5BF8DD2A88D944FE7BF73
:100060007470839534ECE5BF4299078E553EE7BF27
:100070000F6AE5BD7CFEE5BF97FFEF37082DE7BFB0
:10008000DE2C1D55B710E6BFBF410E96AC1BE7BF77
:10009000FF22EC4FE422E6BF7A6D17B3420AE7BFB6
:1000A000E81B1CA30335E6BF755BC999CAF8E6BF18
:1000B0005B537F431547E6BFAEA8EA5444E7E6BF6B
:1000C0003E78F0251959E6BFCCAF4AEFAFD5E6BF71
:1000D00086B3523F0F6BE6BF7582C1730DC4E6BF96
:1000E00010AF9184F77CE6BF9CE22FED5CB2E6BFD7
:1000F000719CA1EAD18EE6BFCC3B7F669EA0E6BF95
:10010000CC3B7F669EA0E6BF719CA1EAD18EE6BF84
:100110009CE22FED5CB2E6BF10AF9184F77CE6BFA6
:100120007582C1730DC4E6BF86B3523F0F6BE6BF45
:10013000CCAF4AEFAFD5E6BF3E78F0251959E6BF00
:10014000AEA8EA5444E7E6BF5B537F431547E6BFDA
:10015000755BC999CAF8E6BFE81B1CA30335E6BF67
:100160007A6D17B3420AE7BFFF22EC4FE422E6BFE5
:10017000BF410E96AC1BE7BFDE2C1D55B710E6BF86
:1001800097FFEF37082DE7BF0F6AE5BD7CFEE5BF9F
:100190004299078E553EE7BF7470839534ECE5BFF6
:1001A0008DD2A88D944FE7BF5C343EE7DED9E5BF22
:1001B0006447302CC560E7BF8C0165BE7BC7E5BFD7
:1001C0006172035FE771E7BF48744F260BB5E5BF67
:1001D0005BB3901BFB82E7BF50725D2A8DA2E5BF27
:1001E000E4554F570094E7BFDF23F7D50190E5BFF3
:1001F000D297BF07F7A4E7BF9FEC8C34697DE5BFBA
:10020000B0AF6A22DFB5E7BF9E649751C36AE5BF0E
:1002100033D3E29CB8C6E7BF375197381058E5BFD3
:10022000B23DC36C83D7E7BFFB9D15F54F45E5BFD6
:100230008636B0873FE8E7BF9655A3928232E5BF86
:10024000711757E3ECF8E7BFA69AD91CA81FE5BFC2
:10025000FA526E758B09E8BF9BA0599FC00CE5BF91
:10026000CC7AB5331B1AE8BF86A4CC25CCF9E4BF01
:10027000FF45F5139C2AE8BFE9E5E3BBCAE6E4BF06
:100280006E97FF0B0E3BE8BF809F586DBCD3E4BF59
:10029000F983AF11714BE8BF0400EC45A1C0E4BF86
:1002A000CC58E91AC55BE8BFF022675179ADE4BFCD
:1002B00095A19A1D0A6CE8BF38099B9B449AE4BF3C
:1002C000BF2EBA0F407CE8BFFE9160300387E4BFC9
:1002D000A11B48E7668CE8BF4773981BB573E4BF62
:1002E000ABD44D9A7E9CE8BFA2322B695A60E4BF22
:1002F000881DDE1E87ACE8BFD61D0925F34CE4BF80
:100300004117156B80BCE8BF80432A5B7F39E4BF8F
:10031000554618756ACCE8BFB16B8E17FF25E4BF50
:10032000CC98163345DCE8BF8C103D667212E4BFF2
:10033000496C489B10ECE8BFD4564553D9FEE3BF47
:100340000D94EFA3CCFBE8BF8006BEEA33EBE3BF1E
:10035000FE5E5743790BE9BF4383C53882D7E3BFBD
:10036000A29DD46F161BE9BF17C58149C4C3E3BF63
:1003700015A8C51FA42AE9BFB9502029FAAFE3BFC9
:10038000FC639249223AE9BF2930D6E3239CE3BFBC
:100390006C4AACE39049E9BF22EBDF854188E3BFBB
:1003A000D76D8EE4EF58E9BF8D7F811B5374E3BF97
:1003B000E17FBD423F68E9BFF35906B15860E3BF32
:1003C00042D7C7F47E77E9BFE14DC152524CE3BF3B
:1003D000947545F1AE86E9BF578E0C0D4038E3BFEA
:1003E000220DD82ECF95E9BF20A649EC2124E3BFEA
:1003F000B2062BA4DFA4E9BF3570E1FCF70FE3BF21
:100400004187F347E0B3E9BF1510444BC2FBE2BF9D
:10041000C375F010D1C2E9BF16EAE8E380E7E2BF96
:10042000D680EAF5B1D1E9BFB79B4ED333D3E2BF53
:100430007224B4ED82E0E9BFEAF3FA25DBBEE2BF45
:1004400094AF29EF43EFE9BF58EB7AE876AAE2BF11
:10045000DE4931F1F4FDE9BFA89C62270796E2BFAF
:1004600037F9BAEA950CEABFBA3C4DEF8B81E2BF8F
:100470005EA7C0D2261BEABFDF12DD4C056DE2BFCE
:10048000822746A0A729EABF1071BB4C7358E2BF70
:10049000C63B594A1838EABF1FAC98FBD543E2BFA8
:1004A000C89A11C87846EABFE1132C662D2FE2BF27
:1004B00024F59010C954EABF58EB3399791AE2BF7A
:1004C000E2FA021B0963EABFD66075A1BA05E2BF72
:1004D000F5609DDE3871EABF1B86BC8BF0F0E1BF92
:1004E0009DE69F52587FEABF7248DC641BDCE1BF87
:1004F000D25A546E678DEABFC868AE393BC7E1BFB8
:10050000A3A10E29669BEABFBE73131750B2E1BFC9
:100510008EB92C7A54A9EABFB8B9F2095A9DE1BF45
:10052000D4C0165932B7EABFE5463A1F5988E1BF31
:10053000C8FA3EBDFFC4EABF49DBDE634D73E1BFCD
:1005400011D5219EBCD2EABFBCE2DBE4365EE1BF3E
:10055000EFEC45F368E0EABFEB6C33AF1549E1BF60
:1005600074143CB404EEEABF4E25EECFE933E1BF8C
:10057000B6579FD88FFBEABF224B1B54B31EE1BF77
:10058000000215580A09EBBF56A9D0487209E1BF0D
:10059000F5A24C2A7416EBBF7D8E2ABB26F4E0BF71
:1005A000B4130047CD23EBBFB5C44BB8D0DEE0BFDA
:1005B000F47BF3A51531EBBF8F895D4D70C9E0BFAA
:1005C0001257F53E4D3EEBBFEC858F8705B4E0BF7B
:1005D0002579DE09744BEBBFE1C51774909EE0BF2F
:1005E000051492FE8958EBBF8CB032201189E0BF10
:1005F00047BCFD148F65EBBFEDFF22998773E0BF09
:100600003E6E19458372EBBFB6B831ECF35DE0BFC7
:10061000EA92E786667FEBBF1A22AE265648E0BF15
:10062000E90475D2388CEBBF95BDED55AE32E0BF15
:100630005E15D91FFA98EBBFB73E4C87FC1CE0BF94
:10064000D2903567AAA5EBBFE0822BC84007E0BF78
:100650000DC4B6A049B2EBBF0F12E74BF6E2DFBF05
:10066000EA8093C4D7BEEBBFDED2245C57B7DFBFAE
:1006700027230DCB54CBEBBFBA9AF8DBA48BDFBF9B
:100680002A956FACC0D7EBBFA3CD56E6DE5FDFBFC8
:10069000C15411611BE4EBBF68D03F960534DFBF46
:1006A000DD7753E164F0EBBFFDF7BF061908DFBF4C
:1006B00047B1A1259DFCEBBFD578EF5219DCDEBF19
:1006C00049557226C408ECBF2056F29506B0DEBF2D
:1006D000585E46DCD914ECBF1351F8EAE083DEBF64
:1006E000B071A93FDE20ECBF24D83C6DA857DEBF17
:1006F000F1E33149D12CECBF3BF606385D2BDEBF70
:10070000B1BD80F1B238ECBFDE41A966FFFEDDBFAE
:1007100004C041318344ECBF58CC81148FD2DDBF7B
:1007200007692B014250ECBFD810FA5C0CA6DDBF64
:100730005AF8FE59EF5BECBF89E3865B7779DDBF42
:100740009B7388348B67ECBF9C60A82BD04CDDBFBB
:10075000D7AA9E891573ECBF5BDBE9E81620DDBFE5
:10076000F33C23528E7EECBF21CDE1AE4BF3DCBFD8
:10077000139C0287F589ECBF5DC431996EC6DCBF5E
:10078000F51134214B95ECBF885386C37F99DCBFAC
:1007900049C4B9198FA0ECBF0A0097497F6CDCBF30
:1007A00001B9A069C1ABECBF293126476D3FDCBF61
:1007B00099DA000AE2B6ECBFE71E01D84912DCBFA5
:1007C0005CFCFCF3F0C1ECBFD9C0FF1715E5DBBF43
:1007D0009FDEC220EECCECBF01BD0423CFB7DBBF50
:1007E000F6328B89D9D7ECBF9356FD14788ADBBFDC
:1007F00060A09927B3E2ECBFC05CE109105DDBBFEC
:1008000073C73CF47AEDECBF7219B31D972FDBBFB1
:100810007B46CEE830F8ECBF09407F6C0D02DBBFB1
:1008200092BDB2FED402EDBF08DC5C1273D4DABF15
:10083000B9D2592F670DEDBFC93F6D2BC8A6DABFDE
:10084000DC353E74E717EDBF1AF3DBD30C79DABF62
:10085000E1A4E5C65522EDBFE4A1DE27414BDABF96
:100860009FEFE020B22CEDBFC00AB543651DDABF93
:10087000DCFBCB7BFC36EDBF8AEDA84379EFD9BF1B
:100880003AC94DD13441EDBFF2F90D447DC1D9BF14
:100890002475181B5B4BEDBFFEBD41617193D9BF41
:1008A000B13EE9526F55EDBF8F94ABB75565D9BFD7
:1008B0007F8A8872715FEDBFD793BC632A37D9BF37
:1008C0008BE6C9736169EDBFD17BEF81EF08D9BFBA
:1008D000FF0D8C503F73EDBFAFA4C82EA5DAD8BF73
:1008E000F9ECB8020B7DEDBF44EDD5864BACD8BF1B
:1008F00050A44584C486EDBF63A9AEA6E27DD8BFEF
:10090000468D32CF6B90EDBF3F90F3AA6A4FD8BFB0
:10091000463D8BDD009AEDBFC4AA4EB0E320D8BFA0
:10092000888966A983A3EDBFE34173D34DF2D7BF96
:10093000B98AE62CF4ACEDBFE7CC1D31A9C3D7BF13
:100940009BA0386252B6EDBFAEDF13E6F594D7BF79
:100950009A7595439EBFEDBFF618240F3466D7BF36
:10096000600241CBD7C8EDBF921026C96337D7BF0D
:100970005A918AF3FED1EDBF9E45FA308508D7BF64
:100980003DC2CCB613DBEDBFB50C8A6398D9D6BF98
:10099000818D6D0F16E4EDBF167EC77D9DAAD6BF73
:1009A000DA47DEF705EDEDBFCA63AD9C947BD6BF99
:1009B0009CA59B6AE3F5EDBFC6273FDD7D4CD6BF06
:1009C0002BBE2D62AEFEEDBF03C2885C591DD6BFA3
:1009D000540F28D96607EEBF93A69E3727EED5BFE2
:1009E000AC8029CA0C10EEBFB6B39D8BE7BED5BF55
:1009F000D966DC2FA018EEBFDD1FAB759A8FD5BF6F
:100A0000E586F6042121EEBFB467F4124060D5BF3D
:100A10007A1939448F29EEBF243CAF80D830D5BF36
:100A200025CE70E8EA31EEBF477019DC6301D5BF0F
:100A300085CE75EC333AEEBF6AE77842E2D1D4BF97
:100A40007EC12B4B6A42EEBFF3821BD153A2D4BFAF
:100A50005ECE81FF8D4AEEBF541057A5B872D4BF49
:100A6000FC9F72049F52EEBFF03689DC1043D4BF66
:100A7000D36704559D5AEEBF026617945C13D4BF2A
:100A800012E148EC8862EEBF71C26EE99BE3D3BF0E
:100A9000A7535DC5616AEEBFB71404FACEB3D3BFE6
:100AA00044976ADB2772EEBFAAB653E3F583D3BF40
:100AB0005A16A529DB79EEBF5281E1C21054D3BF8B
:100AC0000DD14CAB7B81EEBFAFBA38B61F24D3BF7C
:100AD0002560AD5B0989EEBF8603ECDA22F4D2BF54
:100AE000F3F71D368490EEBF2045954E1AC4D2BF51
:100AF000306B0136EC97EEBF059FD52E0694D2BF22
:100B0000DA2DC656419FEEBFBA545599E663D2BF5F
:100B10000058E69383A6EEBF72BBC3ABBB33D2BF14
:100B20008EA8E7E8B2ADEEBFBD27D7838503D2BF5D
:100B300011885B51CFB4EEBF3DDB4C3F44D3D1BFF6
:100B4000740BDFC8D8BBEEBF43F2E8FBF7A2D1BFFE
:100B5000B2F61A4BCFC2EEBF775176D7A072D1BF93
:100B600084BFC3D3B2C9EEBF7893C6EF3E42D1BFB4
:100B70000990995E83D0EEBF77F6B162D211D1BFF2
:100B8000634968E740D7EEBFCD49174E5BE1D0BF60
:100B90005186076AEBDDEEBF90DBDBCFD9B0D0BF6B
:100BA000BC9D5AE282E4EEBF1E66EB054E80D0BFCC
:100BB00044A5504C07EBEEBFAEFD370EB84FD0BF8B
:100BC000C273E4A378F1EEBFD2FDB906181FD0BFFF
:100BD000C0A31CE5D6F7EEBFF8EDDF1ADCDCCFBF13
:100BE000EC950B0C22FEEEBF0138BD80747BCFBFAD
:100BF0008C73CF145A04EFBF1A5F217BF919CFBF52
:100C0000D73092FB7E0AEFBF48E32D466BB8CEBFCC
:100C10005F8F89BC9010EFBF1B1A101ECA56CEBF43
:100C20005D20F7538F16EFBF9A09013F16F5CDBF30
:100C3000084728BE7A1CEFBF114345E54F93CDBF4F
:100C4000DA3A76F75222EFBFEEBD2C4D7731CDBFA9
:100C5000CE0946FC1728EFBF86B212B38CCFCCBFAB
:100C60009D9A08C9C92DEFBFDC745D53906DCCBF50
:100C7000F0AE3A5A6833EFBF634F7E6A820BCCBF47
:100C800089E564ACF338EFBFAD5DF13463A9CBBF48
:100C900065BC1BBC6B3EEFBF22673DEF3247CBBF4D
:100CA000DD92FF85D043EFBFABB9F3D5F1E4CABF06
:100CB000B4ABBC062249EFBF5104B025A082CABF25
:100CC0002D2F0B3B604EEFBFDA31181B3E20CABF01
:100CD000072DAF1F8B53EFBF6643DCF2CBBDC9BFFF
:100CE000849E78B1A258EFBFF92AB6E9495BC9BF23
:100CF0005D6843EDA65DEFBF0AA6693CB8F8C8BFC2
:100D0000B05CF7CF9762EFBF0418C4271796C8BF2F
:100D1000EE3C88567567EFBFC5649CE86633C8BF74
:100D2000B7BBF57D3F6CEFBF1BCBD2BBA7D0C7BF16
:100D3000B77E4B43F670EFBF31BF50DED96DC7BFF2
:100D40007720A1A39975EFBFFFC4088DFD0AC7BF27
:100D50002A321A9C297AEFBFB24AF60413A8C6BFFA
:100D60006E3DE629A67EEFBF0D831D831A45C6BFE3
:100D70000CC6404A0F83EFBFC63F8B4414E2C5BF89
:100D8000A94B71FA6487EFBFDECB5486007FC5BFE5
:100D9000784BCB37A78BEFBFF2C59785DF1BC5BF5D
:100DA000DB41AEFFD58FEFBF88FA797FB1B8C4BF02
:100DB00008AC854FF193EFBF5A3E29B17655C4BFB9
:100DC0009B09C924F997EFBF9348DB572FF2C3BFA4
:100DD00029DEFB7CED9BEFBF148DCDB0DB8EC3BF56
:100DE000C8B2AD55CE9FEFBFA71645F97B2BC3BF49
:100DF00091177AAC9BA3EFBF3A618E6E10C8C2BF49
:100E000017A5087F55A7EFBF0A34FD4D9964C2BFEF
:100E1000DCFD0CCBFBAAEFBFCE7BECD41601C2BF2E
:100E2000BBCF468E8EAEEFBFE724BE40899DC1BFCB
:100E30004DD581C60DB2EFBF76F5DACEF039C1BF20
:100E400041D7957179B5EFBF8667B2BC4DD6C0BFAB
:100E5000B7AD668DD1B8EFBF1D83BA47A072C0BFD2
:100E60008641E41716BCEFBF5BB86FADE80EC0BF9C
:100E7000888D0A0F47BFEFBF0E73A9564E56BFBFEE
:100E8000D39FE17064C2EFBF3EAAE4FDB78EBEBF40
:100E9000F69A7D3B6EC5EFBFC89FAECB0EC7BDBFF8
:100EA00021B7FE6C64C8EFBFC17D303B53FFBCBFB0
:100EB0005443910347CBEFBFD5C29EC78537BCBF14
:100EC0007BA66DFD15CEEFBF4CF638ECA66FBBBF11
:100ED0008760D858D1D0EFBF045C4924B7A7BABF08
:100EE000840B221479D3EFBF5CA824EBB6DFB9BF23
:100EF0009E5CA72D0DD6EFBF2CB429BCA617B9BF99
:100F00002625D1A38DD8EFBFA030C112874FB8BF1F
:100F10008C531475FADAEFBF215B5D6A5887B7BF4F
:100F200056F4F19F53DDEFBF29B1793E1BBFB6BF29
:100F30000733F72299DFEFBF19A49A0AD0F6B5BF9D
:100F4000095BBDFCCAE1EFBF0A4D4D4A772EB5BF24
:100F500086D8E92BE9E3EFBF962027791166B4BF65
:100F600040392EAFF3E5EFBF99A2C5129F9DB3BFE5
:100F7000602D4885EAE7EFBFF619CE9220D5B2BFC3
:100F80003A8801ADCDE9EFBF4C44ED74960CB2BF89
:100F90000F4130259DEBEFBFB209D7340144B1BFFB
:100FA000C473B6EC58EDEFBF6430464E617BB0BF02
:100FB0009161820201EFEFBFE020F8796E65AFBF6B
:100FC000AD718E6595F0EFBFC88E80F906D4ADBFC8
:100FD000ED31E11416F2EFBFE3D7C0128D42ACBF82
:100FE0005C578D0F83F3EFBF17835FBD01B1AABFBD
:100FF000D3BEB154DCF4EFBF14D80DF1651FA9BF07
:101000007E6D79E321F6EFBF854687A5BA8DA7BF30
:1010100064911BBB53F7EFBF43CD90D200FCA5BF3B
:10102000DF81DBDA71F8EFBF7961F86F396AA4BF4D
:1010300014C008427CF9EFBFCD55947565D8A2BFA6
:101040005DF7FEEF72FAEFBF7EC142DB8546A1BFBE
:10105000AEFD25E455FBEFBF01CFD13137699FBF0E
:10106000F8D3F11D25FCEFBF1C3BE54C4F459CBF61
:1010700079A6E29CE0FCEFBF7E66A3F7552199BFFD
:101080000DCD846088FDEFBF26B2FA214DFD95BFDE
:1010900077CB70681CFEEFBFFD0EE3BB36D992BF65
:1010A000A1514BB49CFEEFBFCA97B96A296A8FBFA2
:1010B000D13BC54309FFEFBF84C7DEFCD12189BF07
:1010C000DB929B1662FFEFBF0397500E6BD982BF76
:1010D0004F8C972CA7FFEFBF710067FEF02179BFFF
:1010E000928A8E85D8FFEFBFBAA4CCBEF82169BF23
:1010F000021D6221F6FFEFBF0000000000000000AB
:10110000000000000000F0BFBAA4CCBEF821693F87
:10111000021D6221F6FFEFBF710067FEF021793FEB
:10112000928A8E85D8FFEFBF0397500E6BD9823F0E
:101130004F8C972CA7FFEFBF84C7DEFCD121893FDE
:10114000DB929B1662FFEFBFCA97B96A296A8F3F8D
:10115000D13BC54309FFEFBFFD0EE3BB36D9923F3C
:10116000A1514BB49CFEEFBF26B2FA214DFD953F35
:1011700077CB70681CFEEFBF7E66A3F75521993FC1
:101180000DCD846088FDEFBF1C3BE54C4F459C3F77
:1011900079A6E29CE0FCEFBF01CFD13137699F3FD8
:1011A000F8D3F11D25FCEFBF7EC142DB8546A13F90
:1011B000AEFD25E455FBEFBFCD55947565D8A23F34
:1011C0005DF7FEEF72FAEFBF7961F86F396AA43FFD
:1011D00014C008427CF9EFBF43CD90D200FCA53F7C
:1011E000DF81DBDA71F8EFBF854687A5BA8DA73FAF
:1011F00064911BBB53F7EFBF14D80DF1651FA93FD6
:101200007E6D79E321F6EFBF17835FBD01B1AA3F81
:10121000D3BEB154DCF4EFBFE3D7C0128D42AC3F74
:101220005C578D0F83F3EFBFC88E80F906D4AD3FB6
:10123000ED31E11416F2EFBFE020F8796E65AF3FB3
:10124000AD718E6595F0EFBF6430464E617BB03F67
:101250009161820201EFEFBFB209D7340144B13F7F
:10126000C473B6EC58EDEFBF4C44ED74960CB23F2E
:101270000F4130259DEBEFBFF619CE9220D5B23F3E
:101280003A8801ADCDE9EFBF99A2C5129F9DB33F4A
:10129000602D4885EAE7EFBF962027791166B43FB5
:1012A00040392EAFF3E5EFBF0A4D4D4A772EB53FDB
:1012B00086D8E92BE9E3EFBF19A49A0AD0F6B53F27
:1012C000095BBDFCCAE1EFBF29B1793E1BBFB63F48
:1012D0000733F72299DFEFBF215B5D6A5887B73F7D
:1012E00056F4F19F53DDEFBFA030C112874FB83FD6
:1012F0008C531475FADAEFBF2CB429BCA617B93F8A
:101300002625D1A38DD8EFBF5CA824EBB6DFB93F6B
:101310009E5CA72D0DD6EFBF045C4924B7A7BA3F4A
:10132000840B221479D3EFBF4CF638ECA66FBB3F89
:101330008760D858D1D0EFBFD5C29EC78537BC3F94
:101340007BA66DFD15CEEFBFC17D303B53FFBC3F8B
:101350005443910347CBEFBFC89FAECB0EC7BD3FF1
:1013600021B7FE6C64C8EFBF3EAAE4FDB78EBE3F56
:10137000F69A7D3B6EC5EFBF0E73A9564E56BF3F22
:10138000D39FE17064C2EFBF5BB86FADE80EC03FA2
:10139000888D0A0F47BFEFBF1D83BA47A072C03FB9
:1013A0008641E41716BCEFBF8667B2BC4DD6C03F7E
:1013B000B7AD668DD1B8EFBF76F5DACEF039C13F63
:1013C00041D7957179B5EFBFE724BE40899DC13FF4
:1013D0004DD581C60DB2EFBFCE7BECD41601C23F16
:1013E000BBCF468E8EAEEFBF0A34FD4D9964C23F2F
:1013F000DCFD0CCBFBAAEFBF3A618E6E10C8C23F7A
:1014000017A5087F55A7EFBFA71645F97B2BC33F4C
:1014100091177AAC9BA3EFBF148DCDB0DB8EC33F89
:10142000C8B2AD55CE9FEFBF9348DB572FF2C33FF5
:1014300029DEFB7CED9BEFBF5A3E29B17655C43FB8
:101440009B09C924F997EFBF88FA797FB1B8C43FE7
:1014500008AC854FF193EFBFF2C59785DF1BC53F01
:10146000DB41AEFFD58FEFBFDECB5486007FC53F9B
:10147000784BCB37A78BEFBFC63F8B4414E2C53FF9
:10148000A94B71FA6487EFBF0D831D831A45C63FD0
:101490000CC6404A0F83EFBFB24AF60413A8C63FFA
:1014A0006E3DE629A67EEFBFFFC4088DFD0AC73F4B
:1014B0002A321A9C297AEFBF31BF50DED96DC73F5F
:1014C0007720A1A39975EFBF1BCBD2BBA7D0C73F95
:1014D000B77E4B43F670EFBFC5649CE86633C83FE8
:1014E000B7BBF57D3F6CEFBF0418C4271796C83F04
:1014F000EE3C88567567EFBF0AA6693CB8F8C83F4E
:10150000B05CF7CF9762EFBFF92AB6E9495BC93FF4
:101510005D6843EDA65DEFBF6643DCF2CBBDC93F1E
:10152000849E78B1A258EFBFDA31181B3E20CA3F23
:10153000072DAF1F8B53EFBF5104B025A082CA3FC8
:101540002D2F0B3B604EEFBFABB9F3D5F1E4CA3F93
:10155000B4ABBC062249EFBF22673DEF3247CB3F19
:10156000DD92FF85D043EFBFAD5DF13463A9CB3F82
:1015700065BC1BBC6B3EEFBF634F7E6A820BCC3FEA
:1015800089E564ACF338EFBFDC745D53906DCC3FFC
:10159000F0AE3A5A6833EFBF86B212B38CCFCC3F6D
:1015A0009D9A08C9C92DEFBFEEBD2C4D7731CD3FB7
:1015B000CE0946FC1728EFBF114345E54F93CD3FB9
:1015C000DA3A76F75222EFBF9A09013F16F5CD3F7E
:1015D000084728BE7A1CEFBF1B1A101ECA56CE3F02
:1015E0005D20F7538F16EFBF48E32D466BB8CE3F13
:1015F0005F8F89BC9010EFBF1A5F217BF919CF3F35
:10160000D73092FB7E0AEFBF0138BD80747BCF3F9D
:101610008C73CF145A04EFBFF8EDDF1ADCDCCF3F38
:10162000EC950B0C22FEEEBFD2FDB906181FD03F81
:10163000C0A31CE5D6F7EEBFAEFD370EB84FD03FC6
:10164000C273E4A378F1EEBF1E66EB054E80D03F77
:1016500044A5504C07EBEEBF90DBDBCFD9B0D03FB9
:10166000BC9D5AE282E4EEBFCD49174E5BE1D03F0C
:101670005186076AEBDDEEBF77F6B162D211D13F3A
:10168000634968E740D7EEBF7893C6EF3E42D13F4B
:101690000990995E83D0EEBF775176D7A072D13F83
:1016A00084BFC3D3B2C9EEBF43F2E8FBF7A2D13F78
:1016B000B2F61A4BCFC2EEBF3DDB4C3F44D3D13F15
:1016C000740BDFC8D8BBEEBFBD27D7838503D23FDD
:1016D00011885B51CFB4EEBF72BBC3ABBB33D23FFB
:1016E0008EA8E7E8B2ADEEBFBA545599E663D23F93
:1016F0000058E69383A6EEBF059FD52E0694D23FF1
:10170000DA2DC656419FEEBF2045954E1AC4D23FF2
:10171000306B0136EC97EEBF8603ECDA22F4D23F51
:10172000F3F71D368490EEBFAFBA38B61F24D33F0F
:101730002560AD5B0989EEBF5281E1C21054D33FF1
:101740000DD14CAB7B81EEBFAAB653E3F583D33FFB
:101750005A16A529DB79EEBFB71404FACEB3D33FEE
:1017600044976ADB2772EEBF71C26EE99BE3D33FF9
:10177000A7535DC5616AEEBF026617945C13D43F40
:1017800012E148EC8862EEBFF03689DC1043D43FAA
:10179000D36704559D5AEEBF541057A5B872D43F75
:1017A000FC9F72049F52EEBFF3821BD153A2D43F21
:1017B0005ECE81FF8D4AEEBF6AE77842E2D1D43F28
:1017C0007EC12B4B6A42EEBF477019DC6301D53FE7
:1017D00085CE75EC333AEEBF243CAF80D830D53F90
:1017E00025CE70E8EA31EEBFB467F4124060D53F11
:1017F0007A1939448F29EEBFDD1FAB759A8FD53F1B
:10180000E586F6042121EEBFB6B39D8BE7BED53F3A
:10181000D966DC2FA018EEBF93A69E3727EED53FE2
:10182000AC8029CA0C10EEBF03C2885C591DD63F9C
:10183000540F28D96607EEBFC6273FDD7D4CD63F43
:101840002BBE2D62AEFEEDBFCA63AD9C947BD63F2E
:101850009CA59B6AE3F5EDBF167EC77D9DAAD63F8A
:10186000DA47DEF705EDEDBFB50C8A6398D9D63FB0
:10187000818D6D0F16E4EDBF9E45FA308508D73F88
:101880003DC2CCB613DBEDBF921026C96337D73FFC
:101890005A918AF3FED1EDBFF618240F3466D73F74
:1018A000600241CBD7C8EDBFAEDF13E6F594D73F5A
:1018B0009A7595439EBFEDBFE7CC1D31A9C3D73FB5
:1018C0009BA0386252B6EDBFE34173D34DF2D73FD0
:1018D000B98AE62CF4ACEDBFC4AA4EB0E320D83FE1
:1018E000888966A983A3EDBF3F90F3AA6A4FD83FCA
:1018F000463D8BDD009AEDBF63A9AEA6E27DD83FE1
:10190000468D32CF6B90EDBF44EDD5864BACD83FC2
:1019100050A44584C486EDBFAFA4C82EA5DAD83F35
:10192000F9ECB8020B7DEDBFD17BEF81EF08D93F19
:10193000FF0D8C503F73EDBFD793BC632A37D93F5F
:101940008BE6C9736169EDBF8F94ABB75565D93F1D
:101950007F8A8872715FEDBFFEBD41617193D93F8F
:10196000B13EE9526F55EDBFF2F90D447DC1D93F4B
:101970002475181B5B4BEDBF8AEDA84379EFD93F67
:101980003AC94DD13441EDBFC00AB543651DDA3FB8
:10199000DCFBCB7BFC36EDBFE4A1DE27414BDA3F1D
:1019A0009FEFE020B22CEDBF1AF3DBD30C79DA3FC6
:1019B000E1A4E5C65522EDBFC93F6D2BC8A6DA3FAD
:1019C000DC353E74E717EDBF08DC5C1273D4DA3FF8
:1019D000B9D2592F670DEDBF09407F6C0D02DB3F77
:1019E00092BDB2FED402EDBF7219B31D972FDB3F3B
:1019F0007B46CEE830F8ECBFC05CE109105DDB3F10
:101A000073C73CF47AEDECBF9356FD14788ADB3F44
:101A100060A09927B3E2ECBF01BD0423CFB7DB3F41
:101A2000F6328B89D9D7ECBFD9C0FF1715E5DB3F5C
:101A30009FDEC220EECCECBFE71E01D84912DC3F8E
:101A40005CFCFCF3F0C1ECBF293126476D3FDC3F65
:101A500099DA000AE2B6ECBF0A0097497F6CDC3FD6
:101A600001B9A069C1ABECBF885386C37F99DC3F45
:101A700049C4B9198FA0ECBF5DC431996EC6DC3F73
:101A8000F51134214B95ECBF21CDE1AE4BF3DC3F9A
:101A9000139C0287F589ECBF5BDBE9E81620DD3F8C
:101AA000F33C23528E7EECBF9C60A82BD04CDD3FD4
:101AB000D7AA9E891573ECBF89E3865B7779DD3FF2
:101AC0009B7388348B67ECBFD810FA5C0CA6DD3FA3
:101AD0005AF8FE59EF5BECBF58CC81148FD2DD3F32
:101AE00007692B014250ECBFDE41A966FFFEDD3FD6
:101AF00004C041318344ECBF3BF606385D2BDE3F2A
:101B0000B1BD80F1B238ECBF24D83C6DA857DE3FA0
:101B1000F1E33149D12CECBF1351F8EAE083DE3F09
:101B2000B071A93FDE20ECBF2056F29506B0DE3F33
:101B3000585E46DCD914ECBFD578EF5219DCDE3F95
:101B400049557226C408ECBFFDF7BF061908DF3FF0
:101B500047B1A1259DFCEBBF68D03F960534DF3F20
:101B6000DD7753E164F0EBBFA3CD56E6DE5FDF3FE8
:101B7000C15411611BE4EBBFBA9AF8DBA48BDF3FC1
:101B80002A956FACC0D7EBBFDED2245C57B7DF3FDE
:101B900027230DCB54CBEBBF0F12E74BF6E2DF3F11
:101BA000EA8093C4D7BEEBBFE0822BC84007E03F7A
:101BB0000DC4B6A049B2EBBFB73E4C87FC1CE03F5A
:101BC000D2903567AAA5EBBF95BDED55AE32E03F8B
:101BD0005E15D91FFA98EBBF1A22AE265648E03F91
:101BE000E90475D2388CEBBFB6B831ECF35DE03F59
:101BF000EA92E786667FEBBFEDFF22998773E03FAD
